:020000040800F2
:1000000080110020010100084D340008452C000833
:100010009933000869090008054200080000000043
:10002000000000000000000000000000853700080C
:100030009D09000800000000B5360008E1370008FF
:100040001B0100081B0100081B0100081B01000820
:100050001B0100081B0100081B0100081B01000810
:100060001B0100081B0100081B0100081B01000800
:100070001B0100081B0100081B0100081B010008F0
:100080001B0100081B0100081B0100081B010008E0
:100090001B0100081B0100081B0100081B010008D0
:1000A0001B0100081B0100081B0100081B010008C0
:1000B0001B01000845380008513800081B010008E2
:1000C0001B0100081B0100081B0100081B010008A0
:1000D0001B010008ED410008F94100081B01000860
:1000E0001B0100081B0100081B010008DFF80CD0F1
:1000F00000F028FC00480047294400088011002037
:100100000648804706480047FEE7FEE7FEE7FEE7B1
:10011000FEE7FEE7FEE7FEE7FEE7FEE743380008FE
:10012000ED000008202A04DB203A21FA02F0002129
:10013000704721FA02F3D040C2F1200291400843F7
:100140001946704740EA01039B0703D009E008C93C
:10015000121F08C0042AFAD203E011F8013B00F88C
:10016000013B521EF9D27047D2B201E000F8012BD8
:10017000491EFBD270470022F6E710B513460A4627
:1001800004461946FFF7F0FF204610BDF0B480EAA0
:100190000102D40F4200B2EB410F02D202460846E0
:1001A00011464A0042D0C30DDDB2C1F3C752AD1AA9
:1001B000202D35DAC1F3160141F4000204B1524298
:1001C000C5F1200602FA06F12A411044B3EBD05FD4
:1001D00023D0C4B1012DA0EBC35009DCF0BC4FF01B
:1001E000004202EAC352DBB200F5000000F01EBB81
:1001F000400000F1807000EBC350A0F1807040EA35
:10020000D170490009E0490841EAC071A0EBC35030
:1002100000F50000400800EBC350F0BC00F0FDBA50
:100220006142012202EB4101001BF6E7F0BC70477E
:1002300081F00041AAE780F00040A7E780EA0102D0
:1002400010B502F00043400022D04A001FD0010E3A
:1002500001EB1261C0F35600C2F3560240F40000F5
:1002600042F40002A0FB022000047F39140400D0F5
:10027000401C50EA124001D44000491EC2B20C0694
:1002800004EBD010401C4008802A02D003E000207C
:1002900010BD20F00100002900DA0020184310BD35
:1002A00030B480EA010202F0004530F0004221F053
:1002B000004013D090B1C30DD40DC2F31601C0F3AA
:1002C0001600E41A41F4000140F400027D3491422A
:1002D00001D3641C00E04900002C02DA30BC00208D
:1002E00070474FF400000023914201D3891A034361
:1002F00040084FEA4101F7D151B1914202D14FF08C
:10030000004105E002D24FF0010101E06FF0010170
:1003100003EBC450284430BC00F07FBA420005D043
:10032000C0F3C7525242914201DC0020704700EBFB
:10033000C15070472DE9FE4F804681EA0300C00F8F
:100340000C46009021F0004123F00045B8EB02007C
:10035000A94105D24046214690461C460B4602461E
:1003600023F00040104347D0270DC7F30A00C3F322
:100370000A510290401A019040286BDAC3F313002F
:1003800040F4801B0098924620B10023D2EB030A70
:1003900063EB0B0B01985946C0F14002504600F048
:1003A0001BFA06460D4650465946019A00F023FABC
:1003B00010EB08006141002487EA115284EAE773D8
:1003C0001A4340D0009A62B3019A012A4FEA0752B9
:1003D00015DC001B61EB02014FF0004202EA0752FC
:1003E000CDE90042001C41F5801132462B4600F059
:1003F0005AFA03B0BDE8F08F40462146F9E7001BEA
:1004000061EB0201001C41F5801300185B412018CC
:10041000A2F5001747EB030140EAD570B6196D410C
:1004200011E06D084FEA360645EAC0754FEA0752FB
:10043000001B61EB0201001C41F5801149084FEAE5
:1004400030000019514132462B4603B0BDE8F04F51
:1004500000F01ABA0098012240000023D0EB0202FB
:1004600063EBE073009821464FEAE074B8EB0000BC
:1004700061EB0401E9E783F000435BE781F00041B1
:1004800058E72DE9FE4F81EA030404F0004421F00F
:10049000004100944FF0000B23F0004350EA0104A8
:1004A0005ED052EA03045BD0C3F30A54C1F30A5589
:1004B0002C44A4F2F3340194A0FB0254C1F31301C1
:1004C00041F48011C3F3130343F4801301FB02448E
:1004D00000FB034E840A970A44EA815447EA835793
:1004E000A4FB076802958D0A05FB07854FEA932C4C
:1004F00004FB0C542705029D4FEA065847EA1637BD
:10050000B5EB08056EEB070C870E920E47EA8117D4
:1005100042EA8312A7FB0201B6EB0B0164EB000475
:100520002B0D43EA0C335E1844EB1C50DA4651465F
:10053000E7FB0201C5F313044FEA0B3343EA1453FC
:100540004FEA0432019C43EA0603A4F10C0402942E
:10055000009CCDE900B400F0A6F903B0BDE8F08F2F
:1005600000200146F9E72DE9F04D81EA030404F08B
:10057000004B21F0004514464FF0000A23F00041E3
:1005800050EA050220D054EA01021DD0C5F30A57F3
:100590000246C5F31303C1F31300C1F30A5640F436
:1005A000801543F48013A7EB0608101BD64608F20B
:1005B000FD3873EB050002D308F1010801E0921841
:1005C0005B41B8F1000F03DA00200146BDE8F08D71
:1005D00000204FF48011064684460EE0171B73EB93
:1005E000050705D3121B63EB050306434CEA010C18
:1005F00049084FEA300092185B4150EA0107EDD1FB
:1006000052EA030012D082EA040083EA050108439B
:1006100005D0101BAB4106D20122002306E00022C8
:100620004FF0004302E06FF0010253101AEB060096
:100630004CEB085110EB0A0041EB0B01BDE8F04D0B
:1006400000F022B970B521F0004303430CD0C1F390
:100650000A550024D5EB040564EB0403D617AD1A44
:10066000B34102DB0020014670BD201841EB02516E
:1006700070BDC10F80EAE0700844CA0796230021CC
:1006800000F0D4B896230022114600F0CFB80EB582
:10069000C10F80EAE0700844CA07002140F23343EA
:1006A0008DE80E000A460B4600F0FDF803B000BDD1
:1006B0000EB540F2334102910021CDE900110A4606
:1006C0000B4600F0F0F803B000BD00F0004220F04F
:1006D0000040C10DC0F3160040F400007F2901DA8C
:1006E00000207047962903DCC1F19601C84001E063
:1006F00096398840002AF4D04042704720F00040EC
:10070000C10DC0F3160040F400007F2901DA00207B
:100710007047962903DCC1F19601C84070479639AD
:100720008840704700F0004230F000400AD0C10D10
:1007300001F56071C0F3160042EA0151C20840079A
:100740001143704700200146704701F0004330B468
:1007500021F0004150EA010206D00A0DA2F56072B4
:10076000C1F31301002A02DC30BC00207047440FA3
:1007700044EAC104C100E01830BC00EBC25000F0F4
:100780004CB80000002801DBC0F10040002901DB6B
:10079000C1F1004181427047002801DBC0F10040F7
:1007A000002901DBC1F100418842704730B50B469A
:1007B000014600202022012409E021FA02F59D4291
:1007C00005D303FA02F5491B04FA02F52844151E65
:1007D000A2F10102F1DC30BD202A04DB203A00FA4C
:1007E00002F1002070479140C2F1200320FA03F388
:1007F000194390407047202A06DBCB17203A41FA74
:1008000002F043EAE07306E041FA02F3D040C2F19D
:10081000200291400843194670470029A8BF70473D
:10082000401C490008BF20F00100704710B4B0FA26
:1008300080FC00FA0CF050EA010404BF10BC7047C1
:1008400049B1CCF1200421FA04F411FA0CF118BFDB
:10085000012121430843A3EB0C01CB1D4FEA0061AA
:100860004FEA102042BF002010BC704700EBC3507D
:1008700010440029A4BF10BC7047401C490008BFA9
:1008800020F0010010BC704710B5141E73F1000475
:1008900008DA401C41F1000192185B411A4301D172
:1008A00020F0010010BD2DE9F04D92469B4611B19C
:1008B000B1FA81F202E0B0FA80F220329046FFF7FE
:1008C0008BFF04460F4640EA0A0041EA0B015346FB
:1008D0005A46084313D0114653EA010019D0C8F113
:1008E00040025046FFF71EFC05460E46504659464C
:1008F0004246FFF771FF084305D0012004E020467F
:100900003946BDE8F08D0020054346EAE0762C43E9
:1009100037430A986305E40AA0EB08000022FD0AA9
:1009200044EA47540A3002D500200146E9E70105B0
:1009300010196941DDE9084500196941BDE8F04D2C
:10094000A2E70000064C074D06E0E06840F0010316
:1009500094E8070098471034AC42F6D3FFF7CAFB7F
:100960009C480008BC480008FEE700000122022164
:10097000014800F09EB90000000C01400122114620
:10098000014800F096B90000000C014001228021CE
:10099000014800F08EB9000000080140704772B6AF
:1009A000FEE70000064890F90000411C03D0012832
:1009B00003D00020704701207047022070470000DC
:1009C0000400002010B590F821100022022905D063
:1009D0000421816380F82020012010BD01680B688C
:1009E00023F00E030B6001680B6823F001030B601A
:1009F00090F84030C46B012101FA03F3636080F882
:100A0000211080F82020104610BD000010B590F88D
:100A100021100024022903D00421816301243DE038
:100A200001680A6822F00E020A6001680A6822F072
:100A300001020A601A4A0168914201D1012121E0B4
:100A4000174A1432914201D110211BE0144A283276
:100A5000914201D1891515E0114A3C32914201D1F0
:100A600089140FE00E4A5032914202D14FF4803186
:100A700008E00B4A6432914202D14FF4801101E048
:100A80004FF08071064A083A5160012180F8211028
:100A9000002180F82010416B01B18847204610BD2D
:100AA0000800024070B5044600F008F90546601CD5
:100AB00002D004480078044400F000F9401BA04232
:100AC000FAD370BD2C0000202DE9F84FDFF8B89163
:100AD000002409F1040A0AF1040B23460F270BF145
:100AE000040EC9E00125A5402A40AA427DD1674EE7
:100AF000D1F804C0ACEB0608B44532D014DCBCF12C
:100B0000030F3AD009DCBCF1000F2AD0BCF1010F71
:100B10001CD0BCF1020F31D11DE0BCF1110F17D078
:100B2000BCF1120F2AD119E0B8F5881F19D006DCE4
:100B3000B8F5803F15D0B8F5801F1FD111E0B8F58A
:100B4000001F0ED0B8F5041F18D10AE0CB6815E0DD
:100B5000CB681B1D12E0CB6808330FE0CB680C3369
:100B60000CE08B682BB1012B4FF0080303D04561DB
:100B700004E0042302E0056100E00023FF2A01D81D
:100B8000064601E000F104064FEA840501D9A5F10B
:100B90002005D6F8008007FA05FC28EA0C0803FABD
:100BA00005F548EA0508C6F800804D68ED0062D5F5
:100BB000374DAE6946F00106AE61AD6924F003061B
:100BC00005F001050095334D06EB050CDCF80850E7
:100BD000A607360F07FA06F825EA0805DFF8B880F9
:100BE000404503D14FF0000817E044E0DFF8AC8047
:100BF000404502D14FF001080FE0DFF8A4804045E6
:100C000002D14FF0020808E0DFF89880404502D199
:100C10004FF0030801E04FF0040808FA06F848EA2C
:100C20000508CCF808804D68D9F80060ED034D4602
:100C300001D5164300E096432E604D68DAF8006057
:100C4000AD03554601D5164300E096432E604D682E
:100C5000DBF80060ED025D4601D5164300E09643E7
:100C60002E604D68DEF80060AD02754601D5164372
:100C700000E096432E60641C0D682A46E5407FF430
:100C800031AFBDE8F88F00000004014000001110F2
:100C9000001002400000014000080140000C01402B
:100CA00000100140001401408068084000D001207D
:100CB00070470AB1016170470904FBE70148806889
:100CC000704700002C00002070B5040025D094F877
:100CD0003D00002520B984F83C50204600F078FA09
:100CE000242084F83D002068016821F001010160A2
:100CF0002068016841F4004101602068016821F426
:100D00000041016000F0DEFB4D4A6168914201D86C
:100D10004C4900E04C49884201D2012070BD4B494A
:100D20002368B0FBF1F15E6826F03F060E435E607B
:100D30006368934206D94FF4967359434FF47A731C
:100D4000B1FBF3F12368491C1E6A26F03F063143CC
:100D500019626168914210D84900401EB0FBF1F25F
:100D6000521CC2F30B02042A01D2042022E0B0FB81
:100D7000F1F0401CC0F30B001CE0A268F2B301EBE1
:100D8000C10303EB0116431EB3FBF6F35B1C43F4F4
:100D900080431B0549D092B301EBC10202EB011164
:100DA000401EB0FBF1F0401CC0F30B0040F480404B
:100DB00040F400402168CA694CF6FF739A4310431F
:100DC000C861D4E9071001432068026822F0C0021C
:100DD00011430160D4E9030101432068826848F2AD
:100DE000FF339A4311438160D4E905010843216828
:100DF000CA6822F0FF021043C86001E00EE016E06E
:100E00002068016841F0010101602564202084F818
:100E10003D00256384F83E50002070BD01EB410683
:100E2000431EB3FBF6F35B1CB3E70120C2E701EB03
:100E30004101401EB0FBF1F0401CC0F30B00B7E7CE
:100E4000A086010080841E0000093D0040420F0082
:100E50002DE9FF4F83B00025DDE910799A469346CE
:100E60000446DDF848800095FFF728FF064694F811
:100E70003D0020287CD11923012285492046009677
:100E800001F0F0FF0028F5D194F83C0001286FD064
:100E9000012084F83C0020680168C90703D101687B
:100EA00041F0010101602068016821F400610160E6
:100EB000222084F83D00402084F83E0025646762CB
:100EC000A4F82A90608D20857248E062CDE9008602
:100ED00053465A462046049901F0CCFE00287DD1A5
:100EE000208DDFF8B491202768B1012814D00228A2
:100EF000206801681ED041F480610160206841696A
:100F000080690090B6E020684169816900910168BC
:100F100041F400710160ADE02068016821F4806156
:100F2000016072B62068416981690091016841F4ED
:100F300000710AE041F40061016072B62068416905
:100F400081690091016821F48061016062B691E0DD
:100F5000032868D801280CD0022843464FF000022D
:100F60004946204600960FD001F07CFFB0BB10E050
:100F70008BE032464146204601F0F3FF70BB20680B
:100F80000069616A08706CE001F06CFF30BB72B6FA
:100F900034E02068016821F48061016072B6206845
:100FA0000069616A0870606A401C6062208D401EA2
:100FB0002085608D401E6085384846F2A811006883
:100FC000B0FBF1F0C0EBC00000EB80000090401ED1
:100FD000009008D020684069C04300E029E0400745
:100FE0000CD50098F3E744F8305F6773A573206968
:100FF00040F02000206162B625731AE02068016885
:1010000041F40071016020680069616A0870606ADB
:10101000401C6062218D491E2185618D491E6185BC
:1010200062B621681BE032464146204601F099FF36
:1010300018B1012007B0BDE8F08F20680069616A2F
:101040000870606A401C6062218D491E2185618D97
:10105000491E618521684A69D24352070AD4096949
:101060000170606A401C6062208D401E2085608D8A
:10107000401E6085208D00287FF46AAF84F83D70A3
:1010800084F83E5084F83C50D4E70220D2E70000B8
:10109000020010000000FFFF0400010038000020E3
:1010A0002DE9FF4F83B09A46DDE911979346044638
:1010B000DDF84080FFF702FE054694F83D00202849
:1010C0007FD11923012240492046009501F0CAFE34
:1010D000002876D194F83C00012872D0012084F8D1
:1010E0003C0020680168C90703D1016841F0010193
:1010F00001602068016821F400610160212084F80A
:101100003D00402084F83E0000262664C4F8248078
:10111000A4F82A90608D20852C48E062CDE9007506
:1011200053465A462046049901F022FE70B930E039
:101130002A463946204601F047FF58B1206C042862
:1011400004D12068016841F400710160012007B0FA
:10115000BDE8F08F606A216800780861606A401C11
:101160006062218D491E89B22185628D521E628581
:1011700022685369DB435B070BD469B100781061C7
:10118000606A401C6062208D401E2085608D401E7C
:101190006085208D0028CBD12A463946204601F0B3
:1011A0003BFE0028CAD154F83D0B016841F40071A0
:1011B0000160202004F81E09E67766770020C6E764
:1011C000FFE70220C3E70000020010000000FFFF5D
:1011D00030B585B0002100910191029103911E4D1F
:1011E00003681E4C122103221D48AB4216D1A3698D
:1011F00043F00803A361A369039203F00803049377
:10120000C023CDE900316946FFF75EFCE06940F498
:101210000010E061E06900F4001019E0114DAB42EC
:1012200017D1A36943F00803A361A369039203F0F4
:10123000080304934FF44063CDE900316946FFF79A
:1012400043FCE06940F48000E061E06900F4800064
:10125000049005B030BD0000005400400010024072
:10126000000C014000580040024881680278114497
:10127000816070472C000020074810B5016841F0DC
:1012800010010160032000F075F8002000F006F85E
:1012900000F024F8002010BD0020024070B50D4D74
:1012A00004464FF47A712878B1FBF0F00A490968D6
:1012B000B1FBF0F000F0ECFA48B9102C07D2002294
:1012C0002146501E00F036F800206C6070BD0120F1
:1012D00070BD00002C000020380000200C4808B52C
:1012E000816941F001018161816901F00101009191
:1012F000C16941F08051C161C06900F08050009027
:101300000448416821F0E06141F00071416008BD8E
:101310000010024000000140002809DB00F01F021D
:10132000012191404009800000F1E020C0F8001147
:1013300070470000F0B40E4B1B680C46C3F3022349
:10134000C3F10705042D00D90425191D072901D271
:10135000002300E0DB1E012606FA05F1491E2140AC
:1013600099409E40761E16403143F0BC02F05CBFAF
:101370000CED00E0064900F0070208684FF6FF0395
:10138000184040EA0220034A1043086070470000FA
:101390000CED00E00000FA052DE9F0470F460500CE
:1013A00061D0434E306800F00700B84209D230687F
:1013B00020F0070038433060306800F00700B84282
:1013C00051D128683B4C810712D5400703D560688E
:1013D00040F4E06060602878000703D5606840F45E
:1013E000605060606068A96820F0F00008436060A9
:1013F0002878C00728D06868012810D02168022802
:1014000010D0890700292EDA616821F00301014319
:101410006160FFF753FC804641F288390DE0216896
:101420008903EFE78901EDE7FFF748FCA0EB08012E
:10143000494502D90320BDE8F0876068696800F07B
:101440000C00B0EB810FEFD1306800F00700B8421C
:101450000BD9306820F0070038433060306800F066
:101460000700B84201D00120E5E72878400705D5FC
:101470006068E96820F4E06008436060287800074D
:1014800006D56068296920F4605040EAC1006060B8
:1014900000F038F86168084AC1F30311515CC84094
:1014A0000649086006480068FFF7F8FE0020C2E71A
:1014B000002002400010024084480008380000204C
:1014C000300000200448054900684968044AC1F317
:1014D0000221515CC84070473800002000100240D3
:1014E000944800080448054900684968044AC1F363
:1014F000C221515CC84070473800002000100240F3
:101500009448000812A185B00FC98DE80F0014A0FF
:10151000144A006804905168134801F00C03042B2E
:1015200010D0082B0ED1C1F38343C9031DF803006B
:101530000AD5516804AAC1F34041515C0A4A50439C
:10154000B0FBF1F005B0704708494843FAE70000E6
:1015500002030405060708090A0B0C0D0E0F1010F4
:10156000010200000010024000127A0000093D0054
:101570002DE9F84F040070D02078C04DC00749D045
:101580006868C0F38100012807D06868C0F3810053
:10159000022809D16868C00306D52868800339D5B8
:1015A00060680028E7D035E06068B0F5803F0BD078
:1015B00010B1B0F5A02F11D0286820F48030286039
:1015C000286820F4802002E0286840F480302860F9
:1015D000606890B1FFF772FB06460AE0286840F4A5
:1015E00080202860F0E700BFFFF768FB801B6428BD
:1015F00073D828688003F7D50CE0FFF75FFB064639
:1016000005E000BFFFF75AFB801B6428F0D828686C
:101610008003F7D420789A4E80074FF001094FF0ED
:10162000000839D5686810F00C0F07D06868C0F35F
:101630008100022809D16868C00306D428688007A1
:1016400014D52069012808D110E02069B0B1C6F88E
:101650000090FFF733FB074605E00AE1FFF72EFB9A
:10166000C01B0228C4D828688007F7D5286861699C
:1016700020F0F80040EAC10028600DE0C6F80080C4
:10168000FFF71CFB074604E0FFF718FBC01B02280E
:1016900023D828688007F7D4207800072CD579480C
:1016A000A169D9B1C0F80090FFF708FB074604E034
:1016B000FFF704FBC01B02280FD8686A8007F7D524
:1016C00071484FF4FA510068B0FBF1F0009000BF90
:1016D0000098411E0091FAD20EE080E0C0F8008030
:1016E000FFF7ECFA074604E0FFF7E8FAC01B022810
:1016F00075D8686A8007F7D42078400760D5E86914
:101700000027C00008D4E86940F08050E861E8692B
:10171000012700F0805000905C480168C90513D48F
:101720000168834641F480710160FFF7C7FA824681
:1017300006E000BFFFF7C2FAA0EB0A0064284ED80B
:10174000DBF80000C005F5D5E06801280AD008B133
:10175000052813D0286A20F001002862286A20F0AA
:10176000040002E0286A40F001002862E06841F2CB
:10177000883B98B1FFF7A2FA82460BE0286A40F056
:1017800004002862EEE700BFFFF798FAA0EB0A0119
:1017900059455AD8286A8007F6D50CE0FFF78EFA2B
:1017A000824605E0FFF78AFAA0EB0A0159454CD8BA
:1017B000286A8007F6D41FB1E86920F08050E861FC
:1017C000E06988B36968C1F38101022944D0022825
:1017D000C6F8608004D0FFF771FA044638E034E0C0
:1017E000FFF76CFA074604E0FFF768FAC01B02280F
:1017F0002BD828688001F7D4206AB0F5803F05D146
:101800006868A16820F4003008436860D4E90801E2
:101810000843696821F4741108436860C6F8609051
:10182000FFF74CFA044606E025E000BFFFF746FA52
:10183000001B022809D828688001F7D51BE000BFEB
:10184000FFF73CFA001B022802D90320BDE8F88FFD
:1018500028688001F4D40EE00128F7D06868226A75
:1018600000F48031914204D1616A00F47010884222
:1018700001D00120EAE70020E8E700000010024064
:1018800000004242800442423800002000700040C4
:1018900010B5401EB0F1807F01D3012010BD4FF084
:1018A000E02460610F21601702F0BEFC0020A061FF
:1018B00007202061002010BD7047704770B590F878
:1018C0003C20012A26D0012480F83C40022280F8E6
:1018D0003D2003685A689D6822F070060A6832430A
:1018E0005A600D4B02689A4208D0B2F1804F05D081
:1018F0000A4B9A4202D00A4B9A4204D1496825F019
:1019000080031943916080F83D40002180F83C102D
:10191000084670BD022070BD002C0140000400404C
:101920000008004010B5040003D094F83D0010B149
:1019300007E0012010BD002084F83C00204600F0A4
:101940001FF8022084F83D00211D206801F086FF69
:10195000012084F8460084F83E0084F83F0084F8B3
:10196000400084F8410084F8420084F8430084F881
:10197000440084F8450084F83D00002010BD0000BC
:1019800008B501681948B1F1804F11D0184A914249
:1019900017D1C16941F00201C161C069002200F0A4
:1019A0000200009002211D20FFF7C4FC1D2019E059
:1019B000C16941F00101C161C06900F001000090FE
:1019C00008BD0C4A9142FBD1C16941F00401C161DB
:1019D000C069002200F00400009003211E20FFF7E0
:1019E000A9FC1E20BDE80840FFF796BC001002408D
:1019F000000400400008004090F83D10012901D08B
:101A000001207047022180F83D100168CA6842F049
:101A10000102CA6000680B49884208D0B0F1804FCB
:101A200005D00949884202D00849884204D181681A
:101A300001F00701062903D0016841F001010160AE
:101A400000207047002C01400004004000080040C6
:101A500070B5044690F83C00012817D0012584F8A1
:101A60003C50022084F83D002068826822F0770212
:101A700022F47F4282600868502830D00DDC202894
:101A80004DD005DC98B310283BD148E0022070BD52
:101A9000302844D0402834D139E0602828D070283C
:101AA00006D0B0F5805F2CD0B0F5005F29D10AE0F8
:101AB000CB68D1E90121206801F013FF206881681B
:101AC00041F0770109E0CB68D1E90121206801F0FC
:101AD00008FF2068816841F48041816011E0CA6894
:101AE0004968206801F0B2FF5021206807E016E045
:101AF000CA684968206801F0BAFF6021206801F0D7
:101B0000FAFE84F83D50002084F83C0070BDCA689D
:101B10004968206801F09AFF40212068EFE72268B9
:101B200001461046EBE7704770B50446006801694E
:101B30004FF00005C943890715D4C168C943890717
:101B400011D4E91E01610120207720688069800797
:101B5000204602D0FFF7E7FF04E000F0BBF8204684
:101B600000F04AF9257720680169C943490717D46D
:101B7000C168C943490713D46FF004010161022011
:101B800020772068806910F4407F204602D0FFF75C
:101B9000CAFF04E000F09EF8204600F02DF92577FA
:101BA00020680169C943090716D4C168C9430907F8
:101BB00012D46FF008010161042020772068C06909
:101BC0008007204602D0FFF7AEFF04E000F082F865
:101BD000204600F011F9257720680169C943C9063C
:101BE00017D4C168C943C90613D46FF0100101614D
:101BF000082020772068C06910F4407F204602D07A
:101C0000FFF791FF04E000F065F8204600F0F4F8DB
:101C1000257720680169C943C90708D1C168C9434C
:101C2000C90704D1891E0161204600F06DF92068C2
:101C30000169C943090609D4C168C943090605D425
:101C40006FF0800101612046FFF736FE20680169D0
:101C5000C943490609D4C168C943490605D46FF090
:101C600040010161204600F0A1F920680169C943E3
:101C700089060BD4C168C943890607D46FF02001D7
:101C800001612046BDE87040FFF717BE70BD00003F
:101C900000B585B000210091019102910391006887
:101CA000B0F1804F10D10948816941F00401816190
:101CB0008069694600F004000490022000900190C1
:101CC00003900348FEF700FF05B000BD001002407E
:101CD00000080140704770B5044690F83C000D467E
:101CE00001280AD0012084F83C0042B1042A18D00F
:101CF000082A2AD00C2A4DD139E0022070BD206874
:101D000001F002FE2068816941F0080181612068CC
:101D1000816921F004018161206881692A69114388
:101D200011E0206801F018FE2068816941F400612B
:101D300081612068816921F4806181612068816905
:101D40002A6941EA0221816124E0206801F030FE25
:101D50002068C16941F00801C1612068C16921F0B2
:101D60000401C1612068C1692A69114311E020683A
:101D700001F04AFE2068C16941F40061C161206838
:101D8000C16921F48061C1612068C1692A6941EAA1
:101D90000221C161002084F83C0070BD10B5040030
:101DA00003D094F83D0010B107E0012010BD0020E1
:101DB00084F83C00204600F01EF8022084F83D0024
:101DC000211D206801F04AFD012084F8460084F8B6
:101DD0003E0084F83F0084F8400084F8410084F815
:101DE000420084F8430084F8440084F8450084F8F5
:101DF0003D00002010BD70477047000010B504463C
:101E0000022249B104290ED0082913D094F84100C8
:101E1000012816D0012010BD94F83E000128F9D108
:101E200084F83E200FE094F83F000128F2D184F8B6
:101E30003F2008E094F840000128EBD184F84020CE
:101E400001E084F841200122206801F03DFD0F49A6
:101E50002068884203D1426C42F400424264206808
:101E6000884208D0B0F1804F05D00949884202D09D
:101E70000849884204D1816801F00701062903D08E
:101E8000016841F001010160002010BD002C0140FB
:101E9000000400400008004030B504460D460068CC
:101EA000002201F011FD174B41F2111120688A1038
:101EB000984209D1036A0B4206D1036A134203D147
:101EC000436C23F4004343642068036A0B4206D149
:101ED000016A114203D1016821F001010160012072
:101EE0003DB1042D08D0082D09D084F84100002010
:101EF00030BD84F83E00FAE784F83F00F7E784F845
:101F00004000F4E7002C01401F4910B5884214D16D
:101F10001E490878401C08701D490878401C08704C
:101F20001C490878401C08701B490878401C087040
:101F30001A490878401C087010BD1349483188427E
:101F4000FAD1174C2078B0B901F01EFCFEF72AFD3B
:101F50001449012802D002280DD106E0086A8078D1
:101F6000062808D002F0CCFB05E0086A8178062933
:101F7000F8D102F0E7FA40210B48FEF795FE002861
:101F8000DAD00020207010BD3C0A0020280000207C
:101F90002900002025000020260000202700002026
:101FA00004000020EC00002000080140704770474A
:101FB00070470000F8B5026804461068D16853699C
:101FC00010F00F0F4FF0000553D003F0010601F49D
:101FD000907737435FD0C20705D0CA0503D5226C7E
:101FE00042F001022264420705D5DA0703D0226CD1
:101FF00042F002022264820705D5DA0703D0226C80
:1020000042F004022264020707D501F020023243A5
:1020100003D0226C42F008022264226C002A34D0E1
:10202000800604D5880602D5204601F0D9FF206835
:102030004069216CC0F38010090700D430B32046FA
:1020400001F0B6FF2068416949061BD5416921F0BE
:1020500040014161A06BA8B158494163A06BFEF7F4
:10206000D5FC002811D0A06B416B01B0BDE8F04059
:10207000084783060FD58B060DD52046BDE8F840EE
:1020800001F0AEBF2046FFF793FFF8BD2046FFF7F3
:102090008FFF2564F8BD266B2023012E52D1C60682
:1020A00050D5CE064ED51068506800905069400655
:1020B0002AD5A16B086840680004000CEAD0A68D00
:1020C0008642E7D9E0858869202818D0D06820F4B6
:1020D0008070D0602068416921F001014161206871
:1020E000416921F04001416184F83E302563206858
:1020F000C16821F01001C160A06BFEF763FCA08DE8
:10210000E18D401A81B219E0A08DE18D401A81B2B3
:10211000E08D0028BED00029BCD0D06820F490709B
:10212000D0602068426922F00102426184F83E30AA
:1021300025632068C26822F01002C2602046FFF7C3
:1021400036FFF8BD05062BD50D0629D594F83D00C0
:102150002128F6D1A068B0F5805F01D12069B0B127
:10216000206A411C2162216800784860E08C401E92
:102170000004000CE084E4D12068C16821F08001F3
:10218000C1602068C16841F04001C160F8BD206AAB
:102190000088C0F308005060206A801C2062E5E7D8
:1021A0004006F3D54806F1D5D168204621F040011C
:1021B000D16084F83D3000F032F9F8BDA13F00084D
:1021C00070B5040004D094F83D00002510B106E07D
:1021D000012070BD84F83C50204600F023F82420F4
:1021E00084F83D002068C16821F40051C160204698
:1021F00001F052FF2068016921F4904101612068DB
:10220000416921F02A0141612068C16841F400510F
:10221000C1602564202084F83D0084F83E00002041
:1022200070BD000070B586B0002400940194029443
:1022300003942E4E03682E49022003222D4DB342F3
:1022400026D18B6943F480438B618B6903F480430F
:1022500004938B6943F004038B618969039201F055
:10226000040104910102CDE9001069462846FEF7F9
:102270002BFC2815CDE90004694628460294FEF798
:1022800023FC002201212520FFF754F8252028E017
:10229000194EB34227D1CB6943F40033CB61CB69EC
:1022A00003F4003304938B6943F004038B61896961
:1022B000039201F0040104910421CDE90010694664
:1022C0002846FEF701FC0820CDE9000469462846AF
:1022D0000294FEF7F9FB002211462620FFF72AF8A8
:1022E0002620FFF719F806B070BD00000038014045
:1022F00000100240000801400044004090F83E30C9
:10230000202B0ED159B152B190F83C30012B08D09E
:10231000012380F83C300023036301F019BF012042
:10232000704702207047000000680B49884212D1B4
:102330000A480C490A4B027808881A54401C80B29B
:102340000880B0F5006F01D1002008800122034908
:102350000548FFF7D3BF704700380140200900202F
:102360002001002018000020CC0A00202DE9F843AD
:10237000044690F83D001F4616460D4620284CD1D5
:10238000C5B1BEB194F83C00012846D0012084F8C4
:102390003C004FF00008C4F84080212084F83D0044
:1023A000FEF78CFCA6848146E684A068B0F5805FC9
:1023B00003D004E00120BDE8F883206928B12E464F
:1023C0005FF0000584F83C800EE00026FAE78021EB
:1023D000204601F0D8FEA0B9AEB116F8010B216875
:1023E0004860E08C401EE084E08C4B464FF00002D9
:1023F00000970028EBD14FF04001204601F0C3FECA
:1024000030B10320D7E735F8020BC0F30800E6E748
:10241000202084F83D000020CDE70220CBE7704764
:1024200010B504000CD0A06801F0D6FF0020A06019
:10243000204601F0D1FF03A001F0E6FE012010BD0F
:10244000002010BD5B09686561705D696E666F3A5A
:1024500064657374726F7920737563636573730D4C
:102460000A00000010B5024600F07AF820B106A07C
:1024700001F0CAFE002010BD9068D0E90220C1E939
:102480000020012010BD00005B09686561705D657A
:1024900072726F723A517565756520697320656D4A
:1024A0007074790D0A00000070B5061E01DC11A0E1
:1024B00014E00C2001F0FCFF05000ED0F4000834FD
:1024C000204601F0F5FFA86058B12146FDF753FE04
:1024D0000020C5E90060284670BD10A001F094FE00
:1024E00005E016A001F090FE284601F075FF0020DF
:1024F00070BD00005B09686561705D6572726F7226
:102500003A6D61785F73697A6520697320696C6CD4
:10251000656167656C210D0A000000005B09686554
:1025200061705D6572726F723A6D616C6C6F632081
:102530006661696C6564210D0A0000005B096865CD
:1025400061705D6572726F723A656C6573206D6162
:102550006C6C6F63206661696C6564210D0A000014
:10256000002802D0406808B1002070470120704761
:10257000002803D003C8814201D101207047002008
:1025800070470000F0B595B00A20FFF78DFF0446B4
:10259000482223496846FDF7D5FD00254FEA0D0680
:1025A00006EBC500224603C800F0FEF86D1C082D9E
:1025B000F6DB1CA001F028FE00250C2608270AE007
:1025C000A06806EBC501425807EBC50141581EA0A3
:1025D00001F01AFE6D1C6068A842F1DC014623A0E0
:1025E00001F012FE002566680EE012A92046FFF7F2
:1025F00039FF40B1DDE9121223A001F005FE12A956
:10260000204600F069F86D1CB542EEDB2AA0616837
:1026100001F0FAFD2046FFF703FF15B00020F0BDE2
:102620003C4800085B09686561705D696E666F3AD9
:102630007468652076616C7565206F662070712006
:102640006172653A200D0A005B09686561705D6919
:102650006E666F3A7072696F726974793A25642098
:10266000646174613A25643B0D0A00005B0968658A
:1026700061705D696E666F3A70712073697A65206A
:1026800069732025640D0A005B09686561705D69E6
:102690006E666F3A746865206D617820697320708A
:1026A00072696F726974793A256420646174613A61
:1026B00025640D0A000000005B09686561705D69B2
:1026C0006E666F3A6E65772073697A65206973204C
:1026D00025640D0A000000002DE9F04105460124A3
:1026E000FFF73EFF28B122A001F08EFD0020BDE8DB
:1026F000F081D5E9012000EBC202D2E90067D0E900
:102700000220C1E90020A868816821A001F07CFDB9
:102710006868401E686001D008231EE0A968002098
:102720008860A968C86021E0A968600003EBC00E5A
:1027300051F830C051F80EE0F44502DA824200D080
:10274000401C51F83020B2420BDD01EBC40401EB18
:10275000C0014968C4E9002104466A68B2EB440F2D
:10276000E2DAA86800EBC400C0E900670120BEE718
:102770005B09686561705D6572726F723A5175656B
:10278000756520697320656D707479210D0A0000EC
:102790005B09686561705D696E666F3A506F7020A5
:1027A00025640D0A000000002DE9F04105460E46A3
:1027B00014461046FFF7DCFE28B114A001F024FDFA
:1027C0000020BDE8F0813246294618A001F01CFD2A
:1027D0006068401C06E000BF01EBC0007968C0E9FA
:1027E0000031501000EBD072A168531001EBC30709
:1027F0003B68AB4201DA0128EEDC01EBC000C0E926
:1028000000566068401C60600120DAE75B0968657B
:1028100061705D6572726F723A5175657565206998
:10282000732046756C6C210D0A0000005B09686519
:1028300061705D696E666F3A707573682070726959
:102840006F726974793A256420646174613A256411
:102850000D0A000010B50A784B78120142EA1312F3
:102860000280130502D542F4704202804B788A78C8
:1028700003F00F0342EA03224280130502D542F41B
:1028800070424280CA780B79120342EA03124B79F4
:1028900042EA1312114B4260140301D51A434260FD
:1028A0004A798C791207120B42EA0422CC7922432E
:1028B0008260140301D51A4382600A8952BA828168
:1028C0004A8952BAC2818A8952BA0282CA8952BAE4
:1028D0004282098A49BA818210BD00000000F0FFDF
:1028E00008B500218DF800106A460D2100F03CF972
:1028F00018B99DF80000102801D0012008BD002063
:1029000008BD10B586B00C466B461222102100F0AF
:102910003BF910B1012006B010BD69462046FFF713
:1029200099FF0020F7E700002DE9FC410546012052
:102930000C468DF8040001AA0821284600F053F93E
:1029400048B91E20FEF7AEF86B4603220021284648
:1029500000F01AF910B10120BDE8FC819DF80000DB
:102960009DF80110000440EA01209DF80210084380
:10297000E061010202D540F07F40E061FDF779FEA1
:102980002849FDF78DFC8046A062B4F91200FDF7DE
:1029900070FE4146FDF752FC0546B4F90E00FDF706
:1029A00068FE2946FDF7F2FBE56A064641462846E1
:1029B000FDF744FC3146FDF741FC0746B4F90C0035
:1029C000FDF757FE2946FDF739FC0646B4F9140019
:1029D000FDF74FFE4146FDF731FC0546B4F9100006
:1029E000FDF747FE2946FDF7D1FB4146FDF726FCE2
:1029F0000546A068FDF73DFE2946FDF7C7FB4146A9
:102A0000FDF71CFC05466068FDF733FE2946FDF71F
:102A1000BDFB3146FDF7BAFB3946FDF7B7FB6062F7
:102A2000002099E7000078487CB5054602200C4656
:102A30008DF8040001AA0821284600F0D4F848B90E
:102A40000520FEF72FF803226B461146284600F0BA
:102A50009BF808B101207CBD9DF800009DF8011095
:102A6000000440EA01209DF802100843A061010221
:102A700002D540F07F40A061FDF7FBFD6FF0120131
:102A8000FDF74CFC0546E062B4F90200FDF7F1FDEC
:102A90002946FDF7D3FBFDF745FE06460D46B4F982
:102AA0000000FDF7F4FD4FF0FF32FDF7CBFD32469D
:102AB0002B46FDF73FFCFDF748FE206200207CBD61
:102AC000F8B514460D460646FFF70AFF00283AD12E
:102AD0000520FDF7E7FF00208DF800000520FDF739
:102AE000E1FF29463046FFF70CFF0520FDF7DAFF2E
:102AF00004222946304600F027F80520FDF7D2FFD2
:102B00006A462821304600F02FF89DF8000010F0AA
:102B100080038DF8003002D0802B02D006E0002226
:102B200000E080222946304600F04DF80520FDF7F0
:102B3000B9FF04222946304600F035F80520FDF79C
:102B4000B1FF85F83340F8BD38B514460D468DF811
:102B500000206A46062100F046F808B1012038BD81
:102B600085F83040002038BD3EB54FF47A730092AE
:102B70000124CDE901430A462346EF21FEF768F917
:102B8000002800D001203EBD3EB54FF47A74CDE957
:102B900000320A4602940123EF21FEF759F900287A
:102BA00000D001203EBD38B514460D468DF80020FA
:102BB0006A46092100F017F808B1012038BD85F8F0
:102BC0003240002038BD38B514460D468DF800203F
:102BD0006A46072100F007F808B1012038BD85F8E2
:102BE0003140002038BD3EB54FF47A730092012485
:102BF000CDE901430A462346EE21FEF751FA0028AB
:102C000000D001203EBD000010B5044690F833000E
:102C100001280BD0022810D121460848FFF704FFF5
:102C200006482146BDE81040FFF77EBE2146044815
:102C3000FFF7FAFE21460248F4E710BD9409002090
:102C400040090020FEE701684A69D24352050FD4CB
:102C50006FF480624A61002140F8301F20224273E5
:102C60008173026942F0040202610173012070471E
:102C7000002070472DE9F84F0446006889460B9DF7
:102C800001689846174641F4806101602068016838
:102C900041F48071016000954FF0011B00225946FC
:102CA00020460A9B00F0DEF84FF4007A40B120681D
:102CB0000068C00501D5C4F840A00320BDE8F88F26
:102CC000216809F0FE0008612B46284920460A9A2F
:102CD00000F0FCF8F0BB20684169806900902A464A
:102CE00020460A9900F070F940B1206C04283AD1CE
:102CF0002068016841F40071016034E0FEB2B8F16F
:102D0000010F09D02168380A08612A4620460A992D
:102D100000F05AF90028E8D1206806612A462046CA
:102D20000A9900F051F90028DFD12068016841F4C8
:102D30008071016000950022594620460A9B00F0F0
:102D400091F80028B3D1216809F0FF0040F001009C
:102D5000086100E007E02B46044920460A9A00F08B
:102D6000B5F80028AAD00120A8E700000200010061
:102D70002DE9F843044600680D46DDE9089701682F
:102D80009846164641F4807101604B4600224FF090
:102D900001112046009700F065F848B120680068EE
:102DA000C00502D54FF4007020640320BDE8F8830D
:102DB000216805F0FE0008613B464A461549204659
:102DC00000F084F888B920684169806900903A462B
:102DD0004946204600F0F8F848B1206C042804D198
:102DE0002068016841F4007101600120DEE7F5B25E
:102DF000B8F1010F09D02168300A08613A46494606
:102E0000204600F0E1F80028E7D1206805610020A5
:102E1000CCE700000200010070B516460D460446DE
:102E20000DE02046FFF70FFF08B1012070BD681CC0
:102E300005D0FDF743FF801BA84207D835B12068B5
:102E40004069C0434007ECD4002070BD002044F826
:102E5000300F20216173A073216941F020012161AD
:102E60002073E2E72DE9F0471E4690460D460446E2
:102E7000C1F30747DDF8209008E0701C06D0FDF78D
:102E80001DFFA0EB0900B0420FD876B12068012FDA
:102E900018D0806925EA00000004000C14D000213D
:102EA0004145EAD00020BDE8F087002044F8300F0B
:102EB00020216173A073216941F0200121612073F9
:102EC0000120F0E74069E5E70121E9E72DE9F04756
:102ED0009A4691460E46044600254FF02008C1F35D
:102EE000074725E020684069C043400514D42068A6
:102EF000016841F40071016021686FF480604861ED
:102F0000256384F83D8084F83E50206C40F0040036
:102F1000206484F83C501FE0B9F1FF3F08D0FDF772
:102F2000CDFEA0EB0A0149450CD8B9F1000F09D03C
:102F30002068012F13D0806926EA00000004000CED
:102F40000BD0CFE744F8305F84F80D80A57320697B
:102F500040F02000206125730120BDE8F087406922
:102F6000EAE72DE9F041002590460E460446202769
:102F700017E04069C043C0060CD454F8301B6FF012
:102F80001000486144F810596777A577206A2062DD
:102F9000257717E0FDF792FEA0EB0800B04208D8B5
:102FA0003EB120684169C9434906E2D40020BDE82A
:102FB000F08144F8305F6773A573206940F020000A
:102FC000206125730120F2E770B516460D460446D0
:102FD0000DE02046FFF737FE08B1012070BD681CE8
:102FE00005D0FDF76BFE801BA84207D835B12068DD
:102FF0004069C0430006ECD4002070BD002044F8B6
:10300000300F20216173A073216941F020012161FB
:103010002073E2E72DE9F041174C0025207840B3FA
:10302000164E1749F068406AFDF73AF9154A61787B
:1030300042F82100491CC8B26070012810D0214616
:10304000114F124C0A280DD002EB800008380E46B2
:1030500003C8FDF7EDF8B84201D8A04200DD757055
:10306000BDE8F0814D70716A506ABDE8F041FDF72E
:10307000DFB86570F4E700002A000020EC000020B3
:103080000000C842540B0020000020C10000204175
:103090002DE9F04385B0002525480095019502955E
:1030A0000395816941F020018161816901F020016E
:1030B0000491816941F004018161816901F0040199
:1030C0000491816941F0080181618069DFF86480C1
:1030D00000F0080004900122B0214046FDF7E9FD10
:1030E000DFF8549040F20317012239464846FDF7B5
:1030F000E0FD0124B020CDE900040226CDE902461E
:1031000069464046FDF7E0FC4020CDE900056946F0
:1031100040460295FDF7D8FCCDE90074CDE90246A2
:1031200069464846FDF7D0FC05B0BDE8F0830000D5
:103130000010024000080140000C01400D4810B58D
:103140000B4901600C49416000214FF480428160CD
:10315000C0E9031241618161C1610162FDF7B4FD03
:10316000002803D0BDE81040FDF719BC10BD0000D9
:103170000054004040090020A08601000D4810B511
:103180000B4901600C49416000214FF4804281608D
:10319000C0E9031241618161C1610162FDF794FDE3
:1031A000002803D0BDE81040FDF7F9BB10BD0000BA
:1031B0000058004094090020A086010010B58EB090
:1031C00000240794089409940A940B941C216846DF
:1031D0000C94FCF7D0FF1E484FF08041016007219E
:1031E000C0E9011440F28F11C0E903148461FEF7B5
:1031F00099FB08B1FDF7D3FB4FF48050079007A966
:103200001348FEF725FC08B1FDF7C9FB1048FEF78F
:10321000C5FD08B1FDF7C3FB0B940BA90C480C943A
:10322000FEF74CFB08B1FDF7BAFB6020CDE90004C6
:1032300002940422694606480494FEF74CFD08B146
:10324000FDF7ADFB0248FEF723FD0EB010BD0000F8
:10325000F409002010B586B00024184800940194A9
:1032600002940394049414490594016041F61F41AB
:10327000C0E9011440F2CF71C0E9031480218161DB
:10328000FEF750FB08B1FDF78AFB4FF48050009029
:1032900069460A48FEF7DCFB08B1FDF780FB0494A1
:1032A00004A906480594FEF709FB002801D0FDF7A4
:1032B00076FB06B010BD0000000400403C0A002070
:1032C00010B586B00024174800940194029403942A
:1032D000049413490594016041F61F41C0E90114AB
:1032E0006321C0E903148461FEF71CFB08B1FDF7FC
:1032F00056FB4FF48050009069460A48FEF7A8FB41
:1033000008B1FDF74CFB049404A906480594FEF7A8
:10331000D5FA002801D0FDF742FB06B010BD000031
:1033200000080040840A00200C4810B50A490160DA
:103330004FF4E1314160002181600C22C160C0E99D
:1033400004128161C161FEF73BFF002803D0BDE894
:103350001040FDF724BB10BD00380140CC0A00200E
:103360000C4810B50A4901604FF4E1314160002179
:1033700081600C22C160C0E904128161C161FEF765
:103380001FFF002803D0BDE81040FDF708BB10BDAB
:1033900000440040100B0020FEE7000070B5284CF0
:1033A000206900F0B9F9606900F0B6F9254D0026F2
:1033B000A878052805D3AE70E06900F07BFB00F02B
:1033C0007BFC6878052802D36E70FFF723FE28780F
:1033D000022802D900F060FC2E70E878012806D996
:1033E000EE70A068FFF710FCE068FFF70DFC28798D
:1033F00001281BD92E71206A8078022816D1E06836
:10340000114E406A3146FCF74BFF0546A068314635
:10341000406AFCF745FF616AFCF70AFF01462A464D
:10342000606800F04DF86068C069A062206A80782A
:10343000042801D1E06AA062BDE8704001F0DEB965
:10344000EC000020250000200000C842FEE700003C
:10345000002202210148FDF72CBC0000000C0140B5
:10346000002201210148FDF724BC0000000C0140AE
:10347000002280210148FDF71CBC0000000801402B
:103480000021016041608160C160C1610162074942
:103490000161074941610749816107494162074963
:1034A00081624FF07F51C162704700001F852B3F42
:1034B0009A99193E9A99993E0000C8420000C8C2E4
:1034C0002DE9F04104464FF00008C4E9001210460F
:1034D000FCF7AEFEA060E16AFDF754F908D2E06A9D
:1034E000A16880F00040FDF74DF901D2C4F80880D2
:1034F000616A2068FCF74AFE6168FDF743F907D36B
:10350000A16A2068FCF742FE6168FDF745F901D227
:10351000002605E00126A168206AFCF737FE20623C
:10352000D4E902512846FCF783FEA169FCF786FE28
:1035300007463046FDF79DF86169FCF77FFE216A7A
:10354000FCF77CFE064629462069FCF777FE3146EB
:10355000FCF71CFE3946FCF719FEE06110F1FF4F45
:1035600002D3C4F81C8003E00349884200DDE16116
:10357000E560BDE8F08100000000C8432DE9F04798
:10358000264FDFF89C800C0006464FF4C87A4FF0B7
:10359000000901D5002402E0544500DD54462148CD
:1035A000006884632046FDF772F800221E4BFCF78A
:1035B00068FF00221D4BFCF7D6FFFDF7C6F8054655
:1035C0003168FDF7DFF805D0356044B101213E20B8
:1035D00000F0D2FC54450BD1012038700AE0D8F835
:1035E00020008078062816D000213E2000F0C4FC80
:1035F00087F80090D8F820008078062809D10C4C74
:103600002078012805D102213E2000F0B5FC84F885
:103610000090BDE8F0870221E7E700002A000020C3
:10362000EC000020F409002000005940000079401F
:103630001000002010B5044604210348FEF72CFCBE
:103640000020207110BD0000F40900202DE9F04198
:10365000054600F023F800212846FFF78FFF0D48AC
:103660000668B06A401CFDF723F80746F06A0C466E
:10367000401CFDF71DF802460B4600200649FCF7EA
:1036800072FF3A462346FCF76EFFFDF75EF8A8602E
:10369000BDE8F081F4090020882A914110B5044664
:1036A00004210348FEF7AAFB0120207110BD000091
:1036B000F40900207047000010B504464078084B1C
:1036C000012802D0022803D007E00122102101E0E6
:1036D000012220211846FDF7ECFA0020207010BDD1
:1036E000000801404170FFF7E7BF000010B5044635
:1036F0004078084B012802D0022803D007E00022BE
:10370000102101E0002220211846FDF7D2FA012005
:10371000207010BD000801400178012903D0002964
:1037200003D1FFF7C9BFFFF7E1BF704710B50446EB
:10373000C1F38000C1F340022070627001F001010A
:10374000A17038B108B1FFF793FE607828B1012865
:1037500006D007E0FDF71AF9F7E7FDF70FF901E0EA
:10376000FFF77EFEA07828B1012807D1BDE8104000
:10377000FFF76EBEBDE81040FDF7F8B810BD0021A0
:10378000FFF7D4BF7047000070B5134C4FF0010530
:103790006068401C6060A178607801430F484FF07A
:1037A000400103D0FDF780FA70B10BE0FDF77CFA21
:1037B00010B1FF20207005E0D4E90101401A3C2837
:1037C00001D92570657070BD6078A07000206070B0
:1037D0006068A06070BD0000040000200008014087
:1037E000FDF742BD30B58FB028216846FCF7C3FC19
:1037F00014210AA8FCF7BFFC01210804CDE9001040
:103800000024029402250491CDE907504FF4E01002
:1038100009906846FDF7ACFE08B172B6FEE70F20CE
:10382000CDE90A054FF48060CDE90C4002210AA8D9
:103830000E94FDF7B1FD002801D072B6FEE70FB07F
:1038400030BD70470148FEF76FB900003C0A002008
:103850000148FEF769B90000840A0020F0B502684B
:10386000164B174C174D4FF08047984205D0B84281
:1038700003D0A04201D0A84203D122F070064A68CA
:103880003243984205D0B84203D0A04201D0A842AA
:1038900003D122F44074CA6822434C6922F08002AA
:1038A000224302608A68C2620A688262984201D139
:1038B0000969016301214161F0BD0000002C014054
:1038C000000400400008004010B501F01F03012172
:1038D000046A99408C430462016A9A401143016270
:1038E00010BD10B5846842EA032224F47F440A43E1
:1038F0002243826010BD826822F070020A4342F0C7
:10390000070181607047000030B5026A22F00102B1
:103910000262026A4368846924F073050C682C43D0
:1039200022F002058A682A430A4DA8420BD122F0F0
:103930000805CA6823F440732A434D6922F0040243
:103940001D438B692B434360846149684163026274
:1039500030BD0000002C014030B5026A22F0100298
:103960000262026A436884690D6824F4E64444EA0A
:1039700005248D6822F0200242EA05120B4DA84270
:103980000ED1CD6822F0800242EA05124D6923F47F
:10399000406343EA85038D6922F0400243EA8503D0
:1039A0004360846149688163026230BD002C01403C
:1039B00030B5026A22F480720262036A4268C46906
:1039C00023F4007324F073050C682C438D6843EADC
:1039D00005230C4DA8420ED1CD6823F4006343EAC1
:1039E00005234D6922F4405242EA05128D6923F401
:1039F000806342EA05124260C4614968C1630362A0
:103A000030BD0000002C014030B5026A22F4805223
:103A10000262046A4268C3690D6823F4E64343EA1C
:103A200005238D6824F4005444EA0534064DA84269
:103A300004D14D6922F4804242EA85124260C3619A
:103A400049680164046230BD002C014010B5036A6E
:103A5000046A24F001040462846924F0F00444EA56
:103A6000021423F00A020A438461026210BD10B5F9
:103A7000036A23F0100303628369046A23F470432A
:103A800043EA023224F0A00343EA01118261016299
:103A900010BD0021017041800171417101817047A9
:103AA000002101704180017141714A1EC280018173
:103AB000704700000178012924D14179491CC9B21D
:103AC00041713C290FD30179491CC9B201713C29CC
:103AD00009D3418842F20F72491C89B24180914258
:103AE00001D900214180B0F90610491C0BD0B0F972
:103AF00008100A4A002909DD126A9278042A01D1C5
:103B0000491E018170474FF0FF31FAE7FAD1106A80
:103B100080780428F6D100F02FBE0000EC000020D1
:103B20001CB506A10A23D1E90001CDE90001072255
:103B300069460448FEF71AFC1CBD0000A55A048023
:103B4000EE5AA500CC0A002070B5244C244DE06844
:103B50002946406AFCF7A4FBFCF7D0FD81B2802027
:103B600000F00AFAA0682946406AFCF799FBFCF7C6
:103B7000C5FD81B2842000F0FFF9E0682946006AA3
:103B8000FCF75CFBFCF7A1FD81B2882000F0F4F9A2
:103B9000A0682946006AFCF751FBFCF796FD81B24C
:103BA0008C2000F0E9F9E0680E49406AFCF778FBE8
:103BB0000D49FCF740FBFCF7A1FD81B2092000F0A4
:103BC000DBF9E0680949006AFCF7E0FAFCF796FDCA
:103BD000BDE8704081B20A2000F0CEB9EC000020B0
:103BE000000020410000C8420000964400007041DF
:103BF00070B5114C114EE0683146406AFCF750FB3D
:103C00000546A0683146406AFCF74AFB2946FCF7A6
:103C10000FFBFCF773FD85B23146606AFCF70EFBC3
:103C2000FCF76CFD81B20F2000F0A6F92946BDE833
:103C300070400E2000F0A0B9EC00002000002041F0
:103C40000448416900690978007841EA40013A2056
:103C500000F092B9EC00002010B50E4CE0694188EC
:103C60000B2000F089F9E06901790C2000F084F95B
:103C7000E06941790D2000F07FF9E069C1883720C3
:103C800000F07AF9E0690189BDE81040382000F0C1
:103C900073B90000EC00002010B5FFF755FFFFF7E7
:103CA000CFFFFFF7A5FFBDE81040FFF7D5BF130A10
:103CB000435408444270704770B586B0142235A151
:103CC0006846FCF73FFA384C384EE0683146406AA7
:103CD000FCF7E6FAFCF712FD82B205216846FFF711
:103CE000E6FFA0683146406AFCF7DAFAFCF706FD09
:103CF00082B207216846FFF7DAFFA0683146406AC2
:103D0000FCF7CEFA616AFCF793FAFCF7F7FC82B293
:103D100009216846FFF7CBFFE068254D006A294678
:103D2000FCF734FAFCF7EAFC82B20B216846FFF795
:103D3000BEFFA0682946006AFCF728FAFCF7DEFC03
:103D400082B20D216846FFF7B2FF606AFCF7D6FC2D
:103D500082B20F216846FFF7AAFFE0683146406A49
:103D6000FCF79EFA0546A0683146406AFCF798FACF
:103D70002946FCF75DFAFCF7C1FC82B211216846C6
:103D8000FFF795FF0A23132269460A48FEF7EEFA69
:103D900006B070BDA55A10847F000000000000002E
:103DA0000000000000000000EC0000200000C842FD
:103DB00000007041CC0A002070B53D4C256AA978FE
:103DC00006291ED083790022002B1AD0818849BA97
:103DD00039290DD00F2915D0372920D03A2926D0DE
:103DE000B1B3242942D022294DD0232951D05BE000
:103DF000B0F8070040BAFCF745FC0221FCF78EFA48
:103E0000E06270BDB0F8070040BAFCF751FC002238
:103E1000284BFCF7A8FBFCF798FC606270BDB0F87B
:103E20000700E16940BAC880E169088170BDB0F857
:103E3000070040BA00F00201012901D9012100E088
:103E40000021226900F0010011706169087070BDE5
:103E5000FFE7B0F8070040BA012803D0022803D0DA
:103E60000328F4D102210FE003210DE0B0F8070090
:103E700040BA012803D0022803D00328E7D1042147
:103E800002E0052100E001212846BDE8704000F075
:103E900091BBB0F8070040BA0128D8D1BDE8704006
:103EA00000F03CBB521CD2B29A42FBD3CFE70000D9
:103EB000EC00002000002440F0B52D49C1B0088876
:103EC0004B88834240D02B4D4FF400662A5CA52AD4
:103ED00006D0401C80B20880B04235D1002042E0BC
:103EE00002468342A3EB020201D802F5006297B2B8
:103EF000052F29D3821C92B2B24202D3A2F50062EE
:103F000092B2AC5CE41CA7421ED300224FEA0D071C
:103F100015F800C007F802C0401C521C80B292B2D3
:103F2000B04200D10020042A10D0F1D904F1030CD2
:103F3000624516D108809DF80300812801D08328AE
:103F400002D13846FFF738FF41B0F0BD9DF8004080
:103F5000A52C08D19DF801405A2C04D19DF80240AF
:103F6000D6E7FF2A01D90880EEE79842D0D1EBE7E7
:103F70001600002020010020074A8223D370030A84
:103F800013715071080A9071D1710A2308220249F5
:103F90000248FEF7EBB900001A000020CC0A00200E
:103FA00010B5406A0021C185C184FEF701F810BD3B
:103FB0000168CA6822F49072CA6001684A6922F0F6
:103FC00001024A61016B012904D10168CA6822F02B
:103FD0001002CA60202180F83E1000210163704762
:103FE00008B590F83E10222901D0022008BD826851
:103FF0004FF480539A4201D1016921B1816A9A42FA
:104000001BD04AB10AE00268816A5268C2F3080212
:104010000A80816A891C08E0026972B102685268EC
:1040200002F07F020A70816A491C8162C18D491EBB
:104030000904090CC18503D019E002685268F1E750
:104040000168CA6822F02002CA600168CA6822F4C6
:104050008072CA6001684A6922F001024A61202127
:1040600080F83E10016B012903D0FEF75DF90020B6
:1040700008BD002101630168CA6822F01002CA600D
:1040800001680A68D20602D50A6849680091818DE4
:10409000FDF78DFFEBE7000070B50446006801698D
:1040A000E26821F44051114301612169A06808438D
:1040B000616908432168CA6841F20C639A4302436C
:1040C000CA6020684169A26921F4407111434161CD
:1040D0001E492068884202D1FDF704FA01E0FDF78D
:1040E000F1F900EBC00101EB00126068642180006F
:1040F000B2FBF0F3B3FBF1F36FF018067343B2FBBE
:10410000F0F5B2FBF0F605EB8305322303EB051562
:10411000B5FBF1F5B6FBF1F605F0F00505EB06157C
:10412000B2FBF0F6B2FBF0F0B0FBF1F06FF018026A
:10413000504306EB800003EB0010B0FBF1F0216868
:1041400000F00F002844886070BD00000038014076
:1041500081628285C28500210164222280F83E208E
:1041600080F83C100168CA6842F48072CA60016835
:104170004A6942F001024A610068C16841F02001C9
:10418000C160002070472DE9F041984617460E4661
:104190000446069D1DE0681C1BD02DB1FCF78EFD6A
:1041A000A0EB0800A84214D92068C16821F4D0719E
:1041B000C1602068416921F001014161202084F83B
:1041C0003D0084F83E00002084F83C000320BDE858
:1041D000F0812068006836EA000004D00020B84270
:1041E000D9D00020F3E70120F9E700000148FDF7EE
:1041F000E1BE0000CC0A00200148FDF7DBBE000054
:10420000100B0020FEE700000FB4054B10B503A90A
:10421000044A029800F028F810BC5DF814FB000076
:10422000BD4300083C0000200907090E002804DBFC
:1042300000F1E02080F80014704700F00F0000F15A
:10424000E02080F8141D704702E008C8121F08C162
:10425000002AFAD170477047002001E001C1121F07
:10426000002AFBD1704700002DE9FF4F89B09B4623
:104270000446002506E025280BD05A460B999047A6
:10428000641C6D1C20780028F5D10DB02846BDE8CF
:10429000F08F0027B8460122474900E0074314F891
:1042A000013F203B02FA03F00842F7D120782E2884
:1042B00019D114F8010F47F004072A280ED06FF027
:1042C0002F022078A0F1300109290CD808EB8801D1
:1042D00002EB410100EB0108641CF2E70A98641C40
:1042E00050F8048B0A9020780028CED0642808D09B
:1042F000692806D075281ED05A460B9990476D1C28
:1043000058E00A994FF00A0901C90A91002802DA17
:1043100040422D2102E0390504D52B218DF82010D3
:10432000012103E0F90704D02021F7E78A4608AE0F
:104330000DE00021FAE70A994FF00A0901C90A9134
:10434000F7E74946FCF732FA303106F8011D00283C
:10435000F7D1ADEB060000F12009780701D44FF04A
:104360000108C84502DDA8EB090000E000208046F6
:10437000002706E008A85A46C05D0B9990476D1CBF
:104380007F1C5745F6DB04E030205A460B999047D6
:104390006D1CB8F10001A8F10108F5DC05E016F884
:1043A000010B5A460B9990476D1CB9F10001A9F118
:1043B0000109F4DC641C65E70928010038B50446EE
:1043C0008DF800000223012269460248FDF7CEFF66
:1043D000204638BD100B002010B5002821D0114B0D
:1043E0000022001F196803E0814203D80A46496889
:1043F0000029F9D152B11368841A9C4204D1006893
:1044000018441060104602E0506000E0186039B1B6
:1044100002680B1A934203D10B681A440260496880
:10442000416010BD40000020FCF726FFFFF7DAF9DD
:10443000FEF72EFEFEF782FEFEF776FFFEF79EFEEB
:10444000FEF78EFFFEF706FFFEF73AFFFEF7B6FE19
:104450004FF47A70FCF726FB00F0D8F80F48FDF710
:10446000CBFA0F48FDF7C8FA01220E490E48FDF7B6
:1044700045FFFFF755FB4FF4FA60FCF713FBFEF71F
:1044800081F80A4CFFF718FDFEF788FFA06AFCF7D9
:104490001CF901B22068FFF771F8F3E73C0A00202D
:1044A000840A002020090020CC0A0020EC00002013
:1044B000F0B50B30154D20F007010024144A0FE031
:1044C00003688B420BD38B4205D95E1A43184768A9
:1044D000C3E9006700E04368136002C004E0021D06
:1044E00010680028ECD12046002802D1286808B1C5
:1044F0000020F0BD064A07481060074A121A22F051
:104500000702C0E9002401202860D7E7440000200A
:1045100040000020840B0020800D0020012080F34B
:104520001388BFF34F8F05480168054A01F4E06125
:1045300011430160BFF34F8F00BFFDE70CED00E0BA
:104540000400FA051CB504464078A070207860701D
:1045500011480121006A00F02DF80120E0700021CF
:104560003E20FFF709FD0DA00A23D0E90010CDE998
:104570000010072269460B48FDF7F8FE0A230722C0
:1045800069460848FDF7F2FE0A23072269460548F6
:10459000FDF7ECFE1CBD0000EC000020A55A0480D5
:1045A00003000300CC0A00200021817041700170DB
:1045B000C1707047082908D282788A4205D04378B2
:1045C0000370427081700121C170704770B5064C54
:1045D0000025A5622068FFF761F80121A069FFF7B7
:1045E000A5F8E069057070BDEC00002010B5064C20
:1045F0002068FFF753F80221A069FFF797F8E169F7
:104600000120087010BD0000EC00002070B51E4CA9
:104610001C482062FFF7C8FF1C482060FFF716F80F
:104620001B486060FEF72CFF00251B4884F83050C3
:104630001849C4E9021001221848FEF741FA022283
:104640001748E168FEF73CFA17491648C4E9040127
:104650000121FFF747F802216069FFF743F813488B
:10466000E061FFF71DFA1248A061FFF788F8656264
:10467000A562E56284F8315084F83250BDE870409C
:1046800000F018B811000020EC000020E00000202D
:10469000B0000020480000207C00002040090020DD
:1046A000940900200000002002000020E8090020FA
:1046B0002200002010B5094C0020A0622068FEF7FF
:1046C000EDFF0121A069FFF731F8E069FFF7E1F99B
:1046D0006068BDE81040FEF7D3BE0000EC0000208B
:1046E00010B5064C0020A0622068FEF7D7FFA06935
:1046F000BDE810400021FFF719B80000EC000020D1
:104700001CB5184C0621206AFFF754FF216A0020CF
:10471000C870E1690870A0622068FEF78BFF042171
:10472000A069FFF703F8E069FFF7B3F90E4901202C
:104730000A2308700DA00722D0E90010CDE900106F
:1047400069460C48FDF712FE0A230722694609480C
:10475000FDF70CFE0A23072269460648FDF706FE10
:104760001CBD0000EC00002010000020A55A0480B1
:1047700003002000CC0A00201CB508A10A23D1E9BF
:104780000001CDE90001072269460648FDF7EEFD6C
:1047900005480121006AFFF70DFF1CBDA55A0480E2
:1047A00003001400CC0A0020EC00002010B5074CD8
:1047B0000020A062E16908702068FEF76FFFA06921
:1047C000BDE810400121FEF7B1BF0000EC00002061
:1047D00010B5094C2068FEF761FF0221A069FEF7C1
:1047E000A5FFE16901200870E0690189002901D174
:1047F000C188018110BD0000EC0000200E49086A4C
:10480000C278012A17D10022C270086A807808286D
:1048100011D2DFE800F0100406080A0C100EFFF7B2
:1048200049BFFFF7E3BEFFF7D1BEFFF7D1BFFFF7E8
:10483000BDBFFFF755BF7047EC000020050000002A
:10484000050000000200000004000000030000005A
:104850000600000001000000040000000400000049
:104860000400000009000000040000000700000030
:1048700003000000020000000A0000000800000021
:104880000600000000000000000000000102030418
:10489000060708090000000001020304BC480008E4
:1048A00000000020480000004842000804490008B9
:1048B00048000020381100005842000800000000A5
:1048C00000010100000000000000000000000000E6
:1048D000000000000000A55A058200000000000052
:1048E00000000000000000000100000010000000B7
:1048F000000000000024F4000000000000000000A0
:0449000000000000B3
:04000005080000ED02
:00000001FF
