:020000040800F2
:10000000F80600200101000897310008BD2A000809
:1000100095310008D10900080D3A000800000000E1
:10002000000000000000000000000000E1350008B2
:100030007D0A000800000000AD3400083D360008CD
:100040001B0100081B0100081B0100081B01000820
:100050001B0100081B0100081B0100081B01000810
:100060001B0100081B0100081B0100081B01000800
:100070001B0100081B0100081B0100081B010008F0
:100080001B0100081B0100081B0100081B010008E0
:100090001B0100081B0100081B0100081B010008D0
:1000A0001B0100081B0100081B0100081B010008C0
:1000B0001B010008A1360008AD3600081B0100082E
:1000C0001B0100081B0100081B0100081B010008A0
:1000D0001B0100081B0100081B0100081B01000890
:1000E0001B0100081B0100081B010008DFF80CD0F1
:1000F00000F05CFC0048004741430008F80600207F
:100100000648804706480047FEE7FEE7FEE7FEE7B1
:10011000FEE7FEE7FEE7FEE7FEE7FEE79F360008A4
:10012000ED000008202A04DB203A21FA02F0002129
:10013000704721FA02F3D040C2F1200291400843F7
:1001400019467047D2B201E000F8012B491EFBD2DC
:1001500070470022F6E710B513460A4604461946D2
:10016000FFF7F0FF204610BDF0B480EA0102D40F83
:100170004200B2EB410F02D20246084611464A0045
:1001800042D0C30DDDB2C1F3C752AD1A202D35DA0E
:10019000C1F3160141F4000204B15242C5F1200638
:1001A00002FA06F12A411044B3EBD05F23D0C4B168
:1001B000012DA0EBC35009DCF0BC4FF0004202EA75
:1001C000C352DBB200F5000000F035BB400000F187
:1001D000807000EBC350A0F1807040EAD1704900FC
:1001E00009E0490841EAC071A0EBC35000F50000E6
:1001F000400800EBC350F0BC00F014BB6142012288
:1002000002EB4101001BF6E7F0BC704781F00041B2
:10021000AAE780F00040A7E780EA010210B502F0EB
:100220000043400022D04A001FD0010E01EB1261B2
:10023000C0F35600C2F3560240F4000042F400023C
:10024000A0FB022000047F39140400D0401C50EAB7
:10025000124001D44000491EC2B20C0604EBD0107B
:10026000401C4008802A02D003E0002010BD20F08E
:100270000100002900DA0020184310BD30B480EAE4
:10028000010202F0004530F0004221F0004013D09E
:1002900090B1C30DD40DC2F31601C0F31600E41AD9
:1002A00041F4000140F400027D34914201D3641C0A
:1002B00000E04900002C02DA30BC002070474FF407
:1002C00000000023914201D3891A034340084FEAFA
:1002D0004101F7D151B1914202D14FF0004105E007
:1002E00002D24FF0010101E06FF0010103EBC450B5
:1002F000284430BC00F096BA420005D0C0F3C75283
:100300005242914201DC0020704700EBC15070471F
:100310002DE9FE4F804681EA0300C00F0C46009095
:1003200021F0004123F00045B8EB0200A94105D2BD
:100330004046214690461C460B46024623F00040AC
:10034000104347D0270DC7F30A00C3F30A510290A8
:10035000401A019040286BDAC3F3130040F4801B6D
:100360000098924620B10023D2EB030A63EB0B0BFB
:1003700001985946C0F14002504600F032FA064654
:100380000D4650465946019A00F03AFA10EB080023
:100390006141002487EA115284EAE7731A4340D08E
:1003A000009A62B3019A012A4FEA075215DC001B3A
:1003B00061EB02014FF0004202EA0752CDE9004230
:1003C000001C41F5801132462B4600F071FA03B053
:1003D000BDE8F08F40462146F9E7001B61EB0201C2
:1003E000001C41F5801300185B412018A2F500178E
:1003F00047EB030140EAD570B6196D4111E06D0875
:100400004FEA360645EAC0754FEA0752001B61EB1A
:100410000201001C41F5801149084FEA3000001923
:10042000514132462B4603B0BDE8F04F00F031BADF
:100430000098012240000023D0EB020263EBE0733E
:10044000009821464FEAE074B8EB000061EB04012C
:10045000E9E783F000435BE781F0004158E72DE9CD
:10046000FE4F81EA030404F0004421F000410094AF
:100470004FF0000B23F0004350EA01045ED052EA33
:1004800003045BD0C3F30A54C1F30A552C44A4F20D
:10049000F3340194A0FB0254C1F3130141F4801121
:1004A000C3F3130343F4801301FB024400FB034E28
:1004B000840A970A44EA815447EA8357A4FB0768F1
:1004C00002958D0A05FB07854FEA932C04FB0C541B
:1004D0002705029D4FEA065847EA1637B5EB08058F
:1004E0006EEB070C870E920E47EA811742EA8312E1
:1004F000A7FB0201B6EB0B0164EB00042B0D43EAF2
:100500000C335E1844EB1C50DA465146E7FB0201FF
:10051000C5F313044FEA0B3343EA14534FEA043292
:10052000019C43EA0603A4F10C040294009CCDE96B
:1005300000B400F0BDF903B0BDE8F08F0020014623
:10054000F9E72DE9F04D81EA030404F0004B21F0B6
:10055000004514464FF0000A23F0004150EA05021E
:1005600020D054EA01021DD0C5F30A570246C5F354
:100570001303C1F31300C1F30A5640F4801543F48A
:100580008013A7EB0608101BD64608F2FD3873EB64
:10059000050002D308F1010801E092185B41B8F1AF
:1005A000000F03DA00200146BDE8F08D00204FF473
:1005B0008011064684460EE0171B73EB050705D332
:1005C000121B63EB050306434CEA010C49084FEA92
:1005D000300092185B4150EA0107EDD152EA030066
:1005E00012D082EA040083EA0501084305D0101BFB
:1005F000AB4106D20122002306E000224FF0004367
:1006000002E06FF0010253101AEB06004CEB0851A8
:1006100010EB0A0041EB0B01BDE8F04D00F039B9D9
:1006200070B521F0004303430CD0C1F30A550024F8
:10063000D5EB040564EB0403D617AD1AB34102DB16
:100640000020014670BD201841EB025170BDC10F62
:1006500080EAE0700844CA079623002100F0EBB856
:100660000EB5C10F80EAE0700844CA07002140F2CD
:1006700033438DE80E000A460B4600F019F903B02B
:1006800000BD0EB540F2334102910021CDE90011C9
:100690000A460B4600F00CF903B000BD00F0004222
:1006A00020F00040C10DC0F3160040F400007F2987
:1006B00001DA00207047962903DCC1F19601C84099
:1006C00001E096398840002AF4D04042704700F09B
:1006D000004230F000400AD0C10D01F56071C0F356
:1006E000160042EA0151C20840071143704700203A
:1006F0000146704701F0004330B421F0004150EA58
:10070000010206D00A0DA2F56072C1F31301002A9E
:1007100002DC30BC00207047440F44EAC104C10031
:10072000E01830BC00EBC25000F07CB8002801DBC0
:10073000C0F10040002901DBC1F100418142704756
:10074000002801DBC0F10040002901DBC1F10041BC
:100750008842704730B50B46014600202022012414
:1007600009E021FA02F59D4205D303FA02F5491B7F
:1007700004FA02F52844151EA2F10102F1DC30BD95
:100780002DE9F05F0546002092469B4688460646C6
:10079000814640241BE02846414647462246FFF753
:1007A000C1FC53465A46C01A914110D3114618460F
:1007B000224600F016F82D1A67EB01084F46224634
:1007C0000120002100F00DF817EB00094E41201E1A
:1007D000A4F10104DFDC484631462A464346BDE821
:1007E000F09F202A04DB203A00FA02F10020704733
:1007F0009140C2F1200320FA03F31943904070475F
:10080000202A06DBCB17203A41FA02F043EAE073D4
:1008100006E041FA02F3D040C2F1200291400843C1
:10082000194670470029A8BF7047401C490008BFFF
:1008300020F00100704710B4B0FA80FC00FA0CF010
:1008400050EA010404BF10BC704749B1CCF1200448
:1008500021FA04F411FA0CF118BF012121430843D5
:10086000A3EB0C01CB1D4FEA00614FEA102042BF01
:10087000002010BC704700EBC35010440029A4BFF7
:1008800010BC7047401C490008BF20F0010010BC9C
:10089000704710B5141E73F1000408DA401C41F1D2
:1008A000000192185B411A4301D120F0010010BDF4
:1008B0002DE9F04D92469B4611B1B1FA81F202E06A
:1008C000B0FA80F220329046FFF78BFF04460F46C5
:1008D00040EA0A0041EA0B0153465A46084313D046
:1008E000114653EA010019D0C8F140025046FFF703
:1008F00019FC05460E46504659464246FFF771FF21
:10090000084305D0012004E020463946BDE8F08DBB
:100910000020054346EAE0762C4337430A986305F6
:10092000E40AA0EB08000022FD0A44EA47540A301A
:1009300002D500200146E9E7010510196941DDE90A
:10094000084500196941BDE8F04DA2E7C1F30A521C
:10095000C1F3130140F2FF3341F480119A4202DAED
:1009600000200146704740F233439A42A2F23342DC
:1009700002DC5242FFF7D6BBFFF733BF30B5041E8F
:1009800071F1000404DB4FF00044404264EB0101CC
:10099000141E73F1000405DB1C464FF00043524265
:1009A00063EB0403994208BF904230BD064C074DEB
:1009B00006E0E06840F0010394E80700984710342F
:1009C000AC42F6D3FFF796FB0C4700082C47000813
:1009D000FEE7000010B501220221044800F097F95B
:1009E000BDE8104002A003F013B80000000C014065
:1009F0005B097267625D696E666F3A524742D2D197
:100A0000CFA8C3F0C0B6B5C60D0A000010B50122CC
:100A10001146044800F07BF9BDE8104002A002F046
:100A2000F7BF0000000C01405B097267625D696EF0
:100A3000666F3A524742D2D1CFA8C3F0C2CCB5C6F6
:100A40000D0A000010B501228021044800F05FF972
:100A5000BDE8104002A002F0DBBF0000000801402A
:100A60005B097267625D696E666F3A524742D2D126
:100A7000CFA8C3F0BAECB5C60D0A0000704772B635
:100A8000FEE70000094810B590F90000411C03D0B2
:100A9000012806D0002010BD05A002F0B9FF0120FA
:100AA00010BD0DA002F0B4FF022010BD0400002014
:100AB0005B096B65795D696E666F3A4B45595F53AB
:100AC000544F502069732070726573736564287386
:100AD000686F7274290D0A005B096B65795D696E38
:100AE000666F3A4B45595F53544F502069732070DD
:100AF000726573736564286C6F6E67290D0A000058
:100B000070B5044600F008F90546601C02D00448A0
:100B10000078044400F000F9401BA042FAD370BDF5
:100B2000140000202DE9F84FDFF8B891002409F1F6
:100B3000040A0AF1040B23460F270BF1040EC9E047
:100B40000125A5402A40AA427DD1674ED1F804C0B4
:100B5000ACEB0608B44532D014DCBCF1030F3AD03C
:100B600009DCBCF1000F2AD0BCF1010F1CD0BCF194
:100B7000020F31D11DE0BCF1110F17D0BCF1120FE3
:100B80002AD119E0B8F5881F19D006DCB8F5803FE6
:100B900015D0B8F5801F1FD111E0B8F5001F0ED099
:100BA000B8F5041F18D10AE0CB6815E0CB681B1D0F
:100BB00012E0CB6808330FE0CB680C330CE08B6895
:100BC0002BB1012B4FF0080303D0456104E004234F
:100BD00002E0056100E00023FF2A01D8064601E09B
:100BE00000F104064FEA840501D9A5F12005D6F8E5
:100BF000008007FA05FC28EA0C0803FA05F548EA24
:100C00000508C6F800804D68ED0062D5374DAE6925
:100C100046F00106AE61AD6924F0030605F001055A
:100C20000095334D06EB050CDCF80850A607360F8F
:100C300007FA06F825EA0805DFF8B880404503D131
:100C40004FF0000817E044E0DFF8AC80404502D1E7
:100C50004FF001080FE0DFF8A480404502D14FF0CB
:100C6000020808E0DFF89880404502D14FF0030801
:100C700001E04FF0040808FA06F848EA0508CCF845
:100C800008804D68D9F80060ED034D4601D5164344
:100C900000E096432E604D68DAF80060AD035546DB
:100CA00001D5164300E096432E604D68DBF80060E6
:100CB000ED025D4601D5164300E096432E604D6877
:100CC000DEF80060AD02754601D5164300E096439C
:100CD0002E60641C0D682A46E5407FF431AFBDE804
:100CE000F88F0000000401400000111000100240C5
:100CF0000000014000080140000C014000100140CC
:100D0000001401408068084000D0012070470AB1FB
:100D1000016170470904FBE70148806870470000E3
:100D20001400002070B5040025D094F83D00002583
:100D300020B984F83C50204600F078FA242084F84A
:100D40003D002068016821F0010101602068016810
:100D500041F4004101602068016821F40041016014
:100D600000F0DEFB4D4A6168914201D84C4900E039
:100D70004C49884201D2012070BD4B492368B0FB29
:100D8000F1F15E6826F03F060E435E6063689342B1
:100D900006D94FF4967359434FF47A73B1FBF3F1CC
:100DA0002368491C1E6A26F03F06314319626168B8
:100DB000914210D84900401EB0FBF1F2521CC2F320
:100DC0000B02042A01D2042022E0B0FBF1F0401C07
:100DD000C0F30B001CE0A268F2B301EBC10303EB0C
:100DE0000116431EB3FBF6F35B1C43F480431B0563
:100DF00049D092B301EBC10202EB0111401EB0FBDE
:100E0000F1F0401CC0F30B0040F4804040F400407F
:100E10002168CA694CF6FF739A431043C861D4E94C
:100E2000071001432068026822F0C00211430160EC
:100E3000D4E9030101432068826848F2FF339A43F2
:100E400011438160D4E9050108432168CA6822F092
:100E5000FF021043C86001E00EE016E02068016860
:100E600041F0010101602564202084F83D002563E4
:100E700084F83E50002070BD01EB4106431EB3FBD9
:100E8000F6F35B1CB3E70120C2E701EB4101401E12
:100E9000B0FBF1F0401CC0F30B00B7E7A0860100E7
:100EA00080841E0000093D0040420F002DE9FF4FE5
:100EB00083B00025DDE910799A4693460446DDF8B3
:100EC00048800095FFF728FF064694F83D0020284B
:100ED0007CD11923012285492046009601F0FEFEAF
:100EE0000028F5D194F83C0001286FD0012084F847
:100EF0003C0020680168C90703D1016841F0010185
:100F000001602068016821F400610160222084F8FA
:100F10003D00402084F83E0025646762A4F82A90D2
:100F2000608D20857248E062CDE9008653465A46BE
:100F30002046049901F0DAFD00287DD1208DDFF8EC
:100F4000B491202768B1012814D0022820680168D4
:100F50001ED041F480610160206841698069009081
:100F6000B6E02068416981690091016841F400712F
:100F70000160ADE02068016821F48061016072B613
:100F80002068416981690091016841F400710AE0BB
:100F900041F40061016072B6206841698169009185
:100FA000016821F48061016062B691E0032868D88D
:100FB00001280CD0022843464FF000024946204643
:100FC00000960FD001F08AFEB0BB10E08BE03246F5
:100FD0004146204601F001FF70BB20680069616A4C
:100FE00008706CE001F07AFE30BB72B634E0206825
:100FF000016821F48061016072B620680069616A4D
:101000000870606A401C6062208D401E2085608DE3
:10101000401E6085384846F2A8110068B0FBF1F028
:10102000C0EBC00000EB80000090401E009008D094
:1010300020684069C04300E029E040070CD50098D3
:10104000F3E744F8305F6773A573206940F0200030
:10105000206162B625731AE02068016841F40071CE
:10106000016020680069616A0870606A401C606203
:10107000218D491E2185618D491E618562B62168D9
:101080001BE032464146204601F0A7FE18B1012080
:1010900007B0BDE8F08F20680069616A0870606A77
:1010A000401C6062218D491E2185618D491E61852C
:1010B00021684A69D24352070AD409690170606AFB
:1010C000401C6062208D401E2085608D401E608522
:1010D000208D00287FF46AAF84F83D7084F83E507C
:1010E00084F83C50D4E70220D2E700000200100050
:1010F0000000FFFF04000100200000202DE9FF4F49
:1011000083B09A46DDE9119793460446DDF84080A6
:10111000FFF702FE054694F83D0020287FD11923F1
:10112000012240492046009501F0D8FD002876D1E3
:1011300094F83C00012872D0012084F83C0020681B
:101140000168C90703D1016841F00101016020680D
:10115000016821F400610160212084F83D004020F5
:1011600084F83E0000262664C4F82480A4F82A905F
:10117000608D20852C48E062CDE9007553465A46C3
:101180002046049901F030FD70B930E02A46394616
:10119000204601F055FE58B1206C042804D1206887
:1011A000016841F400710160012007B0BDE8F08FD3
:1011B000606A216800780861606A401C6062218D65
:1011C000491E89B22185628D521E6285226853694B
:1011D000DB435B070BD469B100781061606A401C87
:1011E0006062208D401E2085608D401E6085208DB0
:1011F0000028CBD12A463946204601F049FD002877
:10120000CAD154F83D0B016841F4007101602020FF
:1012100004F81E09E67766770020C6E7FFE702209C
:10122000C3E70000020010000000FFFF30B585B0EA
:10123000002100910191029103911E4D03681E4C03
:10124000122103221D48AB4216D1A36943F00803C3
:10125000A361A369039203F008030493C023CDE9BB
:1012600000316946FFF75EFCE06940F40010E06180
:10127000E06900F4001019E0114DAB4217D1A369E9
:1012800043F00803A361A369039203F008030493E6
:101290004FF44063CDE900316946FFF743FCE06954
:1012A00040F48000E061E06900F48000049005B043
:1012B00030BD00000054004000100240000C01400E
:1012C00000580040024881680278114481607047EC
:1012D00014000020074810B5016841F010010160BA
:1012E000032000F075F8002000F006F800F024F864
:1012F000002010BD0020024070B50D4D04464FF493
:101300007A712878B1FBF0F00A490968B1FBF0F076
:1013100000F0ECFA48B9102C07D200222146501EEA
:1013200000F036F800206C6070BD012070BD000038
:1013300014000020200000200C4808B5816941F00D
:1013400001018161816901F001010091C16941F0F0
:101350008051C161C06900F080500090044841682C
:1013600021F0E06141F00071416008BD00100240D1
:1013700000000140002809DB00F01F02012191401C
:101380004009800000F1E020C0F800117047000023
:10139000F0B40E4B1B680C46C3F30223C3F10705E0
:1013A000042D00D90425191D072901D2002300E0CE
:1013B000DB1E012606FA05F1491E214099409E4098
:1013C000761E16403143F0BC02F032BB0CED00E05B
:1013D000064900F0070208684FF6FF03184040EA8C
:1013E0000220034A10430860704700000CED00E043
:1013F0000000FA052DE9F0470F46050061D0434E85
:10140000306800F00700B84209D2306820F00700C9
:1014100038433060306800F00700B84251D1286886
:101420003B4C810712D5400703D5606840F4E0606B
:1014300060602878000703D5606840F46050606001
:101440006068A96820F0F000084360602878C00751
:1014500028D06868012810D02168022810D0890798
:1014600000292EDA616821F0030101436160FFF772
:1014700053FC804641F288390DE021688903EFE78B
:101480008901EDE7FFF748FCA0EB0801494502D9C7
:101490000320BDE8F0876068696800F00C00B0EBDD
:1014A000810FEFD1306800F00700B8420BD93068E7
:1014B00020F0070038433060306800F00700B84281
:1014C00001D00120E5E72878400705D56068E96884
:1014D00020F4E060084360602878000706D5606863
:1014E000296920F4605040EAC100606000F038F8DB
:1014F0006168084AC1F30311515CC840064908609D
:1015000006480068FFF7F8FE0020C2E7002002400E
:1015100000100240F44600082000002018000020BF
:101520000448054900684968044AC1F30221515C36
:10153000C840704720000020001002400447000807
:101540000448054900684968044AC1F3C221515C56
:10155000C8407047200000200010024004470008E7
:1015600012A185B00FC98DE80F0014A0144A0068BD
:1015700004905168134801F00C03042B10D0082B81
:101580000ED1C1F38343C9031DF803000AD5516886
:1015900004AAC1F34041515C0A4A5043B0FBF1F048
:1015A00005B0704708494843FAE700000203040504
:1015B000060708090A0B0C0D0E0F1010010200009F
:1015C0000010024000127A0000093D002DE9F84F9A
:1015D000040070D02078C04DC00749D06868C0F3BF
:1015E0008100012807D06868C0F38100022809D172
:1015F0006868C00306D52868800339D5606800286C
:10160000E7D035E06068B0F5803F0BD010B1B0F5A1
:10161000A02F11D0286820F480302860286820F49A
:10162000802002E0286840F480302860606890B133
:10163000FFF772FB06460AE0286840F48020286025
:10164000F0E700BFFFF768FB801B642873D82868A9
:101650008003F7D50CE0FFF75FFB064605E000BF0F
:10166000FFF75AFB801B6428F0D828688003F7D462
:1016700020789A4E80074FF001094FF0000839D5C5
:10168000686810F00C0F07D06868C0F3810002286A
:1016900009D16868C00306D42868800714D520697A
:1016A000012808D110E02069B0B1C6F80090FFF71A
:1016B00033FB074605E00AE1FFF72EFBC01B0228BB
:1016C000C4D828688007F7D52868616920F0F80039
:1016D00040EAC10028600DE0C6F80080FFF71CFB5F
:1016E000074604E0FFF718FBC01B022823D8286830
:1016F0008007F7D4207800072CD57948A169D9B1A3
:10170000C0F80090FFF708FB074604E0FFF704FB72
:10171000C01B02280FD8686A8007F7D571484FF4BC
:10172000FA510068B0FBF1F0009000BF0098411E34
:101730000091FAD20EE080E0C0F80080FFF7ECFAEA
:10174000074604E0FFF7E8FAC01B022875D8686A6C
:101750008007F7D42078400760D5E8690027C000EB
:1017600008D4E86940F08050E861E869012700F09A
:10177000805000905C480168C90513D40168834615
:1017800041F480710160FFF7C7FA824606E000BFAE
:10179000FFF7C2FAA0EB0A0064284ED8DBF800007D
:1017A000C005F5D5E06801280AD008B1052813D096
:1017B000286A20F001002862286A20F0040002E074
:1017C000286A40F001002862E06841F2883B98B145
:1017D000FFF7A2FA82460BE0286A40F00400286274
:1017E000EEE700BFFFF798FAA0EB0A0159455AD877
:1017F000286A8007F6D50CE0FFF78EFA824605E0EE
:10180000FFF78AFAA0EB0A0159454CD8286A8007ED
:10181000F6D41FB1E86920F08050E861E06988B330
:101820006968C1F38101022944D00228C6F86080AA
:1018300004D0FFF771FA044638E034E0FFF76CFAA1
:10184000074604E0FFF768FAC01B02282BD8286877
:101850008001F7D4206AB0F5803F05D16868A1689F
:1018600020F4003008436860D4E90801084369683F
:1018700021F4741108436860C6F86090FFF74CFAD1
:10188000044606E025E000BFFFF746FA001B0228E9
:1018900009D828688001F7D51BE000BFFFF73CFAA4
:1018A000001B022802D90320BDE8F88F28688001B8
:1018B000F4D40EE00128F7D06868226A00F4803181
:1018C000914204D1616A00F47010884201D0012075
:1018D000EAE70020E8E70000001002400000424272
:1018E00080044242200000200070004010B5401EDD
:1018F000B0F1807F01D3012010BD4FF0E024606182
:101900000F21601702F094F80020A06107202061E9
:10191000002010BD7047704770B590F83C20012A38
:1019200026D0012480F83C40022280F83D20036844
:101930005A689D6822F070060A6832435A600D4B5F
:1019400002689A4208D0B2F1804F05D00A4B9A4201
:1019500002D00A4B9A4204D1496825F0800319430A
:10196000916080F83D40002180F83C10084670BD31
:10197000022070BD002C014000040040000800401F
:1019800010B5040003D094F83D0010B107E0012029
:1019900010BD002084F83C00204600F01FF8022013
:1019A00084F83D00211D206801F086FE012084F8A6
:1019B000460084F83E0084F83F0084F8400084F834
:1019C000410084F8420084F8430084F8440084F81D
:1019D000450084F83D00002010BD000008B50168F6
:1019E0001948B1F1804F11D0184A914217D1C169FD
:1019F00041F00201C161C069002200F002000090C4
:101A000002211D20FFF7C4FC1D2019E0C16941F02F
:101A10000101C161C06900F00100009008BD0C4ADD
:101A20009142FBD1C16941F00401C161C06900224A
:101A300000F00400009003211E20FFF7A9FC1E20E7
:101A4000BDE80840FFF796BC0010024000040040CB
:101A50000008004090F83D10012901D00120704796
:101A6000022180F83D100168CA6842F00102CA6094
:101A700000680B49884208D0B0F1804F05D0094971
:101A8000884202D00849884204D1816801F00701E8
:101A9000062903D0016841F0010101600020704770
:101AA000002C0140000400400008004070B50446CE
:101AB00090F83C00012817D0012584F83C50022002
:101AC00084F83D002068826822F0770222F47F4289
:101AD00082600868502830D00DDC20284DD005DC0D
:101AE00098B310283BD148E0022070BD302844D084
:101AF000402834D139E0602828D0702806D0B0F5CD
:101B0000805F2CD0B0F5005F29D10AE0CB68D1E925
:101B10000121206801F013FE2068816841F07701FF
:101B200009E0CB68D1E90121206801F008FE2068B6
:101B3000816841F48041816011E0CA684968206889
:101B400001F0B2FE5021206807E016E0CA6849683B
:101B5000206801F0BAFE6021206801F0FAFD84F8E7
:101B60003D50002084F83C0070BDCA684968206878
:101B700001F09AFE40212068EFE7226801461046F6
:101B8000EBE7704770B50446006801694FF0000547
:101B9000C943890715D4C168C943890711D4E91E0F
:101BA000016101202077206880698007204602D0EB
:101BB000FFF7E7FF04E000F0BBF8204600F04AF929
:101BC000257720680169C943490717D4C168C9430B
:101BD000490713D46FF004010161022020772068C7
:101BE000806910F4407F204602D0FFF7CAFF04E06E
:101BF00000F09EF8204600F02DF925772068016955
:101C0000C943090716D4C168C943090712D46FF044
:101C100008010161042020772068C0698007204600
:101C200002D0FFF7AEFF04E000F082F8204600F09B
:101C300011F9257720680169C943C90617D4C1681D
:101C4000C943C90613D46FF0100101610820207741
:101C50002068C06910F4407F204602D0FFF791FF52
:101C600004E000F065F8204600F0F4F825772068DD
:101C70000169C943C90708D1C168C943C90704D16B
:101C8000891E0161204600F06DF920680169C94391
:101C9000090609D4C168C943090605D46FF080015B
:101CA00001612046FFF736FE20680169C9434906F5
:101CB00009D4C168C943490605D46FF040010161E8
:101CC000204600F0A9F920680169C94389060BD4B0
:101CD000C168C943890607D46FF02001016120461D
:101CE000BDE87040FFF717BE70BD000000B585B0BD
:101CF000002100910191029103910068B0F1804FA1
:101D000010D10948816941F0040181618069694607
:101D100000F004000490022000900190039003481A
:101D2000FEF700FF05B000BD0010024000080140B2
:101D3000704770B5044690F83C000D4601280AD063
:101D4000012084F83C0042B1042A18D0082A2AD085
:101D50000C2A4DD139E0022070BD206801F002FD4F
:101D60002068816941F0080181612068816921F062
:101D700004018161206881692A69114311E02068AA
:101D800001F018FD2068816941F4006181612068DB
:101D9000816921F480618161206881692A6941EA51
:101DA0000221816124E0206801F030FD2068C169D2
:101DB00041F00801C1612068C16921F00401C161DD
:101DC0002068C1692A69114311E0206801F04AFDC9
:101DD0002068C16941F40061C1612068C16921F4D2
:101DE0008061C1612068C1692A6941EA0221C1613B
:101DF000002084F83C0070BD10B5040003D094F8B6
:101E00003D0010B107E0012010BD002084F83C0027
:101E1000204600F01EF8022084F83D00211D2068B5
:101E200001F04AFC012084F8460084F83E0084F862
:101E30003F0084F8400084F8410084F8420084F8B0
:101E4000430084F8440084F8450084F83D000020F5
:101E500010BD70477047000010B50446022249B11A
:101E600004290ED0082913D094F84100012816D077
:101E7000012010BD94F83E000128F9D184F83E20DD
:101E80000FE094F83F000128F2D184F83F2008E0E9
:101E900094F840000128EBD184F8402001E084F858
:101EA00041200122206801F03DFC0F492068884252
:101EB00003D1426C42F4004242642068884208D058
:101EC000B0F1804F05D00949884202D008498842C4
:101ED00004D1816801F00701062903D0016841F0AF
:101EE00001010160002010BD002C014000040040F1
:101EF0000008004030B504460D460068002201F09D
:101F000011FC174B41F2111120688A10984209D137
:101F1000036A0B4206D1036A134203D1436C23F4D4
:101F2000004343642068036A0B4206D1016A1142F0
:101F300003D1016821F00101016001203DB1042DB0
:101F400008D0082D09D084F84100002030BD84F865
:101F50003E00FAE784F83F00F7E784F84000F4E732
:101F6000002C014070B52749274C884223D1E068F6
:101F700000F02AFD206900F027FD2069234E406A09
:101F80003146FEF77BF90546E0683146406AFEF7C8
:101F900075F96169FEF73AF901462A46606801F071
:101FA0006BF96068C069FEF779FB01B22068BDE893
:101FB000704001F0D1B913494831884221D1144D04
:101FC0002878B0B901F00EFBFEF75CFD012802D0C5
:101FD00002280ED107E094F82300042809D000BF9E
:101FE00002F060FB05E094F823000428F8D102F029
:101FF00065FA40210748FEF785FE002801D0002041
:10200000287070BDDC010020C80000200000C8421C
:102010000400002000080140704770B5040004D09F
:1020200094F83D00002510B106E0012070BD84F851
:102030003C50204600F022F8242084F83D0020681F
:10204000C16821F40051C160204601F051FC2068B4
:10205000016921F4904101612068416921F02A0160
:1020600041612068C16841F40051C16025642020AD
:1020700084F83D0084F83E00002070BD70B586B045
:1020800000240094019402940394234E036823498E
:1020900002200322224DB34219D18B6943F48043BD
:1020A0008B618B6903F4804304938B6943F00403D1
:1020B0008B618969039201F0040104910102CDE969
:1020C000001069462846FEF72DFD28151BE0154E29
:1020D000B3421FD1CB6943F40033CB61CB6903F426
:1020E000003304938B6943F004038B618969039285
:1020F00001F0040104910421CDE90010694628464D
:10210000FEF710FD0820CDE9000469462846029438
:10211000FEF708FD06B070BD003801400010024017
:1021200000080140004400402DE9F843044690F8BF
:102130003D001F4616460D4620284CD1C5B1BEB104
:1021400094F83C00012846D0012084F83C004FF070
:102150000008C4F84080212084F83D00FEF7DCFD33
:10216000A6848146E684A068B0F5805F03D004E0D1
:102170000120BDE8F883206928B12E465FF00005F4
:1021800084F83C800EE00026FAE78021204601F02A
:102190000BFCA0B9AEB116F8010B21684860E08CC9
:1021A000401EE084E08C4B464FF000020097002870
:1021B000EBD14FF04001204601F0F6FB30B1032097
:1021C000D7E735F8020BC0F30800E6E7202084F8D3
:1021D0003D000020CDE70220CBE7000010B50A78D3
:1021E0004B78120142EA13120280130502D542F421
:1021F000704202804B788A7803F00F0342EA032290
:102200004280130502D542F470424280CA780B79AD
:10221000120342EA03124B7942EA1312114B426055
:10222000140301D51A4342604A798C791207120BC4
:1022300042EA0422CC7922438260140301D51A4376
:1022400082600A8952BA82814A8952BAC2818A89D5
:1022500052BA0282CA8952BA4282098A49BA818232
:1022600010BD00000000F0FF08B500218DF800103F
:102270006A460D2100F080FA18B99DF80000102878
:1022800004D005A001F0C4FB012008BD0CA001F0A2
:10229000BFFB002008BD00005B0968703538303690
:1022A0005D6572726F723A485035383036C9E8B1A0
:1022B000B8BCECB2E94944B2BBCDA8B9FD0D0A00E7
:1022C0005B096870353830365D696E666F3A485024
:1022D00035383036C9E8B1B8BCECB2E94944CDA8CC
:1022E000B9FD0D0A0000000010B586B00C466B4623
:1022F0001222102100F066FA28B107A001F088FB35
:10230000012006B010BD69462046FFF767FF0EA00A
:1023100001F07EFB0020F4E75B0968703538303649
:102320005D6572726F723A485035383036BBF1C80D
:10233000A1CAA7B0DCA3ACCFB5CAFDBCC6CBE3CE67
:10234000DED2E2D2E50D0A005B096870353830361E
:102350005D696E666F3A485035383036D0A3D7BCC9
:10236000B2CECAFDD2D1BEADBBF1C8A10D0A0000EC
:102370002DE9FC41054601200C468DF8040001AA18
:102380000821284600F0FAFA48B91E20FEF7B8FBEB
:102390006B4603220021284600F014FA28B13AA027
:1023A00001F036FB0120BDE8FC819DF800009DF89E
:1023B0000110000440EA01209DF802100843E0618A
:1023C000010202D540F07F40E061FEF740F93A4952
:1023D000FDF754FF8046A062B4F91200FEF737F90A
:1023E0004146FDF719FF0546B4F90E00FEF72FF937
:1023F0002946FDF7B9FEE66A054641463046FDF737
:102400000BFF2946FDF708FF0746B4F90C00FEF75D
:102410001EF93146FDF700FF0646B4F91400FEF739
:1024200016F94146FDF7F8FE0546B4F91000FEF72F
:102430000EF92946FDF798FE4146FDF7EDFE0546EB
:10244000A068FEF704F92946FDF78EFE4146FDF728
:10245000E3FE05466068FEF7FAF82946FDF784FEBC
:102460003146FDF781FE3946FDF77EFE1349606275
:10247000FDF704FFFEF72BF902460B4610A001F012
:10248000C7FA00208FE700005B09687035383036E6
:102490005D6572726F723AD1B9C1A6B2E2C1BFCAAC
:1024A000A7B0DCA3ACB5B1C7B0CAFDD6B5B2BBBF4F
:1024B000C9BFBF0D0A000000000078480000C842F4
:1024C0005B096870353830365D696E666F3AD1B930
:1024D000C1A6B2E2C1BFBDE1B9FBCEAAA3BA252E07
:1024E00032666850610D0A007CB5054602200C4634
:1024F0008DF8040001AA0821284600F03FFA48B9E7
:102500000520FEF7FDFA03226B461146284600F02F
:1025100059F920B11FA001F07BFA01207CBD9DF884
:1025200000009DF80110000440EA01209DF802100F
:102530000843A061010202D540F07F40A061FEF790
:1025400086F86FF01201FDF7D7FE0546E062B4F998
:102550000200FEF77CF82946FDF75EFEFEF7B7F8AD
:1025600006460D46B4F90000FEF77AF84FF0FF3248
:10257000FEF756F832462B46FDF7CAFEFEF7BAF8CC
:102580002062FEF7A4F802460B4610A001F040FAC4
:1025900000207CBD5B096870353830365D6572722D
:1025A0006F723ACEC2B6C8B2E2C1BFCAA7B0DCA34E
:1025B000ACB5B1C7B0CAFDD6B528BAACD1B9C1A6C1
:1025C00029B2BBBFC9BFBF0D0A0000005B0968701C
:1025D000353830365D696E666F3ACEC2B6C8B2E243
:1025E000C1BFBDE1B9FBCEAAA3BA252E3266A1E6D2
:1025F0000D0A0000F8B514460D460646FFF734FEF6
:1026000008B120A03BE00520FEF77AFA00208DF803
:1026100000000520FEF774FA29463046FFF764FEF5
:102620000520FEF76DFA04222946304600F04EF8E8
:102630000520FEF765FA6A462821304600F09CF82E
:102640009DF8000010F080038DF8003002D0802B40
:1026500002D006E0002200E080222946304600F049
:1026600037F90520FEF74CFA04222946304600F0DF
:10267000CDF80520FEF744FA85F833400AA001F0B2
:10268000C7F9F8BD5B096870353830365D65727220
:102690006F723A485035383036B3F5CABCBBAFCA52
:1026A000A7B0DC0D0A0000005B09687035383036D1
:1026B0005D696E666F3A485035383036B3F5CABC3E
:1026C000BBAFCDEAB3C90D0A00000000F8B50D4656
:1026D0000646144611468DF800200AA001F098F92C
:1026E0006A460621304600F049F920B110A001F0F9
:1026F0008FF90120F8BD85F8304016A001F088F967
:102700000020F8BD5B096870353830365D696E664B
:102710006F3AB3A2CAD4D1B9C1A6B2E2C1BFC5E46F
:10272000D6C3A3ACD6B5CEAA307825580D0A000082
:102730005B096870353830365D6572726F723AD1F8
:10274000B9C1A6B2E2C1BFC5E4D6C3CAA7B0DC0D09
:102750000A0000005B096870353830365D696E66C6
:102760006F3AD1B9C1A6B2E2C1BFC5E4D6C3D2D1D6
:10277000B3C9B9A60D0A00003EB54FF47A730092B2
:102780000124CDE901430A462346EF21FEF78EFBE3
:10279000002803D002A001F03BF901203EBD00005B
:1027A0005B096870353830365D6572726F723A4910
:1027B0004943B6C1B5A5B8F6D7D6B7FBCAA7B0DCB2
:1027C0000D0A00003EB54FF47A74CDE900320A4696
:1027D00002940123EF21FEF769FB002803D002A039
:1027E00001F016F901203EBD5B09687035383036BE
:1027F0005D6572726F723A494943B6C1B6E0B8F688
:10280000D7D6B7FBCAA7B0DC0D0A0000F8B50D4655
:102810000646144611468DF800200AA001F0F8F88B
:102820006A460921304600F0A9F820B112A001F053
:10283000EFF80120F8BD85F832401AA001F0E8F861
:102840000020F8BD5B096870353830365D696E660A
:102850006F3AB3A2CAD4CAFDD6B5D2C6CEBBA3A81E
:102860005348494654A3A9C5E4D6C3A3ACD6B5CEB4
:10287000AA307825580D0A005B0968703538303663
:102880005D6572726F723ACAFDD6B5D2C6CEBBA371
:10289000A85348494654A3A9C5E4D6C3CAA7B0DC87
:1028A0000D0A00005B096870353830365D696E6668
:1028B0006F3ACAFDD6B5D2C6CEBBA3A85348494687
:1028C00054A3A9C5E4D6C3D2D1B3C9B9A60D0A0091
:1028D000F8B50D460646144611468DF800200AA0AC
:1028E00001F096F86A460721304600F047F820B11B
:1028F00010A001F08DF80120F8BD85F8314016A038
:1029000001F086F80020F8BD5B0968703538303674
:102910005D696E666F3AB3A2CAD4CEC2B6C8B2E2DF
:10292000C1BFC5E4D6C3A3ACD6B5CEAA307825586E
:102930000D0A00005B096870353830365D657272CB
:102940006F723ACEC2B6C8B2E2C1BFC5E4D6C3CA3E
:10295000A7B0DC0D0A0000005B096870353830361E
:102960005D696E666F3ACEC2B6C8B2E2C1BFC5E459
:10297000D6C3D2D1B3C9B9A60D0A00003EB54FF4F3
:102980007A7300920124CDE901430A462346EE21E1
:10299000FEF7B4FB002803D002A001F039F80120B3
:1029A0003EBD00005B096870353830365D65727277
:1029B0006F723A494943D0B4B5A5B8F6D7D6B7FB3C
:1029C000CAA7B0DC0D0A000010B5044690F8330029
:1029D000012811D002281CD10EA001F019F82146BF
:1029E0001648FFF781FD16A001F012F813482146A2
:1029F000BDE81040FFF7BCBC1BA001F009F8214660
:102A00002348FFF771FD23A001F002F8214620487A
:102A1000EEE710BD5B096870353830365D696E666B
:102A20006F3ABFAACABCB2E2C1BFCDE2D6C348501A
:102A300035383036CEC2B6C80D0A0000400100203D
:102A40005B096870353830365D696E666F3ABFAACB
:102A5000CABCB2E2C1BFCDE2D6C348503538303629
:102A6000C6F8D1B90D0A00005B09687035383036F8
:102A70005D696E666F3ABFAACABCB2E2C1BFB0E57B
:102A8000D4D8485035383036CEC2B6C80D0A00000A
:102A9000EC0000205B096870353830365D696E6681
:102AA0006F3ABFAACABCB2E2C1BFB0E5D4D84850A1
:102AB00035383036C6F8D1B90D0A0000FEE7016896
:102AC0004A69D24352050FD46FF480624A610021F3
:102AD00040F8301F202242738173026942F00402E1
:102AE0000261017301207047002070472DE9F84F03
:102AF0000446006889460B9D01689846174641F4D4
:102B0000806101602068016841F480710160009576
:102B10004FF0011B0022594620460A9B00F0DEF8C8
:102B20004FF4007A40B120680068C00501D5C4F8B0
:102B300040A00320BDE8F88F216809F0FE0008617D
:102B40002B46284920460A9A00F0FCF8F0BB206882
:102B50004169806900902A4620460A9900F070F980
:102B600040B1206C04283AD12068016841F400711A
:102B7000016034E0FEB2B8F1010F09D02168380AD3
:102B800008612A4620460A9900F05AF90028E8D13F
:102B9000206806612A4620460A9900F051F900286B
:102BA000DFD12068016841F4807101600095002246
:102BB000594620460A9B00F091F80028B3D12168BD
:102BC00009F0FF0040F00100086100E007E02B463B
:102BD000044920460A9A00F0B5F80028AAD001203E
:102BE000A8E70000020001002DE9F8430446006850
:102BF0000D46DDE9089701689846164641F4807154
:102C000001604B4600224FF001112046009700F072
:102C100065F848B120680068C00502D54FF400701F
:102C200020640320BDE8F883216805F0FE000861F8
:102C30003B464A461549204600F084F888B920688A
:102C40004169806900903A464946204600F0F8F80C
:102C500048B1206C042804D12068016841F4007157
:102C600001600120DEE7F5B2B8F1010F09D021685B
:102C7000300A08613A464946204600F0E1F800284B
:102C8000E7D1206805610020CCE7000002000100C8
:102C900070B516460D4604460DE02046FFF70FFFBF
:102CA00008B1012070BD681C05D0FEF735F8801B07
:102CB000A84207D835B120684069C0434007ECD42A
:102CC000002070BD002044F8300F20216173A073F4
:102CD000216941F0200121612073E2E72DE9F047ED
:102CE0001E4690460D460446C1F30747DDF8209086
:102CF00008E0701C06D0FEF70FF8A0EB0900B04208
:102D00000FD876B12068012F18D0806925EA00001D
:102D10000004000C14D000214145EAD00020BDE899
:102D2000F087002044F8300F20216173A0732169DF
:102D300041F02001216120730120F0E74069E5E7BF
:102D40000121E9E72DE9F0479A4691460E460446EF
:102D500000254FF02008C1F3074725E020684069AF
:102D6000C043400514D42068016841F4007101603B
:102D700021686FF480604861256384F83D8084F8A1
:102D80003E50206C40F00400206484F83C501FE06A
:102D9000B9F1FF3F08D0FDF7BFFFA0EB0A0149459D
:102DA0000CD8B9F1000F09D02068012F13D0806929
:102DB00026EA00000004000C0BD0CFE744F8305F97
:102DC00084F80D80A573206940F0200020612573F0
:102DD0000120BDE8F0874069EAE72DE9F0410025D0
:102DE00090460E460446202717E04069C043C006BF
:102DF0000CD454F8301B6FF01000486144F810599F
:102E00006777A577206A2062257717E0FDF784FFB2
:102E1000A0EB0800B04208D83EB120684169C94320
:102E20004906E2D40020BDE8F08144F8305F6773C2
:102E3000A573206940F02000206125730120F2E78E
:102E400070B516460D4604460DE02046FFF737FEE6
:102E500008B1012070BD681C05D0FDF75DFF801B27
:102E6000A84207D835B120684069C0430006ECD4B9
:102E7000002070BD002044F8300F20216173A07342
:102E8000216941F0200121612073E2E72DE9F0433F
:102E900085B0002525480095019502950395816927
:102EA00041F020018161816901F020010491816973
:102EB00041F004018161816901F00401049181699B
:102EC00041F0080181618069DFF8648000F008004A
:102ED00004900122B0214046FDF719FFDFF854901D
:102EE00040F20317012239464846FDF710FF01243E
:102EF000B020CDE900040226CDE9024669464046ED
:102F0000FDF710FE4020CDE90005694640460295D8
:102F1000FDF708FECDE90074CDE902466946484652
:102F2000FDF700FE05B0BDE8F08300000010024090
:102F300000080140000C01400D4810B50B4901602C
:102F40000C49416000214FF480428160C0E90312C6
:102F500041618161C1610162FDF7E4FE002803D097
:102F6000BDE81040FDF78BBD10BD000000540040CF
:102F7000EC000020A08601000D4810B50B4901604F
:102F80000C49416000214FF480428160C0E9031286
:102F900041618161C1610162FDF7C4FE002803D077
:102FA000BDE81040FDF76BBD10BD000000580040AB
:102FB00040010020A086010010B58EB000240794C7
:102FC000089409940A940B941C2168460C94FDF70C
:102FD000C0F81E484FF0804101600821C0E901148B
:102FE00040F28F11C0E903148461FEF7C9FC08B1F7
:102FF000FDF745FD4FF48050079007A91348FEF7F1
:1030000055FD08B1FDF73BFD1048FEF7F5FE08B190
:10301000FDF735FD0B940BA90C480C94FEF77CFCD6
:1030200008B1FDF72CFD6020CDE9000402940422D4
:10303000694606480494FEF77CFE08B1FDF71FFDC3
:103040000248FEF753FE0EB010BD000094010020B0
:1030500010B586B00024184800940194029403949B
:10306000049414490594016041F61F41C0E901141C
:1030700040F2CF71C0E9031480218161FEF780FC2A
:1030800008B1FDF7FCFC4FF48050009069460A48F7
:10309000FEF70CFD08B1FDF7F2FC049404A9064804
:1030A0000594FEF739FC002801D0FDF7E8FC06B0D6
:1030B00010BD000000040040DC01002010B586B007
:1030C0000024174800940194029403940494134933
:1030D0000594016041F61F41C0E901146321C0E974
:1030E00003148461FEF74CFC08B1FDF7C8FC4FF4F3
:1030F0008050009069460A48FEF7D8FC08B1FDF7F9
:10310000BEFC049404A906480594FEF705FC0028BB
:1031100001D0FDF7B4FC06B010BD0000000800406F
:10312000240200200C4810B50A4901604FF41651E2
:103130004160002181600C22C160C0E904128161FC
:10314000C161FEF76AFF002803D0BDE81040FDF71B
:1031500096BC10BD003801406C0200200C4810B530
:103160000A4901604FF4E1314160002181600C2285
:10317000C160C0E904128161C161FEF74EFF002801
:1031800003D0BDE81040FDF77ABC10BD00440040FC
:10319000B0020020FEE7FEE710B50022022104483D
:1031A000FDF7B5FDBDE8104002A000F031BC000005
:1031B000000C01405B097267625D696E666F3A528E
:1031C0004742D2D1B5E3C1C1B0D7B5C60D0A0000A0
:1031D00010B5002201210448FDF799FDBDE810401B
:1031E00002A000F015BC0000000C01405B097267F2
:1031F000625D696E666F3A524742D2D1B5E3C1C192
:10320000C2CCB5C60D0A000010B5002280210448CA
:10321000FDF77DFDBDE8104002A000F0F9BB000005
:10322000000801405B097267625D696E666F3A5221
:103230004742D2D1B5E3C1C1BAECB5C60D0A000010
:103240000021016041608160C160C1610162054986
:1032500001610549416105498161054941620549AD
:1032600081627047A47095409A99193E9A99993E47
:1032700000001643000048C32DE9F0410446104603
:10328000C4E90012FCF7C2FFA060FDF720FA024675
:103290000B4622A000F0BCFB616A2068FCF764FFCB
:1032A0006168FDF743FA07D3A16A2068FCF75CFF69
:1032B0006168FDF745FA01D2002505E00125A16806
:1032C000206AFCF751FF2062D4E902713846FCF70E
:1032D0009DFFA169FCF7A0FF06462846FDF7B7F958
:1032E0006169FCF799FF216AFCF796FF05463946AC
:1032F0002069FCF791FF2946FCF736FF3146FCF7C1
:1033000033FFE061FDF7E3F902460B460AA000F047
:103310007FFBA068E060BDE8F08100005B09706998
:10332000645D696E666F3A504944B2EED6B5CEAA76
:103330003A252E32660D0A005B097069645D696E7C
:10334000666F3A504944C0EDC2DBCAE4B3F63A2591
:103350002E32660D0A00000070B505460C004FF4D1
:10336000C87001D5002402E0844200DD04460E4905
:1033700009688C636421614391FBF0F0FDF767F904
:1033800028602046FDF76CF90022084BFDF767F82E
:103390000022074BFDF7D5F8BDE8704002460B460A
:1033A00004A000F035BB000094010020000059404B
:1033B000000079405B0970756D705D696E666F3AEB
:1033C000D2D1D0DEB8C4B1C3B5C4D5BCBFD5B1C8A5
:1033D000CEAA252E326625250D0A000010B504461A
:1033E00004210548FEF786FD00202071BDE810404D
:1033F00002A000F00DBB0000940100205B09707575
:103400006D705D696E666F3AB1C3D2D1CDCBB3F644
:10341000B9A4D7F7D7B4CCAC0D0A00002DE9F04120
:10342000054600F023F800212846FFF795FF0D48D8
:103430000668B06A401CFDF724F90746F06A0C469E
:10344000401CFDF71EF902460B4600200649FDF719
:1034500078F83A462346FDF774F8FDF74BF9A86073
:10346000BDE8F08194010020882A914110B50446FE
:1034700004210548FEF7F0FC01202071BDE8104052
:1034800002A000F0C5BA0000940100205B0970752D
:103490006D705D696E666F3AB1C3D2D1BDF8C8EB8D
:1034A000D7BCB1B8D7B4CCAC0D0A0000704700004F
:1034B00070B5044640780B4D012802D0022806D092
:1034C0000DE009A000F0A4FA0122102104E00EA0F2
:1034D00000F09EFA012220212846FDF718FC00206A
:1034E000207070BD000801405B0972656C61795DF8
:1034F000696E666F3ABCCCB5E7C6F731D2D1B9D8A0
:10350000B1D50D0A000000005B0972656C61795D40
:10351000696E666F3ABCCCB5E7C6F732D2D1B9D87E
:10352000B1D50D0A0000000010B54170FFF7C0FFD3
:10353000BDE8104001A000F06BBA00005B097265A5
:103540006C61795D696E666F3ABCCCB5E7C6F7B35E
:10355000F5CABCBBAFCDEAB1CF0D0A0010B5044629
:10356000C1F38000C1F340022070627001F00101DC
:10357000A17038B108B1FFF747FE607828B1012883
:1035800006D007E0FDF75EFAF7E7FDF73FFA01E046
:10359000FFF71EFEA07828B1012807D1BDE8104032
:1035A000FFF7FABDBDE81040FDF714BA10BD0000EA
:1035B00010B50021FFF7D2FFBDE8104001A000F0D8
:1035C00027BA00005B097267625D696E666F3A52E6
:1035D0004742B3F5CABCBBAFCDEAB3C90D0A000080
:1035E0007047000070B5134C4FF001056068401C37
:1035F0006060A178607801430F484FF0400103D02C
:10360000FDF780FB70B10BE0FDF77CFB10B1FF20F4
:10361000207005E0D4E90101401A3C2801D9257049
:10362000657070BD6078A070002060706068A060F8
:1036300070BD00000400002000080140FDF742BEFC
:1036400030B58FB028216846FCF783FD14210AA805
:10365000FCF77FFD01210804CDE90010002402944D
:1036600002250491CDE907504FF4E0100990684617
:10367000FDF7ACFF08B172B6FEE70F20CDE90A05F1
:103680004FF48060CDE90C4002210AA80E94FDF7AA
:10369000B1FE002801D072B6FEE70FB030BD704712
:1036A0000148FEF76FBA0000DC0100200148FEF778
:1036B00069BA000024020020F0B50268164B174CCE
:1036C000174D4FF08047984205D0B84203D0A04232
:1036D00001D0A84203D122F070064A6832439842D2
:1036E00005D0B84203D0A04201D0A84203D122F4B1
:1036F0004074CA6822434C6922F08002224302606F
:103700008A68C2620A688262984201D109690163CB
:1037100001214161F0BD0000002C01400004004087
:103720000008004010B501F01F030121046A994010
:103730008C430462016A9A401143016210BD10B5C6
:10374000846842EA032224F47F440A4322438260CD
:1037500010BD826822F070020A4342F007018160C6
:103760007047000030B5026A22F001020262026A6C
:103770004368846924F073050C682C4322F0020529
:103780008A682A430A4DA8420BD122F00805CA686C
:1037900023F440732A434D6922F004021D438B69D0
:1037A0002B434360846149684163026230BD00007D
:1037B000002C014030B5026A22F010020262026A57
:1037C000436884690D6824F4E64444EA05248D685E
:1037D00022F0200242EA05120B4DA8420ED1CD681C
:1037E00022F0800242EA05124D6923F4406343EA65
:1037F00085038D6922F0400243EA850343608461BA
:1038000049688163026230BD002C014030B5026A14
:1038100022F480720262036A4268C46923F400736E
:1038200024F073050C682C438D6843EA05230C4D86
:10383000A8420ED1CD6823F4006343EA05234D6905
:1038400022F4405242EA05128D6923F4806342EA71
:1038500005124260C4614968C163036230BD000063
:10386000002C014030B5026A22F480520262046AE0
:103870004268C3690D6823F4E64343EA05238D6873
:1038800024F4005444EA0534064DA84204D14D699D
:1038900022F4804242EA85124260C36149680164B1
:1038A000046230BD002C014010B5036A046A24F0A4
:1038B00001040462846924F0F00444EA021423F051
:1038C0000A020A438461026210BD10B5036A23F044
:1038D000100303628369046A23F4704343EA0232EB
:1038E00024F0A00343EA01118261016210BD0000CF
:1038F00070B5044600680169E26821F44051114343
:1039000001612169A0680843616908432168CA68A8
:1039100041F20C639A430243CA6020684169A2697C
:1039200021F44071114341611E492068884202D14F
:10393000FDF706FE01E0FDF7F3FD00EBC00101EB32
:103940000012606864218000B2FBF0F3B3FBF1F376
:103950006FF018067343B2FBF0F5B2FBF0F605EB1F
:103960008305322303EB0515B5FBF1F5B6FBF1F644
:1039700005F0F00505EB0615B2FBF0F6B2FBF0F032
:10398000B0FBF1F06FF01802504306EB800003EB40
:103990000010B0FBF1F0216800F00F0028448860AF
:1039A00070BD0000003801402DE9F04198461746EF
:1039B0000E460446069D1DE0681C1BD02DB1FDF788
:1039C000ABF9A0EB0800A84214D92068C16821F423
:1039D000D071C1602068416921F00101416120205E
:1039E00084F83D0084F83E00002084F83C00032069
:1039F000BDE8F0812068006836EA000004D00020AD
:103A0000B842D9D00020F3E70120F9E7FEE7000033
:103A10000FB4054B10B503A9044A029800F0EAF868
:103A200010BC5DF814FB00002543000824000020B2
:103A30000907090E002804DB00F1E02080F80014DB
:103A4000704700F00F0000F1E02080F8141D70476F
:103A500002E008C8121F08C1002AFAD17047704757
:103A6000002001E001C1121F002AFBD170470000B5
:103A70002DE9FF5F82B00021DDE90430020DDDF8A1
:103A800040B0034318D044F61050A2F2FF32424334
:103A90001514119801281FD0A5EB0B00401C5FEAFC
:103AA000000A4FF000064E4FDFF83891B0465046FE
:103AB00015D5CAF1000413E0119801244AA3012886
:103AC00001D16FEA0B010298119AC0E90031C0E9F7
:103AD000024206B0BDE8F09FCBF10000DFE70446EC
:103AE0000021404A491842EB0450CDE9001012E091
:103AF000E00707D032463B4640464946FCF7AFFC5C
:103B00008046894632463B4610461946FCF7A7FCDC
:103B100006460F466410002CEAD1DDE90401DDE918
:103B20000023BAF1000F06DAFCF799FC42464B4637
:103B3000FCF795FC05E0FCF704FD42464B46FCF71C
:103B400000FD04460E460022284BFCF717FF03D861
:103B50004FF0FF30014607E00022254B204631465A
:103B6000FCF7D6FBFCF7F2FE102409E0002C0ADB80
:103B70000A220023FCF704FE039B30321A55641E10
:103B800050EA0102F2D1641C039AC4F111031444F7
:103B9000119A012A03D0012208430DD10AE00843FB
:103BA00004D000204FF0110B119072E7A3EB0B052E
:103BB0006D1E0DE05B4504DD4FF0000205F10105CF
:103BC00004E003DA4FF00002A5F10105002AECD071
:103BD00002981199C0E90231C0E9004579E7000077
:103BE000000014400000F03F300000000000F043EF
:103BF0000000E03F2DE9FF4F95B09B468946064601
:103C000000250FE2252877D100242746F84A012114
:103C1000059400E0044316F8013F203B01FA03F04D
:103C20001042F7D130782A2811D06FF02F03307866
:103C3000A0F13002092A16D8059A44F0020402EBDA
:103C4000820203EB42021044761C0590EFE759F81C
:103C5000042B0592002A03DA504244F400540590E4
:103C600044F00204761C30782E2816D116F8010F85
:103C700044F004042A280DD06FF02F023078A0F110
:103C80003003092B09D807EB870302EB4303C7185E
:103C9000761CF3E759F8047B761C30786C280FD03B
:103CA00006DC4C2817D068280DD06A2814D104E00F
:103CB000742810D07A280FD10DE044F400140AE0E3
:103CC00044F4801401E044F440147278824202D13A
:103CD00004F58014761C761C307866280BD013DC33
:103CE000582877D009DC002875D04528F6D046281A
:103CF000F4D047281AD19DE118E0632835D0642814
:103D000079D0652812D195E1702873D008DC672836
:103D1000F1D069286FD06E280DD06F2806D1B5E09C
:103D200073282CD0752875D0782874D05A461799E6
:103D300090476D1C75E1C4F30250022809D0032896
:103D40000DD0D9F8001004280DD00D6009F1040938
:103D500067E1D9F80010EA17C1E90052F6E7D9F88F
:103D600000100D80F2E70D70F0E719F8041B8DF8D4
:103D7000001000208DF80100EA46012003E059F808
:103D800004AB4FF0FF3061074FF0000102D40DE0AB
:103D900008F101018846B9420FDA8045F8DB1AF8CC
:103DA00008100029F4D108E008F101018846814299
:103DB000FADB1AF808100029F6D105985B46A0EB4B
:103DC000080721463846179A00F094FA284400EB79
:103DD000080507E04DE029E10DE01AF8010B5A460D
:103DE00017999047B8F10108F7D25B46214638464B
:103DF000179A13E142E00A220092C4F302524FF0F4
:103E0000000A022A08D059F804CB032A4FEAEC71C1
:103E10000AD00DE029E02AE009F1070121F00702AC
:103E2000F2E802C1914609E00FFA8CFC4FEAEC710E
:103E3000042A03D14FFA8CFC4FEAEC71002907DA0F
:103E40000A460021DCF1000C61EB02012D2202E0A8
:103E5000220504D52B228DF80420012203E0E2077D
:103E600001D02022F7E7904659E00A2102E0102213
:103E70000DE010214FF0000A00910BE010224FF0EE
:103E8000000A44F004040827009203E008224FF0DF
:103E9000000A0092C4F30252022A05D059F804CB5A
:103EA0000021032A08D009E009F1070121F00702E7
:103EB000F2E802C1914605E01FFA8CFC042A01D108
:103EC0000CF0FF0C4FF00008220728D5702806D010
:103ED000009B83F0100353EA0A0305D00EE0402252
:103EE0008DF80420012208E05CEA010206D03022AD
:103EF0008DF804208DF8050002229046009B83F087
:103F0000080353EA0A030AD15CEA010201D16207FD
:103F100005D530228DF804204FF001087F1E582867
:103F200004D034A003900EA802900DE036A0F9E76B
:103F300053466046009AFCF723FC84460398825C53
:103F40000298401E029002705CEA0100F0D10298D3
:103F500006A9081A00F1200A600702D524F480346B
:103F600000E00127574502DDA7EB0A0000E0002032
:103F700000EB0A01009005984144401A0590E003C7
:103F800006D45B462146179A059800F0B3F905441C
:103F9000002706E001A85A46C05D179990476D1C9E
:103FA0007F1C4745F6DBE0030CD55B462146179A9C
:103FB000059800F09FF9054404E030205A4617990F
:103FC00090476D1C0099481E00900029F5DC08E020
:103FD000029802995A460078491C02911799904715
:103FE0006D1CBAF10001AAF1010AF1DC65E10000E3
:103FF00009280100303132333435363738396162BF
:104000006364656600000000303132333435363782
:1040100038394142434445460000000000F058F959
:104020000544761C307800287FF4ECAD19B02846A2
:10403000BDE8F08F620700D4062709F1070222F0DD
:10404000070CFCE80223E14603F000485FEA080C95
:1040500002D00FF2702C0DE05FEA045C02D50FF283
:10406000682C07E05FEAC47C02D00FF2602C01E00C
:10407000AFF2700C4FF0FF3823F00043CDF850C082
:1040800065280CD006DC452809D046281DD04728D5
:104090003DD13DE0662818D067287ED138E0002168
:1040A000112F01DB112000E0781CCDE9000106A9E9
:1040B0000EA8FFF7DDFCDDE90F010E9A0391002148
:1040C000009207F1010A04914DE04FF00040009783
:1040D000CDE9011006A90EA8FFF7CAFCDDE90F0221
:1040E00003920E9B11990022DDF80CA0009304921C
:1040F00011B9791C00EB010AB7EB0A0004D4C0F136
:10410000FF3007F1010A0490AAEB0700019044E098
:10411000012F00DA01270021112F01DD112000E01D
:104120003846CDE9000106A90EA8FFF7A1FCDDE99C
:104130000F010E9A0391002104910092BA462107C3
:104140000CD40399514500DA8A46BAF1010F05DD16
:10415000009AAAF10101515C302908D0B84202DA74
:1041600010F1040F06DA0121CDE9011015E0AAF1E2
:104170000101E9E7002805DC049901440491AAEB58
:10418000000102E0411C514500DD8A460499401AB5
:10419000401C01904FF000400290200704D4019889
:1041A000504501DBCDF8048000208DF84F000298C7
:1041B0000DF14F07B0F1004F25D02B200E90029843
:1041C0004FF0020800280CDA404202902D200E9099
:1041D00007E00A210298FCF7BDFA3031029007F897
:1041E000011DB8F10001A8F10108F2DC02980028D5
:1041F000EFD1791E0E980870307800F0200040F062
:10420000450007F8020D12A8C01B00F1070814981A
:10421000007800B1012000EB0A01019801EBE07188
:1042200005984144401A401E0590E00306D45B46C1
:104230002146179A059800F05DF805441498007817
:1042400018B15A46179990476D1CE00324D55B4678
:104250002146179A059800F04DF805441CE0049893
:10426000002807DBDDE90301884203DD0098405C9C
:10427000179901E0179930205A469047049805F1A4
:104280000105401C04900198401E019004D12E208D
:104290005A46179990476D1CBAF10001AAF1010A1C
:1042A000DDDC05E017F8010B5A46179990476D1CA5
:1042B000B8F10001A8F10108F4DC5B462146179A29
:1042C0000598ABE62D0000002B0000002000000048
:1042D0002DE9F041044600251E461746880404D403
:1042E00005E039462020B0476D1C641EF9D52846EC
:1042F000BDE8F0812DE9F041044600251E469046B8
:10430000C80301D5302700E02027880404D505E044
:1043100041463846B0476D1C641EF9D52846BDE8B5
:10432000F081000038B504468DF800000223012218
:1043300069460248FDF7F8FE204638BDB00200206D
:104340001CB5FCF7C7FFFFF77BF9FEF79FFDFEF7F3
:10435000F3FDFEF7E7FEFEF70FFEFEF7FFFEFEF7AA
:1043600077FEFEF7ABFEFEF727FE00F0BFF829A0B0
:10437000FFF74EFB35480568A86A401CFCF781F939
:104380000446E86A0E46401CFCF77BF9304D0246B5
:104390000B4600202946FCF7D4F822463346FCF7AA
:1043A000D0F802460B462BA0FFF732FB2748FDF75B
:1043B00051FB33480668B06A401CFCF762F90446BA
:1043C000F06A0F46401CFCF75CF902460B460020E1
:1043D0002946FCF7B6F822463B46FCF7B2F80246FF
:1043E0000B4628A0FFF714FB2548FDF733FB4FF4DD
:1043F0007A70FCF785FB00F029F92DA1D1E90001C5
:10440000CDE900010A23082269462B48FDF78CFEFE
:10441000F8E700005B096D61696E5D696E666F3A71
:104420004750494F2C494943312F322C5553415263
:1044300054312F322C54494D322F332F34B3F5CA17
:10444000BCBBAFCDEAB3C90D0A000000DC010020FF
:10445000882A91415B096D61696E5D696E666F3A8C
:10446000B6A8CAB1C6F733D6D0B6CFBFAAC6F4A392
:10447000ACD6DCC6DA252E3266487A0D0A0000007A
:10448000240200205B096D61696E5D696E666F3A9A
:10449000B6A8CAB1C6F734D6D0B6CFBFAAC6F4A361
:1044A000ACD6DCC6DA252E3266487A0D0A0000004A
:1044B000A55A05820040000C6C0200200A4890F8C2
:1044C000220006280ED2DFE800F00D030507090BD5
:1044D00000F0D0B800F0BAB800F0F8B800F0E2B8D8
:1044E00000F09CB870470000C800002070B51D4C5B
:1044F0001B482060FEF792FF1B486060FEF7A0FE9D
:10450000002525721948E0601948206119A0FFF7BD
:104510007FFA01222148E168FEF76CF820A0FFF73E
:1045200077FA022228482169FEF764F82748A0613B
:1045300027A0FFF76DFA0121A069FEF7F5FF2EA075
:10454000FFF766FA3448E061241DFFF731F8256172
:10455000257765770120E077BDE8704000F08AB8E4
:10456000BC000020C800002090000020280000208F
:104570005C0000205B09776F726B7379735D696E05
:10458000666F3AB0E5D4D8485035383036B3A2CA51
:10459000D4B3F5CABCBBAF0D0A000000EC0000208C
:1045A0005B09776F726B7379735D696E666F3ACD75
:1045B000E2D6C3485035383036B3A2CAD4B3F5CAB0
:1045C000BCBBAF0D0A00000040010020000000202D
:1045D0005B09776F726B7379735D696E666F3AC151
:1045E000BDC2B7BCCCB5E7C6F7B3A2CAD4B3F5CA4F
:1045F000BCBBAF0D0A0000005B09776F726B73796B
:10460000735D696E666F3A524742B3A2CAD4B3F57E
:10461000CABCBBAF0D0A00001000002010B50A4C48
:10462000002194F8230084F82200052084F8230058
:104630002068FEF791FE2068FEF718FFE069BDE8EC
:1046400010400021FEF78ABFC800002010B5084CBA
:1046500094F8230084F82200022084F8230001CC7F
:10466000FEF704FFA069BDE810400221FEF776BF07
:10467000C800002010B50A4C002194F8230084F8EB
:104680002200012084F823002068FEF765FE2068E0
:10469000FEF7ECFEE069BDE810400121FEF75EBFC9
:1046A000C800002010B5084C94F8230084F82200BC
:1046B000042084F8230001CCFEF790FEA069BDE839
:1046C00010400421FEF74ABFC800002010B5084C76
:1046D00094F8230084F82200032084F8230001CCFE
:1046E000FEF7C4FEA069BDE810400621FEF736BF04
:1046F000C8000020000000000000000001020304C8
:104700000607080900000000010203042C47000806
:104710000000002028000000503A0008544700081C
:1047200028000020D0060000603A000800000000C9
:104730000001010000000000000000000000000077
:104740000100000010000000000000000024F40040
:044750000000000065
:04000005080000ED02
:00000001FF
