:020000040800F2
:10000000B01400200101000881380008852F000885
:1000100089370008730B00085D4A000800000000E3
:10002000000000000000000000000000913B0008FC
:10003000DB0B000800000000C13A0008ED3B00089F
:100040001B0100081B0100081B0100081B01000820
:100050001B0100081B0100081B0100081B01000810
:100060001B0100081B0100081B0100081B01000800
:100070001B0100081B0100081B0100081B010008F0
:100080001B010008A50B00081B0100081B0100084C
:100090001B0100081B0100081B0100081B010008D0
:1000A0001B0100081B0100081B0100081B010008C0
:1000B0001B010008513C00085D3C00081B010008C2
:1000C0001B0100081B0100081B0100081B010008A0
:1000D0001B010008454A0008514A00081B0100089E
:1000E0001B0100081B0100081B010008DFF80CD0F1
:1000F00000F002FD00480047D55A0008B014002067
:100100000648804706480047FEE7FEE7FEE7FEE7B1
:10011000FEE7FEE7FEE7FEE7FEE7FEE74F3C0008EE
:10012000ED000008202A04DB203A21FA02F0002129
:10013000704721FA02F3D040C2F1200291400843F7
:100140001946704740EA01039B0703D009E008C93C
:10015000121F08C0042AFAD203E011F8013B00F88C
:10016000013B521EF9D27047D2B201E000F8012BD8
:10017000491EFBD270470022F6E710B513460A4627
:1001800004461946FFF7F0FF204610BDF0B480EAA0
:100190000102D40F4200B2EB410F02D202460846E0
:1001A00011464A0042D0C30DDDB2C1F3C752AD1AA9
:1001B000202D35DAC1F3160141F4000204B1524298
:1001C000C5F1200602FA06F12A411044B3EBD05FD4
:1001D00023D0C4B1012DA0EBC35009DCF0BC4FF01B
:1001E000004202EAC352DBB200F5000000F07FBB20
:1001F000400000F1807000EBC350A0F1807040EA35
:10020000D170490009E0490841EAC071A0EBC35030
:1002100000F50000400800EBC350F0BC00F05EBBEE
:100220006142012202EB4101001BF6E7F0BC70477E
:1002300081F00041AAE780F00040A7E780EA0102D0
:1002400010B502F00043400022D04A001FD0010E3A
:1002500001EB1261C0F35600C2F3560240F40000F5
:1002600042F40002A0FB022000047F39140400D0F5
:10027000401C50EA124001D44000491EC2B20C0694
:1002800004EBD010401C4008802A02D003E000207C
:1002900010BD20F00100002900DA0020184310BD35
:1002A00030B480EA010202F0004530F0004221F053
:1002B000004013D090B1C30DD40DC2F31601C0F3AA
:1002C0001600E41A41F4000140F400027D3491422A
:1002D00001D3641C00E04900002C02DA30BC00208D
:1002E00070474FF400000023914201D3891A034361
:1002F00040084FEA4101F7D151B1914202D14FF08C
:10030000004105E002D24FF0010101E06FF0010170
:1003100003EBC450284430BC00F0E0BA420005D0E2
:10032000C0F3C7525242914201DC0020704700EBFB
:10033000C15070472DE9FE4F804681EA0300C00F8F
:100340000C46009021F0004123F00045B8EB02007C
:10035000A94105D24046214690461C460B4602461E
:1003600023F00040104347D0270DC7F30A00C3F322
:100370000A510290401A019040286BDAC3F313002F
:1003800040F4801B0098924620B10023D2EB030A70
:1003900063EB0B0B01985946C0F14002504600F048
:1003A0007CFA06460D4650465946019A00F084FAFA
:1003B00010EB08006141002487EA115284EAE773D8
:1003C0001A4340D0009A62B3019A012A4FEA0752B9
:1003D00015DC001B61EB02014FF0004202EA0752FC
:1003E000CDE90042001C41F5801132462B4600F059
:1003F000D9FA03B0BDE8F08F40462146F9E7001B6B
:1004000061EB0201001C41F5801300185B412018CC
:10041000A2F5001747EB030140EAD570B6196D410C
:1004200011E06D084FEA360645EAC0754FEA0752FB
:10043000001B61EB0201001C41F5801149084FEAE5
:1004400030000019514132462B4603B0BDE8F04F51
:1004500000F099BA0098012240000023D0EB02027C
:1004600063EBE073009821464FEAE074B8EB0000BC
:1004700061EB0401E9E783F000435BE781F00041B1
:1004800058E72DE9FE4F81EA030404F0004421F00F
:10049000004100944FF0000B23F0004350EA0104A8
:1004A0005ED052EA03045BD0C3F30A54C1F30A5589
:1004B0002C44A4F2F3340194A0FB0254C1F31301C1
:1004C00041F48011C3F3130343F4801301FB02448E
:1004D00000FB034E840A970A44EA815447EA835793
:1004E000A4FB076802958D0A05FB07854FEA932C4C
:1004F00004FB0C542705029D4FEA065847EA1637BD
:10050000B5EB08056EEB070C870E920E47EA8117D4
:1005100042EA8312A7FB0201B6EB0B0164EB000475
:100520002B0D43EA0C335E1844EB1C50DA4651465F
:10053000E7FB0201C5F313044FEA0B3343EA1453FC
:100540004FEA0432019C43EA0603A4F10C0402942E
:10055000009CCDE900B400F025FA03B0BDE8F08FAF
:1005600000200146F9E72DE9F04D81EA030404F08B
:10057000004B21F0004514464FF0000A23F00041E3
:1005800050EA050220D054EA01021DD0C5F30A57F3
:100590000246C5F31303C1F31300C1F30A5640F436
:1005A000801543F48013A7EB0608101BD64608F20B
:1005B000FD3873EB050002D308F1010801E0921841
:1005C0005B41B8F1000F03DA00200146BDE8F08D71
:1005D00000204FF48011064684460EE0171B73EB93
:1005E000050705D3121B63EB050306434CEA010C18
:1005F00049084FEA300092185B4150EA0107EDD1FB
:1006000052EA030012D082EA040083EA050108439B
:1006100005D0101BAB4106D20122002306E00022C8
:100620004FF0004302E06FF0010253101AEB060096
:100630004CEB085110EB0A0041EB0B01BDE8F04D0B
:1006400000F0A1B970B521F0004303430CD0C1F311
:100650000A550024D5EB040564EB0403D617AD1A44
:10066000B34102DB0020014670BD201841EB02516E
:1006700070BDC10F80EAE0700844CA0796230021CC
:1006800000F035B996230022114600F030B90EB5BE
:10069000C10F80EAE0700844CA07002140F23343EA
:1006A0008DE80E000A460B4600F07CF903B000BD51
:1006B0000EB540F2334102910021CDE900110A4606
:1006C0000B4600F06FF903B000BD00F0004220F0CF
:1006D0000040C10DC0F3160040F400007F2901DA8C
:1006E00000207047962903DCC1F19601C84001E063
:1006F00096398840002AF4D04042704720F00040EC
:10070000C10DC0F3160040F400007F2901DA00207B
:100710007047962903DCC1F19601C84070479639AD
:100720008840704700F0004230F000400AD0C10D10
:1007300001F56071C0F3160042EA0151C20840079A
:1007400011437047002001467047000030B5041E79
:1007500071F1000404DB4FF00044404264EB0101FE
:10076000141E73F1000405DB1C464FF00043524297
:1007700063EB04038B4208BF824230BD30B5041ED8
:1007800071F1000404DB4FF00044404264EB0101CE
:10079000141E73F1000405DB1C464FF00043524267
:1007A00063EB0403994208BF904230BD01F000435F
:1007B00030B421F0004150EA010206D00A0DA2F542
:1007C0006072C1F31301002A02DC30BC00207047C4
:1007D000440F44EAC104C100E01830BC00EBC25031
:1007E00000F07CB8002801DBC0F10040002901DBEB
:1007F000C1F1004181427047002801DBC0F1004097
:10080000002901DBC1F100418842704730B50B4639
:10081000014600202022012409E021FA02F59D4230
:1008200005D303FA02F5491B04FA02F52844151E04
:10083000A2F10102F1DC30BD2DE9F05F0546002098
:1008400092469B4688460646814640241BE0284641
:10085000414647462246FFF765FC53465A46C01AB2
:10086000914110D311461846224600F016F82D1A71
:1008700067EB01084F4622460120002100F00DF8E9
:1008800017EB00094E41201EA4F10104DFDC4846AD
:1008900031462A464346BDE8F09F202A04DB203A31
:1008A00000FA02F1002070479140C2F1200320FAC3
:1008B00003F3194390407047202A06DBCB17203AF8
:1008C00041FA02F043EAE07306E041FA02F3D04055
:1008D000C2F1200291400843194670470029A8BF81
:1008E0007047401C490008BF20F00100704710B459
:1008F000B0FA80FC00FA0CF050EA010404BF10BC0E
:10090000704749B1CCF1200421FA04F411FA0CF13A
:1009100018BF012121430843A3EB0C01CB1D4FEA73
:1009200000614FEA102042BF002010BC704700EB6E
:10093000C35010440029A4BF10BC7047401C49009C
:1009400008BF20F0010010BC704710B541000CD06A
:10095000C0F3C751962908DC7E2909DC06DB410279
:1009600004D000F0004040F07E5010BD002010BDCB
:10097000C1F19604C4F1200100FA01F1E040FFF753
:10098000ADFFA04010BD10B5141E73F1000408DACD
:10099000401C41F1000192185B411A4301D120F043
:1009A000010010BD2DE9F04D92469B4611B1B1FA00
:1009B00081F202E0B0FA80F220329046FFF76DFF3C
:1009C00004460F4640EA0A0041EA0B0153465A46E4
:1009D000084313D0114653EA010019D0C8F1400270
:1009E0005046FFF79FFB05460E4650465946424685
:1009F000FFF753FF084305D0012004E020463946A5
:100A0000BDE8F08D0020054346EAE0762C433743ED
:100A10000A986305E40AA0EB08000022FD0A44EAF4
:100A200047540A3002D500200146E9E701051019B4
:100A30006941DDE9084500196941BDE8F04DA2E7CB
:100A4000C1F30A52C1F3130140F2FF3341F48011A4
:100A50009A4202DA00200146704740F233439A423C
:100A6000A2F2334202DC5242FFF75CBBFFF715BF34
:100A700010B500F0004420F00040C20DC0F3160095
:100A800040F400007F2A07DA7D2A00DA7D22763AD8
:100A900000FA02F1002008E0962A09DCA2F17601B2
:100AA00000FA01F1C2F19602D040FFF717FF01E012
:100AB000963A9040002C00D0404210BD002801DB47
:100AC000C0F10040002901DBC1F10041814202D2A6
:100AD0004FF0004004E04FF0005001D14FF0C04013
:100AE0004FEA2062EFF3008162F31F6181F3008817
:100AF0007047002070470000064C074D06E0E06894
:100B000040F0010394E8070098471034AC42F6D354
:100B1000FFF7F0FA006D0008206D000870B58C1822
:100B200010F8015B15F0070301D110F8013B2A1101
:100B300006D110F8012B03E010F8016B01F8016BEE
:100B40005B1EF9D12B0705D40023521E0DD401F8EA
:100B5000013BFAE710F8013BCB1A921C03E013F8B3
:100B6000015B01F8015B521EF9D5A142D8D30020E8
:100B700070BDFEE701220221014800F0C8BA000062
:100B8000000C014001221146014800F0C0BA0000EB
:100B9000000C014001228021014800F0B8BA000099
:100BA00000080140014800F09BB800006C0E0020D6
:100BB00030B590F840500124AC40C56B6C600468BF
:100BC00063604368102B036803D099600068C260BB
:100BD00030BD9A600068C16030BD704772B6FEE7F4
:100BE000064890F90000411C03D0012803D00020E2
:100BF0007047012070470220704700000400002069
:100C000010B590F821100022022905D0042181633B
:100C100080F82020012010BD01680B6823F00E032E
:100C20000B6001680B6823F001030B6090F8403003
:100C3000C46B012101FA03F3636080F8211080F88E
:100C40002020104610BD000010B590F8211000249F
:100C5000022903D00421816301243DE001680A6870
:100C600022F00E020A6001680A6822F001020A609E
:100C70001A4A0168914201D1012121E0174A143238
:100C8000914201D110211BE0144A2832914201D136
:100C9000891515E0114A3C32914201D189140FE0C7
:100CA0000E4A5032914202D14FF4803108E00B4A93
:100CB0006432914202D14FF4801101E04FF0807113
:100CC000064A083A5160012180F82110002180F87D
:100CD0002010416B01B18847204610BD080002403A
:100CE0002DE9F05FC16B0C6801680B68D0F840C05B
:100CF000042202FA0CF2494DDFF824A1494E4A4F72
:100D0000DFF828B1DFF828E122422CD05A072AD593
:100D10000A68920603D40A6822F004020A60016895
:100D2000A94201D1042219E0514501D1402215E028
:100D3000B14202D14FF4806210E0B94202D14FF4C7
:100D400080420BE0594502D14FF4802206E0714504
:100D500002D14FF4800201E04FF080622F49083940
:100D60004A60C16A3BE04FF0020808FA0CF818EA42
:100D7000040F4FF000094FF0010235D05FEA83788D
:100D800032D50B689B0605D40B6823F00A030B6071
:100D900080F821200168A94201D1022219E05145C1
:100DA00001D1202215E0B14202D14FF4007210E0CF
:100DB000B94202D14FF400520BE0594502D14FF431
:100DC000003206E0714502D14FF4001201E04FF00D
:100DD0000072124908394A6080F82090816A00291F
:100DE0001AD0BDE8F05F0847082505FA0CF5254242
:100DF00012D01B0710D50B6823F00E030B6090F880
:100E00004010C36B02FA01F15960826380F821201F
:100E100080F82090016BE2E7BDE8F09F08000240F7
:100E20001C000240300002404400024058000240D2
:100E30006C00024030B528B308C813491422194485
:100E4000B1FBF2F18900C16310498163022141774E
:100E50001A6843F6F0718A43D0E900142143D0E9BF
:100E600002452C4321430469214344692143846999
:100E70002143114319600021416301224277017728
:100E8000084630BD012030BDF8FFFDBF0000024024
:100E900070B5044690F82000002501280CD00120F0
:100EA00084F8200094F821600020012E06D084F8F8
:100EB00020000225284670BD022070BD022684F85D
:100EC0002160A0632068066826F0010606602046BF
:100ED000FFF76EFEE06A00282068016802D041F04A
:100EE0000E0106E021F0040101602068016841F074
:100EF0000A0101602068016841F001010160D9E741
:100F000070B5044600F008F90546601C02D004489C
:100F10000078044400F000F9401BA042FAD370BDF1
:100F2000200300202DE9F84FDFF8B891002409F1E3
:100F3000040A0AF1040B23460F270BF1040EC9E043
:100F40000125A5402A40AA427DD1674ED1F804C0B0
:100F5000ACEB0608B44532D014DCBCF1030F3AD038
:100F600009DCBCF1000F2AD0BCF1010F1CD0BCF190
:100F7000020F31D11DE0BCF1110F17D0BCF1120FDF
:100F80002AD119E0B8F5881F19D006DCB8F5803FE2
:100F900015D0B8F5801F1FD111E0B8F5001F0ED095
:100FA000B8F5041F18D10AE0CB6815E0CB681B1D0B
:100FB00012E0CB6808330FE0CB680C330CE08B6891
:100FC0002BB1012B4FF0080303D0456104E004234B
:100FD00002E0056100E00023FF2A01D8064601E097
:100FE00000F104064FEA840501D9A5F12005D6F8E1
:100FF000008007FA05FC28EA0C0803FA05F548EA20
:101000000508C6F800804D68ED0062D5374DAE6921
:1010100046F00106AE61AD6924F0030605F0010556
:101020000095334D06EB050CDCF80850A607360F8B
:1010300007FA06F825EA0805DFF8B880404503D12D
:101040004FF0000817E044E0DFF8AC80404502D1E3
:101050004FF001080FE0DFF8A480404502D14FF0C7
:10106000020808E0DFF89880404502D14FF00308FD
:1010700001E04FF0040808FA06F848EA0508CCF841
:1010800008804D68D9F80060ED034D4601D5164340
:1010900000E096432E604D68DAF80060AD035546D7
:1010A00001D5164300E096432E604D68DBF80060E2
:1010B000ED025D4601D5164300E096432E604D6873
:1010C000DEF80060AD02754601D5164300E0964398
:1010D0002E60641C0D682A46E5407FF431AFBDE800
:1010E000F88F0000000401400000111000100240C1
:1010F0000000014000080140000C014000100140C8
:10110000001401408068084000D0012070470AB1F7
:10111000016170470904FBE70148806870470000DF
:101120002003002070B5040025D094F83D00002570
:1011300020B984F83C50204600F078FA242084F846
:101140003D002068016821F001010160206801680C
:1011500041F4004101602068016821F40041016010
:1011600000F0DEFB4D4A6168914201D84C4900E035
:101170004C49884201D2012070BD4B492368B0FB25
:10118000F1F15E6826F03F060E435E6063689342AD
:1011900006D94FF4967359434FF47A73B1FBF3F1C8
:1011A0002368491C1E6A26F03F06314319626168B4
:1011B000914210D84900401EB0FBF1F2521CC2F31C
:1011C0000B02042A01D2042022E0B0FBF1F0401C03
:1011D000C0F30B001CE0A268F2B301EBC10303EB08
:1011E0000116431EB3FBF6F35B1C43F480431B055F
:1011F00049D092B301EBC10202EB0111401EB0FBDA
:10120000F1F0401CC0F30B0040F4804040F400407B
:101210002168CA694CF6FF739A431043C861D4E948
:10122000071001432068026822F0C00211430160E8
:10123000D4E9030101432068826848F2FF339A43EE
:1012400011438160D4E9050108432168CA6822F08E
:10125000FF021043C86001E00EE016E0206801685C
:1012600041F0010101602564202084F83D002563E0
:1012700084F83E50002070BD01EB4106431EB3FBD5
:10128000F6F35B1CB3E70120C2E701EB4101401E0E
:10129000B0FBF1F0401CC0F30B00B7E7A0860100E3
:1012A00080841E0000093D0040420F002DE9FF4FE1
:1012B00083B00025DDE910799A4693460446DDF8AF
:1012C00048800095FFF728FF064694F83D00202847
:1012D0007CD11923012285492046009601F062FF46
:1012E0000028F5D194F83C0001286FD0012084F843
:1012F0003C0020680168C90703D1016841F0010181
:1013000001602068016821F400610160222084F8F6
:101310003D00402084F83E0025646762A4F82A90CE
:10132000608D20857248E062CDE9008653465A46BA
:101330002046049901F03EFE00287DD1208DDFF883
:10134000B491202768B1012814D0022820680168D0
:101350001ED041F48061016020684169806900907D
:10136000B6E02068416981690091016841F400712B
:101370000160ADE02068016821F48061016072B60F
:101380002068416981690091016841F400710AE0B7
:1013900041F40061016072B6206841698169009181
:1013A000016821F48061016062B691E0032868D889
:1013B00001280CD0022843464FF00002494620463F
:1013C00000960FD001F0EEFEB0BB10E08BE032468D
:1013D0004146204601F065FF70BB20680069616AE4
:1013E00008706CE001F0DEFE30BB72B634E02068BD
:1013F000016821F48061016072B620680069616A49
:101400000870606A401C6062208D401E2085608DDF
:10141000401E6085384846F2A8110068B0FBF1F024
:10142000C0EBC00000EB80000090401E009008D090
:1014300020684069C04300E029E040070CD50098CF
:10144000F3E744F8305F6773A573206940F020002C
:10145000206162B625731AE02068016841F40071CA
:10146000016020680069616A0870606A401C6062FF
:10147000218D491E2185618D491E618562B62168D5
:101480001BE032464146204601F00BFF18B1012017
:1014900007B0BDE8F08F20680069616A0870606A73
:1014A000401C6062218D491E2185618D491E618528
:1014B00021684A69D24352070AD409690170606AF7
:1014C000401C6062208D401E2085608D401E60851E
:1014D000208D00287FF46AAF84F83D7084F83E5078
:1014E00084F83C50D4E70220D2E70000020010004C
:1014F0000000FFFF040001002C0300202DE9FF4F36
:1015000083B09A46DDE9119793460446DDF84080A2
:10151000FFF702FE054694F83D0020287FD11923ED
:10152000012240492046009501F03CFE002876D17A
:1015300094F83C00012872D0012084F83C00206817
:101540000168C90703D1016841F001010160206809
:10155000016821F400610160212084F83D004020F1
:1015600084F83E0000262664C4F82480A4F82A905B
:10157000608D20852C48E062CDE9007553465A46BF
:101580002046049901F094FD70B930E02A463946AE
:10159000204601F0B9FE58B1206C042804D120681F
:1015A000016841F400710160012007B0BDE8F08FCF
:1015B000606A216800780861606A401C6062218D61
:1015C000491E89B22185628D521E62852268536947
:1015D000DB435B070BD469B100781061606A401C83
:1015E0006062208D401E2085608D401E6085208DAC
:1015F0000028CBD12A463946204601F0ADFD00280F
:10160000CAD154F83D0B016841F4007101602020FB
:1016100004F81E09E67766770020C6E7FFE7022098
:10162000C3E70000020010000000FFFF30B585B0E6
:10163000002100910191029103911E4D03681E4CFF
:10164000122103221D48AB4216D1A36943F00803BF
:10165000A361A369039203F008030493C023CDE9B7
:1016600000316946FFF75EFCE06940F40010E0617C
:10167000E06900F4001019E0114DAB4217D1A369E5
:1016800043F00803A361A369039203F008030493E2
:101690004FF44063CDE900316946FFF743FCE06950
:1016A00040F48000E061E06900F48000049005B03F
:1016B00030BD00000054004000100240000C01400A
:1016C00000580040024881680278114481607047E8
:1016D00020030020074810B5016841F010010160A7
:1016E000032000F075F8002000F006F800F024F860
:1016F000002010BD0020024070B50D4D04464FF48F
:101700007A712878B1FBF0F00A490968B1FBF0F072
:1017100000F0ECFA48B9102C07D200222146501EE6
:1017200000F036F800206C6070BD012070BD000034
:10173000200300202C0300200C4808B5816941F0EB
:1017400001018161816901F001010091C16941F0EC
:101750008051C161C06900F0805000900448416828
:1017600021F0E06141F00071416008BD00100240CD
:1017700000000140002809DB00F01F020121914018
:101780004009800000F1E020C0F80011704700001F
:10179000F0B40E4B1B680C46C3F30223C3F10705DC
:1017A000042D00D90425191D072901D2002300E0CA
:1017B000DB1E012606FA05F1491E214099409E4094
:1017C000761E16403143F0BC03F06DB90CED00E01D
:1017D000064900F0070208684FF6FF03184040EA88
:1017E0000220034A10430860704700000CED00E03F
:1017F0000000FA052DE9F0470F46050061D0434E81
:10180000306800F00700B84209D2306820F00700C5
:1018100038433060306800F00700B84251D1286882
:101820003B4C810712D5400703D5606840F4E06067
:1018300060602878000703D5606840F460506060FD
:101840006068A96820F0F000084360602878C0074D
:1018500028D06868012810D02168022810D0890794
:1018600000292EDA616821F0030101436160FFF76E
:1018700053FC804641F288390DE021688903EFE787
:101880008901EDE7FFF748FCA0EB0801494502D9C3
:101890000320BDE8F0876068696800F00C00B0EBD9
:1018A000810FEFD1306800F00700B8420BD93068E3
:1018B00020F0070038433060306800F00700B8427D
:1018C00001D00120E5E72878400705D56068E96880
:1018D00020F4E060084360602878000706D560685F
:1018E000296920F4605040EAC100606000F038F8D7
:1018F0006168084AC1F30311515CC8400649086099
:1019000006480068FFF7F8FE0020C2E7002002400A
:1019100000100240766B00082C03002024030020F6
:101920000448054900684968044AC1F30221515C32
:10193000C84070472C03002000100240866B00084E
:101940000448054900684968044AC1F3C221515C52
:10195000C84070472C03002000100240866B00082E
:1019600012A185B00FC98DE80F0014A0144A0068B9
:1019700004905168134801F00C03042B10D0082B7D
:101980000ED1C1F38343C9031DF803000AD5516882
:1019900004AAC1F34041515C0A4A5043B0FBF1F044
:1019A00005B0704708494843FAE700000203040500
:1019B000060708090A0B0C0D0E0F1010010200009B
:1019C0000010024000127A0000093D002DE9F84F96
:1019D000040070D02078C04DC00749D06868C0F3BB
:1019E0008100012807D06868C0F38100022809D16E
:1019F0006868C00306D52868800339D56068002868
:101A0000E7D035E06068B0F5803F0BD010B1B0F59D
:101A1000A02F11D0286820F480302860286820F496
:101A2000802002E0286840F480302860606890B12F
:101A3000FFF772FB06460AE0286840F48020286021
:101A4000F0E700BFFFF768FB801B642873D82868A5
:101A50008003F7D50CE0FFF75FFB064605E000BF0B
:101A6000FFF75AFB801B6428F0D828688003F7D45E
:101A700020789A4E80074FF001094FF0000839D5C1
:101A8000686810F00C0F07D06868C0F38100022866
:101A900009D16868C00306D42868800714D5206976
:101AA000012808D110E02069B0B1C6F80090FFF716
:101AB00033FB074605E00AE1FFF72EFBC01B0228B7
:101AC000C4D828688007F7D52868616920F0F80035
:101AD00040EAC10028600DE0C6F80080FFF71CFB5B
:101AE000074604E0FFF718FBC01B022823D828682C
:101AF0008007F7D4207800072CD57948A169D9B19F
:101B0000C0F80090FFF708FB074604E0FFF704FB6E
:101B1000C01B02280FD8686A8007F7D571484FF4B8
:101B2000FA510068B0FBF1F0009000BF0098411E30
:101B30000091FAD20EE080E0C0F80080FFF7ECFAE6
:101B4000074604E0FFF7E8FAC01B022875D8686A68
:101B50008007F7D42078400760D5E8690027C000E7
:101B600008D4E86940F08050E861E869012700F096
:101B7000805000905C480168C90513D40168834611
:101B800041F480710160FFF7C7FA824606E000BFAA
:101B9000FFF7C2FAA0EB0A0064284ED8DBF8000079
:101BA000C005F5D5E06801280AD008B1052813D092
:101BB000286A20F001002862286A20F0040002E070
:101BC000286A40F001002862E06841F2883B98B141
:101BD000FFF7A2FA82460BE0286A40F00400286270
:101BE000EEE700BFFFF798FAA0EB0A0159455AD873
:101BF000286A8007F6D50CE0FFF78EFA824605E0EA
:101C0000FFF78AFAA0EB0A0159454CD8286A8007E9
:101C1000F6D41FB1E86920F08050E861E06988B32C
:101C20006968C1F38101022944D00228C6F86080A6
:101C300004D0FFF771FA044638E034E0FFF76CFA9D
:101C4000074604E0FFF768FAC01B02282BD8286873
:101C50008001F7D4206AB0F5803F05D16868A1689B
:101C600020F4003008436860D4E90801084369683B
:101C700021F4741108436860C6F86090FFF74CFACD
:101C8000044606E025E000BFFFF746FA001B0228E5
:101C900009D828688001F7D51BE000BFFFF73CFAA0
:101CA000001B022802D90320BDE8F88F28688001B4
:101CB000F4D40EE00128F7D06868226A00F480317D
:101CC000914204D1616A00F47010884201D0012071
:101CD000EAE70020E8E7000000100240000042426E
:101CE000800442422C0300200070004010B5401ECA
:101CF000B0F1807F01D3012010BD4FF0E02460617E
:101D00000F21601702F0CFFE0020A06107202061A4
:101D1000002010BD7047704770B590F83C20012A34
:101D200026D0012480F83C40022280F83D20036840
:101D30005A689D6822F070060A6832435A600D4B5B
:101D400002689A4208D0B2F1804F05D00A4B9A42FD
:101D500002D00A4B9A4204D1496825F08003194306
:101D6000916080F83D40002180F83C10084670BD2D
:101D7000022070BD002C014000040040000800401B
:101D800010B5040003D094F83D0010B107E0012025
:101D900010BD002084F83C00204600F01FF802200F
:101DA00084F83D00211D206801F05EFF012084F8C9
:101DB000460084F83E0084F83F0084F8400084F830
:101DC000410084F8420084F8430084F8440084F819
:101DD000450084F83D00002010BD000008B50168F2
:101DE0001948B1F1804F11D0184A914217D1C169F9
:101DF00041F00201C161C069002200F002000090C0
:101E000002211D20FFF7C4FC1D2019E0C16941F02B
:101E10000101C161C06900F00100009008BD0C4AD9
:101E20009142FBD1C16941F00401C161C069002246
:101E300000F00400009003211E20FFF7A9FC1E20E3
:101E4000BDE80840FFF796BC0010024000040040C7
:101E50000008004090F83D10012901D00120704792
:101E6000022180F83D100168CA6842F00102CA6090
:101E700000680B49884208D0B0F1804F05D009496D
:101E8000884202D00849884204D1816801F00701E4
:101E9000062903D0016841F001010160002070476C
:101EA000002C0140000400400008004070B50446CA
:101EB00090F83C00012817D0012584F83C500220FE
:101EC00084F83D002068826822F0770222F47F4285
:101ED00082600868502830D00DDC20284DD005DC09
:101EE00098B310283BD148E0022070BD302844D080
:101EF000402834D139E0602828D0702806D0B0F5C9
:101F0000805F2CD0B0F5005F29D10AE0CB68D1E921
:101F10000121206801F0EBFE2068816841F0770123
:101F200009E0CB68D1E90121206801F0E0FE2068DA
:101F3000816841F48041816011E0CA684968206885
:101F400001F08AFF5021206807E016E0CA6849685E
:101F5000206801F092FF6021206801F0D2FE84F831
:101F60003D50002084F83C0070BDCA684968206874
:101F700001F072FF40212068EFE722680146104619
:101F8000EBE7704770B50446006801694FF0000543
:101F9000C943890715D4C168C943890711D4E91E0B
:101FA000016101202077206880698007204602D0E7
:101FB000FFF7E7FF04E000F0BBF8204600F04AF925
:101FC000257720680169C943490717D4C168C94307
:101FD000490713D46FF004010161022020772068C3
:101FE000806910F4407F204602D0FFF7CAFF04E06A
:101FF00000F09EF8204600F02DF925772068016951
:10200000C943090716D4C168C943090712D46FF040
:1020100008010161042020772068C06980072046FC
:1020200002D0FFF7AEFF04E000F082F8204600F097
:1020300011F9257720680169C943C90617D4C16819
:10204000C943C90613D46FF010010161082020773D
:102050002068C06910F4407F204602D0FFF791FF4E
:1020600004E000F065F8204600F0F4F825772068D9
:102070000169C943C90708D1C168C943C90704D167
:10208000891E0161204600F06DF920680169C9438D
:10209000090609D4C168C943090605D46FF0800157
:1020A00001612046FFF736FE20680169C9434906F1
:1020B00009D4C168C943490605D46FF040010161E4
:1020C000204600F0A1F920680169C94389060BD4B4
:1020D000C168C943890607D46FF020010161204619
:1020E000BDE87040FFF717BE70BD000000B585B0B9
:1020F000002100910191029103910068B0F1804F9D
:1021000010D10948816941F0040181618069694603
:1021100000F0040004900220009001900390034816
:10212000FEF700FF05B000BD0010024000080140AE
:10213000704770B5044690F83C000D4601280AD05F
:10214000012084F83C0042B1042A18D0082A2AD081
:102150000C2A4DD139E0022070BD206801F0DAFD73
:102160002068816941F0080181612068816921F05E
:1021700004018161206881692A69114311E02068A6
:1021800001F0F0FD2068816941F4006181612068FF
:10219000816921F480618161206881692A6941EA4D
:1021A0000221816124E0206801F008FE2068C169F5
:1021B00041F00801C1612068C16921F00401C161D9
:1021C0002068C1692A69114311E0206801F022FEEC
:1021D0002068C16941F40061C1612068C16921F4CE
:1021E0008061C1612068C1692A6941EA0221C16137
:1021F000002084F83C0070BD10B5040003D094F8B2
:102200003D0010B107E0012010BD002084F83C0023
:10221000204600F01EF8022084F83D00211D2068B1
:1022200001F022FD012084F8460084F83E0084F885
:102230003F0084F8400084F8410084F8420084F8AC
:10224000430084F8440084F8450084F83D000020F1
:1022500010BD70477047000010B50446022249B116
:1022600004290ED0082913D094F84100012816D073
:10227000012010BD94F83E000128F9D184F83E20D9
:102280000FE094F83F000128F2D184F83F2008E0E5
:1022900094F840000128EBD184F8402001E084F854
:1022A00041200122206801F015FD0F492068884275
:1022B00003D1426C42F4004242642068884208D054
:1022C000B0F1804F05D00949884202D008498842C0
:1022D00004D1816801F00701062903D0016841F0AB
:1022E00001010160002010BD002C014000040040ED
:1022F0000008004030B504460D460068002201F099
:10230000E9FC174B41F2111120688A10984209D15B
:10231000036A0B4206D1036A134203D1436C23F4D0
:10232000004343642068036A0B4206D1016A1142EC
:1023300003D1016821F00101016001203DB1042DAC
:1023400008D0082D09D084F84100002030BD84F861
:102350003E00FAE784F83F00F7E784F84000F4E72E
:10236000002C01401F4910B5884214D11E4908783D
:10237000401C08701D490878401C08701C490878EA
:10238000401C08701B490878401C08701A490878DE
:10239000401C087010BD134948318842FAD1174CCF
:1023A0002078B0B901F0F6FBFEF71AFC14490128B9
:1023B00002D002280DD106E0086A8078062808D0ED
:1023C00004F052FA05E0086A81780629F8D104F091
:1023D00037F940210B48FEF795FE0028DAD000209F
:1023E000207010BD540D002030000020310000206E
:1023F0002D0000202E0000202F00002004000020CF
:10240000E403002000080140704770477047000057
:10241000F8B5026804461068D168536910F00F0FD0
:102420004FF0000553D003F0010601F490773743D5
:102430005FD0C20705D0CA0503D5226C42F0010265
:102440002264420705D5DA0703D0226C42F002026B
:102450002264820705D5DA0703D0226C42F0040219
:102460002264020707D501F02002324303D0226C18
:1024700042F008022264226C002A34D0800604D57F
:10248000880602D5204602F0D7F920684069216C01
:10249000C0F38010090700D430B3204602F0ABF936
:1024A0002068416949061BD5416921F0400141611D
:1024B000A06BA8B158494163A06BFEF7C5FB00288B
:1024C00011D0A06B416B01B0BDE8F0400847830616
:1024D0000FD58B060DD52046BDE8F84002F0ACB90B
:1024E0002046FFF793FFF8BD2046FFF78FFF2564D6
:1024F000F8BD266B2023012E52D1C60650D5CE063C
:102500004ED5106850680090506940062AD5A16BDE
:10251000086840680004000CEAD0A68D8642E7D91E
:10252000E0858869202818D0D06820F48070D060B9
:102530002068416921F0010141612068416921F071
:102540004001416184F83E3025632068C16821F074
:102550001001C160A06BFEF753FBA08DE18D401A06
:1025600081B219E0A08DE18D401A81B2E08D002882
:10257000BED00029BCD0D06820F49070D060206814
:10258000426922F00102426184F83E3025632068EE
:10259000C26822F01002C2602046FFF736FFF8BD85
:1025A00005062BD50D0629D594F83D002128F6D136
:1025B000A068B0F5805F01D12069B0B1206A411CEC
:1025C0002162216800784860E08C401E0004000C05
:1025D000E084E4D12068C16821F08001C1602068F6
:1025E000C16841F04001C160F8BD206A0088C0F3B5
:1025F00008005060206A801C2062E5E74006F3D5A1
:102600004806F1D5D168204621F04001D16084F818
:102610003D3000F0ABF9F8BD6547000870B5040027
:1026200004D094F83D00002510B106E0012070BDF3
:1026300084F83C50204600F023F8242084F83D0024
:102640002068C16821F40051C160204602F050F9B1
:102650002068016921F4904101612068416921F0FD
:102660002A0141612068C16841F40051C1602564BC
:10267000202084F83D0084F83E00002070BD00005A
:10268000F0B585B0002400940194029403940646AA
:10269000374F0368374902200322374DBB4226D10A
:1026A0008B6943F480438B618B6903F4804304930B
:1026B0008B6943F004038B618969039201F0040183
:1026C00004910102CDE9001069462846FEF72AFC74
:1026D0002815CDE90004694628460294FEF722FC3D
:1026E000002201212520FFF753F825203CE0234F4D
:1026F000BB423BD1CB6943F40033CB61CB6903F4DC
:10270000003304938B6943F004038B61896903925E
:1027100001F0040104910421CDE900106946284626
:10272000FEF700FC0820CDE9000469462846029423
:10273000FEF7F8FB134D124828601020C5E901048C
:102740008020C5E903046C61AC612846EC61FEF7AA
:1027500071FB08B1FEF742FA75630022114626208C
:102760006E62FFF715F82620FFF704F805B0F0BDFC
:1027700000380140001002400008014000440040C1
:10278000800002406C0E002090F83E30202B0ED1CD
:1027900059B152B190F83C30012B08D0012380F898
:1027A0003C300023036302F0FFB801207047022091
:1027B000704700002DE9F041054600681749184EA2
:1027C0000027184C4FF4006888420ED11648017853
:1027D00020883154401C80B22080404500D12780A1
:1027E000012211491148FFF7CFFF1149286888429B
:1027F00011D11048017820883154401C80B22080CB
:10280000404500D12780BDE8F04108480122094930
:102810004430FFF7B9BFBDE8F08100000038014047
:102820001C04002018000020440C0020E40D0020AF
:10283000004400404E0C00202DE9F843044690F877
:102840003D001F4616460D4620284CD1C5B1BEB1ED
:1028500094F83C00012846D0012084F83C004FF059
:102860000008C4F84080212084F83D00FEF754FCA5
:10287000A6848146E684A068B0F5805F03D004E0BA
:102880000120BDE8F883206928B12E465FF00005DD
:1028900084F83C800EE00026FAE78021204602F012
:1028A0009EF8A0B9AEB116F8010B21684860E08C23
:1028B000401EE084E08C4B464FF000020097002859
:1028C000EBD14FF04001204602F089F830B10320EF
:1028D000D7E735F8020BC0F30800E6E7202084F8BC
:1028E0003D000020CDE70220CBE7000070B5044694
:1028F00090F83D00202830D169B362B394F83C00D1
:1029000001282AD0012084F83C002162A284E284BC
:1029100000252564212084F83D00636B10489862EF
:10292000636B1048D862636B0F481863606B134683
:1029300045632668606B321DFEF7AAFA21686FF0C6
:102940004000086084F83C502068416941F08001F3
:102950004161002070BD012070BD022070BD0000EB
:10296000BF470008ED4700087547000800680349A5
:10297000884202D10249002008707047004400409C
:102980001D030020704700B5024600F027F808B18B
:10299000002000BD9068D0E90220C1E9002001209C
:1029A00000BD70B5061E01DC002070BD0C2003F0D8
:1029B0000BF9051EF9D0F4000834204603F004F9A1
:1029C000A86038B12146FDF7D6FB0020C5E90060BC
:1029D000284670BD284602F0B3FEE5E7002802D085
:1029E000406808B10020704701207047002803D0DC
:1029F00003C8814201D10120704700207047F0B523
:102A000002460124FFF7EAFF08B10020F0BDD2E939
:102A1000013000EBC303D3E90056D0E90230C1E92D
:102A200000305068401E506001D008271EE09168B9
:102A3000002088609168C86021E09068630007EB1F
:102A4000C30E50F833C050F80EE0F44502DA994254
:102A500000D05B1C50F83310A9420BDD00EBC4041E
:102A600000EBC3004068C4E900101C465168B1EB9C
:102A7000440FE2DA906800EBC400C0E90056012080
:102A8000F0BDF0B504460D461046FFF7AFFF08B1A4
:102A90000020F0BD53685B1C05E000EBC3007368C9
:102AA000C0E900734B1003EBD37190684E1000EB3C
:102AB000C6063768A74201DA012BEEDC00EBC30043
:102AC000C0E900455068401C50600120F0BD000086
:102AD00010B50A784B78120142EA131202801305EE
:102AE00002D542F4704202804B788A7803F00F03DB
:102AF00042EA03224280130502D542F4704242802A
:102B0000CA780B79120342EA03124B7942EA131294
:102B1000114B4260140301D51A4342604A798C7903
:102B20001207120B42EA0422CC792243826014037A
:102B300001D51A4382600A8952BA82814A8952BAFF
:102B4000C2818A8952BA0282CA8952BA4282098AE9
:102B500049BA818210BD00000000F0FF08B50021D5
:102B60008DF800106A460D2100F03CF918B99DF867
:102B70000000102801D0012008BD002008BD10B5BC
:102B800086B00C466B461222102100F03BF910B1C2
:102B9000012006B010BD69462046FFF799FF0020CE
:102BA000F7E700002DE9FC41054601200C468DF8B1
:102BB000040001AA0821284600F053F948B91E2054
:102BC000FEF79EF96B4603220021284600F01AF911
:102BD00010B10120BDE8FC819DF800009DF80110B6
:102BE000000440EA01209DF802100843E061010260
:102BF00002D540F07F40E061FDF73BFD2849FDF73D
:102C00004FFB8046A062B4F91200FDF732FD414649
:102C1000FDF714FB0546B4F90E00FDF72AFD294621
:102C2000FDF7B4FAE56A064641462846FDF706FB7D
:102C30003146FDF703FB0746B4F90C00FDF719FD1B
:102C40002946FDF7FBFA0646B4F91400FDF711FD1D
:102C50004146FDF7F3FA0546B4F91000FDF709FD0A
:102C60002946FDF793FA4146FDF7E8FA0546A068C4
:102C7000FDF7FFFC2946FDF789FA4146FDF7DEFA2C
:102C800005466068FDF7F5FC2946FDF77FFA3146F9
:102C9000FDF77CFA3946FDF779FA6062002099E782
:102CA000000078487CB5054602200C468DF80400EB
:102CB00001AA0821284600F0D4F848B90520FEF7FB
:102CC0001FF903226B461146284600F09BF808B115
:102CD00001207CBD9DF800009DF80110000440EA31
:102CE00001209DF802100843A061010202D540F0C6
:102CF0007F40A061FDF7BDFC6FF01201FDF70EFBF8
:102D00000546E062B4F90200FDF7B3FC2946FDF781
:102D100095FAFDF707FD06460D46B4F90000FDF7EC
:102D2000B6FC4FF0FF32FDF78DFC32462B46FDF727
:102D300001FBFDF73BFD206200207CBDF8B5144689
:102D40000D460646FFF70AFF00283AD10520FEF798
:102D5000D7F800208DF800000520FEF7D1F82946AD
:102D60003046FFF70CFF0520FEF7CAF8042229467B
:102D7000304600F027F80520FEF7C2F86A46282101
:102D8000304600F02FF89DF8000010F080038DF819
:102D9000003002D0802B02D006E0002200E080222A
:102DA0002946304600F04DF80520FEF7A9F8042228
:102DB0002946304600F035F80520FEF7A1F885F8E1
:102DC0003340F8BD38B514460D468DF800206A46EC
:102DD000062100F046F808B1012038BD85F83040E2
:102DE000002038BD3EB54FF47A7300920124CDE93E
:102DF00001430A462346EF21FEF758FA002800D087
:102E000001203EBD3EB54FF47A74CDE900320A464A
:102E100002940123EF21FEF749FA002800D0012097
:102E20003EBD38B514460D468DF800206A4609218E
:102E300000F017F808B1012038BD85F832400020B5
:102E400038BD38B514460D468DF800206A46072176
:102E500000F007F808B1012038BD85F831400020A6
:102E600038BD3EB54FF47A7300920124CDE9014399
:102E70000A462346EE21FEF741FB002800D0012040
:102E80003EBD00002DE9F041054690F833000427CF
:102E9000DFF8CC80334E344C012802D0022807D012
:102EA0000EE029463148FFF7FDFE29462F4805E090
:102EB00029462F48FFF7F6FE29462D48FFF772FEF8
:102EC000686AFDF72FFC00224346FDF74CFB002209
:102ED000284BFDF73BFC0BD22078000708D40520D7
:102EE00039463268FFF7CDFD207840F0080016E043
:102EF000686AFDF717FC00224346FDF734FB002209
:102F00001D4BFDF73BFC0BD22078400708D4384618
:102F100003213268FFF7B5FD207840F004002070EF
:102F2000164A296A012091420AD92278920707D4C9
:102F300002213268FFF7A5FD207840F002000CE086
:102F40000F4A91420ADD2178C90707D1014632684C
:102F5000FFF797FD207840F001002070BDE8F08178
:102F600000005940280000201C030020580C0020BD
:102F7000AC0C002000C0824000309140000070C1C5
:102F800000004842FEE701684A69D24352050FD467
:102F90006FF480624A61002140F8301F20224273A2
:102FA0008173026942F004020261017301207047DB
:102FB000002070472DE9F84F0446006889460B9DB4
:102FC00001689846174641F48061016020680168F5
:102FD00041F48071016000954FF0011B00225946B9
:102FE00020460A9B00F0DEF84FF4007A40B12068DA
:102FF0000068C00501D5C4F840A00320BDE8F88FE3
:10300000216809F0FE0008612B46284920460A9AEB
:1030100000F0FCF8F0BB20684169806900902A4606
:1030200020460A9900F070F940B1206C04283AD18A
:103030002068016841F40071016034E0FEB2B8F12B
:10304000010F09D02168380A08612A4620460A99EA
:1030500000F05AF90028E8D1206806612A46204687
:103060000A9900F051F90028DFD12068016841F485
:103070008071016000950022594620460A9B00F0AD
:1030800091F80028B3D1216809F0FF0040F0010059
:10309000086100E007E02B46044920460A9A00F048
:1030A000B5F80028AAD00120A8E70000020001001E
:1030B0002DE9F843044600680D46DDE908970168EC
:1030C0009846164641F4807101604B4600224FF04D
:1030D00001112046009700F065F848B120680068AB
:1030E000C00502D54FF4007020640320BDE8F883CA
:1030F000216805F0FE0008613B464A461549204616
:1031000000F084F888B920684169806900903A46E7
:103110004946204600F0F8F848B1206C042804D154
:103120002068016841F4007101600120DEE7F5B21A
:10313000B8F1010F09D02168300A08613A464946C2
:10314000204600F0E1F80028E7D120680561002062
:10315000CCE700000200010070B516460D4604469B
:103160000DE02046FFF70FFF08B1012070BD681C7D
:1031700005D0FDF7D1FF801BA84207D835B12068E4
:103180004069C0434007ECD4002070BD002044F8E3
:10319000300F20216173A073216941F0200121616A
:1031A0002073E2E72DE9F0471E4690460D4604469F
:1031B000C1F30747DDF8209008E0701C06D0FDF74A
:1031C000ABFFA0EB0900B0420FD876B12068012F09
:1031D00018D0806925EA00000004000C14D00021FA
:1031E0004145EAD00020BDE8F087002044F8300FC8
:1031F00020216173A073216941F0200121612073B6
:103200000120F0E74069E5E70121E9E72DE9F04712
:103210009A4691460E46044600254FF02008C1F319
:10322000074725E020684069C043400514D4206862
:10323000016841F40071016021686FF480604861A9
:10324000256384F83D8084F83E50206C40F00400F3
:10325000206484F83C501FE0B9F1FF3F08D0FDF72F
:103260005BFFA0EB0A0149450CD8B9F1000F09D06A
:103270002068012F13D0806926EA00000004000CAA
:103280000BD0CFE744F8305F84F80D80A573206938
:1032900040F02000206125730120BDE8F0874069DF
:1032A000EAE72DE9F041002590460E460446202726
:1032B00017E04069C043C0060CD454F8301B6FF0CF
:1032C0001000486144F810596777A577206A20629A
:1032D000257717E0FDF720FFA0EB0800B04208D8E3
:1032E0003EB120684169C9434906E2D40020BDE8E7
:1032F000F08144F8305F6773A573206940F02000C7
:10330000206125730120F2E770B516460D4604468C
:103310000DE02046FFF737FE08B1012070BD681CA4
:1033200005D0FDF7F9FE801BA84207D835B120680B
:103330004069C0430006ECD4002070BD002044F872
:10334000300F20216173A073216941F020012161B8
:103350002073E2E72DE9F047344C0026207800B3D3
:10336000334D286A807802281BD1EF683149786A8A
:10337000FCF796FF304A617842F82100491CC8B238
:10338000607001280ED00A280ED002EB80000838A9
:1033900003C8FCF74DFF2949884202D828498842D2
:1033A00000DD6670BDE8F0876670516A1068FCF752
:1033B0003FFFB0F1414FF5D8B0F1824FF2DCA846A3
:1033C000686AFDF7AFF904460D46786AFDF7AAF979
:1033D000DFF8709000224B46FDF7C5F80746D8F895
:1033E00008000E46406AFDF79DF900224B46FDF7A6
:1033F000BAF83A463346FDF73EF822462B46FDF72B
:103400003AF8FDF7D3F910498842CBD30F4C207816
:10341000C006C7D40E4A022005211268FFF731FB0F
:10342000207840F010002070BCE70000250000204C
:10343000E40300200000C8421C0C0020000020C152
:1034400000002041000059400000A0C01C030020E3
:1034500028000020094808B5416941F00101416197
:103460004069002200F00100009011461120FEF793
:103470008FF9BDE808401120FEF77CB9001002402A
:103480002DE9F04385B0002525480095019502956A
:103490000395816941F020018161816901F020017A
:1034A0000491816941F004018161816901F00401A5
:1034B0000491816941F0080181618069DFF86480CD
:1034C00000F0080004900122B0214046FDF71FFEE5
:1034D000DFF8549040F20317012239464846FDF7C1
:1034E00016FE0124B020CDE900040226CDE90246F3
:1034F00069464046FDF716FD4020CDE900056946C6
:1035000040460295FDF70EFDCDE90074CDE9024677
:1035100069464846FDF706FD05B0BDE8F0830000AA
:103520000010024000080140000C01400D4810B599
:103530000B4901600C49416000214FF480428160D9
:10354000C0E9031241618161C1610162FDF7EAFDD9
:10355000002803D0BDE81040FDF740BB10BD0000BF
:1035600000540040580C0020A08601000D4810B502
:103570000B4901600C49416000214FF48042816099
:10358000C0E9031241618161C1610162FDF7CAFDB9
:10359000002803D0BDE81040FDF720BB10BD00009F
:1035A00000580040AC0C0020A086010010B58EB081
:1035B00000240794089409940A940B941C216846EB
:1035C0000C94FCF7D8FD1E484FF0804101600721A4
:1035D000C0E9011440F28F11C0E903148461FEF7C1
:1035E000CFFB08B1FDF7FAFA4FF48050079007A916
:1035F0001348FEF75BFC08B1FDF7F0FA1048FEF740
:10360000FBFD08B1FDF7EAFA0B940BA90C480C94EA
:10361000FEF782FB08B1FDF7E1FA6020CDE9000476
:1036200002940422694606480494FEF782FD08B11C
:10363000FDF7D4FA0248FEF759FD0EB010BD0000A8
:103640000C0D002010B586B0002418480094019499
:1036500002940394049414490594016041F61F41B7
:10366000C0E9011440F2CF71C0E9031480218161E7
:10367000FEF786FB08B1FDF7B1FA4FF480500090D9
:1036800069460A48FEF712FC08B1FDF7A7FA049450
:1036900004A906480594FEF73FFB002801D0FDF77A
:1036A0009DFA06B010BD000000040040540D00203B
:1036B00010B586B000241748009401940294039436
:1036C000049413490594016041F61F41C0E90114B7
:1036D0006321C0E903148461FEF752FB08B1FDF7D2
:1036E0007DFA4FF48050009069460A48FEF7DEFBF1
:1036F00008B1FDF773FA049404A906480594FEF78F
:103700000BFB002801D0FDF769FA06B010BD0000E0
:10371000000800409C0D00200C4810B50A490160CB
:103720004FF4E1314160002181600C22C160C0E9A9
:1037300004128161C161FEF771FF002803D0BDE86A
:103740001040FDF74BBA10BD00380140E40D0020D9
:103750000C4810B50A4901604FF4E1314160002185
:1037600081600C22C160C0E904128161C161FEF771
:1037700055FF002803D0BDE81040FDF72FBA10BD5B
:1037800000440040280E0020FEE700002DE9F04133
:10379000384C206900F0C6F9606900F0C3F9364D75
:1037A0000026E878052803D3EE70E06900F088FB76
:1037B000A878052802D3AE70FFF7CCFD68780328FF
:1037C00002D900F0F3FC6E702879012808D92E7117
:1037D000A068FFF757FBE068FFF754FB00F010FD0F
:1037E0006879052825D36E71206A8078022820D157
:1037F00094F83400214E08B3676A2F61E0683146BF
:10380000406AFCF74DFD8046A0683146406AFCF7EF
:1038100047FD4146FCF70CFDE8606A69A96852F86B
:103820002130154A525C394602F012F9FCF721FFAB
:10383000A062206A8078042816D017E0E06831463C
:10384000406AFCF72DFD0546A0683146406AFCF74A
:1038500027FD616AFCF7ECFC01462A46606800F02F
:1038600049F86068C069E3E7E06AA062BDE8F0413A
:1038700003F0C2B8E40300202C0000200000C8427E
:10388000FEE70000002202210148FDF740BC0000D5
:10389000000C0140002201210148FDF738BC000066
:1038A000000C0140002280210148FDF730BC0000DF
:1038B000000801400021016041608160C160C16178
:1038C000016207490161074941610749816107496F
:1038D0004162074981624FF07F51C1627047000029
:1038E0007368ED405EBA893E1283F0400000C84222
:1038F0000000C8C22DE9F04104464FF00008C4E9B9
:1039000000121046FCF794FCA060E16AFCF76AFF25
:1039100008D2E06AA16880F00040FCF763FF01D2A2
:10392000C4F80880A568206A2946FCF72FFC2062AD
:1039300006462846E168FCF77BFCA169FCF77EFCA3
:1039400007464FF07E506169FCF778FC3146FCF782
:1039500075FC064629462069FCF770FC3146FCF7E9
:1039600015FC3946FCF712FCE06110F1FF4F02D361
:10397000C4F81C8003E00349884200DDE161E56092
:10398000BDE8F0810000C8432DE9F047264FDFF87D
:103990009C800C0006464FF4C87A4FF0000901D510
:1039A000002402E0544500DD544621480068846349
:1039B0002046FCF76CFE00221E4BFCF762FD002245
:1039C0001D4BFCF7D0FDFCF7F1FE05463168FCF716
:1039D00009FF05D0356044B101213E2000F08EFE84
:1039E00054450BD1012038700AE0D8F820008078C7
:1039F000062816D000213E2000F080FE87F80090B7
:103A0000D8F820008078062809D10C4C20780128AD
:103A100005D102213E2000F071FE84F80090BDE83F
:103A2000F0870221E7E7000025000020E4030020E2
:103A30000C0D0020000059400000794010000020CB
:103A400010B5044604210348FEF754FC0020207101
:103A500010BD00000C0D00202DE9F041054600F0DE
:103A600023F800212846FFF78FFF0D480668B06A4B
:103A7000401CFCF71DFE0746F06A0C46401CFCF794
:103A800017FE02460B4600200649FCF76CFD3A463D
:103A90002346FCF768FDFCF789FEA860BDE8F081CD
:103AA0000C0D0020882A914110B5044604210348DA
:103AB000FEF7D2FB0120207110BD00000C0D00208C
:103AC0007047000010B504464078084B012802D02A
:103AD000022803D007E00122102101E00122202169
:103AE0001846FDF714FB0020207010BD00080140AF
:103AF0004170FFF7E7BF000010B504464078084B5F
:103B0000012802D0022803D007E00022102101E0A2
:103B1000002220211846FDF7FAFA0120207010BD7E
:103B2000000801400178012903D0002903D1FFF7E3
:103B3000C9BFFFF7E1BF704710B50446C1F380006D
:103B4000C1F340022070627001F00101A17038B130
:103B500008B1FFF7A7FE607828B1012806D007E07A
:103B6000FDF718F8F7E7FDF70DF801E0FFF792FE13
:103B7000A07828B1012807D1BDE81040FFF782BE28
:103B8000BDE81040FCF7F6BF10BD0021FFF7D4BF21
:103B90007047000070B5134C4FF001056068401C81
:103BA0006060A178607801430F484FF0400103D076
:103BB000FDF7A8FA70B10BE0FDF7A4FA10B1FF20F1
:103BC000207005E0D4E90101401A3C2801D9257094
:103BD000657070BD6078A070002060706068A06043
:103BE00070BD00000400002000080140FDF76ABD20
:103BF00030B58FB028216846FCF7BDFA14210AA819
:103C0000FCF7B9FA01210804CDE900100024029460
:103C100002250491CDE907504FF4E0100990684661
:103C2000FDF7D4FE08B172B6FEE70F20CDE90A0514
:103C30004FF48060CDE90C4002210AA80E94FDF7F4
:103C4000D9FD002801D072B6FEE70FB030BD704735
:103C50000148FEF797B90000540D00200148FEF717
:103C600091B900009C0D0020F0B50268164B174C6E
:103C7000174D4FF08047984205D0B84203D0A0427C
:103C800001D0A84203D122F070064A68324398421C
:103C900005D0B84203D0A04201D0A84203D122F4FB
:103CA0004074CA6822434C6922F0800222430260B9
:103CB0008A68C2620A688262984201D10969016316
:103CC00001214161F0BD0000002C014000040040D2
:103CD0000008004010B501F01F030121046A99405B
:103CE0008C430462016A9A401143016210BD10B511
:103CF000846842EA032224F47F440A432243826018
:103D000010BD826822F070020A4342F00701816010
:103D10007047000030B5026A22F001020262026AB6
:103D20004368846924F073050C682C4322F0020573
:103D30008A682A430A4DA8420BD122F00805CA68B6
:103D400023F440732A434D6922F004021D438B691A
:103D50002B434360846149684163026230BD0000C7
:103D6000002C014030B5026A22F010020262026AA1
:103D7000436884690D6824F4E64444EA05248D68A8
:103D800022F0200242EA05120B4DA8420ED1CD6866
:103D900022F0800242EA05124D6923F4406343EAAF
:103DA00085038D6922F0400243EA85034360846104
:103DB00049688163026230BD002C014030B5026A5F
:103DC00022F480720262036A4268C46923F40073B9
:103DD00024F073050C682C438D6843EA05230C4DD1
:103DE000A8420ED1CD6823F4006343EA05234D6950
:103DF00022F4405242EA05128D6923F4806342EABC
:103E000005124260C4614968C163036230BD0000AD
:103E1000002C014030B5026A22F480520262046A2A
:103E20004268C3690D6823F4E64343EA05238D68BD
:103E300024F4005444EA0534064DA84204D14D69E7
:103E400022F4804242EA85124260C36149680164FB
:103E5000046230BD002C014010B5036A046A24F0EE
:103E600001040462846924F0F00444EA021423F09B
:103E70000A020A438461026210BD10B5036A23F08E
:103E8000100303628369046A23F4704343EA023235
:103E900024F0A00343EA01118261016210BD0021F8
:103EA00001704180017141710181704700210170F1
:103EB0004180017141714A1EC2800181704700003A
:103EC0000178012926D14179491CC9B241713C29A7
:103ED00011D30179491CCAB20021027141713C2AF7
:103EE00009D3428842F20F73521C92B24280017190
:103EF0009A4200D94180B0F90610491C0BD0B0F9A4
:103F000008100A4A002909DD126A9278042A01D1B0
:103F1000491E018170474FF0FF31FAE7FAD1106A6C
:103F200080780428F6D102F031BD0000E4030020BF
:103F30001CB506A10A23D1E90001CDE90001072241
:103F400069460448FEF778FC1CBD0000A55A0480B1
:103F5000EE5AA500E40D002070B53A4C3A4DE068E9
:103F60002946406AFCF79CF9FCF7C8FB81B2802027
:103F700000F0C4FBE0682946406AFCF791F9FCF7C1
:103F8000BDFB81B2802000F0CDFBA0682946406ACD
:103F9000FCF786F9FCF7B2FB81B2842000F0AEFB9F
:103FA000A0682946406AFCF77BF9FCF7A7FB81B2C1
:103FB000842000F0B7FBE0682946006AFCF73EF970
:103FC000FCF783FB81B2882000F098FBE06829466B
:103FD000006AFCF733F9FCF778FB81B2882000F027
:103FE000A1FBA0682946006AFCF728F9FCF76DFBE5
:103FF00081B28C2000F082FBA0682946006AFCF7A1
:104000001DF9FCF762FB81B28C2000F08BFBE068AD
:104010000E49406AFCF744F90D49FCF70CF9FCF72E
:104020006DFB81B2092000F069FBE0680949006A74
:10403000FCF7ACF8FCF762FBBDE8704081B20A20E7
:1040400000F05CBBE4030020000020410000C842F7
:10405000000096440000704170B5184C184EE0689E
:104060003146406AFCF71CF90546A0683146406AB3
:10407000FCF716F92946FCF7DBF8FCF73FFB85B2A5
:104080003146606AFCF7DAF8FCF738FB81B20F20A2
:1040900000F034FB3146606AFCF7D0F8FCF72EFBE9
:1040A00081B20F2000F03EFB29460E2000F026FBD7
:1040B0002946BDE870400E2000F034BBE403002028
:1040C00000002041084810B541690069097800786E
:1040D00041EA400421463A2000F010FB2146BDE8A9
:1040E00010403A2000F01EBBE403002010B5114C34
:1040F000206A81783D2000F015FB0F49A06AFCF78B
:104100009DF8FCF7FBFA81B240F23D1000F00AFB8B
:104110006FF00101E06AFCF701F9FCF7EFFA84B2F5
:104120002146392000F0FEFA2146BDE81040392032
:1041300000F0E4BAE40300200000204110B51A4C5E
:10414000E06941880B2000F0D9FAE06941880B2032
:1041500000F0E8FAE06901790C2000F0CFFAE0699C
:1041600001790C2000F0DEFAE06941790D2000F0C1
:10417000C5FAE06941790D2000F0D4FAE069C18800
:10418000372000F0BBFAE069C188372000F0CAFA96
:10419000E0690189382000F0B1FAE0690189BDE8E1
:1041A0001040382000F0BEBAE403002010B5FFF73D
:1041B000D3FEFFF787FFFFF74FFFFFF7BFFFBDE815
:1041C0001040FFF793BF130A4354084442707047EE
:1041D0001CB508A20A23D2E90012CDE90012010A97
:1041E0008DF805108DF80600072269460348FEF792
:1041F00023FB1CBDA55A048003000000E40D002031
:1042000070B586B0142235A16846FBF79BFF384C89
:10421000384EE0683146406AFCF742F8FCF76EFA27
:1042200082B205216846FFF7CEFFA0683146406A9A
:10423000FCF736F8FCF762FA82B207216846FFF70E
:10424000C2FFA0683146406AFCF72AF8616AFBF7B2
:10425000EFFFFCF753FA82B209216846FFF7B3FF7C
:10426000E068254D006A2946FBF790FFFCF746FA07
:1042700082B20B216846FFF7A6FFA0682946006AB4
:10428000FBF784FFFCF73AFA82B20D216846FFF78C
:104290009AFF606AFCF732FA82B20F216846FFF794
:1042A00092FFE0683146406AFBF7FAFF0546A068D6
:1042B0003146406AFBF7F4FF2946FBF7B9FFFCF7EC
:1042C0001DFA82B211216846FFF77DFF0A231322EF
:1042D00069460A48FEF7B0FA06B070BDA55A1084C8
:1042E0007F0000000000000000000000000000004F
:1042F000E40300200000C84200007041E40D0020EB
:104300002DE9F047C64C266AB17806293DD083795D
:104310000022002B39D0818849BA39292CD00F29A5
:1043200035D0372941D03A2947D040F203174FF40E
:10433000817CBD1EC1B3242975D022296FD02329C9
:104340006ED036296DD090296CD0DFF8DC82DFF892
:10435000DC922546DFF8CCA26F68D9F80060D8F867
:104360000050912970D092296FD093296ED0942952
:104370006DD095296CD04FE1B0F8070040BAFCF73A
:1043800081F90221FBF7CAFFE062BDE8F087B0F8CF
:10439000070040BAFCF78CF90022A54BFCF7E3F8C4
:1043A000FCF704FA6062F0E718E0B0F80700E16992
:1043B00040BAC880E1690881E7E7B0F8070040BA71
:1043C00000F00201012901D9012100E00021226948
:1043D00000F00100117061690870D6E7B0F80700BD
:1043E00040BA01280BD002280BD0032807D0B842CE
:1043F00009D10221304602F079F9022046E002217B
:104400002AE0032128E0604505D10321304602F06F
:104410006DF903203AE0A842EBD0B6E703E02BE0C9
:1044200038E040E04AE0B0F8070040BA012810D078
:10443000022810D003280CD0B84212D104213046F3
:1044400002F054F9042021E042E059E06CE07CE005
:104450009BE0042100E005213046BDE8F04702F072
:1044600045B9604505D10521304602F03FF90520E8
:104470000CE0A842E2D088E7B0F80700012144BA76
:10448000304602F033F9AC428DD10120BDE8F0474F
:1044900000F0B8BFB0F8070040BA01288CD1BDE8E1
:1044A000F04702F0B9B8B0F8070040BA012801D0CF
:1044B000A84292D1BDE8F04702F0FEB9B0F807007B
:1044C00040BA012801D0002887D184F834005CE785
:1044D000B0F8070040BA00B2FCF7CBF85146FBF742
:1044E000DFFE386155F826100860D8F80020D9F8AA
:1044F0000030216B52F82340FBF7D2FEE06044E726
:10450000B0F8070040BA00B2FCF7B3F85146FBF729
:10451000C7FE786155F826104860216B55F8264093
:10452000FBF7BEFE206130E7B0F8070040BA00B2EA
:10453000FCF79FF85146FBF7B3FEB86155F826101B
:104540008860216B55F826401BE0B0F8070040BAA0
:1045500000B2FCF78EF85146FBF7A2FE206355F837
:10456000267001463868FBF79BFEF86055F8267008
:10457000216B7868FBF794FE3861216B55F8264073
:10458000A068FBF78DFE6061FFE6B0F8070040BA57
:1045900001289CD194F83410902000F0C3F8D8F88A
:1045A0000000D9F8001045464E4650F82100574605
:1045B00051460068FBF742FEFCF7A0F881B291205B
:1045C00000F0B0F82868316850F82100394640689A
:1045D000FBF734FEFCF792F881B2922000F0A2F8CB
:1045E0002868316850F8210039468068FBF726FEBC
:1045F000FCF784F881B2932000F094F83946206BE0
:10460000FBF71CFEFCF77AF8BDE8F04781B2942076
:1046100000F088B8521CD2B29A42FBD3B5E6000033
:10462000E403002000007A44400000203400002011
:1046300000002440F0B52D49C1B008884B88834262
:1046400040D02B4D4FF400662A5CA52A06D0401CB2
:1046500080B20880B04235D1002042E00246834259
:10466000A3EB020201D802F5006297B2052F29D30D
:10467000821C92B2B24202D3A2F5006292B2AC5C4A
:10468000E41CA7421ED300224FEA0D0715F800C014
:1046900007F802C0401C521C80B292B2B04200D156
:1046A0000020042A10D0F1D904F1030C624516D180
:1046B00008809DF80300812801D0832802D1384664
:1046C000FFF71EFE41B0F0BD9DF80040A52C08D1BB
:1046D0009DF801405A2C04D19DF80240D6E7FF2AEC
:1046E00001D90880EEE79842D0D1EBE71600002010
:1046F0001C0400200146362000F014B8074A82232B
:10470000D370030A13715071080A9071D1710A2392
:10471000082202490248FEF78FB800001A00002064
:10472000E40D00200C4A10B58223D370030A1371E4
:104730005071080A9071D171084908780128FDD09C
:1047400001200870082204490548FEF7CFF8BDE8AB
:1047500010400220FCF7D4BB1A0000201D030020EB
:10476000280E002010B5406A0021C185C184FDF7E4
:104770004DFE10BD70B5446A2068406994F83D1044
:10478000C0F3C0100025212904D118B1E5842046CA
:1047900000F049F82068406994F83E10C0F380109A
:1047A000222904D118B1E585204600F024F8206CB8
:1047B00040F0100020642046FDF728FE70BD10B5C3
:1047C0000146406A0968096889060CD40021C18441
:1047D00001684A6922F080024A610068C16841F0BC
:1047E0004001C16010BDFEF7C1F810BD10B5406AB0
:1047F000FEF7C8F810BD0168CA6822F49072CA605A
:1048000001684A6922F001024A61016B012904D161
:104810000168CA6822F01002CA60202180F83E10A8
:104820000021016370470168CA6822F0C002CA60B3
:10483000202180F83D10704708B590F83E102229DD
:1048400001D0022008BD82684FF480539A4201D102
:10485000016921B1816A9A421BD04AB10AE002681B
:10486000816A5268C2F308020A80816A891C08E0E2
:10487000026972B10268526802F07F020A70816AAE
:10488000491C8162C18D491E0904090CC18503D0F0
:1048900019E002685268F1E70168CA6822F0200254
:1048A000CA600168CA6822F48072CA6001684A69F5
:1048B00022F001024A61202180F83E10016B01299B
:1048C00003D0FDF777FF002008BD002101630168D8
:1048D000CA6822F01002CA6001680A68D20602D5CE
:1048E0000A6849680091818DFDF78FFDEBE70000B4
:1048F00070B5044600680169E26821F44051114333
:1049000001612169A0680843616908432168CA6898
:1049100041F20C639A430243CA6020684169A2696C
:1049200021F44071114341611E492068884202D13F
:10493000FDF706F801E0FCF7F3FF00EBC00101EB27
:104940000012606864218000B2FBF0F3B3FBF1F366
:104950006FF018067343B2FBF0F5B2FBF0F605EB0F
:104960008305322303EB0515B5FBF1F5B6FBF1F634
:1049700005F0F00505EB0615B2FBF0F6B2FBF0F022
:10498000B0FBF1F06FF01802504306EB800003EB30
:104990000010B0FBF1F0216800F00F00284488609F
:1049A00070BD00000038014081628285C28500210F
:1049B0000164222280F83E2080F83C100168CA6819
:1049C00042F48072CA6001684A6942F001024A6199
:1049D0000068C16841F02001C160002070472DE9E6
:1049E000F041984617460E460446069D1DE0681C99
:1049F0001BD02DB1FCF790FBA0EB0800A84214D906
:104A00002068C16821F4D071C1602068416921F03B
:104A100001014161202084F83D0084F83E0000201F
:104A200084F83C000320BDE8F0812068006836EA85
:104A3000000004D00020B842D9D00020F3E70120C4
:104A4000F9E700000148FDF7E3BC0000E40D002099
:104A50000148FDF7DDBC0000280E0020FEE7000045
:104A60000FB4054B10B503A9044A029800F01AF9D7
:104A700010BC5DF814FB000025570008300300202F
:104A80004100080218BF04200A0E18BF40F00100C0
:104A90004FF07F4232EA010108BF40F002000128D6
:104AA00008BF052070470907090E002804DB00F144
:104AB000E02080F80014704700F00F0000F1E020C3
:104AC00080F8141D704700214FF07E50FBF7E8BBC3
:104AD0000121FBF723BCFBF759BB00210846FBF77C
:104AE000DFBB61214FF0E040FBF718BC6FF05E01C7
:104AF0000807FBF713BC02E008C8121F08C1002A10
:104B0000FAD170477047002001E001C1121F002A4E
:104B1000FBD1704701490860704700003C0300204A
:104B20002DE9FF5F82B00021DDE90430020DDDF8E0
:104B300040B0034318D044F61050A2F2FF32424373
:104B40001514119801281FD0A5EB0B00401C5FEA3B
:104B5000000A4FF000064E4FDFF83891B04650463D
:104B600015D5CAF1000413E0119801244AA30128C5
:104B700001D16FEA0B010298119AC0E90031C0E936
:104B8000024206B0BDE8F09FCBF10000DFE704462B
:104B90000021404A491842EB0450CDE9001012E0D0
:104BA000E00707D032463B4640464946FBF769FCE2
:104BB0008046894632463B4610461946FBF761FC63
:104BC00006460F466410002CEAD1DDE90401DDE958
:104BD0000023BAF1000F06DAFBF753FC42464B46BE
:104BE000FBF74FFC05E0FBF7BEFC42464B46FBF7EC
:104BF000BAFC04460E460022284BFBF7BFFD03D843
:104C00004FF0FF30014607E00022254B2046314699
:104C1000FBF790FBFBF714FF102409E0002C0ADBE4
:104C20000A220023FBF708FE039B30321A55641E4C
:104C300050EA0102F2D1641C039AC4F11103144436
:104C4000119A012A03D0012208430DD10AE008433A
:104C500004D000204FF0110B119072E7A3EB0B056D
:104C60006D1E0DE05B4504DD4FF0000205F101050E
:104C700004E003DA4FF00002A5F10105002AECD0B0
:104C800002981199C0E90231C0E9004579E70000B6
:104C9000000014400000F03F300000000000F0432E
:104CA0000000E03F2DE9FF4F95B09B468946064640
:104CB00000250FE2252877D100242746F84A012154
:104CC000059400E0044316F8013F203B01FA03F08D
:104CD0001042F7D130782A2811D06FF02F033078A6
:104CE000A0F13002092A16D8059A44F0020402EB1A
:104CF000820203EB42021044761C0590EFE759F85C
:104D0000042B0592002A03DA504244F40054059023
:104D100044F00204761C30782E2816D116F8010FC4
:104D200044F004042A280DD06FF02F023078A0F14F
:104D30003003092B09D807EB870302EB4303C7189D
:104D4000761CF3E759F8047B761C30786C280FD07A
:104D500006DC4C2817D068280DD06A2814D104E04E
:104D6000742810D07A280FD10DE044F400140AE022
:104D700044F4801401E044F440147278824202D179
:104D800004F58014761C761C307866280BD013DC72
:104D9000582877D009DC002875D04528F6D0462859
:104DA000F4D047281AD19DE118E0632835D0642853
:104DB00079D0652812D195E1702873D008DC672876
:104DC000F1D069286FD06E280DD06F2806D1B5E0DC
:104DD00073282CD0752875D0782874D05A46179926
:104DE00090476D1C75E1C4F30250022809D00328D6
:104DF0000DD0D9F8001004280DD00D6009F1040978
:104E000067E1D9F80010EA17C1E90052F6E7D9F8CE
:104E100000100D80F2E70D70F0E719F8041B8DF813
:104E2000001000208DF80100EA46012003E059F847
:104E300004AB4FF0FF3061074FF0000102D40DE0EA
:104E400008F101018846B9420FDA8045F8DB1AF80B
:104E500008100029F4D108E008F1010188468142D8
:104E6000FADB1AF808100029F6D105985B46A0EB8A
:104E7000080721463846179A00F094FA284400EBB8
:104E8000080507E04DE029E10DE01AF8010B5A464C
:104E900017999047B8F10108F7D25B46214638468A
:104EA000179A13E142E00A220092C4F302524FF033
:104EB000000A022A08D059F804CB032A4FEAEC7101
:104EC0000AD00DE029E02AE009F1070121F00702EC
:104ED000F2E802C1914609E00FFA8CFC4FEAEC714E
:104EE000042A03D14FFA8CFC4FEAEC71002907DA4F
:104EF0000A460021DCF1000C61EB02012D2202E0E8
:104F0000220504D52B228DF80420012203E0E207BC
:104F100001D02022F7E7904659E00A2102E0102252
:104F20000DE010214FF0000A00910BE010224FF02D
:104F3000000A44F004040827009203E008224FF01E
:104F4000000A0092C4F30252022A05D059F804CB99
:104F50000021032A08D009E009F1070121F0070226
:104F6000F2E802C1914605E01FFA8CFC042A01D147
:104F70000CF0FF0C4FF00008220728D5702806D04F
:104F8000009B83F0100353EA0A0305D00EE0402291
:104F90008DF80420012208E05CEA010206D03022EC
:104FA0008DF804208DF8050002229046009B83F0C6
:104FB000080353EA0A030AD15CEA010201D162073D
:104FC00005D530228DF804204FF001087F1E5828A7
:104FD00004D034A003900EA802900DE036A0F9E7AB
:104FE00053466046009AFBF727FC84460398825C90
:104FF0000298401E029002705CEA0100F0D1029813
:1050000006A9081A00F1200A600702D524F48034AA
:1050100000E00127574502DDA7EB0A0000E0002071
:1050200000EB0A01009005984144401A0590E00306
:1050300006D45B462146179A059800F0B3F905445B
:10504000002706E001A85A46C05D179990476D1CDD
:105050007F1C4745F6DBE0030CD55B462146179ADB
:10506000059800F09FF9054404E030205A4617994E
:1050700090476D1C0099481E00900029F5DC08E05F
:10508000029802995A460078491C02911799904754
:105090006D1CBAF10001AAF1010AF1DC65E1000022
:1050A00009280100303132333435363738396162FE
:1050B00063646566000000003031323334353637C2
:1050C00038394142434445460000000000F058F999
:1050D0000544761C307800287FF4ECAD19B02846E2
:1050E000BDE8F08F620700D4062709F1070222F01D
:1050F000070CFCE80223E14603F000485FEA080CD5
:1051000002D00FF2702C0DE05FEA045C02D50FF2C2
:10511000682C07E05FEAC47C02D00FF2602C01E04B
:10512000AFF2700C4FF0FF3823F00043CDF850C0C1
:1051300065280CD006DC452809D046281DD0472814
:105140003DD13DE0662818D067287ED138E00021A7
:10515000112F01DB112000E0781CCDE9000106A928
:105160000EA8FFF7DDFCDDE90F010E9A0391002187
:10517000009207F1010A04914DE04FF000400097C2
:10518000CDE9011006A90EA8FFF7CAFCDDE90F0260
:1051900003920E9B11990022DDF80CA0009304925B
:1051A00011B9791C00EB010AB7EB0A0004D4C0F175
:1051B000FF3007F1010A0490AAEB0700019044E0D8
:1051C000012F00DA01270021112F01DD112000E05D
:1051D0003846CDE9000106A90EA8FFF7A1FCDDE9DC
:1051E0000F010E9A0391002104910092BA46210703
:1051F0000CD40399514500DA8A46BAF1010F05DD56
:10520000009AAAF10101515C302908D0B84202DAB3
:1052100010F1040F06DA0121CDE9011015E0AAF121
:105220000101E9E7002805DC049901440491AAEB97
:10523000000102E0411C514500DD8A460499401AF4
:10524000401C01904FF000400290200704D40198C8
:10525000504501DBCDF8048000208DF84F00029806
:105260000DF14F07B0F1004F25D02B200E90029882
:105270004FF0020800280CDA404202902D200E90D8
:1052800007E00A210298FBF7C1FA3031029007F8D3
:10529000011DB8F10001A8F10108F2DC0298002814
:1052A000EFD1791E0E980870307800F0200040F0A1
:1052B000450007F8020D12A8C01B00F1070814985A
:1052C000007800B1012000EB0A01019801EBE071C8
:1052D00005984144401A401E0590E00306D45B4601
:1052E0002146179A059800F05DF805441498007857
:1052F00018B15A46179990476D1CE00324D55B46B8
:105300002146179A059800F04DF805441CE00498D2
:10531000002807DBDDE90301884203DD0098405CDB
:10532000179901E0179930205A469047049805F1E3
:105330000105401C04900198401E019004D12E20CC
:105340005A46179990476D1CBAF10001AAF1010A5B
:10535000DDDC05E017F8010B5A46179990476D1CE4
:10536000B8F10001A8F10108F4DC5B462146179A68
:105370000598ABE62D0000002B0000002000000087
:105380002DE9F041044600251E461746880404D442
:1053900005E039462020B0476D1C641EF9D528462B
:1053A000BDE8F0812DE9F041044600251E469046F7
:1053B000C80301D5302700E02027880404D505E084
:1053C00041463846B0476D1C641EF9D52846BDE8F5
:1053D000F08110B5012A05D0022A07D0BDE810409F
:1053E00000F07EB9BDE81040FAF728BFFAF7CEFE0C
:1053F0004FF07E51FAF71CFF0146BDE81040002037
:1054000000F05AB91A4910B58A69012809D0022852
:105410000DD0032811D0042815D0052819D006284E
:105420001DD001211046FEF787FB03201CE002215E
:105430001046FEF781FB042016E001211046FEF71E
:105440007BFB052010E002211046FEF775FB1520BE
:105450000AE001211046FEF76FFB162004E004214C
:105460001046FEF769FB2E20BDE81040FEF7B0BEE7
:10547000E403002010B5084B4A689C79A24203D08F
:105480009A710120D87110BDDA790AB1002010BDDF
:10549000FDF7B5FAFAE700002C0000202DE9F041F5
:1054A000074606981C4615460E4628B105A0FFF78C
:1054B000D7FA23462A4631463846BDE8F04100F087
:1054C00035BC0000576172696E673A204E6F2073D9
:1054D000756368206F6620646566757A7A696669A7
:1054E0006572210A00000000012A01D0401A7047AD
:1054F000084470472DE9F04107464FF07E5590462D
:105500000E462846FAF794FE044629463846FAF72E
:1055100092FE2146FAF792FE2946FAF78CFE4146A2
:1055200000F094FC044641462846FAF781FE054601
:1055300031463846FAF782FE294600F087FC2146BC
:10554000BDE8F041FAF77ABE2DE9F04104464FF08C
:1055500019404E49002500EB440088424AD84C4986
:105560002046FAF76BFEFBF7F0F98046FBF7ADF843
:10557000064648494046FAF761FE07464649404616
:10558000FAF75CFE2146FAF756FE3946FAF750FE66
:1055900004464249FAF752FE4149FAF7F7FD21461F
:1055A000FAF74CFE6FF04141FAF7F0FD2146FAF7A9
:1055B00045FE3C49FAF7EAFD2146FAF73FFE01466F
:1055C000394806F00304784450F82400FAF736FE10
:1055D0003649794451F82410FAF7D8FD3449794412
:1055E00051F82410FAF7D2FDB11085BBBDE8F041A7
:1055F000FAF794BE4FF0FF4131EA040018D04FF0A3
:10560000CE41B1EB440F84BF4FF07E50BDE8F08136
:105610002849B1EB440F28BF0125A0D20220FFF793
:1056200079FA14F0004F0ED0BDE8F041FFF75EBAF2
:10563000204614F5000F04BF0020BDE8F081BDE84E
:10564000F041FFF745BABDE8F041FFF74ABAFAF773
:1056500065FE04000BD0B4F1FF4F0FD0FFF710FA36
:10566000042808BFFFF742FA2046BDE8F081022077
:10567000FFF750FABDE8F041FFF738BA0220FFF714
:1056800049FABDE8F041FFF72CBA00000000501EB7
:105690003BAAB840F4FD05370070313E12BB2A3DED
:1056A00012BB2A3EFFFF7F3FE6150000CA1500002F
:1056B000AE1500000000A08570B50C460546FBF74E
:1056C000FDF900F07040B0F1005F07D024F0004019
:1056D000C0F1FF40C00F04BF204670BD284670BD1A
:1056E00070B50C460546FBF7E9F900F07040B0F1E3
:1056F000004F07D024F00040C0F1FF40C00F04BFAE
:10570000204670BD284670BD032A01D2FFF761BE56
:10571000062A02D2D21E00F078BB4FF07C52FFF76F
:10572000E9BE000038B504468DF8000002230122CE
:1057300069460248FDF780F8204638BD280E002053
:1057400010B5002821D0114B0022001F196803E07A
:10575000814203D80A4649680029F9D152B1136839
:10576000841A9C4204D1006818441060104602E07C
:10577000506000E0186039B102680B1A934203D1FF
:105780000B681A4402604968416010BD3403002070
:105790002DE9F74FD4B00027DFF8D48015468146B5
:1057A00032973C463E460DF5847A0DF1D00B339787
:1057B000286900EB0612E8680168484600F03AFAEA
:1057C000404504DD4BF824004AF82460641C761C34
:1057D000072EEDDBC1460026D8463294286900EB3F
:1057E0000612E8684168559800F024FA484504DD3F
:1057F00048F824004AF82460641C761C072EEDDB70
:105800003298201A3390329828B1339818B1002674
:105810000DF1040920E0002003E0E96941F820705F
:10582000401C69688142F8D857B0BDE8F08F002469
:105830000EE03298AA68011958F8260058F821108D
:10584000FFF762FF339906FB0142641C49F822000E
:105850003398A042EDD8761C3298B042E7D82B4658
:1058600032AA42A901A80097FFF718FEDCE7000062
:1058700017B7D13870B506460D46202000F0A4F9C0
:1058800004467019C4E90065800000F09DF9E060ED
:10589000A80000F099F9E061204670BDF0B5002441
:1058A000DDE9056503E0C76847F82410641CD0E90A
:1058B000007C6744A742F6D800210C4603E0C76984
:1058C00047F82140491C47688F42F8D8066182603A
:1058D000C0E90535F0BD00002DE9F047156B144611
:1058E0008A46D562FAF7A7FC064629462063FAF7EE
:1058F0009FFCA16AFAF7D4FC364F3946FAF79EFCB2
:1059000005463046616AFAF7CBFC3946FAF796FC51
:105910002946A26DFFF73CFFA56D3946E86900688E
:10592000FAF7BEFCE168FAF789FC21688846FAF7C5
:105930002DFC8146A06168680026022809D3E86929
:1059400039464068FAF7ACFC2169FAF777FCE06168
:1059500000E0E6616868032809D3E8693946806891
:10596000FAF79EFC6169FAF769FC206200E0E661E3
:10597000E1696068FAF70AFC276B3946FAF75EFCC2
:10598000616BFAF703FC606306463846E16AFAF792
:105990004FFC0546216AA068FAF7F8FB2946FAF79A
:1059A0004DFC054649464046FAF7F0FB3946FAF702
:1059B00045FC3146FAF7EAFB2946FAF7E7FB0546CC
:1059C0005146206CFAF73AFC2946FAF7DFFB60648F
:1059D000BDE8F087000040402DE9FF4F8FB086689A
:1059E00004469A46934630461099FAF759FC656882
:1059F000814628461099FAF753FC276880463846B6
:105A00001099FAF74DFC0DF12C0E1E994FF4C87C3D
:105A1000C82300228EE80E10DDE91C120B4B0DF19D
:105A2000100CCDF820A003938CE8010BCDE90912EE
:105A3000D4E904018DE80B00324629463846E36874
:105A400000F0A6FD13B0BDE8F08F000000007A431F
:105A500070B515461C461A46FFF73EFFFAF735FEAD
:105A600001462A46E06CFFF73FFDA26C216DBDE8C0
:105A7000704000F027B800002DE9FF4F83B00746C3
:105A8000DDE91286DDE910A99B46B00000F09CF824
:105A90000546002410E000BFCDF800A0CDE9019834
:105AA000DDE90412C4EBC40007EB80005B46FFF79E
:105AB00093FF45F82400641CB442EDD307B0284698
:105AC000BDE8F08F884201DD084670479042FCDA5D
:105AD000104670471FB5FBF7FDFDFEF789F8FDF78F
