:020000040800F2
:10000000700F002001010008ED2F0008E52700080F
:10001000392F00083D090008A53D00080000000038
:100020000000000000000000000000002533000870
:1000300071090008000000005532000881330008F3
:100040001B0100081B0100081B0100081B01000820
:100050001B0100081B0100081B0100081B01000810
:100060001B0100081B0100081B0100081B01000800
:100070001B0100081B0100081B0100081B010008F0
:100080001B0100081B0100081B0100081B010008E0
:100090001B0100081B0100081B0100081B010008D0
:1000A0001B0100081B0100081B0100081B010008C0
:1000B0001B010008E5330008F13300081B010008AC
:1000C0001B0100081B0100081B0100081B010008A0
:1000D0001B0100088D3D0008993D00081B01000828
:1000E0001B0100081B0100081B010008DFF80CD0F1
:1000F00000F012FC00480047E53D0008700F0020AA
:100100000648804706480047FEE7FEE7FEE7FEE7B1
:10011000FEE7FEE7FEE7FEE7FEE7FEE7E333000863
:10012000ED000008202A04DB203A21FA02F0002129
:10013000704721FA02F3D040C2F1200291400843F7
:100140001946704740EA01039B0703D009E008C93C
:10015000121F08C0042AFAD203E011F8013B00F88C
:10016000013B521EF9D27047D2B201E000F8012BD8
:10017000491EFBD270470022F6E710B513460A4627
:1001800004461946FFF7F0FF204610BDF0B480EAA0
:100190000102D40F4200B2EB410F02D202460846E0
:1001A00011464A0042D0C30DDDB2C1F3C752AD1AA9
:1001B000202D35DAC1F3160141F4000204B1524298
:1001C000C5F1200602FA06F12A411044B3EBD05FD4
:1001D00023D0C4B1012DA0EBC35009DCF0BC4FF01B
:1001E000004202EAC352DBB200F5000000F008BB97
:1001F000400000F1807000EBC350A0F1807040EA35
:10020000D170490009E0490841EAC071A0EBC35030
:1002100000F50000400800EBC350F0BC00F0E7BA66
:100220006142012202EB4101001BF6E7F0BC70477E
:1002300081F00041AAE780F00040A7E780EA0102D0
:1002400010B502F00043400022D04A001FD0010E3A
:1002500001EB1261C0F35600C2F3560240F40000F5
:1002600042F40002A0FB022000047F39140400D0F5
:10027000401C50EA124001D44000491EC2B20C0694
:1002800004EBD010401C4008802A02D003E000207C
:1002900010BD20F00100002900DA0020184310BD35
:1002A00030B480EA010202F0004530F0004221F053
:1002B000004013D090B1C30DD40DC2F31601C0F3AA
:1002C0001600E41A41F4000140F400027D3491422A
:1002D00001D3641C00E04900002C02DA30BC00208D
:1002E00070474FF400000023914201D3891A034361
:1002F00040084FEA4101F7D151B1914202D14FF08C
:10030000004105E002D24FF0010101E06FF0010170
:1003100003EBC450284430BC00F069BA420005D059
:10032000C0F3C7525242914201DC0020704700EBFB
:10033000C15070472DE9FE4F804681EA0300C00F8F
:100340000C46009021F0004123F00045B8EB02007C
:10035000A94105D24046214690461C460B4602461E
:1003600023F00040104347D0270DC7F30A00C3F322
:100370000A510290401A019040286BDAC3F313002F
:1003800040F4801B0098924620B10023D2EB030A70
:1003900063EB0B0B01985946C0F14002504600F048
:1003A00005FA06460D4650465946019A00F00DFAE8
:1003B00010EB08006141002487EA115284EAE773D8
:1003C0001A4340D0009A62B3019A012A4FEA0752B9
:1003D00015DC001B61EB02014FF0004202EA0752FC
:1003E000CDE90042001C41F5801132462B4600F059
:1003F00044FA03B0BDE8F08F40462146F9E7001B00
:1004000061EB0201001C41F5801300185B412018CC
:10041000A2F5001747EB030140EAD570B6196D410C
:1004200011E06D084FEA360645EAC0754FEA0752FB
:10043000001B61EB0201001C41F5801149084FEAE5
:1004400030000019514132462B4603B0BDE8F04F51
:1004500000F004BA0098012240000023D0EB020211
:1004600063EBE073009821464FEAE074B8EB0000BC
:1004700061EB0401E9E783F000435BE781F00041B1
:1004800058E72DE9FE4F81EA030404F0004421F00F
:10049000004100944FF0000B23F0004350EA0104A8
:1004A0005ED052EA03045BD0C3F30A54C1F30A5589
:1004B0002C44A4F2F3340194A0FB0254C1F31301C1
:1004C00041F48011C3F3130343F4801301FB02448E
:1004D00000FB034E840A970A44EA815447EA835793
:1004E000A4FB076802958D0A05FB07854FEA932C4C
:1004F00004FB0C542705029D4FEA065847EA1637BD
:10050000B5EB08056EEB070C870E920E47EA8117D4
:1005100042EA8312A7FB0201B6EB0B0164EB000475
:100520002B0D43EA0C335E1844EB1C50DA4651465F
:10053000E7FB0201C5F313044FEA0B3343EA1453FC
:100540004FEA0432019C43EA0603A4F10C0402942E
:10055000009CCDE900B400F090F903B0BDE8F08F45
:1005600000200146F9E72DE9F04D81EA030404F08B
:10057000004B21F0004514464FF0000A23F00041E3
:1005800050EA050220D054EA01021DD0C5F30A57F3
:100590000246C5F31303C1F31300C1F30A5640F436
:1005A000801543F48013A7EB0608101BD64608F20B
:1005B000FD3873EB050002D308F1010801E0921841
:1005C0005B41B8F1000F03DA00200146BDE8F08D71
:1005D00000204FF48011064684460EE0171B73EB93
:1005E000050705D3121B63EB050306434CEA010C18
:1005F00049084FEA300092185B4150EA0107EDD1FB
:1006000052EA030012D082EA040083EA050108439B
:1006100005D0101BAB4106D20122002306E00022C8
:100620004FF0004302E06FF0010253101AEB060096
:100630004CEB085110EB0A0041EB0B01BDE8F04D0B
:1006400000F00CB970B521F0004303430CD0C1F3A6
:100650000A550024D5EB040564EB0403D617AD1A44
:10066000B34102DB0020014670BD201841EB02516E
:1006700070BDC10F80EAE0700844CA0796230021CC
:1006800000F0BEB896230022114600F0B9B80EB5AE
:10069000C10F80EAE0700844CA07002140F23343EA
:1006A0008DE80E000A460B4600F0E7F803B000BDE7
:1006B0000EB540F2334102910021CDE900110A4606
:1006C0000B4600F0DAF803B000BD00F0004220F065
:1006D0000040C10DC0F3160040F400007F2901DA8C
:1006E00000207047962903DCC1F19601C84001E063
:1006F00096398840002AF4D04042704720F00040EC
:10070000C10DC0F3160040F400007F2901DA00207B
:100710007047962903DCC1F19601C84070479639AD
:100720008840704700F0004230F000400AD0C10D10
:1007300001F56071C0F3160042EA0151C20840079A
:100740001143704700200146704701F0004330B468
:1007500021F0004150EA010206D00A0DA2F56072B4
:10076000C1F31301002A02DC30BC00207047440FA3
:1007700044EAC104C100E01830BC00EBC25000F0F4
:1007800036B80000002801DBC0F10040002901DB81
:10079000C1F1004181427047002801DBC0F10040F7
:1007A000002901DBC1F1004188427047202A04DBA7
:1007B000203A00FA02F1002070479140C2F1200374
:1007C00020FA03F3194390407047202A06DBCB1729
:1007D000203A41FA02F043EAE07306E041FA02F3FC
:1007E000D040C2F1200291400843194670470029C9
:1007F000A8BF7047401C490008BF20F001007047A7
:1008000010B4B0FA80FC00FA0CF050EA010404BF06
:1008100010BC704749B1CCF1200421FA04F411FA5C
:100820000CF118BF012121430843A3EB0C01CB1DA0
:100830004FEA00614FEA102042BF002010BC704711
:1008400000EBC35010440029A4BF10BC7047401CEB
:10085000490008BF20F0010010BC704710B5141EFD
:1008600073F1000408DA401C41F1000192185B4169
:100870001A4301D120F0010010BD2DE9F04D924640
:100880009B4611B1B1FA81F202E0B0FA80F2203257
:100890009046FFF78BFF04460F4640EA0A0041EA04
:1008A0000B0153465A46084313D0114653EA010040
:1008B00019D0C8F140025046FFF734FC05460E46F9
:1008C000504659464246FFF771FF084305D00120C4
:1008D00004E020463946BDE8F08D0020054346EA95
:1008E000E0762C4337430A986305E40AA0EB08003E
:1008F0000022FD0A44EA47540A3002D5002001468E
:10090000E9E7010510196941DDE908450019694168
:10091000BDE8F04DA2E70000064C074D06E0E06898
:1009200040F0010394E8070098471034AC42F6D336
:10093000FFF7E0FBA0410008C0410008FEE700000F
:1009400001220221014800F09EB90000000C014084
:1009500001221146014800F096B90000000C014048
:1009600001228021014800F08EB9000000080140FA
:10097000704772B6FEE70000064890F90000411C7F
:1009800003D0012803D000207047012070470220C7
:10099000704700000400002010B590F821100022DC
:1009A000022905D00421816380F82020012010BD98
:1009B00001680B6823F00E030B6001680B6823F0DD
:1009C00001030B6090F84030C46B012101FA03F37E
:1009D000636080F8211080F82020104610BD0000D0
:1009E00010B590F821100024022903D0042181635E
:1009F00001243DE001680A6822F00E020A600168E5
:100A00000A6822F001020A601A4A0168914201D183
:100A1000012121E0174A1432914201D110211BE03B
:100A2000144A2832914201D1891515E0114A3C320D
:100A3000914201D189140FE00E4A5032914202D105
:100A40004FF4803108E00B4A6432914202D14FF4F6
:100A5000801101E04FF08071064A083A516001218F
:100A600080F82110002180F82010416B01B18847E7
:100A7000204610BD0800024070B5044600F008F999
:100A80000546601C02D004480078044400F000F9D8
:100A9000401BA042FAD370BD2C0000202DE9F84F76
:100AA000DFF8B891002409F1040A0AF1040B234687
:100AB0000F270BF1040EC9E00125A5402A40AA42E8
:100AC0007DD1674ED1F804C0ACEB0608B44532D0F6
:100AD00014DCBCF1030F3AD009DCBCF1000F2AD0C2
:100AE000BCF1010F1CD0BCF1020F31D11DE0BCF1F3
:100AF000110F17D0BCF1120F2AD119E0B8F5881FD9
:100B000019D006DCB8F5803F15D0B8F5801F1FD18D
:100B100011E0B8F5001F0ED0B8F5041F18D10AE097
:100B2000CB6815E0CB681B1D12E0CB6808330FE0E3
:100B3000CB680C330CE08B682BB1012B4FF0080312
:100B400003D0456104E0042302E0056100E00023D6
:100B5000FF2A01D8064601E000F104064FEA8405A9
:100B600001D9A5F12005D6F8008007FA05FC28EA8E
:100B70000C0803FA05F548EA0508C6F800804D6838
:100B8000ED0062D5374DAE6946F00106AE61AD6944
:100B900024F0030605F001050095334D06EB050C26
:100BA000DCF80850A607360F07FA06F825EA08050C
:100BB000DFF8B880404503D14FF0000817E044E06B
:100BC000DFF8AC80404502D14FF001080FE0DFF8BC
:100BD000A480404502D14FF0020808E0DFF8988079
:100BE000404502D14FF0030801E04FF0040808FA35
:100BF00006F848EA0508CCF808804D68D9F8006086
:100C0000ED034D4601D5164300E096432E604D6836
:100C1000DAF80060AD03554601D5164300E096436F
:100C20002E604D68DBF80060ED025D4601D516438D
:100C300000E096432E604D68DEF80060AD02754618
:100C400001D5164300E096432E60641C0D682A46C9
:100C5000E5407FF431AFBDE8F88F000000040140AB
:100C60000000111000100240000001400008014087
:100C7000000C014000100140001401408068084051
:100C800000D0012070470AB1016170470904FBE7F9
:100C900001488068704700002C00002070B50400F7
:100CA00025D094F83D00002520B984F83C5020461A
:100CB00000F078FA242084F83D002068016821F0D3
:100CC000010101602068016841F400410160206871
:100CD000016821F40041016000F0DEFB4D4A6168CB
:100CE000914201D84C4900E04C49884201D2012090
:100CF00070BD4B492368B0FBF1F15E6826F03F06FA
:100D00000E435E606368934206D94FF4967359436D
:100D10004FF47A73B1FBF3F12368491C1E6A26F085
:100D20003F06314319626168914210D84900401E64
:100D3000B0FBF1F2521CC2F30B02042A01D20420D0
:100D400022E0B0FBF1F0401CC0F30B001CE0A268F5
:100D5000F2B301EBC10303EB0116431EB3FBF6F341
:100D60005B1C43F480431B0549D092B301EBC102E5
:100D700002EB0111401EB0FBF1F0401CC0F30B0070
:100D800040F4804040F400402168CA694CF6FF738B
:100D90009A431043C861D4E90710014320680268F0
:100DA00022F0C00211430160D4E90301014320682D
:100DB000826848F2FF339A4311438160D4E9050108
:100DC00008432168CA6822F0FF021043C86001E0AE
:100DD0000EE016E02068016841F001010160256421
:100DE000202084F83D00256384F83E50002070BD2B
:100DF00001EB4106431EB3FBF6F35B1CB3E7012096
:100E0000C2E701EB4101401EB0FBF1F0401CC0F312
:100E10000B00B7E7A086010080841E0000093D009A
:100E200040420F002DE9FF4F83B00025DDE9107926
:100E30009A4693460446DDF848800095FFF728FF60
:100E4000064694F83D0020287CD1192301228549CB
:100E50002046009601F0D6FD0028F5D194F83C001C
:100E600001286FD0012084F83C0020680168C90780
:100E700003D1016841F0010101602068016821F49B
:100E800000610160222084F83D00402084F83E008B
:100E900025646762A4F82A90608D20857248E0621C
:100EA000CDE9008653465A462046049901F0B2FC2B
:100EB00000287DD1208DDFF8B491202768B101286A
:100EC00014D00228206801681ED041F480610160BE
:100ED0002068416980690090B6E0206841698169B5
:100EE0000091016841F400710160ADE02068016883
:100EF00021F48061016072B62068416981690091C6
:100F0000016841F400710AE041F40061016072B6C9
:100F10002068416981690091016821F48061016064
:100F200062B691E0032868D801280CD00228434615
:100F30004FF000024946204600960FD001F062FDB6
:100F4000B0BB10E08BE032464146204601F0D9FDAF
:100F500070BB20680069616A08706CE001F052FDA6
:100F600030BB72B634E02068016821F48061016012
:100F700072B620680069616A0870606A401C60622D
:100F8000208D401E2085608D401E6085384846F2C9
:100F9000A8110068B0FBF1F0C0EBC00000EB8000CE
:100FA0000090401E009008D020684069C04300E0D7
:100FB00029E040070CD50098F3E744F8305F6773E9
:100FC000A573206940F02000206162B625731AE005
:100FD0002068016841F40071016020680069616A5D
:100FE0000870606A401C6062218D491E2185618DF8
:100FF000491E618562B621681BE0324641462046A3
:1010000001F07FFD18B1012007B0BDE8F08F206826
:101010000069616A0870606A401C6062218D491E27
:101020002185618D491E618521684A69D243520735
:101030000AD409690170606A401C6062208D401EFC
:101040002085608D401E6085208D00287FF46AAF6A
:1010500084F83D7084F83E5084F83C50D4E7022078
:10106000D2E70000020010000000FFFF04000100B2
:10107000380000202DE9FF4F83B09A46DDE9119733
:1010800093460446DDF84080FFF702FE054694F8DB
:101090003D0020287FD11923012240492046009598
:1010A00001F0B0FC002876D194F83C00012872D001
:1010B000012084F83C0020680168C90703D1016859
:1010C00041F0010101602068016821F400610160C4
:1010D000212084F83D00402084F83E00002626644C
:1010E000C4F82480A4F82A90608D20852C48E06202
:1010F000CDE9007553465A462046049901F008FC94
:1011000070B930E02A463946204601F02DFD58B12D
:10111000206C042804D12068016841F4007101604A
:10112000012007B0BDE8F08F606A2168007808618F
:10113000606A401C6062218D491E89B22185628DE2
:10114000521E628522685369DB435B070BD469B189
:1011500000781061606A401C6062208D401E20850E
:10116000608D401E6085208D0028CBD12A463946EF
:10117000204601F021FC0028CAD154F83D0B01683B
:1011800041F400710160202004F81E09E6776677BB
:101190000020C6E7FFE70220C3E7000002001000BE
:1011A0000000FFFF30B585B0002100910191029150
:1011B00003911E4D03681E4C122103221D48AB42B1
:1011C00016D1A36943F00803A361A369039203F056
:1011D00008030493C023CDE900316946FFF75EFCA4
:1011E000E06940F40010E061E06900F4001019E0EB
:1011F000114DAB4217D1A36943F00803A361A36962
:10120000039203F0080304934FF44063CDE90031E7
:101210006946FFF743FCE06940F48000E061E06963
:1012200000F48000049005B030BD00000054004080
:1012300000100240000C0140005800400248816844
:1012400002781144816070472C000020074810B5D7
:10125000016841F010010160032000F075F80020E2
:1012600000F006F800F024F8002010BD0020024035
:1012700070B50D4D04464FF47A712878B1FBF0F04B
:101280000A490968B1FBF0F000F0ECFA48B9102CFB
:1012900007D200222146501E00F036F800206C6074
:1012A00070BD012070BD00002C000020380000201F
:1012B0000C4808B5816941F001018161816901F043
:1012C00001010091C16941F08051C161C06900F024
:1012D000805000900448416821F0E06141F00071C5
:1012E000416008BD0010024000000140002809DBF9
:1012F00000F01F02012191404009800000F1E02030
:10130000C0F8001170470000F0B40E4B1B680C468B
:10131000C3F30223C3F10705042D00D90425191DC9
:10132000072901D2002300E0DB1E012606FA05F1A1
:10133000491E214099409E40761E16403143F0BC24
:1013400002F031BD0CED00E0064900F0070208682C
:101350004FF6FF03184040EA0220034A104308609A
:10136000704700000CED00E00000FA052DE9F047A1
:101370000F46050061D0434E306800F00700B842C8
:1013800009D2306820F0070038433060306800F040
:101390000700B84251D128683B4C810712D540075D
:1013A00003D5606840F4E06060602878000703D5EA
:1013B000606840F4605060606068A96820F0F000E8
:1013C000084360602878C00728D06868012810D0DA
:1013D0002168022810D0890700292EDA616821F0DF
:1013E000030101436160FFF753FC804641F28839F5
:1013F0000DE021688903EFE78901EDE7FFF748FC7D
:10140000A0EB0801494502D90320BDE8F0876068D8
:10141000696800F00C00B0EB810FEFD1306800F08C
:101420000700B8420BD9306820F00700384330601D
:10143000306800F00700B84201D00120E5E72878C5
:10144000400705D56068E96820F4E0600843606003
:101450002878000706D56068296920F4605040EAC2
:10146000C100606000F038F86168084AC1F30311F8
:10147000515CC8400649086006480068FFF7F8FE5E
:101480000020C2E70020024000100240884100080E
:1014900038000020300000200448054900684968F1
:1014A000044AC1F30221515CC84070473800002053
:1014B0000010024098410008044805490068496846
:1014C000044AC1F3C221515CC84070473800002073
:1014D000001002409841000812A185B00FC98DE8A4
:1014E0000F0014A0144A006804905168134801F0DA
:1014F0000C03042B10D0082B0ED1C1F38343C90376
:101500001DF803000AD5516804AAC1F34041515C9B
:101510000A4A5043B0FBF1F005B070470849484310
:10152000FAE7000002030405060708090A0B0C0D80
:101530000E0F1010010200000010024000127A008D
:1015400000093D002DE9F84F040070D02078C04D0F
:10155000C00749D06868C0F38100012807D06868D7
:10156000C0F38100022809D16868C00306D5286845
:10157000800339D560680028E7D035E06068B0F5B1
:10158000803F0BD010B1B0F5A02F11D0286820F407
:1015900080302860286820F4802002E0286840F429
:1015A00080302860606890B1FFF772FB06460AE061
:1015B000286840F480202860F0E700BFFFF768FB50
:1015C000801B642873D828688003F7D50CE0FFF7E8
:1015D0005FFB064605E000BFFFF75AFB801B64284F
:1015E000F0D828688003F7D420789A4E80074FF00F
:1015F00001094FF0000839D5686810F00C0F07D0CA
:101600006868C0F38100022809D16868C00306D465
:101610002868800714D52069012808D110E02069C6
:10162000B0B1C6F80090FFF733FB074605E00AE1CA
:10163000FFF72EFBC01B0228C4D828688007F7D507
:101640002868616920F0F80040EAC10028600DE0D8
:10165000C6F80080FFF71CFB074604E0FFF718FB05
:10166000C01B022823D828688007F7D420780007F9
:101670002CD57948A169D9B1C0F80090FFF708FBD3
:10168000074604E0FFF704FBC01B02280FD8686A76
:101690008007F7D571484FF4FA510068B0FBF1F0BC
:1016A000009000BF0098411E0091FAD20EE080E049
:1016B000C0F80080FFF7ECFA074604E0FFF7E8FA0D
:1016C000C01B022875D8686A8007F7D420784007C5
:1016D00060D5E8690027C00008D4E86940F0805070
:1016E000E861E869012700F0805000905C480168DB
:1016F000C90513D40168834641F480710160FFF786
:10170000C7FA824606E000BFFFF7C2FAA0EB0A0064
:1017100064284ED8DBF80000C005F5D5E068012844
:101720000AD008B1052813D0286A20F001002862E9
:10173000286A20F0040002E0286A40F001002862D4
:10174000E06841F2883B98B1FFF7A2FA82460BE0CD
:10175000286A40F004002862EEE700BFFFF798FA1D
:10176000A0EB0A0159455AD8286A8007F6D50CE043
:10177000FFF78EFA824605E0FFF78AFAA0EB0A012E
:1017800059454CD8286A8007F6D41FB1E86920F083
:101790008050E861E06988B36968C1F3810102297A
:1017A00044D00228C6F8608004D0FFF771FA0446DE
:1017B00038E034E0FFF76CFA074604E0FFF768FA18
:1017C000C01B02282BD828688001F7D4206AB0F506
:1017D000803F05D16868A16820F400300843686044
:1017E000D4E908010843696821F47411084368606A
:1017F000C6F86090FFF74CFA044606E025E000BF0B
:10180000FFF746FA001B022809D828688001F7D59F
:101810001BE000BFFFF73CFA001B022802D903209F
:10182000BDE8F88F28688001F4D40EE00128F7D0D5
:101830006868226A00F48031914204D1616A00F440
:101840007010884201D00120EAE70020E8E700009C
:101850000010024000004242800442423800002052
:101860000070004010B5401EB0F1807F01D3012010
:1018700010BD4FF0E02460610F21601702F093FA71
:101880000020A06107202061002010BD7047704734
:1018900070B590F83C20012A26D0012480F83C4005
:1018A000022280F83D2003685A689D6822F0700685
:1018B0000A6832435A600D4B02689A4208D0B2F16E
:1018C000804F05D00A4B9A4202D00A4B9A4204D16B
:1018D000496825F080031943916080F83D4000215C
:1018E00080F83C10084670BD022070BD002C0140FD
:1018F000000400400008004010B5040003D094F834
:101900003D0010B107E0012010BD002084F83C002C
:10191000204600F01FF8022084F83D00211D2068B9
:1019200001F06CFD012084F8460084F83E0084F844
:101930003F0084F8400084F8410084F8420084F8B5
:10194000430084F8440084F8450084F83D000020FA
:1019500010BD000008B501681948B1F1804F11D0E1
:10196000184A914217D1C16941F00201C161C069B1
:10197000002200F00200009002211D20FFF7C4FCAD
:101980001D2019E0C16941F00101C161C06900F089
:101990000100009008BD0C4A9142FBD1C16941F0A1
:1019A0000401C161C069002200F00400009003211D
:1019B0001E20FFF7A9FC1E20BDE80840FFF796BCDB
:1019C00000100240000400400008004090F83D1064
:1019D000012901D001207047022180F83D100168E3
:1019E000CA6842F00102CA6000680B49884208D008
:1019F000B0F1804F05D00949884202D00849884299
:101A000004D1816801F00701062903D0016841F083
:101A10000101016000207047002C014000040040DB
:101A20000008004070B5044690F83C00012817D02B
:101A3000012584F83C50022084F83D00206882682B
:101A400022F0770222F47F4282600868502830D06A
:101A50000DDC20284DD005DC98B310283BD148E0A0
:101A6000022070BD302844D0402834D139E06028AD
:101A700028D0702806D0B0F5805F2CD0B0F5005F7C
:101A800029D10AE0CB68D1E90121206801F0F9FCF5
:101A90002068816841F0770109E0CB68D1E9012134
:101AA000206801F0EEFC2068816841F4804181608B
:101AB00011E0CA684968206801F098FD502120684B
:101AC00007E016E0CA684968206801F0A0FD6021BF
:101AD000206801F0E0FC84F83D50002084F83C00D0
:101AE00070BDCA684968206801F080FD4021206807
:101AF000EFE7226801461046EBE7704770B50446F1
:101B0000006801694FF00005C943890715D4C16811
:101B1000C943890711D4E91E01610120207720689B
:101B200080698007204602D0FFF7E7FF04E000F05D
:101B3000BBF8204600F04AF9257720680169C943BF
:101B4000490717D4C168C943490713D46FF004018A
:101B50000161022020772068806910F4407F2046D0
:101B600002D0FFF7CAFF04E000F09EF8204600F024
:101B70002DF9257720680169C943090716D4C16882
:101B8000C943090712D46FF00801016104202077CE
:101B90002068C0698007204602D0FFF7AEFF04E04E
:101BA00000F082F8204600F011F9257720680169DD
:101BB000C943C90617D4C168C943C90613D46FF015
:101BC00010010161082020772068C06910F4407F6F
:101BD000204602D0FFF791FF04E000F065F82046B0
:101BE00000F0F4F8257720680169C943C90708D1D6
:101BF000C168C943C90704D1891E0161204600F0AC
:101C00006DF920680169C943090609D4C168C9434F
:101C1000090605D46FF0800101612046FFF736FE0A
:101C200020680169C943490609D4C168C943490606
:101C300005D46FF040010161204600F0A1F9206851
:101C40000169C94389060BD4C168C943890607D411
:101C50006FF0200101612046BDE87040FFF717BE1C
:101C600070BD000000B585B0002100910191029186
:101C700003910068B0F1804F10D10948816941F0AB
:101C8000040181618069694600F00400049002202B
:101C90000090019003900348FEF700FF05B000BDDF
:101CA0000010024000080140704770B5044690F8EB
:101CB0003C000D4601280AD0012084F83C0042B1C6
:101CC000042A18D0082A2AD00C2A4DD139E0022043
:101CD00070BD206801F0E8FB2068816941F00801CF
:101CE00081612068816921F0040181612068816936
:101CF0002A69114311E0206801F0FEFB2068816928
:101D000041F4006181612068816921F48061816111
:101D1000206881692A6941EA0221816124E0206802
:101D200001F016FC2068C16941F00801C16120681A
:101D3000C16921F00401C1612068C1692A691143A8
:101D400011E0206801F030FC2068C16941F40061B5
:101D5000C1612068C16921F48061C1612068C169E5
:101D60002A6941EA0221C161002084F83C0070BD6B
:101D700010B5040003D094F83D0010B107E0012035
:101D800010BD002084F83C00204600F01EF8022020
:101D900084F83D00211D206801F030FB012084F80B
:101DA000460084F83E0084F83F0084F8400084F840
:101DB000410084F8420084F8430084F8440084F829
:101DC000450084F83D00002010BD704770470000BA
:101DD00010B50446022249B104290ED0082913D0B7
:101DE00094F84100012816D0012010BD94F83E005F
:101DF0000128F9D184F83E200FE094F83F00012833
:101E0000F2D184F83F2008E094F840000128EBD19B
:101E100084F8402001E084F841200122206801F08C
:101E200023FB0F492068884203D1426C42F40042F0
:101E300042642068884208D0B0F1804F05D009493B
:101E4000884202D00849884204D1816801F0070124
:101E5000062903D0016841F001010160002010BD96
:101E6000002C0140000400400008004030B504464A
:101E70000D460068002201F0F7FA174B41F21111EC
:101E800020688A10984209D1036A0B4206D1036A7E
:101E9000134203D1436C23F4004343642068036A74
:101EA0000B4206D1016A114203D1016821F0010100
:101EB000016001203DB1042D08D0082D09D084F81F
:101EC0004100002030BD84F83E00FAE784F83F006E
:101ED000F7E784F84000F4E7002C01401F4910B5F3
:101EE000884214D11E490878401C08701D490878A2
:101EF000401C08701C490878401C08701B49087871
:101F0000401C08701A490878401C087010BD13491D
:101F100048318842FAD1174C2078B0B901F004FA60
:101F2000FEF72AFD1449012802D002280DD106E04F
:101F3000086A8078062808D002F088F805E0086A68
:101F400081780629F8D101F0A3FF40210B48FEF764
:101F500095FE0028DAD00020207010BD300A002045
:101F60002800002029000020250000202600002055
:101F70002700002004000020E000002000080140AD
:101F80007047704770470000F8B502680446106853
:101F9000D168536910F00F0F4FF0000553D003F0D4
:101FA000010601F4907737435FD0C20705D0CA0518
:101FB00003D5226C42F001022264420705D5DA07FC
:101FC00003D0226C42F002022264820705D5DA07B0
:101FD00003D0226C42F004022264020707D501F00C
:101FE0002002324303D0226C42F008022264226CA9
:101FF000002A34D0800604D5880602D5204601F098
:10200000BFFD20684069216CC0F38010090700D42F
:1020100030B3204601F09CFD2068416949061BD57C
:10202000416921F040014161A06BA8B15849416369
:10203000A06BFEF7D5FC002811D0A06B416B01B05E
:10204000BDE8F040084783060FD58B060DD5204626
:10205000BDE8F84001F094BD2046FFF793FFF8BDBE
:102060002046FFF78FFF2564F8BD266B2023012E45
:1020700052D1C60650D5CE064ED510685068009095
:10208000506940062AD5A16B086840680004000C1E
:10209000EAD0A68D8642E7D9E0858869202818D045
:1020A000D06820F48070D0602068416921F001017F
:1020B00041612068416921F04001416184F83E306E
:1020C00025632068C16821F01001C160A06BFEF794
:1020D00063FCA08DE18D401A81B219E0A08DE18DE5
:1020E000401A81B2E08D0028BED00029BCD0D06853
:1020F00020F49070D0602068426922F001024261B1
:1021000084F83E3025632068C26822F01002C26065
:102110002046FFF736FFF8BD05062BD50D0629D55D
:1021200094F83D002128F6D1A068B0F5805F01D178
:102130002069B0B1206A411C2162216800784860A2
:10214000E08C401E0004000CE084E4D12068C168EB
:1021500021F08001C1602068C16841F04001C16088
:10216000F8BD206A0088C0F308005060206A801C17
:102170002062E5E74006F3D54806F1D5D168204650
:1021800021F04001D16084F83D3000F032F9F8BD13
:10219000413B000870B5040004D094F83D000025D0
:1021A00010B106E0012070BD84F83C50204600F0DC
:1021B00023F8242084F83D002068C16821F40051F0
:1021C000C160204601F038FD2068016921F490418A
:1021D00001612068416921F02A0141612068C168DC
:1021E00041F40051C1602564202084F83D0084F84A
:1021F0003E00002070BD000070B586B00024009441
:102200000194029403942E4E03682E490220032267
:102210002D4DB34226D18B6943F480438B618B698A
:1022200003F4804304938B6943F004038B61896951
:10223000039201F0040104910102CDE90010694606
:102240002846FEF72BFC2815CDE9000469462846F0
:102250000294FEF723FC002201212520FFF754F809
:10226000252028E0194EB34227D1CB6943F400332F
:10227000CB61CB6903F4003304938B6943F004030F
:102280008B618969039201F0040104910421CDE975
:10229000001069462846FEF701FC0820CDE900043D
:1022A000694628460294FEF7F9FB002211462620D3
:1022B000FFF72AF82620FFF719F806B070BD0000D6
:1022C0000038014000100240000801400044004076
:1022D00090F83E30202B0ED159B152B190F83C30DD
:1022E000012B08D0012380F83C300023036301F068
:1022F000FFBC0120704702207047000000680B49B6
:10230000884212D10A480C490A4B027808881A54AC
:10231000401C80B20880B0F5006F01D10020088019
:10232000012203490548FFF7D3BF70470038014039
:10233000140900201401002018000020C00A002009
:102340002DE9F843044690F83D001F4616460D4619
:1023500020284CD1C5B1BEB194F83C00012846D02C
:10236000012084F83C004FF00008C4F84080212090
:1023700084F83D00FEF78CFCA6848146E684A068C4
:10238000B0F5805F03D004E00120BDE8F883206948
:1023900028B12E465FF0000584F83C800EE0002650
:1023A000FAE78021204601F0BEFCA0B9AEB116F8D4
:1023B000010B21684860E08C401EE084E08C4B46B5
:1023C0004FF0000200970028EBD14FF0400120466B
:1023D00001F0A9FC30B10320D7E735F8020BC0F3B8
:1023E0000800E6E7202084F83D000020CDE7022029
:1023F000CBE7704710B50A784B78120142EA131206
:102400000280130502D542F4704202804B788A782C
:1024100003F00F0342EA03224280130502D542F47F
:1024200070424280CA780B79120342EA03124B7958
:1024300042EA1312114B4260140301D51A43426061
:102440004A798C791207120B42EA0422CC79224392
:102450008260140301D51A4382600A8952BA8281CC
:102460004A8952BAC2818A8952BA0282CA8952BA48
:102470004282098A49BA818210BD00000000F0FF43
:1024800008B500218DF800106A460D2100F03CF9D6
:1024900018B99DF80000102801D0012008BD0020C7
:1024A00008BD10B586B00C466B461222102100F014
:1024B0003BF910B1012006B010BD69462046FFF778
:1024C00099FF0020F7E700002DE9FC4105460120B7
:1024D0000C468DF8040001AA0821284600F053F9A3
:1024E00048B91E20FEF7C8FA6B4603220021284691
:1024F00000F01AF910B10120BDE8FC819DF8000040
:102500009DF80110000440EA01209DF802100843E4
:10251000E061010202D540F07F40E061FEF7A9F8DA
:102520002849FDF7BDFE8046A062B4F91200FEF70F
:10253000A0F84146FDF782FE0546B4F90E00FEF70D
:1025400098F82946FDF722FEE56A064641462846E8
:10255000FDF774FE3146FDF771FE0746B4F90C0035
:10256000FEF787F82946FDF769FE0646B4F9140020
:10257000FEF77FF84146FDF761FE0546B4F910000D
:10258000FEF777F82946FDF701FE4146FDF756FEB6
:102590000546A068FEF76DF82946FDF7F7FD4146B0
:1025A000FDF74CFE05466068FEF763F82946FDF727
:1025B000EDFD3146FDF7EAFD3946FDF7E7FD6062C6
:1025C000002099E7000078487CB5054602200C46BB
:1025D0008DF8040001AA0821284600F0D4F848B973
:1025E0000520FEF749FA03226B461146284600F003
:1025F0009BF808B101207CBD9DF800009DF80110FA
:10260000000440EA01209DF802100843A061010285
:1026100002D540F07F40A061FEF72BF86FF0120169
:10262000FDF77CFE0546E062B4F90200FEF721F8F2
:102630002946FDF703FEFEF775F806460D46B4F988
:102640000000FEF724F84FF0FF32FDF7FBFF3246A3
:102650002B46FDF76FFEFEF778F8206200207CBD68
:10266000F8B514460D460646FFF70AFF00283AD192
:102670000520FEF701FA00208DF800000520FEF786
:10268000FBF929463046FFF70CFF0520FEF7F4F969
:1026900004222946304600F027F80520FEF7ECF921
:1026A0006A462821304600F02FF89DF8000010F00F
:1026B00080038DF8003002D0802B02D006E000228B
:1026C00000E080222946304600F04DF80520FEF754
:1026D000D3F904222946304600F035F80520FEF7EC
:1026E000CBF985F83340F8BD38B514460D468DF862
:1026F00000206A46062100F046F808B1012038BDE6
:1027000085F83040002038BD3EB54FF47A73009212
:102710000124CDE901430A462346EF21FEF782FB5F
:10272000002800D001203EBD3EB54FF47A74CDE9BB
:1027300000320A4602940123EF21FEF773FB0028C2
:1027400000D001203EBD38B514460D468DF800205E
:102750006A46092100F017F808B1012038BD85F854
:102760003240002038BD38B514460D468DF80020A3
:102770006A46072100F007F808B1012038BD85F846
:102780003140002038BD3EB54FF47A7300920124E9
:10279000CDE901430A462346EE21FEF76BFC0028F3
:1027A00000D001203EBD000010B5044690F8330073
:1027B00001280BD0022810D121460848FFF704FF5A
:1027C00006482146BDE81040FFF77EBE214604487A
:1027D000FFF7FAFE21460248F4E710BD8809002001
:1027E00034090020FEE701684A69D24352050FD43C
:1027F0006FF480624A61002140F8301F202242734A
:102800008173026942F00402026101730120704782
:10281000002070472DE9F84F0446006889460B9D5B
:1028200001689846174641F480610160206801689C
:1028300041F48071016000954FF0011B0022594660
:1028400020460A9B00F0DEF84FF4007A40B1206881
:102850000068C00501D5C4F840A00320BDE8F88F8A
:10286000216809F0FE0008612B46284920460A9A93
:1028700000F0FCF8F0BB20684169806900902A46AE
:1028800020460A9900F070F940B1206C04283AD132
:102890002068016841F40071016034E0FEB2B8F1D3
:1028A000010F09D02168380A08612A4620460A9992
:1028B00000F05AF90028E8D1206806612A4620462F
:1028C0000A9900F051F90028DFD12068016841F42D
:1028D0008071016000950022594620460A9B00F055
:1028E00091F80028B3D1216809F0FF0040F0010001
:1028F000086100E007E02B46044920460A9A00F0F0
:10290000B5F80028AAD00120A8E7000002000100C5
:102910002DE9F843044600680D46DDE90897016893
:102920009846164641F4807101604B4600224FF0F4
:1029300001112046009700F065F848B12068006852
:10294000C00502D54FF4007020640320BDE8F88371
:10295000216805F0FE0008613B464A4615492046BD
:1029600000F084F888B920684169806900903A468F
:102970004946204600F0F8F848B1206C042804D1FC
:102980002068016841F4007101600120DEE7F5B2C2
:10299000B8F1010F09D02168300A08613A4649466A
:1029A000204600F0E1F80028E7D12068056100200A
:1029B000CCE700000200010070B516460D46044643
:1029C0000DE02046FFF70FFF08B1012070BD681C25
:1029D00005D0FEF75DF9801BA84207D835B1206805
:1029E0004069C0434007ECD4002070BD002044F88B
:1029F000300F20216173A073216941F02001216112
:102A00002073E2E72DE9F0471E4690460D46044646
:102A1000C1F30747DDF8209008E0701C06D0FEF7F0
:102A200037F9A0EB0900B0420FD876B12068012F2A
:102A300018D0806925EA00000004000C14D00021A1
:102A40004145EAD00020BDE8F087002044F8300F6F
:102A500020216173A073216941F02001216120735D
:102A60000120F0E74069E5E70121E9E72DE9F047BA
:102A70009A4691460E46044600254FF02008C1F3C1
:102A8000074725E020684069C043400514D420680A
:102A9000016841F40071016021686FF48060486151
:102AA000256384F83D8084F83E50206C40F004009B
:102AB000206484F83C501FE0B9F1FF3F08D0FEF7D6
:102AC000E7F8A0EB0A0149450CD8B9F1000F09D08D
:102AD0002068012F13D0806926EA00000004000C52
:102AE0000BD0CFE744F8305F84F80D80A5732069E0
:102AF00040F02000206125730120BDE8F087406987
:102B0000EAE72DE9F041002590460E4604462027CD
:102B100017E04069C043C0060CD454F8301B6FF076
:102B20001000486144F810596777A577206A206241
:102B3000257717E0FEF7ACF8A0EB0800B04208D804
:102B40003EB120684169C9434906E2D40020BDE88E
:102B5000F08144F8305F6773A573206940F020006E
:102B6000206125730120F2E770B516460D46044634
:102B70000DE02046FFF737FE08B1012070BD681C4C
:102B800005D0FEF785F8801BA84207D835B120682C
:102B90004069C0430006ECD4002070BD002044F81A
:102BA000300F20216173A073216941F02001216160
:102BB0002073E2E72DE9F041174C0025207840B35F
:102BC000164E1749F068406AFDF76AFB154A6178AE
:102BD00042F82100491CC8B26070012810D021467B
:102BE000114F124C0A280DD002EB800008380E4617
:102BF00003C8FDF71DFBB84201D8A04200DD757087
:102C0000BDE8F0814D70716A506ABDE8F041FDF792
:102C10000FBB6570F4E700002A000020E0000020F0
:102C20000000C842480B0020000020C100002041E5
:102C30002DE9F04385B000252548009501950295C2
:102C40000395816941F020018161816901F02001D2
:102C50000491816941F004018161816901F00401FD
:102C60000491816941F0080181618069DFF8648025
:102C700000F0080004900122B0214046FEF703F85E
:102C8000DFF8549040F20317012239464846FDF719
:102C9000FAFF0124B020CDE900040226CDE9024666
:102CA00069464046FDF7FAFE4020CDE90005694639
:102CB00040460295FDF7F2FECDE90074CDE90246EB
:102CC00069464846FDF7EAFE05B0BDE8F08300001E
:102CD0000010024000080140000C01400D4810B5F2
:102CE0000B4901600C49416000214FF48042816032
:102CF000C0E9031241618161C1610162FDF7CEFF4C
:102D0000002803D0BDE81040FDF733BE10BD000021
:102D10000054004034090020A08601000D4810B581
:102D20000B4901600C49416000214FF480428160F1
:102D3000C0E9031241618161C1610162FDF7AEFF2B
:102D4000002803D0BDE81040FDF713BE10BD000001
:102D50000058004088090020A086010010B58EB000
:102D600000240794089409940A940B941C21684643
:102D70000C94FDF700FA1E484FF0804101600721D6
:102D8000C0E9011440F28F11C0E903148461FEF719
:102D9000B3FD08B1FDF7EDFD4FF48050079007A992
:102DA0001348FEF73FFE08B1FDF7E3FD1048FEF7BC
:102DB000DFFF08B1FDF7DDFD0B940BA90C480C9467
:102DC000FEF766FD08B1FDF7D4FD6020CDE90004F3
:102DD00002940422694606480494FEF766FF08B18F
:102DE000FDF7C7FD0248FEF73DFF0EB010BD000025
:102DF000E809002010B586B000241848009401941A
:102E000002940394049414490594016041F61F410F
:102E1000C0E9011440F2CF71C0E90314802181613F
:102E2000FEF76AFD08B1FDF7A4FD4FF48050009055
:102E300069460A48FEF7F6FD08B1FDF79AFD0494CD
:102E400004A906480594FEF723FD002801D0FDF7EC
:102E500090FD06B010BD000000040040300A0020C4
:102E600010B586B00024174800940194029403948E
:102E7000049413490594016041F61F41C0E901140F
:102E80006321C0E903148461FEF736FD08B1FDF744
:102E900070FD4FF48050009069460A48FEF7C2FD6D
:102EA00008B1FDF766FD049404A906480594FEF7F1
:102EB000EFFC002801D0FDF75CFD06B010BD00005E
:102EC00000080040780A00200C4810B50A4901604B
:102ED0004FF4E1314160002181600C22C160C0E902
:102EE00004128161C161FFF755F9002803D0BDE8E4
:102EF0001040FDF73EBD10BD00380140C00A002063
:102F00000C4810B50A4901604FF4E13141600021DD
:102F100081600C22C160C0E904128161C161FFF7C8
:102F200039F9002803D0BDE81040FDF722BD10BDDF
:102F300000440040040B0020FEE7000070B5284C60
:102F4000206900F0B9F9606900F0B6F9254D002656
:102F5000A878052805D3AE70E06900F07BFB00F08F
:102F60007BFC6878052802D36E70FFF723FE287873
:102F7000022802D900F060FC2E70E878012806D9FA
:102F8000EE70A068FFF710FCE068FFF70DFC2879F1
:102F900001281BD92E71206A8078022816D1E0689A
:102FA000114E406A3146FDF77BF90546A06831466F
:102FB000406AFDF775F9616AFDF73AF901462A465C
:102FC000606800F04DF86068C069A062206A80788F
:102FD000042801D1E06AA062BDE8704001F0B4B8F5
:102FE000E0000020250000200000C842FEE70000AD
:102FF000002202210148FDF746BE0000000C0140FE
:10300000002201210148FDF73EBE0000000C0140F6
:10301000002280210148FDF736BE00000008014073
:103020000021016041608160C160C16101620749A6
:1030300001610749416107498161074941620749C7
:1030400081624FF07F51C162704700001F852B3FA6
:103050009A99193E9A99993E0000C8420000C8C248
:103060002DE9F04104464FF00008C4E90012104673
:10307000FDF7DEF8A060E16AFDF784FB08D2E06AA4
:10308000A16880F00040FDF77DFB01D2C4F8088004
:10309000616A2068FDF77AF86168FDF773FB07D372
:1030A000A16A2068FDF772F86168FDF775FB01D22F
:1030B000002605E00126A168206AFDF767F8206276
:1030C000D4E902512846FDF7B3F8A169FDF7B6F837
:1030D00007463046FDF7CDFA6169FDF7AFF8216A82
:1030E000FDF7ACF8064629462069FDF7A7F83146FA
:1030F000FDF74CF83946FDF749F8E06110F1FF4F54
:1031000002D3C4F81C8003E00349884200DDE1617A
:10311000E560BDE8F08100000000C8432DE9F047FC
:10312000264FDFF89C800C0006464FF4C87A4FF01B
:10313000000901D5002402E0544500DD5446214831
:10314000006884632046FDF7A2FA00221E4BFDF7BB
:1031500098F900221D4BFDF706FAFDF7F6FA054631
:103160003168FDF70FFB05D0356044B101213E20E9
:1031700000F0D2FC54450BD1012038700AE0D8F899
:1031800020008078062816D000213E2000F0C4FCE4
:1031900087F80090D8F820008078062809D10C4CD8
:1031A0002078012805D102213E2000F0B5FC84F8EA
:1031B0000090BDE8F0870221E7E700002A00002028
:1031C000E0000020E809002000005940000079409C
:1031D0001000002010B5044604210348FEF746FE07
:1031E0000020207110BD0000E80900202DE9F04109
:1031F000054600F023F800212846FFF78FFF0D4811
:103200000668B06A401CFDF753FA0746F06A0C46A0
:10321000401CFDF74DFA02460B4600200649FDF71B
:10322000A2F93A462346FDF79EF9FDF78EFAA8600B
:10323000BDE8F081E8090020882A914110B50446D4
:1032400004210348FEF7C4FD0120207110BD0000D9
:10325000E80900207047000010B504464078084B8C
:10326000012802D0022803D007E00122102101E04A
:10327000012220211846FDF706FD0020207010BD18
:10328000000801404170FFF7E7BF000010B5044699
:103290004078084B012802D0022803D007E0002222
:1032A000102101E0002220211846FDF7ECFC01204E
:1032B000207010BD000801400178012903D00029C9
:1032C00003D1FFF7C9BFFFF7E1BF704710B5044650
:1032D000C1F38000C1F340022070627001F001016F
:1032E000A17038B108B1FFF793FE607828B10128CA
:1032F00006D007E0FDF734FBF7E7FDF729FB01E017
:10330000FFF77EFEA07828B1012807D1BDE8104064
:10331000FFF76EBEBDE81040FDF712BB10BD0021E7
:10332000FFF7D4BF7047000070B5134C4FF0010594
:103330006068401C6060A178607801430F484FF0DE
:10334000400103D0FDF79AFC70B10BE0FDF796FC4D
:1033500010B1FF20207005E0D4E90101401A3C289B
:1033600001D92570657070BD6078A0700020607014
:103370006068A06070BD00000400002000080140EB
:10338000FDF75CBF30B58FB028216846FCF7F3FE2F
:1033900014210AA8FCF7EFFE01210804CDE9001072
:1033A0000024029402250491CDE907504FF4E01067
:1033B00009906846FEF7C6F808B172B6FEE70F201E
:1033C000CDE90A054FF48060CDE90C4002210AA83E
:1033D0000E94FDF7CBFF002801D072B6FEE70FB0C8
:1033E00030BD70470148FEF789BB0000300A00205D
:1033F0000148FEF783BB0000780A0020F0B50268A0
:10340000164B174C174D4FF08047984205D0B842E5
:1034100003D0A04201D0A84203D122F070064A682E
:103420003243984205D0B84203D0A04201D0A8420E
:1034300003D122F44074CA6822434C6922F080020E
:10344000224302608A68C2620A688262984201D19D
:103450000969016301214161F0BD0000002C0140B8
:10346000000400400008004010B501F01F030121D6
:10347000046A99408C430462016A9A4011430162D4
:1034800010BD10B5846842EA032224F47F440A4345
:103490002243826010BD826822F070020A4342F02B
:1034A000070181607047000030B5026A22F0010216
:1034B0000262026A4368846924F073050C682C4335
:1034C00022F002058A682A430A4DA8420BD122F055
:1034D0000805CA6823F440732A434D6922F00402A8
:1034E0001D438B692B4343608461496841630262D9
:1034F00030BD0000002C014030B5026A22F01002FD
:103500000262026A436884690D6824F4E64444EA6E
:1035100005248D6822F0200242EA05120B4DA842D4
:103520000ED1CD6822F0800242EA05124D6923F4E3
:10353000406343EA85038D6922F0400243EA850334
:103540004360846149688163026230BD002C0140A0
:1035500030B5026A22F480720262036A4268C4696A
:1035600023F4007324F073050C682C438D6843EA40
:1035700005230C4DA8420ED1CD6823F4006343EA25
:1035800005234D6922F4405242EA05128D6923F465
:10359000806342EA05124260C4614968C163036204
:1035A00030BD0000002C014030B5026A22F4805288
:1035B0000262046A4268C3690D6823F4E64343EA81
:1035C00005238D6824F4005444EA0534064DA842CE
:1035D00004D14D6922F4804242EA85124260C361FF
:1035E00049680164046230BD002C014010B5036AD3
:1035F000046A24F001040462846924F0F00444EABB
:10360000021423F00A020A438461026210BD10B55D
:10361000036A23F0100303628369046A23F470438E
:1036200043EA023224F0A00343EA011182610162FD
:1036300010BD00210170418001714171018170470D
:10364000002101704180017141714A1EC2800181D7
:10365000704700000178012924D14179491CC9B281
:1036600041713C290FD30179491CC9B201713C2930
:1036700009D3418842F20F72491C89B241809142BC
:1036800001D900214180B0F90610491C0BD0B0F9D6
:1036900008100A4A002909DD126A9278042A01D129
:1036A000491E018170474FF0FF31FAE7FAD1106AE5
:1036B00080780428F6D100F005BD0000E00000206D
:1036C0001CB506A10A23D1E90001CDE900010722BA
:1036D00069460448FEF734FE1CBD0000A55A04806C
:1036E000EE5AA500C00A002070B5244C244DE068B5
:1036F0002946406AFCF7D4FDFDF700F881B280202E
:1037000000F00AFAA0682946406AFCF7C9FDFCF7F8
:10371000F5FF81B2842000F0FFF9E0682946006AD5
:10372000FCF78CFDFCF7D1FF81B2882000F0F4F9A2
:10373000A0682946006AFCF781FDFCF7C6FF81B24C
:103740008C2000F0E9F9E0680E49406AFCF7A8FD1A
:103750000D49FCF770FDFCF7D1FF81B2092000F0A4
:10376000DBF9E0680949006AFCF710FDFCF7C6FFC9
:10377000BDE8704081B20A2000F0CEB9E000002020
:10378000000020410000C842000096440000704143
:1037900070B5114C114EE0683146406AFCF780FD6F
:1037A0000546A0683146406AFCF77AFD2946FCF7D9
:1037B0003FFDFCF7A3FF85B23146606AFCF73EFD92
:1037C000FCF79CFF81B20F2000F0A6F92946BDE866
:1037D00070400E2000F0A0B9E00000200000204161
:1037E0000448416900690978007841EA40013A20BB
:1037F00000F092B9E000002010B50E4CE06941885D
:103800000B2000F089F9E06901790C2000F084F9BF
:10381000E06941790D2000F07FF9E069C188372027
:1038200000F07AF9E0690189BDE81040382000F025
:1038300073B90000E000002010B5FFF755FFFFF757
:10384000CFFFFFF7A5FFBDE81040FFF7D5BF130A74
:10385000435408444270704770B586B0142235A1B5
:103860006846FCF76FFC384C384EE0683146406AD9
:10387000FCF716FDFCF742FF82B205216846FFF710
:10388000E6FFA0683146406AFCF70AFDFCF736FF08
:1038900082B207216846FFF7DAFFA0683146406A26
:1038A000FCF7FEFC616AFCF7C3FCFCF727FF82B261
:1038B00009216846FFF7CBFFE068254D006A2946DD
:1038C000FCF764FCFCF71AFF82B20B216846FFF795
:1038D000BEFFA0682946006AFCF758FCFCF70EFF03
:1038E00082B20D216846FFF7B2FF606AFCF706FF5F
:1038F00082B20F216846FFF7AAFFE0683146406AAE
:10390000FCF7CEFC0546A0683146406AFCF7C8FCCF
:103910002946FCF78DFCFCF7F1FE82B211216846C6
:10392000FFF795FF0A23132269460A48FEF708FDB0
:1039300006B070BDA55A10847F0000000000000092
:103940000000000000000000E00000200000C8426D
:1039500000007041C00A002070B53D4C256AA9786E
:1039600006291ED083790022002B1AD0818849BAFB
:1039700039290DD00F2915D0372920D03A2926D042
:10398000B1B3242942D022294DD0232951D05BE064
:10399000B0F8070040BAFCF775FE0221FCF7BEFC48
:1039A000E06270BDB0F8070040BAFCF781FE00226B
:1039B000284BFCF7D8FDFCF7C8FE606270BDB0F87C
:1039C0000700E16940BAC880E169088170BDB0F8BC
:1039D000070040BA00F00201012901D9012100E0ED
:1039E0000021226900F0010011706169087070BD4A
:1039F000FFE7B0F8070040BA012803D0022803D03F
:103A00000328F4D102210FE003210DE0B0F80700F4
:103A100040BA012803D0022803D00328E7D10421AB
:103A200002E0052100E001212846BDE8704000F0D9
:103A300067BAB0F8070040BA0128D8D1BDE8704095
:103A400000F012BA521CD2B29A42FBD3CFE7000068
:103A5000E000002000002440F0B52D49C1B00888E6
:103A60004B88834240D02B4D4FF400662A5CA52A38
:103A700006D0401C80B20880B04235D1002042E020
:103A800002468342A3EB020201D802F5006297B21C
:103A9000052F29D3821C92B2B24202D3A2F5006252
:103AA00092B2AC5CE41CA7421ED300224FEA0D0781
:103AB00015F800C007F802C0401C521C80B292B238
:103AC000B04200D10020042A10D0F1D904F1030C37
:103AD000624516D108809DF80300812801D0832813
:103AE00002D13846FFF738FF41B0F0BD9DF80040E5
:103AF000A52C08D19DF801405A2C04D19DF8024014
:103B0000D6E7FF2A01D90880EEE79842D0D1EBE74B
:103B10001600002014010020074A8223D370030AF4
:103B200013715071080A9071D1710A230822024959
:103B30000248FEF705BC00001A000020C00A002061
:103B400010B5406A0021C185C184FEF71BFA10BD83
:103B50000168CA6822F49072CA6001684A6922F05A
:103B600001024A61016B012904D10168CA6822F08F
:103B70001002CA60202180F83E10002101637047C6
:103B800008B590F83E10222901D0022008BD8268B5
:103B90004FF480539A4201D1016921B1816A9A425E
:103BA0001BD04AB10AE00268816A5268C2F3080277
:103BB0000A80816A891C08E0026972B10268526851
:103BC00002F07F020A70816A491C8162C18D491E20
:103BD0000904090CC18503D019E002685268F1E7B5
:103BE0000168CA6822F02002CA600168CA6822F42B
:103BF0008072CA6001684A6922F001024A6120218C
:103C000080F83E10016B012903D0FEF777FB0020FE
:103C100008BD002101630168CA6822F01002CA6071
:103C200001680A68D20602D50A6849680091818D48
:103C3000FEF7A7F9EBE7000070B5044600680169DC
:103C4000E26821F44051114301612169A0680843F1
:103C5000616908432168CA6841F20C639A430243D0
:103C6000CA6020684169A26921F440711143416131
:103C70001E492068884202D1FDF71EFC01E0FDF7D5
:103C80000BFC00EBC00101EB0012606864218000B6
:103C9000B2FBF0F3B3FBF1F36FF018067343B2FB22
:103CA000F0F5B2FBF0F605EB8305322303EB0515C7
:103CB000B5FBF1F5B6FBF1F605F0F00505EB0615E1
:103CC000B2FBF0F6B2FBF0F0B0FBF1F06FF01802CF
:103CD000504306EB800003EB0010B0FBF1F02168CD
:103CE00000F00F002844886070BD000000380140DB
:103CF00081628285C28500210164222280F83E20F3
:103D000080F83C100168CA6842F48072CA60016899
:103D10004A6942F001024A610068C16841F020012D
:103D2000C160002070472DE9F041984617460E46C5
:103D30000446069D1DE0681C1BD02DB1FCF7A8FFB2
:103D4000A0EB0800A84214D92068C16821F4D07102
:103D5000C1602068416921F001014161202084F89F
:103D60003D0084F83E00002084F83C000320BDE8BC
:103D7000F0812068006836EA000004D00020B842D4
:103D8000D9D00020F3E70120F9E700000148FEF751
:103D9000FBB80000C00A00200148FEF7F5B800009B
:103DA000040B0020FEE70907090E002804DB00F1E0
:103DB000E02080F80014704700F00F0000F1E020D0
:103DC00080F8141D704702E008C8121F08C1002ABD
:103DD000FAD170477047002001E001C1121F002A8C
:103DE000FBD17047FDF732FAFFF7CCFAFEF720FF60
:103DF000FEF774FFFFF768F8FEF790FFFFF780F813
:103E0000FEF7F8FFFFF72CF8FEF7A8FF4FF47A70E3
:103E1000FCF732FE00F0A0F80E48FDF7D7FD0E4883
:103E2000FDF7D4FD01220D490D48FEF751FAFFF7C9
:103E300047FC4FF4FA60FCF71FFE0A4CFFF70CFE3C
:103E4000FFF77CF8A06AFCF740FC01B22068FFF79E
:103E500065F9F3E7300A0020780A002014090020F1
:103E6000C00A0020E0000020012080F31388BFF387
:103E70004F8F05480168054A01F4E0611143016074
:103E8000BFF34F8F00BFFDE70CED00E00400FA0523
:103E90001CB504464078A07020786070114801215C
:103EA000006A00F02DF80120E07000213E20FFF7AD
:103EB00033FE0DA00A23D0E90010CDE9001007223F
:103EC00069460B48FEF73CFA0A2307226946084870
:103ED000FEF736FA0A23072269460548FEF730FA4C
:103EE0001CBD0000E0000020A55A04800300030070
:103EF000C00A00200021817041700170C1707047BC
:103F0000082908D282788A4205D04378037042702B
:103F100081700121C170704770B5064C0025A56203
:103F20002068FFF78BF90121A069FFF7CFF9E0695D
:103F3000057070BDE000002010B5064C2068FFF74A
:103F40007DF90221A069FFF7C1F9E169012008703C
:103F500010BD0000E000002070B51E4C1C4820621F
:103F6000FFF7C8FF1C482060FFF740F91B4860605E
:103F7000FFF756F800251B4884F830501849C4E96B
:103F8000021001221848FEF76BFB02221748E16875
:103F9000FEF766FB17491648C4E904010121FFF743
:103FA00071F902216069FFF76DF91348E061FFF7CD
:103FB00047FB1248A061FFF7B2F96562A562E562AE
:103FC00084F8315084F83250BDE8704000F018B8E1
:103FD00011000020E0000020D4000020A4000020F8
:103FE0003C000020700000203409002088090020D7
:103FF0000000002002000020DC0900202200002038
:1040000010B5094C0020A0622068FFF717F90121C4
:10401000A069FFF75BF9E069FFF70BFB6068BDE89B
:104020001040FEF7FDBF0000E000002010B5064C78
:104030000020A0622068FFF701F9A069BDE81040E8
:104040000021FFF743B90000E00000201CB5184C28
:104050000621206AFFF754FF216A0020C870E16939
:104060000870A0622068FFF7B5F80421A069FFF787
:104070002DF9E069FFF7DDFA0E4901200A230870E7
:104080000DA00722D0E90010CDE9001069460C48C8
:10409000FEF756F90A23072269460948FEF750F948
:1040A0000A23072269460648FEF74AF91CBD0000AC
:1040B000E000002010000020A55A0480030020002A
:1040C000C00A00201CB508A10A23D1E90001CDE9EE
:1040D0000001072269460648FEF732F9054801212A
:1040E000006AFFF70DFF1CBDA55A048003001400F1
:1040F000C00A0020E000002010B5074C0020A0629C
:10410000E16908702068FFF799F8A069BDE81040E0
:104110000121FFF7DBB80000E000002010B5094CDA
:104120002068FFF78BF80221A069FFF7CFF8E1695B
:1041300001200870E0690189002901D1C18801814D
:1041400010BD0000E00000200E49086AC278012A74
:1041500017D10022C270086A8078082811D2DFE8DF
:1041600000F0100406080A0C100EFFF749BFFFF715
:10417000E3BEFFF7D1BEFFF7D1BFFFF7BDBFFFF72B
:1041800055BF7047E0000020000000000000000064
:1041900001020304060708090000000001020304ED
:1041A000C0410008000000203C000000C63D00089F
:1041B000FC4100083C000020340F0000D63D000800
:1041C00000000000000101000000000000000000ED
:1041D00000000000000000000000A55A0582000059
:1041E00000000000000000000000000001000000CE
:0C41F00010000000000000000024F4009B
:04000005080000ED02
:00000001FF
