:020000040800F2
:1000000088110020010100081D3500088D2C000812
:1000100069340008590A000819430008000000006C
:10002000000000000000000000000000553800083B
:100030008D0A00080000000085370008B13800086C
:100040001B0100081B0100081B0100081B01000820
:100050001B0100081B0100081B0100081B01000810
:100060001B0100081B0100081B0100081B01000800
:100070001B0100081B0100081B0100081B010008F0
:100080001B0100081B0100081B0100081B010008E0
:100090001B0100081B0100081B0100081B010008D0
:1000A0001B0100081B0100081B0100081B010008C0
:1000B0001B01000815390008213900081B01000840
:1000C0001B0100081B0100081B0100081B010008A0
:1000D0001B010008014300080D4300081B01000834
:1000E0001B0100081B0100081B010008DFF80CD0F1
:1000F00000F0A0FC00480047C54C00088811002013
:100100000648804706480047FEE7FEE7FEE7FEE7B1
:10011000FEE7FEE7FEE7FEE7FEE7FEE7133900082D
:10012000ED000008202A04DB203A21FA02F0002129
:10013000704721FA02F3D040C2F1200291400843F7
:100140001946704740EA01039B0703D009E008C93C
:10015000121F08C0042AFAD203E011F8013B00F88C
:10016000013B521EF9D27047D2B201E000F8012BD8
:10017000491EFBD270470022F6E710B513460A4627
:1001800004461946FFF7F0FF204610BDF0B480EAA0
:100190000102D40F4200B2EB410F02D202460846E0
:1001A00011464A0042D0C30DDDB2C1F3C752AD1AA9
:1001B000202D35DAC1F3160141F4000204B1524298
:1001C000C5F1200602FA06F12A411044B3EBD05FD4
:1001D00023D0C4B1012DA0EBC35009DCF0BC4FF01B
:1001E000004202EAC352DBB200F5000000F07FBB20
:1001F000400000F1807000EBC350A0F1807040EA35
:10020000D170490009E0490841EAC071A0EBC35030
:1002100000F50000400800EBC350F0BC00F05EBBEE
:100220006142012202EB4101001BF6E7F0BC70477E
:1002300081F00041AAE780F00040A7E780EA0102D0
:1002400010B502F00043400022D04A001FD0010E3A
:1002500001EB1261C0F35600C2F3560240F40000F5
:1002600042F40002A0FB022000047F39140400D0F5
:10027000401C50EA124001D44000491EC2B20C0694
:1002800004EBD010401C4008802A02D003E000207C
:1002900010BD20F00100002900DA0020184310BD35
:1002A00030B480EA010202F0004530F0004221F053
:1002B000004013D090B1C30DD40DC2F31601C0F3AA
:1002C0001600E41A41F4000140F400027D3491422A
:1002D00001D3641C00E04900002C02DA30BC00208D
:1002E00070474FF400000023914201D3891A034361
:1002F00040084FEA4101F7D151B1914202D14FF08C
:10030000004105E002D24FF0010101E06FF0010170
:1003100003EBC450284430BC00F0E0BA420005D0E2
:10032000C0F3C7525242914201DC0020704700EBFB
:10033000C15070472DE9FE4F804681EA0300C00F8F
:100340000C46009021F0004123F00045B8EB02007C
:10035000A94105D24046214690461C460B4602461E
:1003600023F00040104347D0270DC7F30A00C3F322
:100370000A510290401A019040286BDAC3F313002F
:1003800040F4801B0098924620B10023D2EB030A70
:1003900063EB0B0B01985946C0F14002504600F048
:1003A0007CFA06460D4650465946019A00F084FAFA
:1003B00010EB08006141002487EA115284EAE773D8
:1003C0001A4340D0009A62B3019A012A4FEA0752B9
:1003D00015DC001B61EB02014FF0004202EA0752FC
:1003E000CDE90042001C41F5801132462B4600F059
:1003F000BBFA03B0BDE8F08F40462146F9E7001B89
:1004000061EB0201001C41F5801300185B412018CC
:10041000A2F5001747EB030140EAD570B6196D410C
:1004200011E06D084FEA360645EAC0754FEA0752FB
:10043000001B61EB0201001C41F5801149084FEAE5
:1004400030000019514132462B4603B0BDE8F04F51
:1004500000F07BBA0098012240000023D0EB02029A
:1004600063EBE073009821464FEAE074B8EB0000BC
:1004700061EB0401E9E783F000435BE781F00041B1
:1004800058E72DE9FE4F81EA030404F0004421F00F
:10049000004100944FF0000B23F0004350EA0104A8
:1004A0005ED052EA03045BD0C3F30A54C1F30A5589
:1004B0002C44A4F2F3340194A0FB0254C1F31301C1
:1004C00041F48011C3F3130343F4801301FB02448E
:1004D00000FB034E840A970A44EA815447EA835793
:1004E000A4FB076802958D0A05FB07854FEA932C4C
:1004F00004FB0C542705029D4FEA065847EA1637BD
:10050000B5EB08056EEB070C870E920E47EA8117D4
:1005100042EA8312A7FB0201B6EB0B0164EB000475
:100520002B0D43EA0C335E1844EB1C50DA4651465F
:10053000E7FB0201C5F313044FEA0B3343EA1453FC
:100540004FEA0432019C43EA0603A4F10C0402942E
:10055000009CCDE900B400F007FA03B0BDE8F08FCD
:1005600000200146F9E72DE9F04D81EA030404F08B
:10057000004B21F0004514464FF0000A23F00041E3
:1005800050EA050220D054EA01021DD0C5F30A57F3
:100590000246C5F31303C1F31300C1F30A5640F436
:1005A000801543F48013A7EB0608101BD64608F20B
:1005B000FD3873EB050002D308F1010801E0921841
:1005C0005B41B8F1000F03DA00200146BDE8F08D71
:1005D00000204FF48011064684460EE0171B73EB93
:1005E000050705D3121B63EB050306434CEA010C18
:1005F00049084FEA300092185B4150EA0107EDD1FB
:1006000052EA030012D082EA040083EA050108439B
:1006100005D0101BAB4106D20122002306E00022C8
:100620004FF0004302E06FF0010253101AEB060096
:100630004CEB085110EB0A0041EB0B01BDE8F04D0B
:1006400000F083B970B521F0004303430CD0C1F32F
:100650000A550024D5EB040564EB0403D617AD1A44
:10066000B34102DB0020014670BD201841EB02516E
:1006700070BDC10F80EAE0700844CA0796230021CC
:1006800000F035B996230022114600F030B90EB5BE
:10069000C10F80EAE0700844CA07002140F23343EA
:1006A0008DE80E000A460B4600F05EF903B000BD6F
:1006B0000EB540F2334102910021CDE900110A4606
:1006C0000B4600F051F903B000BD00F0004220F0ED
:1006D0000040C10DC0F3160040F400007F2901DA8C
:1006E00000207047962903DCC1F19601C84001E063
:1006F00096398840002AF4D04042704720F00040EC
:10070000C10DC0F3160040F400007F2901DA00207B
:100710007047962903DCC1F19601C84070479639AD
:100720008840704700F0004230F000400AD0C10D10
:1007300001F56071C0F3160042EA0151C20840079A
:1007400011437047002001467047000030B5041E79
:1007500071F1000404DB4FF00044404264EB0101FE
:10076000141E73F1000405DB1C464FF00043524297
:1007700063EB04038B4208BF824230BD30B5041ED8
:1007800071F1000404DB4FF00044404264EB0101CE
:10079000141E73F1000405DB1C464FF00043524267
:1007A00063EB0403994208BF904230BD01F000435F
:1007B00030B421F0004150EA010206D00A0DA2F542
:1007C0006072C1F31301002A02DC30BC00207047C4
:1007D000440F44EAC104C100E01830BC00EBC25031
:1007E00000F07CB8002801DBC0F10040002901DBEB
:1007F000C1F1004181427047002801DBC0F1004097
:10080000002901DBC1F100418842704730B50B4639
:10081000014600202022012409E021FA02F59D4230
:1008200005D303FA02F5491B04FA02F52844151E04
:10083000A2F10102F1DC30BD2DE9F05F0546002098
:1008400092469B4688460646814640241BE0284641
:10085000414647462246FFF765FC53465A46C01AB2
:10086000914110D311461846224600F016F82D1A71
:1008700067EB01084F4622460120002100F00DF8E9
:1008800017EB00094E41201EA4F10104DFDC4846AD
:1008900031462A464346BDE8F09F202A04DB203A31
:1008A00000FA02F1002070479140C2F1200320FAC3
:1008B00003F3194390407047202A06DBCB17203AF8
:1008C00041FA02F043EAE07306E041FA02F3D04055
:1008D000C2F1200291400843194670470029A8BF81
:1008E0007047401C490008BF20F00100704710B459
:1008F000B0FA80FC00FA0CF050EA010404BF10BC0E
:10090000704749B1CCF1200421FA04F411FA0CF13A
:1009100018BF012121430843A3EB0C01CB1D4FEA73
:1009200000614FEA102042BF002010BC704700EB6E
:10093000C35010440029A4BF10BC7047401C49009C
:1009400008BF20F0010010BC704710B5141E73F1F1
:10095000000408DA401C41F1000192185B411A437F
:1009600001D120F0010010BD2DE9F04D92469B46CB
:1009700011B1B1FA81F202E0B0FA80F22032904671
:10098000FFF78BFF04460F4640EA0A0041EA0B01DD
:1009900053465A46084313D0114653EA010019D072
:1009A000C8F140025046FFF7BDFB05460E465046D3
:1009B00059464246FFF771FF084305D0012004E085
:1009C00020463946BDE8F08D0020054346EAE07632
:1009D0002C4337430A986305E40AA0EB0800002281
:1009E000FD0A44EA47540A3002D500200146E9E7EF
:1009F000010510196941DDE9084500196941BDE8A3
:100A0000F04DA2E7C1F30A52C1F3130140F2FF33E4
:100A100041F480119A4202DA00200146704740F208
:100A200033439A42A2F2334202DC5242FFF77ABBCE
:100A3000FFF733BF064C074D06E0E06840F00103C6
:100A400094E8070098471034AC42F6D3FFF752FB06
:100A50003454000854540008FEE70000012202212B
:100A6000014800F09EB90000000C0140012211462F
:100A7000014800F096B90000000C014001228021DD
:100A8000014800F08EB9000000080140704772B6BE
:100A9000FEE70000064890F90000411C03D0012841
:100AA00003D00020704701207047022070470000EB
:100AB0000400002010B590F821100022022905D072
:100AC0000421816380F82020012010BD01680B689B
:100AD00023F00E030B6001680B6823F001030B6029
:100AE00090F84030C46B012101FA03F3636080F891
:100AF000211080F82020104610BD000010B590F89D
:100B000021100024022903D00421816301243DE047
:100B100001680A6822F00E020A6001680A6822F081
:100B200001020A601A4A0168914201D1012121E0C3
:100B3000174A1432914201D110211BE0144A283285
:100B4000914201D1891515E0114A3C32914201D1FF
:100B500089140FE00E4A5032914202D14FF4803195
:100B600008E00B4A6432914202D14FF4801101E057
:100B70004FF08071064A083A5160012180F8211037
:100B8000002180F82010416B01B18847204610BD3C
:100B90000800024070B5044600F008F90546601CE4
:100BA00002D004480078044400F000F9401BA04241
:100BB000FAD370BD340000202DE9F84FDFF8B8916A
:100BC000002409F1040A0AF1040B23460F270BF154
:100BD000040EC9E00125A5402A40AA427DD1674EF6
:100BE000D1F804C0ACEB0608B44532D014DCBCF13B
:100BF000030F3AD009DCBCF1000F2AD0BCF1010F81
:100C00001CD0BCF1020F31D11DE0BCF1110F17D087
:100C1000BCF1120F2AD119E0B8F5881F19D006DCF3
:100C2000B8F5803F15D0B8F5801F1FD111E0B8F599
:100C3000001F0ED0B8F5041F18D10AE0CB6815E0EC
:100C4000CB681B1D12E0CB6808330FE0CB680C3378
:100C50000CE08B682BB1012B4FF0080303D04561EA
:100C600004E0042302E0056100E00023FF2A01D82C
:100C7000064601E000F104064FEA840501D9A5F11A
:100C80002005D6F8008007FA05FC28EA0C0803FACC
:100C900005F548EA0508C6F800804D68ED0062D504
:100CA000374DAE6946F00106AE61AD6924F003062A
:100CB00005F001050095334D06EB050CDCF80850F6
:100CC000A607360F07FA06F825EA0805DFF8B88008
:100CD000404503D14FF0000817E044E0DFF8AC8056
:100CE000404502D14FF001080FE0DFF8A4804045F5
:100CF00002D14FF0020808E0DFF89880404502D1A9
:100D00004FF0030801E04FF0040808FA06F848EA3B
:100D10000508CCF808804D68D9F80060ED034D4611
:100D200001D5164300E096432E604D68DAF8006066
:100D3000AD03554601D5164300E096432E604D683D
:100D4000DBF80060ED025D4601D5164300E09643F6
:100D50002E604D68DEF80060AD02754601D5164381
:100D600000E096432E60641C0D682A46E5407FF43F
:100D700031AFBDE8F88F0000000401400000111001
:100D8000001002400000014000080140000C01403A
:100D900000100140001401408068084000D001208C
:100DA00070470AB1016170470904FBE70148806898
:100DB000704700003400002070B5040025D094F87E
:100DC0003D00002520B984F83C50204600F078FA18
:100DD000242084F83D002068016821F001010160B1
:100DE0002068016841F4004101602068016821F435
:100DF0000041016000F0DEFB4D4A6168914201D87C
:100E00004C4900E04C49884201D2012070BD4B4959
:100E10002368B0FBF1F15E6826F03F060E435E608A
:100E20006368934206D94FF4967359434FF47A732B
:100E3000B1FBF3F12368491C1E6A26F03F063143DB
:100E400019626168914210D84900401EB0FBF1F26E
:100E5000521CC2F30B02042A01D2042022E0B0FB90
:100E6000F1F0401CC0F30B001CE0A268F2B301EBF0
:100E7000C10303EB0116431EB3FBF6F35B1C43F403
:100E800080431B0549D092B301EBC10202EB011173
:100E9000401EB0FBF1F0401CC0F30B0040F480405A
:100EA00040F400402168CA694CF6FF739A4310432E
:100EB000C861D4E9071001432068026822F0C0022B
:100EC00011430160D4E9030101432068826848F2BC
:100ED000FF339A4311438160D4E905010843216837
:100EE000CA6822F0FF021043C86001E00EE016E07D
:100EF0002068016841F0010101602564202084F828
:100F00003D00256384F83E50002070BD01EB410692
:100F1000431EB3FBF6F35B1CB3E70120C2E701EB12
:100F20004101401EB0FBF1F0401CC0F30B00B7E7DD
:100F3000A086010080841E0000093D0040420F0091
:100F40002DE9FF4F83B00025DDE910799A469346DD
:100F50000446DDF848800095FFF728FF064694F820
:100F60003D0020287CD11923012285492046009686
:100F700001F09CFF0028F5D194F83C0001286FD0C7
:100F8000012084F83C0020680168C90703D101688A
:100F900041F0010101602068016821F400610160F5
:100FA000222084F83D00402084F83E0025646762DA
:100FB000A4F82A90608D20857248E062CDE9008611
:100FC00053465A462046049901F078FE00287DD108
:100FD000208DDFF8B491202768B1012814D00228B1
:100FE000206801681ED041F4806101602068416979
:100FF00080690090B6E020684169816900910168CC
:1010000041F400710160ADE02068016821F4806165
:10101000016072B62068416981690091016841F4FC
:1010200000710AE041F40061016072B62068416914
:1010300081690091016821F48061016062B691E0EC
:10104000032868D801280CD0022843464FF000023C
:101050004946204600960FD001F028FFB0BB10E0B3
:101060008BE032464146204601F09FFF70BB20686E
:101070000069616A08706CE001F018FF30BB72B65D
:1010800034E02068016821F48061016072B6206854
:101090000069616A0870606A401C6062208D401EB1
:1010A0002085608D401E6085384846F2A811006892
:1010B000B0FBF1F0C0EBC00000EB80000090401EE0
:1010C000009008D020684069C04300E029E0400754
:1010D0000CD50098F3E744F8305F6773A573206977
:1010E00040F02000206162B625731AE02068016894
:1010F00041F40071016020680069616A0870606AEB
:10110000401C6062218D491E2185618D491E6185CB
:1011100062B621681BE032464146204601F045FF99
:1011200018B1012007B0BDE8F08F20680069616A3E
:101130000870606A401C6062218D491E2185618DA6
:10114000491E618521684A69D24352070AD4096958
:101150000170606A401C6062208D401E2085608D99
:10116000401E6085208D00287FF46AAF84F83D70B2
:1011700084F83E5084F83C50D4E70220D2E70000C7
:10118000020010000000FFFF0400010040000020EA
:101190002DE9FF4F83B09A46DDE911979346044647
:1011A000DDF84080FFF702FE054694F83D00202858
:1011B0007FD11923012240492046009501F076FE97
:1011C000002876D194F83C00012872D0012084F8E0
:1011D0003C0020680168C90703D1016841F00101A2
:1011E00001602068016821F400610160212084F819
:1011F0003D00402084F83E0000262664C4F8248088
:10120000A4F82A90608D20852C48E062CDE9007515
:1012100053465A462046049901F0CEFD70B930E09D
:101220002A463946204601F0F3FE58B1206C0428C6
:1012300004D12068016841F400710160012007B009
:10124000BDE8F08F606A216800780861606A401C20
:101250006062218D491E89B22185628D521E628590
:1012600022685369DB435B070BD469B100781061D6
:10127000606A401C6062208D401E2085608D401E8B
:101280006085208D0028CBD12A463946204601F0C2
:10129000E7FD0028CAD154F83D0B016841F4007104
:1012A0000160202004F81E09E67766770020C6E773
:1012B000FFE70220C3E70000020010000000FFFF6C
:1012C00030B585B0002100910191029103911E4D2E
:1012D00003681E4C122103221D48AB4216D1A3699C
:1012E00043F00803A361A369039203F00803049386
:1012F000C023CDE900316946FFF75EFCE06940F4A8
:101300000010E061E06900F4001019E0114DAB42FB
:1013100017D1A36943F00803A361A369039203F003
:10132000080304934FF44063CDE900316946FFF7A9
:1013300043FCE06940F48000E061E06900F4800073
:10134000049005B030BD0000005400400010024081
:10135000000C0140005800400248816802781144A6
:101360008160704734000020074810B5016841F0E3
:1013700010010160032000F075F8002000F006F86D
:1013800000F024F8002010BD0020024070B50D4D83
:1013900004464FF47A712878B1FBF0F00A490968E5
:1013A000B1FBF0F000F0ECFA48B9102C07D20022A3
:1013B0002146501E00F036F800206C6070BD012000
:1013C00070BD000034000020400000200C4808B52B
:1013D000816941F001018161816901F001010091A0
:1013E000C16941F08051C161C06900F08050009036
:1013F0000448416821F0E06141F00071416008BD9E
:101400000010024000000140002809DB00F01F022C
:10141000012191404009800000F1E020C0F8001156
:1014200070470000F0B40E4B1B680C46C3F3022358
:10143000C3F10705042D00D90425191D072901D280
:10144000002300E0DB1E012606FA05F1491E2140BB
:1014500099409E40761E16403143F0BC02F06EBFAC
:101460000CED00E0064900F0070208684FF6FF03A4
:10147000184040EA0220034A104308607047000009
:101480000CED00E00000FA052DE9F0470F460500DD
:1014900061D0434E306800F00700B84209D230688E
:1014A00020F0070038433060306800F00700B84291
:1014B00051D128683B4C810712D5400703D560689D
:1014C00040F4E06060602878000703D5606840F46D
:1014D000605060606068A96820F0F00008436060B8
:1014E0002878C00728D06868012810D02168022811
:1014F00010D0890700292EDA616821F00301014329
:101500006160FFF753FC804641F288390DE02168A5
:101510008903EFE78901EDE7FFF748FCA0EB08013D
:10152000494502D90320BDE8F0876068696800F08A
:101530000C00B0EB810FEFD1306800F00700B8422B
:101540000BD9306820F0070038433060306800F075
:101550000700B84201D00120E5E72878400705D50B
:101560006068E96820F4E06008436060287800075C
:1015700006D56068296920F4605040EAC1006060C7
:1015800000F038F86168084AC1F30311515CC840A3
:101590000649086006480068FFF7F8FE0020C2E729
:1015A00000200240001002401C54000840000020AF
:1015B000380000200448054900684968044AC1F31E
:1015C0000221515CC84070474000002000100240DA
:1015D0002C5400080448054900684968044AC1F3CE
:1015E000C221515CC84070474000002000100240FA
:1015F0002C54000812A185B00FC98DE80F0014A06B
:10160000144A006804905168134801F00C03042B3D
:1016100010D0082B0ED1C1F38343C9031DF803007A
:101620000AD5516804AAC1F34041515C0A4A5043AB
:10163000B0FBF1F005B0704708494843FAE70000F5
:1016400002030405060708090A0B0C0D0E0F101003
:10165000010200000010024000127A0000093D0063
:101660002DE9F84F040070D02078C04DC00749D054
:101670006868C0F38100012807D06868C0F3810062
:10168000022809D16868C00306D52868800339D5C7
:1016900060680028E7D035E06068B0F5803F0BD087
:1016A00010B1B0F5A02F11D0286820F48030286048
:1016B000286820F4802002E0286840F48030286008
:1016C000606890B1FFF772FB06460AE0286840F4B4
:1016D00080202860F0E700BFFFF768FB801B6428CC
:1016E00073D828688003F7D50CE0FFF75FFB064648
:1016F00005E000BFFFF75AFB801B6428F0D828687C
:101700008003F7D420789A4E80074FF001094FF0FC
:10171000000839D5686810F00C0F07D06868C0F36E
:101720008100022809D16868C00306D428688007B0
:1017300014D52069012808D110E02069B0B1C6F89D
:101740000090FFF733FB074605E00AE1FFF72EFBA9
:10175000C01B0228C4D828688007F7D528686169AB
:1017600020F0F80040EAC10028600DE0C6F80080D3
:10177000FFF71CFB074604E0FFF718FBC01B02281D
:1017800023D828688007F7D4207800072CD579481B
:10179000A169D9B1C0F80090FFF708FB074604E043
:1017A000FFF704FBC01B02280FD8686A8007F7D533
:1017B00071484FF4FA510068B0FBF1F0009000BF9F
:1017C0000098411E0091FAD20EE080E0C0F800803F
:1017D000FFF7ECFA074604E0FFF7E8FAC01B02281F
:1017E00075D8686A8007F7D42078400760D5E86923
:1017F0000027C00008D4E86940F08050E861E8693B
:10180000012700F0805000905C480168C90513D49E
:101810000168834641F480710160FFF7C7FA824690
:1018200006E000BFFFF7C2FAA0EB0A0064284ED81A
:10183000DBF80000C005F5D5E06801280AD008B142
:10184000052813D0286A20F001002862286A20F0B9
:10185000040002E0286A40F001002862E06841F2DA
:10186000883B98B1FFF7A2FA82460BE0286A40F065
:1018700004002862EEE700BFFFF798FAA0EB0A0128
:1018800059455AD8286A8007F6D50CE0FFF78EFA3A
:10189000824605E0FFF78AFAA0EB0A0159454CD8C9
:1018A000286A8007F6D41FB1E86920F08050E8610B
:1018B000E06988B36968C1F38101022944D0022834
:1018C000C6F8608004D0FFF771FA044638E034E0CF
:1018D000FFF76CFA074604E0FFF768FAC01B02281E
:1018E0002BD828688001F7D4206AB0F5803F05D155
:1018F0006868A16820F4003008436860D4E90801F2
:101900000843696821F4741108436860C6F8609060
:10191000FFF74CFA044606E025E000BFFFF746FA61
:10192000001B022809D828688001F7D51BE000BFFA
:10193000FFF73CFA001B022802D90320BDE8F88F0C
:1019400028688001F4D40EE00128F7D06868226A84
:1019500000F48031914204D1616A00F47010884231
:1019600001D00120EAE70020E8E700000010024073
:1019700000004242800442424000002000700040CB
:1019800010B5401EB0F1807F01D3012010BD4FF093
:10199000E02460610F21601702F0D0FC0020A061FC
:1019A00007202061002010BD7047704770B590F887
:1019B0003C20012A26D0012480F83C40022280F8F5
:1019C0003D2003685A689D6822F070060A68324319
:1019D0005A600D4B02689A4208D0B2F1804F05D090
:1019E0000A4B9A4202D00A4B9A4204D1496825F028
:1019F00080031943916080F83D40002180F83C103D
:101A0000084670BD022070BD002C0140000400405B
:101A10000008004010B5040003D094F83D0010B158
:101A200007E0012010BD002084F83C00204600F0B3
:101A30001FF8022084F83D00211D206801F076FF88
:101A4000012084F8460084F83E0084F83F0084F8C2
:101A5000400084F8410084F8420084F8430084F890
:101A6000440084F8450084F83D00002010BD0000CB
:101A700008B501681948B1F1804F11D0184A914258
:101A800017D1C16941F00201C161C069002200F0B3
:101A90000200009002211D20FFF7C4FC1D2019E068
:101AA000C16941F00101C161C06900F0010000900D
:101AB00008BD0C4A9142FBD1C16941F00401C161EA
:101AC000C069002200F00400009003211E20FFF7EF
:101AD000A9FC1E20BDE80840FFF796BC001002409C
:101AE000000400400008004090F83D10012901D09A
:101AF00001207047022180F83D100168CA6842F059
:101B00000102CA6000680B49884208D0B0F1804FDA
:101B100005D00949884202D00849884204D1816829
:101B200001F00701062903D0016841F001010160BD
:101B300000207047002C01400004004000080040D5
:101B400070B5044690F83C00012817D0012584F8B0
:101B50003C50022084F83D002068826822F0770221
:101B600022F47F4282600868502830D00DDC2028A3
:101B70004DD005DC98B310283BD148E0022070BD61
:101B8000302844D0402834D139E0602828D070284B
:101B900006D0B0F5805F2CD0B0F5005F29D10AE007
:101BA000CB68D1E90121206801F003FF206881683A
:101BB00041F0770109E0CB68D1E90121206801F00B
:101BC000F8FE2068816841F48041816011E0CA68B4
:101BD0004968206801F0A2FF5021206807E016E064
:101BE000CA684968206801F0AAFF6021206801F0F6
:101BF000EAFE84F83D50002084F83C0070BDCA68BD
:101C00004968206801F08AFF40212068EFE72268D8
:101C100001461046EBE7704770B50446006801695D
:101C20004FF00005C943890715D4C168C943890726
:101C300011D4E91E016101202077206880698007A6
:101C4000204602D0FFF7E7FF04E000F0BBF8204693
:101C500000F04AF9257720680169C943490717D47C
:101C6000C168C943490713D46FF004010161022020
:101C700020772068806910F4407F204602D0FFF76B
:101C8000CAFF04E000F09EF8204600F02DF9257709
:101C900020680169C943090716D4C168C943090707
:101CA00012D46FF008010161042020772068C06918
:101CB0008007204602D0FFF7AEFF04E000F082F874
:101CC000204600F011F9257720680169C943C9064B
:101CD00017D4C168C943C90613D46FF0100101615C
:101CE000082020772068C06910F4407F204602D089
:101CF000FFF791FF04E000F065F8204600F0F4F8EB
:101D0000257720680169C943C90708D1C168C9435B
:101D1000C90704D1891E0161204600F06DF92068D1
:101D20000169C943090609D4C168C943090605D434
:101D30006FF0800101612046FFF736FE20680169DF
:101D4000C943490609D4C168C943490605D46FF09F
:101D500040010161204600F0A1F920680169C943F2
:101D600089060BD4C168C943890607D46FF02001E6
:101D700001612046BDE87040FFF717BE70BD00004E
:101D800000B585B000210091019102910391006896
:101D9000B0F1804F10D10948816941F0040181619F
:101DA0008069694600F004000490022000900190D0
:101DB00003900348FEF700FF05B000BD001002408D
:101DC00000080140704770B5044690F83C000D468D
:101DD00001280AD0012084F83C0042B1042A18D01E
:101DE000082A2AD00C2A4DD139E0022070BD206883
:101DF00001F0F2FD2068816941F0080181612068ED
:101E0000816921F004018161206881692A69114397
:101E100011E0206801F008FE2068816941F400614A
:101E200081612068816921F4806181612068816914
:101E30002A6941EA0221816124E0206801F020FE44
:101E40002068C16941F00801C1612068C16921F0C1
:101E50000401C1612068C1692A69114311E0206849
:101E600001F03AFE2068C16941F40061C161206857
:101E7000C16921F48061C1612068C1692A6941EAB0
:101E80000221C161002084F83C0070BD10B504003F
:101E900003D094F83D0010B107E0012010BD0020F0
:101EA00084F83C00204600F01EF8022084F83D0033
:101EB000211D206801F03AFD012084F8460084F8D5
:101EC0003E0084F83F0084F8400084F8410084F824
:101ED000420084F8430084F8440084F8450084F804
:101EE0003D00002010BD70477047000010B504464B
:101EF000022249B104290ED0082913D094F84100D8
:101F0000012816D0012010BD94F83E000128F9D117
:101F100084F83E200FE094F83F000128F2D184F8C5
:101F20003F2008E094F840000128EBD184F84020DD
:101F300001E084F841200122206801F02DFD0F49C5
:101F40002068884203D1426C42F400424264206817
:101F5000884208D0B0F1804F05D00949884202D0AC
:101F60000849884204D1816801F00701062903D09D
:101F7000016841F001010160002010BD002C01400A
:101F8000000400400008004030B504460D460068DB
:101F9000002201F001FD174B41F2111120688A1057
:101FA000984209D1036A0B4206D1036A134203D156
:101FB000436C23F4004343642068036A0B4206D158
:101FC000016A114203D1016821F001010160012081
:101FD0003DB1042D08D0082D09D084F8410000201F
:101FE00030BD84F83E00FAE784F83F00F7E784F854
:101FF0004000F4E7002C01401F4910B5884214D17D
:102000001E490878401C08701D490878401C08705B
:102010001C490878401C08701B490878401C08704F
:102020001A490878401C087010BD1349483188428D
:10203000FAD1174C2078B0B901F00EFCFEF72AFD5A
:102040001449012802D002280DD106E0086A8078E0
:10205000062808D003F0FEF805E0086A8178062912
:10206000F8D102F0FDFF40210B48FEF795FE002855
:10207000DAD00020207010BD440A00202900002082
:102080002A00002026000020270000202800002031
:1020900004000020F4000020000801407047704751
:1020A00070470000F8B5026804461068D1685369AB
:1020B00010F00F0F4FF0000553D003F0010601F4AC
:1020C000907737435FD0C20705D0CA0503D5226C8D
:1020D00042F001022264420705D5DA0703D0226CE0
:1020E00042F002022264820705D5DA0703D0226C8F
:1020F00042F004022264020707D501F020023243B5
:1021000003D0226C42F008022264226C002A34D0F0
:10211000800604D5880602D5204601F0EBFF206832
:102120004069216CC0F38010090700D430B3204609
:1021300001F0C8FF2068416949061BD5416921F0BB
:1021400040014161A06BA8B158494163A06BFEF703
:10215000D5FC002811D0A06B416B01B0BDE8F04068
:10216000084783060FD58B060DD52046BDE8F840FD
:1021700001F0C0BF2046FFF793FFF8BD2046FFF7F0
:102180008FFF2564F8BD266B2023012E52D1C60691
:1021900050D5CE064ED51068506800905069400664
:1021A0002AD5A16B086840680004000CEAD0A68D0F
:1021B0008642E7D9E0858869202818D0D06820F4C5
:1021C0008070D0602068416921F001014161206880
:1021D000416921F04001416184F83E302563206867
:1021E000C16821F01001C160A06BFEF763FCA08DF7
:1021F000E18D401A81B219E0A08DE18D401A81B2C3
:10220000E08D0028BED00029BCD0D06820F49070AA
:10221000D0602068426922F00102426184F83E30B9
:1022200025632068C26822F01002C2602046FFF7D2
:1022300036FFF8BD05062BD50D0629D594F83D00CF
:102240002128F6D1A068B0F5805F01D12069B0B136
:10225000206A411C2162216800784860E08C401EA1
:102260000004000CE084E4D12068C16821F0800102
:10227000C1602068C16841F04001C160F8BD206ABA
:102280000088C0F308005060206A801C2062E5E7E7
:102290004006F3D54806F1D5D168204621F040012B
:1022A000D16084F83D3000F032F9F8BDB540000847
:1022B00070B5040004D094F83D00002510B106E08C
:1022C000012070BD84F83C50204600F023F8242003
:1022D00084F83D002068C16821F40051C1602046A7
:1022E00001F064FF2068016921F4904101612068D8
:1022F000416921F02A0141612068C16841F400511F
:10230000C1602564202084F83D0084F83E00002050
:1023100070BD000070B586B0002400940194029452
:1023200003942E4E03682E49022003222D4DB34202
:1023300026D18B6943F480438B618B6903F480431E
:1023400004938B6943F004038B618969039201F064
:10235000040104910102CDE9001069462846FEF708
:102360002BFC2815CDE90004694628460294FEF7A7
:1023700023FC002201212520FFF754F8252028E026
:10238000194EB34227D1CB6943F40033CB61CB69FB
:1023900003F4003304938B6943F004038B61896970
:1023A000039201F0040104910421CDE90010694673
:1023B0002846FEF701FC0820CDE9000469462846BE
:1023C0000294FEF7F9FB002211462620FFF72AF8B7
:1023D0002620FFF719F806B070BD00000038014054
:1023E00000100240000801400044004090F83E30D8
:1023F000202B0ED159B152B190F83C30012B08D0AE
:10240000012380F83C300023036301F02BBF01203F
:10241000704702207047000000680B49884212D1C3
:102420000A480C490A4B027808881A54401C80B2AA
:102430000880B0F5006F01D1002008800122034917
:102440000548FFF7D3BF7047003801402809002036
:102450002801002018000020D40A00202DE9F843AC
:10246000044690F83D001F4616460D4620284CD1E4
:10247000C5B1BEB194F83C00012846D0012084F8D3
:102480003C004FF00008C4F84080212084F83D0053
:10249000FEF78CFCA6848146E684A068B0F5805FD8
:1024A00003D004E00120BDE8F883206928B12E465E
:1024B0005FF0000584F83C800EE00026FAE78021FA
:1024C000204601F0EAFEA0B9AEB116F8010B216872
:1024D0004860E08C401EE084E08C4B464FF00002E8
:1024E00000970028EBD14FF04001204601F0D5FEC7
:1024F00030B10320D7E735F8020BC0F30800E6E758
:10250000202084F83D000020CDE70220CBE7704773
:1025100010B5024600F07AF820B106A001F0FEFEE8
:10252000002010BD9068D0E90220C1E90020012000
:1025300010BD00005B09686561705D6572726F7245
:102540003A517565756520697320656D7074790DF4
:102550000A00000070B5061E01DC11A014E00C207A
:1025600002F082FC05000ED0F4000834204602F090
:102570007BFCA86058B12146FDF7FDFD0020C5E9B0
:102580000060284670BD10A001F0C8FE05E016A04E
:1025900001F0C4FE284602F06DFB002070BD000073
:1025A0005B09686561705D6572726F723A6D617822
:1025B0005F73697A6520697320696C6C6561676512
:1025C0006C210D0A000000005B09686561705D65A3
:1025D00072726F723A6D616C6C6F63206661696CC8
:1025E0006564210D0A0000005B09686561705D6526
:1025F00072726F723A656C6573206D616C6C6F639B
:10260000206661696C6564210D0A0000002802D013
:10261000406808B10020704701207047002803D0AF
:1026200003C8814201D1012070470020704700009B
:102630002DE9F04105460124FFF7E8FF28B122A06B
:1026400001F06CFE0020BDE8F081D5E9012000EB2F
:10265000C202D2E90067D0E90220C1E90020A868DF
:10266000816821A001F05AFE6868401E686001D0B0
:1026700008231EE0A96800208860A968C86021E0DE
:10268000A968600003EBC00E51F830C051F80EE0AD
:10269000F44502DA824200D0401C51F83020B242A8
:1026A0000BDD01EBC40401EBC0014968C4E9002162
:1026B00004466A68B2EB440FE2DAA86800EBC40093
:1026C000C0E900670120BEE75B09686561705D6570
:1026D00072726F723A517565756520697320656D08
:1026E000707479210D0A00005B09686561705D698D
:1026F0006E666F3A506F702025640D0A000000006E
:102700002DE9F04105460E4614461046FFF786FFB8
:1027100028B114A001F002FE0020BDE8F08132468D
:10272000294618A001F0FAFD6068401C06E000BFD1
:1027300001EBC0007968C0E90031501000EBD072A5
:10274000A168531001EBC3073B68AB4201DA0128D3
:10275000EEDC01EBC000C0E900566068401C606020
:102760000120DAE75B09686561705D6572726F72FE
:102770003A51756575652069732046756C6C210D3D
:102780000A0000005B09686561705D696E666F3AFA
:1027900070757368207072696F726974793A256414
:1027A00020646174613A25640D0A000010B50A784E
:1027B0004B78120142EA13120280130502D542F44B
:1027C000704202804B788A7803F00F0342EA0322BA
:1027D0004280130502D542F470424280CA780B79D8
:1027E000120342EA03124B7942EA1312114B426080
:1027F000140301D51A4342604A798C791207120BEF
:1028000042EA0422CC7922438260140301D51A43A0
:1028100082600A8952BA82814A8952BAC2818A89FF
:1028200052BA0282CA8952BA4282098A49BA81825C
:1028300010BD00000000F0FF08B500218DF8001069
:102840006A460D2100F03CF918B99DF800001028E7
:1028500001D0012008BD002008BD10B586B00C468F
:102860006B461222102100F03BF910B1012006B096
:1028700010BD69462046FFF799FF0020F7E70000EA
:102880002DE9FC41054601200C468DF8040001AA03
:102890000821284600F053F948B91E20FEF77AF9BE
:1028A0006B4603220021284600F01AF910B10120DE
:1028B000BDE8FC819DF800009DF80110000440EA8D
:1028C00001209DF802100843E061010202D540F0AA
:1028D0007F40E061FDF7CDFE2849FDF7E1FC804631
:1028E000A062B4F91200FDF7C4FE4146FDF7A6FC54
:1028F0000546B4F90E00FDF7BCFE2946FDF746FC7F
:10290000E56A064641462846FDF798FC3146FDF744
:1029100095FC0746B4F90C00FDF7ABFE2946FDF720
:102920008DFC0646B4F91400FDF7A3FE4146FDF701
:1029300085FC0546B4F91000FDF79BFE2946FDF71E
:1029400025FC4146FDF77AFC0546A068FDF791FE9F
:102950002946FDF71BFC4146FDF770FC0546606803
:10296000FDF787FE2946FDF711FC3146FDF70EFC09
:102970003946FDF70BFC6062002099E700007848BB
:102980007CB5054602200C468DF8040001AA0821FA
:10299000284600F0D4F848B90520FEF7FBF80322DA
:1029A0006B461146284600F09BF808B101207CBD1B
:1029B0009DF800009DF80110000440EA01209DF8F8
:1029C00002100843A061010202D540F07F40A061DF
:1029D000FDF74FFE6FF01201FDF7A0FC0546E06227
:1029E000B4F90200FDF745FE2946FDF727FCFDF787
:1029F00099FE06460D46B4F90000FDF748FE4FF07B
:102A0000FF32FDF71FFE32462B46FDF793FCFDF724
:102A1000CDFE206200207CBDF8B514460D4606466A
:102A2000FFF70AFF00283AD10520FEF7B3F800208F
:102A30008DF800000520FEF7ADF829463046FFF777
:102A40000CFF0520FEF7A6F804222946304600F0C8
:102A500027F80520FEF79EF86A462821304600F048
:102A60002FF89DF8000010F080038DF8003002D0A0
:102A7000802B02D006E0002200E08022294630466A
:102A800000F04DF80520FEF785F80422294630466F
:102A900000F035F80520FEF77DF885F83340F8BDE5
:102AA00038B514460D468DF800206A46062100F020
:102AB00046F808B1012038BD85F83040002038BD07
:102AC0003EB54FF47A7300920124CDE901430A46E2
:102AD0002346EF21FEF734FA002800D001203EBD46
:102AE0003EB54FF47A74CDE900320A4602940123D0
:102AF000EF21FEF725FA002800D001203EBD38B5B1
:102B000014460D468DF800206A46092100F017F89A
:102B100008B1012038BD85F83240002038BD38B5F5
:102B200014460D468DF800206A46072100F007F88C
:102B300008B1012038BD85F83140002038BD3EB5D0
:102B40004FF47A7300920124CDE901430A462346EB
:102B5000EE21FEF71DFB002800D001203EBD000045
:102B60002DE9F041054690F833000427DFF8DC80BA
:102B7000374E384C012802D0022807D00EE02946F3
:102B80003548FFF7FDFE2946334805E0294633481E
:102B9000FFF7F6FE29463148FFF772FE686AFDF737
:102BA000C1FD00224346FDF7DEFC00222C4BFDF761
:102BB000CDFD0BD22078000708D4052039463268B5
:102BC000FFF79EFD207840F0080116E0686AFDF7E7
:102BD000A9FD00224346FDF7C6FC0022214BFDF76C
:102BE000CDFD0ED2207840070BD438460321326841
:102BF000FFF786FD207840F0040121701AA001F053
:102C00008DFB204A296A012091420AD92278920735
:102C100007D402213268FFF773FD207840F00201EB
:102C20000CE0194A91420FDD2178C9070CD1014609
:102C30003268FFF765FD207840F001012170BDE8A2
:102C4000F04109A001F06ABBBDE8F08100005940E5
:102C50003000002025000020480900209C090020A9
:102C600000C08240003091405B09686561705D6919
:102C70006E666F3A6576656E745F666C61673A255D
:102C8000780D0A00000070C100004842FEE70168AC
:102C90004A69D24352050FD46FF480624A61002121
:102CA00040F8301F202242738173026942F004020F
:102CB0000261017301207047002070472DE9F84F31
:102CC0000446006889460B9D01689846174641F402
:102CD000806101602068016841F4807101600095A5
:102CE0004FF0011B0022594620460A9B00F0DEF8F7
:102CF0004FF4007A40B120680068C00501D5C4F8DF
:102D000040A00320BDE8F88F216809F0FE000861AB
:102D10002B46284920460A9A00F0FCF8F0BB2068B0
:102D20004169806900902A4620460A9900F070F9AE
:102D300040B1206C04283AD12068016841F4007148
:102D4000016034E0FEB2B8F1010F09D02168380A01
:102D500008612A4620460A9900F05AF90028E8D16D
:102D6000206806612A4620460A9900F051F9002899
:102D7000DFD12068016841F4807101600095002274
:102D8000594620460A9B00F091F80028B3D12168EB
:102D900009F0FF0040F00100086100E007E02B4669
:102DA000044920460A9A00F0B5F80028AAD001206C
:102DB000A8E70000020001002DE9F843044600687E
:102DC0000D46DDE9089701689846164641F4807182
:102DD00001604B4600224FF001112046009700F0A1
:102DE00065F848B120680068C00502D54FF400704E
:102DF00020640320BDE8F883216805F0FE00086127
:102E00003B464A461549204600F084F888B92068B8
:102E10004169806900903A464946204600F0F8F83A
:102E200048B1206C042804D12068016841F4007185
:102E300001600120DEE7F5B2B8F1010F09D0216889
:102E4000300A08613A464946204600F0E1F8002879
:102E5000E7D1206805610020CCE7000002000100F6
:102E600070B516460D4604460DE02046FFF70FFFED
:102E700008B1012070BD681C05D0FDF797FF801BCD
:102E8000A84207D835B120684069C0434007ECD458
:102E9000002070BD002044F8300F20216173A07322
:102EA000216941F0200121612073E2E72DE9F0471B
:102EB0001E4690460D460446C1F30747DDF82090B4
:102EC00008E0701C06D0FDF771FFA0EB0900B042CE
:102ED0000FD876B12068012F18D0806925EA00004C
:102EE0000004000C14D000214145EAD00020BDE8C8
:102EF000F087002044F8300F20216173A07321690E
:102F000041F02001216120730120F0E74069E5E7ED
:102F10000121E9E72DE9F0479A4691460E4604461D
:102F200000254FF02008C1F3074725E020684069DD
:102F3000C043400514D42068016841F40071016069
:102F400021686FF480604861256384F83D8084F8CF
:102F50003E50206C40F00400206484F83C501FE098
:102F6000B9F1FF3F08D0FDF721FFA0EB0A01494569
:102F70000CD8B9F1000F09D02068012F13D0806957
:102F800026EA00000004000C0BD0CFE744F8305FC5
:102F900084F80D80A573206940F02000206125731E
:102FA0000120BDE8F0874069EAE72DE9F0410025FE
:102FB00090460E460446202717E04069C043C006ED
:102FC0000CD454F8301B6FF01000486144F81059CD
:102FD0006777A577206A2062257717E0FDF7E6FE80
:102FE000A0EB0800B04208D83EB120684169C9434F
:102FF0004906E2D40020BDE8F08144F8305F6773F1
:10300000A573206940F02000206125730120F2E7BC
:1030100070B516460D4604460DE02046FFF737FE14
:1030200008B1012070BD681C05D0FDF7BFFE801BF4
:10303000A84207D835B120684069C0430006ECD4E7
:10304000002070BD002044F8300F20216173A07370
:10305000216941F0200121612073E2E72DE9F04769
:103060002F4C0027207810B32E4E306A807802282B
:103070001DD1F0682C49406AFDF712F92B4D61789B
:1030800045F82100491CC8B26070012810D0DFF853
:10309000A090DFF8A0A00A280CD005EB800008382B
:1030A00003C8FDF7C5F8484501D8504500DD6770F5
:1030B000BDE8F0876770B046706AFDF733FB0446E1
:1030C0000E46686AFDF72EFB0746D8F808000D4645
:1030D000406AFDF727FB0022174BFDF744FA3A46FA
:1030E0002B46FDF7C8F922463346FDF7C4F9FDF734
:1030F0005DFB484501D25045DADB104C2078C00614
:10310000D6D40F4A022005211268FFF7F9FA207879
:1031100040F010012170BDE8F0470AA001F0FEB8B0
:103120002D000020F40000200000C8425C0B0020AD
:10313000000020C10000204100005940250000206F
:10314000300000205B09686561705D696E666F3AEA
:103150006576656E745F666C61673A25780D0A0066
:103160002DE9F04385B0002525480095019502958D
:103170000395816941F020018161816901F020019D
:103180000491816941F004018161816901F00401C8
:103190000491816941F0080181618069DFF86480F0
:1031A00000F0080004900122B0214046FDF7F9FD2F
:1031B000DFF8549040F20317012239464846FDF7E4
:1031C000F0FD0124B020CDE900040226CDE902463D
:1031D00069464046FDF7F0FC4020CDE90005694610
:1031E00040460295FDF7E8FCCDE90074CDE90246C2
:1031F00069464846FDF7E0FC05B0BDE8F0830000F5
:103200000010024000080140000C01400D4810B5BC
:103210000B4901600C49416000214FF480428160FC
:10322000C0E9031241618161C1610162FDF7C4FD22
:10323000002803D0BDE81040FDF729BC10BD0000F8
:103240000054004048090020A08601000D4810B538
:103250000B4901600C49416000214FF480428160BC
:10326000C0E9031241618161C1610162FDF7A4FD02
:10327000002803D0BDE81040FDF709BC10BD0000D8
:10328000005800409C090020A086010010B58EB0B7
:1032900000240794089409940A940B941C2168460E
:1032A0000C94FCF768FF1E484FF080410160072135
:1032B000C0E9011440F28F11C0E903148461FEF7E4
:1032C000A9FB08B1FDF7E3FB4FF48050079007A975
:1032D0001348FEF735FC08B1FDF7D9FB1048FEF79F
:1032E000D5FD08B1FDF7D3FB0B940BA90C480C944A
:1032F000FEF75CFB08B1FDF7CAFB6020CDE90004D6
:1033000002940422694606480494FEF75CFD08B165
:10331000FDF7BDFB0248FEF733FD0EB010BD000007
:10332000FC09002010B586B00024184800940194D0
:1033300002940394049414490594016041F61F41DA
:10334000C0E9011440F2CF71C0E90314802181610A
:10335000FEF760FB08B1FDF79AFB4FF48050009038
:1033600069460A48FEF7ECFB08B1FDF790FB0494B0
:1033700004A906480594FEF719FB002801D0FDF7C3
:1033800086FB06B010BD000000040040440A002087
:1033900010B586B000241748009401940294039459
:1033A000049413490594016041F61F41C0E90114DA
:1033B0006321C0E903148461FEF72CFB08B1FDF71B
:1033C00066FB4FF48050009069460A48FEF7B8FB50
:1033D00008B1FDF75CFB049404A906480594FEF7C8
:1033E000E5FA002801D0FDF752FB06B010BD000041
:1033F000000800408C0A00200C4810B50A49016002
:103400004FF4E1314160002181600C22C160C0E9CC
:1034100004128161C161FEF74BFF002803D0BDE8B3
:103420001040FDF734BB10BD00380140D40A002025
:103430000C4810B50A4901604FF4E13141600021A8
:1034400081600C22C160C0E904128161C161FEF794
:103450002FFF002803D0BDE81040FDF718BB10BDBA
:1034600000440040180B0020FEE7000070B5284C17
:10347000206900F0B9F9606900F0B6F9254D002621
:10348000A878052803D3AE70E06900F07BFB68786C
:10349000052802D36E70FFF7E1FD2878032802D9D2
:1034A00000F062FC2E70E878012808D9EE70A06860
:1034B000FFF756FBE068FFF753FB00F07DFC28792F
:1034C00001281BD92E71206A8078022816D1E06865
:1034D000114E406A3146FCF7E3FE0546A0683146CE
:1034E000406AFCF7DDFE616AFCF7A2FE01462A464F
:1034F000606800F04DF86068C069A062206A80785A
:10350000042801D1E06AA062BDE8704001F066BF06
:10351000F4000020260000200000C842FEE7000062
:10352000002202210148FDF73CBC0000000C0140D4
:10353000002201210148FDF734BC0000000C0140CD
:10354000002280210148FDF72CBC0000000801404A
:103550000021016041608160C160C1610162074971
:103560000161074941610749816107494162074992
:1035700081624FF07F51C162704700001F852B3F71
:103580009A99193E9A99993E0000C8420000C8C213
:103590002DE9F04104464FF00008C4E9001210463E
:1035A000FCF746FEA060E16AFDF71CF908D2E06A6C
:1035B000A16880F00040FDF715F901D2C4F8088039
:1035C000616A2068FCF7E2FD6168FDF70BF907D33B
:1035D000A16A2068FCF7DAFD6168FDF70DF901D2F8
:1035E000002605E00126A168206AFCF7CFFD2062D5
:1035F000D4E902512846FCF71BFEA169FCF71EFE28
:1036000007463046FDF735F86169FCF717FE216A79
:10361000FCF714FE064629462069FCF70FFE3146EA
:10362000FCF7B4FD3946FCF7B1FDE06110F1FF4F46
:1036300002D3C4F81C8003E00349884200DDE16145
:10364000E560BDE8F08100000000C8432DE9F047C7
:10365000264FDFF89C800C0006464FF4C87A4FF0E6
:10366000000901D5002402E0544500DD54462148FC
:10367000006884632046FDF70AF800221E4BFCF721
:1036800000FF00221D4BFCF76EFFFDF78FF805468B
:103690003168FDF7A7F805D0356044B101213E201F
:1036A00000F0F4FC54450BD1012038700AE0D8F842
:1036B00020008078062816D000213E2000F0E6FC8D
:1036C00087F80090D8F820008078062809D10C4CA3
:1036D0002078012805D102213E2000F0D7FC84F893
:1036E0000090BDE8F0870221E7E700002D000020F0
:1036F000F4000020FC09002000005940000079403F
:103700001000002010B5044604210348FEF73CFCDD
:103710000020207110BD0000FC0900202DE9F041BF
:10372000054600F023F800212846FFF78FFF0D48DB
:103730000668B06A401CFCF7BBFF0746F06A0C46FF
:10374000401CFCF7B5FF02460B4600200649FCF77B
:103750000AFF3A462346FCF706FFFDF727F8A86064
:10376000BDE8F081FC090020882A914110B504468B
:1037700004210348FEF7BAFB0120207110BD0000B0
:10378000FC0900207047000010B504464078084B43
:10379000012802D0022803D007E00122102101E015
:1037A000012220211846FDF7FCFA0020207010BDF0
:1037B000000801404170FFF7E7BF000010B5044664
:1037C0004078084B012802D0022803D007E00022ED
:1037D000102101E0002220211846FDF7E2FA012025
:1037E000207010BD000801400178012903D0002994
:1037F00003D1FFF7C9BFFFF7E1BF704710B504461B
:10380000C1F38000C1F340022070627001F0010139
:10381000A17038B108B1FFF793FE607828B1012894
:1038200006D007E0FDF72AF9F7E7FDF71FF901E0F9
:10383000FFF77EFEA07828B1012807D1BDE810402F
:10384000FFF76EBEBDE81040FDF708B910BD0021BE
:10385000FFF7D4BF7047000070B5134C4FF001055F
:103860006068401C6060A178607801430F484FF0A9
:10387000400103D0FDF790FA70B10BE0FDF78CFA30
:1038800010B1FF20207005E0D4E90101401A3C2866
:1038900001D92570657070BD6078A07000206070DF
:1038A0006068A06070BD00000400002000080140B6
:1038B000FDF752BD30B58FB028216846FCF75BFCA0
:1038C00014210AA8FCF757FC01210804CDE90010D7
:1038D0000024029402250491CDE907504FF4E01032
:1038E00009906846FDF7BCFE08B172B6FEE70F20EE
:1038F000CDE90A054FF48060CDE90C4002210AA809
:103900000E94FDF7C1FD002801D072B6FEE70FB09E
:1039100030BD70470148FEF77FB90000440A00201F
:103920000148FEF779B900008C0A0020F0B5026862
:10393000164B174C174D4FF08047984205D0B842B0
:1039400003D0A04201D0A84203D122F070064A68F9
:103950003243984205D0B84203D0A04201D0A842D9
:1039600003D122F44074CA6822434C6922F08002D9
:10397000224302608A68C2620A688262984201D168
:103980000969016301214161F0BD0000002C014083
:10399000000400400008004010B501F01F030121A1
:1039A000046A99408C430462016A9A40114301629F
:1039B00010BD10B5846842EA032224F47F440A4310
:1039C0002243826010BD826822F070020A4342F0F6
:1039D000070181607047000030B5026A22F00102E1
:1039E0000262026A4368846924F073050C682C4300
:1039F00022F002058A682A430A4DA8420BD122F020
:103A00000805CA6823F440732A434D6922F0040272
:103A10001D438B692B4343608461496841630262A3
:103A200030BD0000002C014030B5026A22F01002C7
:103A30000262026A436884690D6824F4E64444EA39
:103A400005248D6822F0200242EA05120B4DA8429F
:103A50000ED1CD6822F0800242EA05124D6923F4AE
:103A6000406343EA85038D6922F0400243EA8503FF
:103A70004360846149688163026230BD002C01406B
:103A800030B5026A22F480720262036A4268C46935
:103A900023F4007324F073050C682C438D6843EA0B
:103AA00005230C4DA8420ED1CD6823F4006343EAF0
:103AB00005234D6922F4405242EA05128D6923F430
:103AC000806342EA05124260C4614968C1630362CF
:103AD00030BD0000002C014030B5026A22F4805253
:103AE0000262046A4268C3690D6823F4E64343EA4C
:103AF00005238D6824F4005444EA0534064DA84299
:103B000004D14D6922F4804242EA85124260C361C9
:103B100049680164046230BD002C014010B5036A9D
:103B2000046A24F001040462846924F0F00444EA85
:103B3000021423F00A020A438461026210BD10B528
:103B4000036A23F0100303628369046A23F4704359
:103B500043EA023224F0A00343EA011182610162C8
:103B600010BD0021017041800171417101817047D8
:103B7000002101704180017141714A1EC2800181A2
:103B8000704700000178012924D14179491CC9B24C
:103B900041713C290FD30179491CC9B201713C29FB
:103BA00009D3418842F20F72491C89B24180914287
:103BB00001D900214180B0F90610491C0BD0B0F9A1
:103BC00008100A4A002909DD126A9278042A01D1F4
:103BD000491E018170474FF0FF31FAE7FAD1106AB0
:103BE00080780428F6D101F0C3BB0000F400002067
:103BF0001CB506A10A23D1E90001CDE90001072285
:103C000069460448FEF72AFC1CBD0000A55A048042
:103C1000EE5AA500D40A002070B5244C244DE0686B
:103C20002946406AFCF73CFBFCF768FD81B2802026
:103C300000F02CFAA0682946406AFCF731FBFCF73B
:103C40005DFD81B2842000F021FAE0682946006A17
:103C5000FCF7F4FAFCF739FD81B2882000F016FA7F
:103C6000A0682946006AFCF7E9FAFCF72EFD81B24C
:103C70008C2000F00BFAE0680E49406AFCF710FB5C
:103C80000D49FCF7D8FAFCF739FD81B2092000F0A4
:103C9000FDF9E0680949006AFCF778FAFCF72EFDA7
:103CA000BDE8704081B20A2000F0F0B9F4000020B5
:103CB000000020410000C84200009644000070410E
:103CC00070B5114C114EE0683146406AFCF7E8FAD5
:103CD0000546A0683146406AFCF7E2FA2946FCF73F
:103CE000A7FAFCF70BFD85B23146606AFCF7A6FA2D
:103CF000FCF704FD81B20F2000F0C8F92946BDE8A9
:103D000070400E2000F0C2B9F400002000002041F5
:103D10000448416900690978007841EA40013A2085
:103D200000F0B4B9F400002010B50E4CE0694188F1
:103D30000B2000F0ABF9E06901790C2000F0A6F946
:103D4000E06941790D2000F0A1F9E069C1883720D0
:103D500000F09CF9E0690189BDE81040382000F0CE
:103D600095B90000F400002010B5FFF755FFFFF7EC
:103D7000CFFFFFF7A5FFBDE81040FFF7D5BF130A3F
:103D800043540844427070471CB508A20A23D2E984
:103D90000012CDE90012010A8DF805108DF8060019
:103DA000072269460348FEF759FB1CBDA55A04804B
:103DB00003000000D40A002070B586B0142235A19B
:103DC0006846FCF7BFF9384C384EE0683146406A27
:103DD000FCF766FAFCF792FC82B205216846FFF711
:103DE000CEFFA0683146406AFCF75AFAFCF786FC21
:103DF00082B207216846FFF7C2FFA0683146406AD9
:103E0000FCF74EFA616AFCF713FAFCF777FC82B212
:103E100009216846FFF7B3FFE068254D006A29468F
:103E2000FCF7B4F9FCF76AFC82B20B216846FFF795
:103E3000A6FFA0682946006AFCF7A8F9FCF75EFC1B
:103E400082B20D216846FFF79AFF606AFCF756FCC4
:103E500082B20F216846FFF792FFE0683146406A60
:103E6000FCF71EFA0546A0683146406AFCF718FACE
:103E70002946FCF7DDF9FCF741FC82B211216846C6
:103E8000FFF77DFF0A23132269460A48FEF7E6FA88
:103E900006B070BDA55A10847F000000000000002D
:103EA0000000000000000000F40000200000C842F4
:103EB00000007041D40A002070B5424C256AA978F0
:103EC000062920D083790022002B1CD0818849BA92
:103ED00039290FD00F2917D0372922D03A2928D0D5
:103EE00081B3242944D022294FD0232953D0362905
:103EF0005AD064E0B0F8070040BAFCF7C3FB0221D7
:103F0000FCF70CFAE06270BDB0F8070040BAFCF7AD
:103F1000CFFB00222C4BFCF726FBFCF747FC606232
:103F200070BDB0F80700E16940BAC880E169088156
:103F300070BDB0F8070040BA00F00201012902D9B3
:103F4000012101E007E00021226900F00100117069
:103F50006169087070BDB0F8070040BA012803D04D
:103F6000022803D00328F5D102210FE003210DE040
:103F7000B0F8070040BA012803D0022803D0032874
:103F8000E8D1042102E0052100E001212846BDE836
:103F9000704001F0BBB8B0F8070040BA0128D9D191
:103FA000BDE8704001F048B8B0F8070040BA0128F9
:103FB000D0D1BDE8704001F075B9521CD2B29A421E
:103FC000FBD370BDF400002000002440F0B52D4963
:103FD000C1B008884B88834240D02B4D4FF4006617
:103FE0002A5CA52A06D0401C80B20880B04235D198
:103FF000002042E002468342A3EB020201D802F510
:10400000006297B2052F29D3821C92B2B24202D32A
:10401000A2F5006292B2AC5CE41CA7421ED300225F
:104020004FEA0D0715F800C007F802C0401C521CEB
:1040300080B292B2B04200D10020042A10D0F1D94F
:1040400004F1030C624516D108809DF80300812815
:1040500001D0832802D13846FFF72EFF41B0F0BDD2
:104060009DF80040A52C08D19DF801405A2C04D1A0
:104070009DF80240D6E7FF2A01D90880EEE7984272
:10408000D0D1EBE71600002028010020074A822348
:10409000D370030A13715071080A9071D1710A2309
:1040A000082202490248FEF7D9B900001A00002090
:1040B000D40A002010B5406A0021C185C184FDF7F3
:1040C000EFFF10BD0168CA6822F49072CA600168EF
:1040D0004A6922F001024A61016B012904D1016899
:1040E000CA6822F01002CA60202180F83E10002128
:1040F0000163704708B590F83E10222901D00220D4
:1041000008BD82684FF480539A4201D1016921B100
:10411000816A9A421BD04AB10AE00268816A5268F9
:10412000C2F308020A80816A891C08E0026972B140
:104130000268526802F07F020A70816A491C81623B
:10414000C18D491E0904090CC18503D019E002681C
:104150005268F1E70168CA6822F02002CA6001686B
:10416000CA6822F48072CA6001684A6922F00102BA
:104170004A61202180F83E10016B012903D0FEF72F
:104180004BF9002008BD002101630168CA6822F0D4
:104190001002CA6001680A68D20602D50A68496836
:1041A0000091818DFDF77BFFEBE7000070B50446C1
:1041B00000680169E26821F44051114301612169FD
:1041C000A0680843616908432168CA6841F20C632A
:1041D0009A430243CA6020684169A26921F4407190
:1041E000114341611E492068884202D1FDF7F2F96E
:1041F00001E0FDF7DFF900EBC00101EB00126068A0
:1042000064218000B2FBF0F3B3FBF1F36FF018060A
:104210007343B2FBF0F5B2FBF0F605EB83053223F6
:1042200003EB0515B5FBF1F5B6FBF1F605F0F0056E
:1042300005EB0615B2FBF0F6B2FBF0F0B0FBF1F0C7
:104240006FF01802504306EB800003EB0010B0FB48
:10425000F1F0216800F00F002844886070BD000074
:104260000038014081628285C285002101642222DA
:1042700080F83E2080F83C100168CA6842F48072E1
:10428000CA6001684A6942F001024A610068C16877
:1042900041F02001C160002070472DE9F0419846AF
:1042A00017460E460446069D1DE0681C1BD02DB126
:1042B000FCF77CFDA0EB0800A84214D92068C16877
:1042C00021F4D071C1602068416921F00101416190
:1042D000202084F83D0084F83E00002084F83C0053
:1042E0000320BDE8F0812068006836EA000004D0B1
:1042F0000020B842D9D00020F3E70120F9E7000000
:104300000148FDF7CFBE0000D40A00200148FDF7A8
:10431000C9BE0000180B0020FEE700000FB4054BDB
:1043200010B503A9044A029800F0EAF810BC5DF841
:1043300014FB0000594C0008440000200907090E36
:10434000002804DB00F1E02080F80014704700F042
:104350000F0000F1E02080F8141D704702E008C84B
:10436000121F08C1002AFAD170477047002001E0EF
:1043700001C1121F002AFBD1704700002DE9FF5F29
:1043800082B00021DDE90430020DDDF840B00343C6
:1043900018D044F61050A2F2FF324243151411987F
:1043A00001281FD0A5EB0B00401C5FEA000A4FF06C
:1043B00000064E4FDFF83891B046504615D5CAF189
:1043C000000413E0119801244AA3012801D16FEAE7
:1043D0000B010298119AC0E90031C0E9024206B00F
:1043E000BDE8F09FCBF10000DFE704460021404A22
:1043F000491842EB0450CDE9001012E0E00707D065
:1044000032463B4640464946FCF73BF880468946E3
:1044100032463B4610461946FCF733F806460F462F
:104420006410002CEAD1DDE90401DDE90023BAF1D2
:10443000000F06DAFCF725F842464B46FCF721F858
:1044400005E0FCF790F842464B46FCF78CF8044632
:104450000E460022284BFCF791F903D84FF0FF30AD
:10446000014607E00022254B20463146FBF762FF5C
:10447000FCF7C8FA102409E0002C0ADB0A2200230A
:10448000FCF7DAF9039B30321A55641E50EA010238
:10449000F2D1641C039AC4F111031444119A012A45
:1044A00003D0012208430DD10AE0084304D00020C4
:1044B0004FF0110B119072E7A3EB0B056D1E0DE091
:1044C0005B4504DD4FF0000205F1010504E003DA6D
:1044D0004FF00002A5F10105002AECD002981199D5
:1044E000C0E90231C0E9004579E70000000014404E
:1044F0000000F03F300000000000F0430000E03F0B
:104500002DE9FF4F95B09B468946064600250FE2F0
:10451000252877D100242746F84A0121059400E098
:10452000044316F8013F203B01FA03F01042F7D193
:1045300030782A2811D06FF02F033078A0F13002A4
:10454000092A16D8059A44F0020402EB820203EB12
:1045500042021044761C0590EFE759F8042B0592AF
:10456000002A03DA504244F40054059044F0020457
:10457000761C30782E2816D116F8010F44F004046A
:104580002A280DD06FF02F023078A0F13003092BCC
:1045900009D807EB870302EB4303C718761CF3E740
:1045A00059F8047B761C30786C280FD006DC4C2838
:1045B00017D068280DD06A2814D104E0742810D0D0
:1045C0007A280FD10DE044F400140AE044F480147A
:1045D00001E044F440147278824202D104F5801460
:1045E000761C761C307866280BD013DC582877D0E0
:1045F00009DC002875D04528F6D04628F4D0472895
:104600001AD19DE118E0632835D0642879D0652857
:1046100012D195E1702873D008DC6728F1D06928A1
:104620006FD06E280DD06F2806D1B5E073282CD03E
:10463000752875D0782874D05A46179990476D1C04
:1046400075E1C4F30250022809D003280DD0D9F82F
:10465000001004280DD00D6009F1040967E1D9F8B4
:104660000010EA17C1E90052F6E7D9F800100D80F2
:10467000F2E70D70F0E719F8041B8DF80010002028
:104680008DF80100EA46012003E059F804AB4FF031
:10469000FF3061074FF0000102D40DE008F1010185
:1046A0008846B9420FDA8045F8DB1AF8081000296D
:1046B000F4D108E008F1010188468142FADB1AF8DA
:1046C00008100029F6D105985B46A0EB08072146A3
:1046D0003846179A00F094FA284400EB080507E0E2
:1046E0004DE029E10DE01AF8010B5A461799904761
:1046F000B8F10108F7D25B4621463846179A13E114
:1047000042E00A220092C4F302524FF0000A022A49
:1047100008D059F804CB032A4FEAEC710AD00DE017
:1047200029E02AE009F1070121F00702F2E802C1BD
:10473000914609E00FFA8CFC4FEAEC71042A03D190
:104740004FFA8CFC4FEAEC71002907DA0A46002187
:10475000DCF1000C61EB02012D2202E0220504D500
:104760002B228DF80420012203E0E20701D0202251
:10477000F7E7904659E00A2102E010220DE01021EF
:104780004FF0000A00910BE010224FF0000A44F0B5
:1047900004040827009203E008224FF0000A009268
:1047A000C4F30252022A05D059F804CB0021032A8F
:1047B00008D009E009F1070121F00702F2E802C17F
:1047C000914605E01FFA8CFC042A01D10CF0FF0C85
:1047D0004FF00008220728D5702806D0009B83F0F0
:1047E000100353EA0A0305D00EE040228DF804209E
:1047F000012208E05CEA010206D030228DF8042094
:104800008DF8050002229046009B83F0080353EACE
:104810000A030AD15CEA010201D1620705D5302200
:104820008DF804204FF001087F1E582804D034A0D2
:1048300003900EA802900DE036A0F9E753466046BB
:10484000009AFBF7F9FF84460398825C0298401EA9
:10485000029002705CEA0100F0D1029806A9081AE1
:1048600000F1200A600702D524F4803400E001271B
:10487000574502DDA7EB0A0000E0002000EB0A012B
:10488000009005984144401A0590E00306D45B4629
:104890002146179A059800F0B3F90544002706E071
:1048A00001A85A46C05D179990476D1C7F1C47456B
:1048B000F6DBE0030CD55B462146179A059800F01D
:1048C0009FF9054404E030205A46179990476D1C23
:1048D0000099481E00900029F5DC08E00298029932
:1048E0005A460078491C0291179990476D1CBAF1FD
:1048F0000001AAF1010AF1DC65E1000009280100CC
:104900003031323334353637383961626364656645
:104910000000000030313233343536373839414207
:10492000434445460000000000F058F90544761C59
:10493000307800287FF4ECAD19B02846BDE8F08F40
:10494000620700D4062709F1070222F0070CFCE8F1
:104950000223E14603F000485FEA080C02D00FF2A0
:10496000702C0DE05FEA045C02D50FF2682C07E0C2
:104970005FEAC47C02D00FF2602C01E0AFF2700C51
:104980004FF0FF3823F00043CDF850C065280CD01D
:1049900006DC452809D046281DD047283DD13DE0FA
:1049A000662818D067287ED138E00021112F01DB5E
:1049B000112000E0781CCDE9000106A90EA8FFF740
:1049C000DDFCDDE90F010E9A03910021009207F151
:1049D000010A04914DE04FF000400097CDE901102D
:1049E00006A90EA8FFF7CAFCDDE90F0203920E9B91
:1049F00011990022DDF80CA00093049211B9791CE2
:104A000000EB010AB7EB0A0004D4C0F1FF3007F154
:104A1000010A0490AAEB0700019044E0012F00DA9C
:104A200001270021112F01DD112000E03846CDE9DA
:104A3000000106A90EA8FFF7A1FCDDE90F010E9AFF
:104A40000391002104910092BA4621070CD40399E6
:104A5000514500DA8A46BAF1010F05DD009AAAF144
:104A60000101515C302908D0B84202DA10F1040F7C
:104A700006DA0121CDE9011015E0AAF10101E9E70B
:104A8000002805DC049901440491AAEB000102E02E
:104A9000411C514500DD8A460499401A401C019092
:104AA0004FF000400290200704D40198504501DBEC
:104AB000CDF8048000208DF84F0002980DF14F07CB
:104AC000B0F1004F25D02B200E9002984FF0020835
:104AD00000280CDA404202902D200E9007E00A21B7
:104AE0000298FBF793FE3031029007F8011DB8F1F0
:104AF0000001A8F10108F2DC02980028EFD1791E2C
:104B00000E980870307800F0200040F0450007F85B
:104B1000020D12A8C01B00F107081498007800B11C
:104B2000012000EB0A01019801EBE0710598414476
:104B3000401A401E0590E00306D45B462146179AB2
:104B4000059800F05DF805441498007818B15A46AD
:104B5000179990476D1CE00324D55B462146179AB0
:104B6000059800F04DF805441CE00498002807DB88
:104B7000DDE90301884203DD0098405C179901E0FC
:104B8000179930205A469047049805F10105401CBA
:104B900004900198401E019004D12E205A46179986
:104BA00090476D1CBAF10001AAF1010ADDDC05E0B5
:104BB00017F8010B5A46179990476D1CB8F1000180
:104BC000A8F10108F4DC5B462146179A0598ABE68C
:104BD0002D0000002B000000200000002DE9F04116
:104BE000044600251E461746880404D405E03946CD
:104BF0002020B0476D1C641EF9D52846BDE8F08121
:104C00002DE9F041044600251E469046C80301D513
:104C1000302700E02027880404D505E041463846C7
:104C2000B0476D1C641EF9D52846BDE8F081000030
:104C300010B5084B4A685C79A24203D05A71012032
:104C4000987110BD9A790AB1002010BDFDF7F0FCF3
:104C5000FAE700002600002038B504468DF8000071
:104C60000223012269460248FDF7F8FB204638BDC1
:104C7000180B002010B5002821D0114B0022001F76
:104C8000196803E0814203D80A4649680029F9D12E
:104C900052B11368841A9C4204D100681844106011
:104CA000104602E0506000E0186039B102680B1A4B
:104CB000934203D10B681A4402604968416010BDF9
:104CC00048000020FCF750FBFEF7F4FDFEF748FA21
:104CD000FEF79CFAFEF790FBFEF7B8FAFEF7A8FB8A
:104CE000FEF720FBFEF754FBFEF7D0FA4FF47A7084
:104CF000FBF750FF0A20FDF72DFC304E306000F02E
:104D000031FA2FA0FFF70AFB3B480768B86A401C3E
:104D1000FBF7CEFC0446F86A0D46401CFBF7C8FCC6
:104D2000DFF8D88002460B4600204146FBF71BFC0B
:104D300022462B46FBF717FC02460B4630A0FFF736
:104D4000EDFA2D48FCF7D0FE38480768B86A401CD9
:104D5000FBF7AEFC0446F86A0D46401CFBF7A8FCC6
:104D600002460B4600204146FBF7FDFB22462B4640
:104D7000FBF7F9FB02460B462DA0FFF7CFFA2B48B5
:104D8000FCF7B2FE012235493548FDF72FFBFEF74F
:104D90002FFF4FF4FA60FBF7FDFE324CFFF716F9D8
:104DA000FEF764FB306800F095F8A06AFBF78DFC15
:104DB00001B22068FEF74AFCF0E700003000002056
:104DC0005B096D61696E5D696E666F3A4750494F68
:104DD0002C494943312F322C5553415254312F32F3
:104DE0002C54494D322F332F34B3F5CABCBBAFCD51
:104DF000EAB3C90D0A000000440A0020882A914144
:104E00005B096D61696E5D696E666F3AB6A8CAB17D
:104E1000C6F733D6D0B6CFBFAAC6F4A3ACD6DCC68D
:104E2000DA252E3266487A0D0A0000008C0A00202E
:104E30005B096D61696E5D696E666F3AB6A8CAB14D
:104E4000C6F734D6D0B6CFBFAAC6F4A3ACD6DCC65C
:104E5000DA252E3266487A0D0A0000002809002063
:104E6000D40A0020F4000020F0B50B30154D20F0DE
:104E700007010024144A0FE003688B420BD38B42D6
:104E800005D95E1A43184768C3E9006700E0436824
:104E9000136002C004E0021D10680028ECD1204617
:104EA000002802D1286808B10020F0BD064A074852
:104EB0001060074A121A22F00702C0E900240120FC
:104EC0002860D7E74C000020480000208C0B002011
:104ED000880D00202DE9FC410746FDF797FB0025D2
:104EE00020B1474845718571BDE8FC816946384667
:104EF000FDF70EFB0198434C012818D0022826D05C
:104F0000414E032835D004285DD00528ECD16946F0
:104F10003846FFF78DFE0028E6D0206A8078062804
:104F200003D00621A069FEF769FC2B201EE069462C
:104F30003846FFF77DFE0028D6D0206A8078062804
:104F400003D00621A069FEF759FC2D200EE069462A
:104F50003846FFF76DFE0028C6D0206A8078062804
:104F600003D00621A069FEF749FC2C20FEF70CFFB8
:104F7000BAE769463846FFF75BFE0028B4D02F2019
:104F800028E0032909D004290DD005290BD00121DF
:104F900000F0BCF800F038F90AE0032100F0B6F8A0
:104FA00000F0C0F804E0052100F0B0F800F0EEF9E0
:104FB000206AC570206A8078062895D00421A069EF
:104FC000FEF71CFC90E769463846FFF731FE0028E3
:104FD0008AD03020FEF7D8FEE0683146406AFBF701
:104FE0005FF9FBF79FFB02460B4608A0FFF796F917
:104FF000206A81780629BBD00229CED0C1E7000003
:1050000026000020F40000200000C8425B096D610A
:10501000696E5D696E666F3AD6D5D6B9C7B0D1B93B
:10502000C1A6B2E2C1BFBDE1B9FBCEAAA3BA252E8B
:1050300032666850610D0A00012080F31388BFF3C7
:105040004F8F05480168054A01F4E0611143016092
:10505000BFF34F8F00BFFDE70CED00E00400FA0541
:105060007CB504464078A070207860701F4801210C
:10507000006A00F04BF80120E07000213E20FFF7AD
:1050800005F81B4C1B4D23E069462868FDF7D0FA54
:105090000198012808D002280AD003280CD004283F
:1050A0000ED0052814D10FE0207800F0FE000EE0AD
:1050B000207800F0FD000AE0207800F0FB0006E018
:1050C000207800F0F70002E0207800F0EF00207078
:1050D0002868FDF79BFA0028D6D007490020087001
:1050E000064908700320FEF74FFE7CBDF400002047
:1050F00025000020300000202B0000202C00002084
:105100000121817041700170C1707047082908D277
:1051100082788A4205D04378037042708170012101
:10512000C170704770B5064C0025A5622068FEF777
:105130001DFB0121A069FEF761FBE069057070BDF0
:10514000F400002010B5064C2068FEF70FFB02218A
:10515000A069FEF753FBE1690120087010BD000053
:10516000F400002070B51D4C1B482062FFF7C8FFFB
:105170001B482060FEF7D2FA1A486060FEF7E8F993
:1051800000251A4884F830501749C4E9021001225A
:105190001748FDF741FC02221648E168FDF73CFC88
:1051A00016491548C4E904010121FEF703FB022159
:1051B0006069FEF7FFFA1248E061FEF7D9FC11487A
:1051C000A061FEF744FB6562A562E56284F8315098
:1051D00084F8325070BD000011000020F40000205F
:1051E000E8000020B80000205000002084000020CB
:1051F000480900209C090020000000200200002037
:10520000F00900202200002010B5094C0020A06207
:105210002068FEF7ABFA0121A069FEF7EFFAE0691A
:10522000FEF79FFC6068BDE81040FEF791B90000F2
:10523000F400002010B5064C0020A0622068FEF7A4
:1052400095FAA069BDE810400021FEF7D7BA00002A
:10525000F400002010B5114C0621206AFFF756FF1C
:10526000216A0020C870E1690870A0622068FEF71A
:1052700049FA0421A069FEF7C1FAE069FEF771FC62
:105280000749012008702E20FEF77EFD2E20FEF734
:105290007BFDBDE810402E20FEF776BDF400002017
:1052A000100000201CB52D48006A81782B48012988
:1052B000806909D002290CD003290FD0042912D00B
:1052C000052915D0062918D00121FEF797FA0320E9
:1052D00017E00221FEF792FA042012E00121FEF706
:1052E0008DFA05200DE00221FEF788FA152008E06E
:1052F0000121FEF783FA162003E00421FEF77EFA6F
:105300002E20FEF741FD164900200870154908704F
:10531000154869460068FDF78BF901991348012982
:105320000BD002290DD0032910D0042912D0052951
:105330000BD1017801F0EF0106E0017801F0FE01E8
:1053400002E0017801F0FD0101701CBD017801F05F
:10535000FB01F9E7017801F0F701F5E7F40000201F
:105360002B0000202C000020300000202500002011
:1053700010B51420FEF708FD03480121006ABDE8BE
:105380001040FFF7C3BE0000F400002010B5074C2A
:105390000020A062E16908702068FEF7E7F9A069C3
:1053A000BDE810400121FEF729BA0000F4000020FA
:1053B00010B5094C2068FEF7D9F90221A069FEF763
:1053C0001DFAE16901200870E0690189002901D115
:1053D000C188018110BD0000F40000200E49086A58
:1053E000C278012A17D10022C270086A8078082882
:1053F00011D2DFE800F0100406080A0C100EFFF7C7
:1054000003BFFFF79FBEFFF78DBEFFF7D1BFFFF7CA
:10541000BDBFFFF70FBF7047F40000200000000081
:105420000000000001020304060708090000000054
:105430000102030454540008000000205000000042
:105440005C430008A45400085000002038110000FC
:105450006C43000800000000000101000000000093
:105460000000000000000000000000000000A55A3D
:1054700005820000000000000000000000000000A5
:10548000000000000000000001000000100000000B
:10549000000000000024F4000000000000000000F4
:0454A0000000000008
:04000005080000ED02
:00000001FF
