:020000040800F2
:10000000C00600200101000807340008852C000804
:1000100005340008D1090008613A0008000000001A
:10002000000000000000000000000000373600085B
:10003000F50B000800000000353600089136000876
:100040001B0100081B0100081B0100081B01000820
:100050001B0100081B0100081B0100081B01000810
:100060001B0100081B0100081B0100081B01000800
:100070001B0100081B0100081B0100081B010008F0
:100080001B0100081B0100081B0100081B010008E0
:100090001B0100081B0100081B0100081B010008D0
:1000A0001B0100081B0100081B0100081B010008C0
:1000B0001B010008F5360008013700081B01000885
:1000C0001B0100081B0100081B0100081B010008A0
:1000D0001B0100081B0100081B0100081B01000890
:1000E0001B0100081B0100081B010008DFF80CD0F1
:1000F00000F05CFC0048004795430008C006002063
:100100000648804706480047FEE7FEE7FEE7FEE7B1
:10011000FEE7FEE7FEE7FEE7FEE7FEE7F336000850
:10012000ED000008202A04DB203A21FA02F0002129
:10013000704721FA02F3D040C2F1200291400843F7
:1001400019467047D2B201E000F8012B491EFBD2DC
:1001500070470022F6E710B513460A4604461946D2
:10016000FFF7F0FF204610BDF0B480EA0102D40F83
:100170004200B2EB410F02D20246084611464A0045
:1001800042D0C30DDDB2C1F3C752AD1A202D35DA0E
:10019000C1F3160141F4000204B15242C5F1200638
:1001A00002FA06F12A411044B3EBD05F23D0C4B168
:1001B000012DA0EBC35009DCF0BC4FF0004202EA75
:1001C000C352DBB200F5000000F035BB400000F187
:1001D000807000EBC350A0F1807040EAD1704900FC
:1001E00009E0490841EAC071A0EBC35000F50000E6
:1001F000400800EBC350F0BC00F014BB6142012288
:1002000002EB4101001BF6E7F0BC704781F00041B2
:10021000AAE780F00040A7E780EA010210B502F0EB
:100220000043400022D04A001FD0010E01EB1261B2
:10023000C0F35600C2F3560240F4000042F400023C
:10024000A0FB022000047F39140400D0401C50EAB7
:10025000124001D44000491EC2B20C0604EBD0107B
:10026000401C4008802A02D003E0002010BD20F08E
:100270000100002900DA0020184310BD30B480EAE4
:10028000010202F0004530F0004221F0004013D09E
:1002900090B1C30DD40DC2F31601C0F31600E41AD9
:1002A00041F4000140F400027D34914201D3641C0A
:1002B00000E04900002C02DA30BC002070474FF407
:1002C00000000023914201D3891A034340084FEAFA
:1002D0004101F7D151B1914202D14FF0004105E007
:1002E00002D24FF0010101E06FF0010103EBC450B5
:1002F000284430BC00F096BA420005D0C0F3C75283
:100300005242914201DC0020704700EBC15070471F
:100310002DE9FE4F804681EA0300C00F0C46009095
:1003200021F0004123F00045B8EB0200A94105D2BD
:100330004046214690461C460B46024623F00040AC
:10034000104347D0270DC7F30A00C3F30A510290A8
:10035000401A019040286BDAC3F3130040F4801B6D
:100360000098924620B10023D2EB030A63EB0B0BFB
:1003700001985946C0F14002504600F032FA064654
:100380000D4650465946019A00F03AFA10EB080023
:100390006141002487EA115284EAE7731A4340D08E
:1003A000009A62B3019A012A4FEA075215DC001B3A
:1003B00061EB02014FF0004202EA0752CDE9004230
:1003C000001C41F5801132462B4600F071FA03B053
:1003D000BDE8F08F40462146F9E7001B61EB0201C2
:1003E000001C41F5801300185B412018A2F500178E
:1003F00047EB030140EAD570B6196D4111E06D0875
:100400004FEA360645EAC0754FEA0752001B61EB1A
:100410000201001C41F5801149084FEA3000001923
:10042000514132462B4603B0BDE8F04F00F031BADF
:100430000098012240000023D0EB020263EBE0733E
:10044000009821464FEAE074B8EB000061EB04012C
:10045000E9E783F000435BE781F0004158E72DE9CD
:10046000FE4F81EA030404F0004421F000410094AF
:100470004FF0000B23F0004350EA01045ED052EA33
:1004800003045BD0C3F30A54C1F30A552C44A4F20D
:10049000F3340194A0FB0254C1F3130141F4801121
:1004A000C3F3130343F4801301FB024400FB034E28
:1004B000840A970A44EA815447EA8357A4FB0768F1
:1004C00002958D0A05FB07854FEA932C04FB0C541B
:1004D0002705029D4FEA065847EA1637B5EB08058F
:1004E0006EEB070C870E920E47EA811742EA8312E1
:1004F000A7FB0201B6EB0B0164EB00042B0D43EAF2
:100500000C335E1844EB1C50DA465146E7FB0201FF
:10051000C5F313044FEA0B3343EA14534FEA043292
:10052000019C43EA0603A4F10C040294009CCDE96B
:1005300000B400F0BDF903B0BDE8F08F0020014623
:10054000F9E72DE9F04D81EA030404F0004B21F0B6
:10055000004514464FF0000A23F0004150EA05021E
:1005600020D054EA01021DD0C5F30A570246C5F354
:100570001303C1F31300C1F30A5640F4801543F48A
:100580008013A7EB0608101BD64608F2FD3873EB64
:10059000050002D308F1010801E092185B41B8F1AF
:1005A000000F03DA00200146BDE8F08D00204FF473
:1005B0008011064684460EE0171B73EB050705D332
:1005C000121B63EB050306434CEA010C49084FEA92
:1005D000300092185B4150EA0107EDD152EA030066
:1005E00012D082EA040083EA0501084305D0101BFB
:1005F000AB4106D20122002306E000224FF0004367
:1006000002E06FF0010253101AEB06004CEB0851A8
:1006100010EB0A0041EB0B01BDE8F04D00F039B9D9
:1006200070B521F0004303430CD0C1F30A550024F8
:10063000D5EB040564EB0403D617AD1AB34102DB16
:100640000020014670BD201841EB025170BDC10F62
:1006500080EAE0700844CA079623002100F0EBB856
:100660000EB5C10F80EAE0700844CA07002140F2CD
:1006700033438DE80E000A460B4600F019F903B02B
:1006800000BD0EB540F2334102910021CDE90011C9
:100690000A460B4600F00CF903B000BD00F0004222
:1006A00020F00040C10DC0F3160040F400007F2987
:1006B00001DA00207047962903DCC1F19601C84099
:1006C00001E096398840002AF4D04042704700F09B
:1006D000004230F000400AD0C10D01F56071C0F356
:1006E000160042EA0151C20840071143704700203A
:1006F0000146704701F0004330B421F0004150EA58
:10070000010206D00A0DA2F56072C1F31301002A9E
:1007100002DC30BC00207047440F44EAC104C10031
:10072000E01830BC00EBC25000F07CB8002801DBC0
:10073000C0F10040002901DBC1F100418142704756
:10074000002801DBC0F10040002901DBC1F10041BC
:100750008842704730B50B46014600202022012414
:1007600009E021FA02F59D4205D303FA02F5491B7F
:1007700004FA02F52844151EA2F10102F1DC30BD95
:100780002DE9F05F0546002092469B4688460646C6
:10079000814640241BE02846414647462246FFF753
:1007A000C1FC53465A46C01A914110D3114618460F
:1007B000224600F016F82D1A67EB01084F46224634
:1007C0000120002100F00DF817EB00094E41201E1A
:1007D000A4F10104DFDC484631462A464346BDE821
:1007E000F09F202A04DB203A00FA02F10020704733
:1007F0009140C2F1200320FA03F31943904070475F
:10080000202A06DBCB17203A41FA02F043EAE073D4
:1008100006E041FA02F3D040C2F1200291400843C1
:10082000194670470029A8BF7047401C490008BFFF
:1008300020F00100704710B4B0FA80FC00FA0CF010
:1008400050EA010404BF10BC704749B1CCF1200448
:1008500021FA04F411FA0CF118BF012121430843D5
:10086000A3EB0C01CB1D4FEA00614FEA102042BF01
:10087000002010BC704700EBC35010440029A4BFF7
:1008800010BC7047401C490008BF20F0010010BC9C
:10089000704710B5141E73F1000408DA401C41F1D2
:1008A000000192185B411A4301D120F0010010BDF4
:1008B0002DE9F04D92469B4611B1B1FA81F202E06A
:1008C000B0FA80F220329046FFF78BFF04460F46C5
:1008D00040EA0A0041EA0B0153465A46084313D046
:1008E000114653EA010019D0C8F140025046FFF703
:1008F00019FC05460E46504659464246FFF771FF21
:10090000084305D0012004E020463946BDE8F08DBB
:100910000020054346EAE0762C4337430A986305F6
:10092000E40AA0EB08000022FD0A44EA47540A301A
:1009300002D500200146E9E7010510196941DDE90A
:10094000084500196941BDE8F04DA2E7C1F30A521C
:10095000C1F3130140F2FF3341F480119A4202DAED
:1009600000200146704740F233439A42A2F23342DC
:1009700002DC5242FFF7D6BBFFF733BF30B5041E8F
:1009800071F1000404DB4FF00044404264EB0101CC
:10099000141E73F1000405DB1C464FF00043524265
:1009A00063EB0403994208BF904230BD064C074DEB
:1009B00006E0E06840F0010394E80700984710342F
:1009C000AC42F6D3FFF796FBB4470008D4470008C3
:1009D000FEE7000010B5002801DA002004E04FF423
:1009E000C871884200DD0846094909688863FFF735
:1009F00037FE0022074BFFF732FD0022064BFFF7C0
:100A0000A0FD0246BDE810400B4604A003F02AB842
:100A10006001002000005940000079405B097075BA
:100A20006D705D696E666F3AE5B7B2E4BFAEE6948D
:100A3000B9E6B3B5E79A84E58DA0E7A9BAE6AF9425
:100A4000E4B8BA252E326625250D0A0010B501221C
:100A50001102044800F017FABDE8104002A003F0AC
:100A600001B80000000C01405B096C65645D696EB3
:100A7000666F3A4C4544E5B7B2E78684E781AD0D31
:100A80000A00000010B50421034801F0EFFABDE8A8
:100A9000104002A002F0E6BF600100205B09707503
:100AA0006D705D696E666F3AE6B3B5E5B7B2E98021
:100AB00080E587BAE5B7A5E4BD9CE78AB6E6808104
:100AC0000D0A000010B501220221044800F0DBF9F4
:100AD000BDE8104002A002F0C5BF0000000C0140BC
:100AE0005B096C65645D696E666F3A524742E5B7B3
:100AF000B2E78684E781ADE8939DE781AF0D0A00F8
:100B000010B501221146044800F0BDF9BDE81040BF
:100B100002A002F0A7BF0000000C01405B096C6559
:100B2000645D696E666F3A524742E5B7B2E7868404
:100B3000E781ADE7BBBFE781AF0D0A0010B5012229
:100B40008021044800F09FF9BDE8104002A002F0A7
:100B500089BF0000000801405B096C65645D696E37
:100B6000666F3A524742E5B7B2E78684E781ADE760
:100B7000BAA2E781AF0D0A0010B50B4C01280BD0CB
:100B800002280FD109A002F06DFF0122202120468A
:100B9000BDE8104000F077B90DA002F063FF01221C
:100BA0001021F4E710BD0000000801405B097265E8
:100BB0006C61795D696E666F3AE7BBA7E794B5E54E
:100BC00099A832E5B7B2E585B3E997AD0D0A000003
:100BD0005B0972656C61795D696E666F3AE7BBA708
:100BE000E794B5E599A831E5B7B2E585B3E997ADE6
:100BF0000D0A0000704772B6FEE70000094810B504
:100C000090F90000411C03D0012806D0002010BD3F
:100C100005A002F027FF012010BD0DA002F022FF69
:100C2000022010BD000000205B096B65795D696ED4
:100C3000666F3A4B45595F53544F5020697320708B
:100C40007265737365642873686F7274290D0A0086
:100C50005B096B65795D696E666F3A4B45595F5309
:100C6000544F502069732070726573736564286CEB
:100C70006F6E67290D0A000070B5044600F008F990
:100C80000546601C02D004480078044400F000F9D6
:100C9000401BA042FAD370BD100000202DE9F84F90
:100CA000DFF8B891002409F1040A0AF1040B234685
:100CB0000F270BF1040EC9E00125A5402A40AA42E6
:100CC0007DD1674ED1F804C0ACEB0608B44532D0F4
:100CD00014DCBCF1030F3AD009DCBCF1000F2AD0C0
:100CE000BCF1010F1CD0BCF1020F31D11DE0BCF1F1
:100CF000110F17D0BCF1120F2AD119E0B8F5881FD7
:100D000019D006DCB8F5803F15D0B8F5801F1FD18B
:100D100011E0B8F5001F0ED0B8F5041F18D10AE095
:100D2000CB6815E0CB681B1D12E0CB6808330FE0E1
:100D3000CB680C330CE08B682BB1012B4FF0080310
:100D400003D0456104E0042302E0056100E00023D4
:100D5000FF2A01D8064601E000F104064FEA8405A7
:100D600001D9A5F12005D6F8008007FA05FC28EA8C
:100D70000C0803FA05F548EA0508C6F800804D6836
:100D8000ED0062D5374DAE6946F00106AE61AD6942
:100D900024F0030605F001050095334D06EB050C24
:100DA000DCF80850A607360F07FA06F825EA08050A
:100DB000DFF8B880404503D14FF0000817E044E069
:100DC000DFF8AC80404502D14FF001080FE0DFF8BA
:100DD000A480404502D14FF0020808E0DFF8988077
:100DE000404502D14FF0030801E04FF0040808FA33
:100DF00006F848EA0508CCF808804D68D9F8006084
:100E0000ED034D4601D5164300E096432E604D6834
:100E1000DAF80060AD03554601D5164300E096436D
:100E20002E604D68DBF80060ED025D4601D516438B
:100E300000E096432E604D68DEF80060AD02754616
:100E400001D5164300E096432E60641C0D682A46C7
:100E5000E5407FF431AFBDE8F88F000000040140A9
:100E60000000111000100240000001400008014085
:100E7000000C01400010014000140140806808404F
:100E800000D0012070470AB1016170470904FBE7F7
:100E900001488068704700001000002070B5040011
:100EA00025D094F83D00002520B984F83C50204618
:100EB00000F078FA242084F83D002068016821F0D1
:100EC000010101602068016841F40041016020686F
:100ED000016821F40041016000F0DEFB4D4A6168C9
:100EE000914201D84C4900E04C49884201D201208E
:100EF00070BD4B492368B0FBF1F15E6826F03F06F8
:100F00000E435E606368934206D94FF4967359436B
:100F10004FF47A73B1FBF3F12368491C1E6A26F083
:100F20003F06314319626168914210D84900401E62
:100F3000B0FBF1F2521CC2F30B02042A01D20420CE
:100F400022E0B0FBF1F0401CC0F30B001CE0A268F3
:100F5000F2B301EBC10303EB0116431EB3FBF6F33F
:100F60005B1C43F480431B0549D092B301EBC102E3
:100F700002EB0111401EB0FBF1F0401CC0F30B006E
:100F800040F4804040F400402168CA694CF6FF7389
:100F90009A431043C861D4E90710014320680268EE
:100FA00022F0C00211430160D4E90301014320682B
:100FB000826848F2FF339A4311438160D4E9050106
:100FC00008432168CA6822F0FF021043C86001E0AC
:100FD0000EE016E02068016841F00101016025641F
:100FE000202084F83D00256384F83E50002070BD29
:100FF00001EB4106431EB3FBF6F35B1CB3E7012094
:10100000C2E701EB4101401EB0FBF1F0401CC0F310
:101010000B00B7E7A086010080841E0000093D0098
:1010200040420F002DE9FF4F83B00025DDE9107924
:101030009A4693460446DDF848800095FFF728FF5E
:10104000064694F83D0020287CD1192301228549C9
:101050002046009601F026FF0028F5D194F83C00C8
:1010600001286FD0012084F83C0020680168C9077E
:1010700003D1016841F0010101602068016821F499
:1010800000610160222084F83D00402084F83E0089
:1010900025646762A4F82A90608D20857248E0621A
:1010A000CDE9008653465A462046049901F002FED7
:1010B00000287DD1208DDFF8B491202768B1012868
:1010C00014D00228206801681ED041F480610160BC
:1010D0002068416980690090B6E0206841698169B3
:1010E0000091016841F400710160ADE02068016881
:1010F00021F48061016072B62068416981690091C4
:10110000016841F400710AE041F40061016072B6C7
:101110002068416981690091016821F48061016062
:1011200062B691E0032868D801280CD00228434613
:101130004FF000024946204600960FD001F0B2FE63
:10114000B0BB10E08BE032464146204601F029FF5B
:1011500070BB20680069616A08706CE001F0A2FE53
:1011600030BB72B634E02068016821F48061016010
:1011700072B620680069616A0870606A401C60622B
:10118000208D401E2085608D401E6085384846F2C7
:10119000A8110068B0FBF1F0C0EBC00000EB8000CC
:1011A0000090401E009008D020684069C04300E0D5
:1011B00029E040070CD50098F3E744F8305F6773E7
:1011C000A573206940F02000206162B625731AE003
:1011D0002068016841F40071016020680069616A5B
:1011E0000870606A401C6062218D491E2185618DF6
:1011F000491E618562B621681BE0324641462046A1
:1012000001F0CFFE18B1012007B0BDE8F08F2068D3
:101210000069616A0870606A401C6062218D491E25
:101220002185618D491E618521684A69D243520733
:101230000AD409690170606A401C6062208D401EFA
:101240002085608D401E6085208D00287FF46AAF68
:1012500084F83D7084F83E5084F83C50D4E7022076
:10126000D2E70000020010000000FFFF04000100B0
:101270001C0000202DE9FF4F83B09A46DDE911974D
:1012800093460446DDF84080FFF702FE054694F8D9
:101290003D0020287FD11923012240492046009596
:1012A00001F000FE002876D194F83C00012872D0AD
:1012B000012084F83C0020680168C90703D1016857
:1012C00041F0010101602068016821F400610160C2
:1012D000212084F83D00402084F83E00002626644A
:1012E000C4F82480A4F82A90608D20852C48E06200
:1012F000CDE9007553465A462046049901F058FD41
:1013000070B930E02A463946204601F07DFE58B1DA
:10131000206C042804D12068016841F40071016048
:10132000012007B0BDE8F08F606A2168007808618D
:10133000606A401C6062218D491E89B22185628DE0
:10134000521E628522685369DB435B070BD469B187
:1013500000781061606A401C6062208D401E20850C
:10136000608D401E6085208D0028CBD12A463946ED
:10137000204601F071FD0028CAD154F83D0B0168E8
:1013800041F400710160202004F81E09E6776677B9
:101390000020C6E7FFE70220C3E7000002001000BC
:1013A0000000FFFF30B585B000210091019102914E
:1013B00003911E4D03681E4C122103221D48AB42AF
:1013C00016D1A36943F00803A361A369039203F054
:1013D00008030493C023CDE900316946FFF75EFCA2
:1013E000E06940F40010E061E06900F4001019E0E9
:1013F000114DAB4217D1A36943F00803A361A36960
:10140000039203F0080304934FF44063CDE90031E5
:101410006946FFF743FCE06940F48000E061E06961
:1014200000F48000049005B030BD0000005400407E
:1014300000100240000C0140005800400248816842
:10144000027811448160704710000020074810B5F1
:10145000016841F010010160032000F075F80020E0
:1014600000F006F800F024F8002010BD0020024033
:1014700070B50D4D04464FF47A712878B1FBF0F049
:101480000A490968B1FBF0F000F0ECFA48B9102CF9
:1014900007D200222146501E00F036F800206C6072
:1014A00070BD012070BD0000100000201C00002055
:1014B0000C4808B5816941F001018161816901F041
:1014C00001010091C16941F08051C161C06900F022
:1014D000805000900448416821F0E06141F00071C3
:1014E000416008BD0010024000000140002809DBF7
:1014F00000F01F02012191404009800000F1E0202E
:10150000C0F8001170470000F0B40E4B1B680C4689
:10151000C3F30223C3F10705042D00D90425191DC7
:10152000072901D2002300E0DB1E012606FA05F19F
:10153000491E214099409E40761E16403143F0BC22
:1015400002F0A0BA0CED00E0064900F007020868BE
:101550004FF6FF03184040EA0220034A1043086098
:10156000704700000CED00E00000FA052DE9F0479F
:101570000F46050061D0434E306800F00700B842C6
:1015800009D2306820F0070038433060306800F03E
:101590000700B84251D128683B4C810712D540075B
:1015A00003D5606840F4E06060602878000703D5E8
:1015B000606840F4605060606068A96820F0F000E6
:1015C000084360602878C00728D06868012810D0D8
:1015D0002168022810D0890700292EDA616821F0DD
:1015E000030101436160FFF753FC804641F28839F3
:1015F0000DE021688903EFE78901EDE7FFF748FC7B
:10160000A0EB0801494502D90320BDE8F0876068D6
:10161000696800F00C00B0EB810FEFD1306800F08A
:101620000700B8420BD9306820F00700384330601B
:10163000306800F00700B84201D00120E5E72878C3
:10164000400705D56068E96820F4E0600843606001
:101650002878000706D56068296920F4605040EAC0
:10166000C100606000F038F86168084AC1F30311F6
:10167000515CC8400649086006480068FFF7F8FE5C
:101680000020C2E70020024000100240104700087E
:101690001C00002014000020044805490068496827
:1016A000044AC1F30221515CC84070471C0000206D
:1016B00000100240204700080448054900684968B6
:1016C000044AC1F3C221515CC84070471C0000208D
:1016D000001002402047000812A185B00FC98DE814
:1016E0000F0014A0144A006804905168134801F0D8
:1016F0000C03042B10D0082B0ED1C1F38343C90374
:101700001DF803000AD5516804AAC1F34041515C99
:101710000A4A5043B0FBF1F005B07047084948430E
:10172000FAE7000002030405060708090A0B0C0D7E
:101730000E0F1010010200000010024000127A008B
:1017400000093D002DE9F84F040070D02078C04D0D
:10175000C00749D06868C0F38100012807D06868D5
:10176000C0F38100022809D16868C00306D5286843
:10177000800339D560680028E7D035E06068B0F5AF
:10178000803F0BD010B1B0F5A02F11D0286820F405
:1017900080302860286820F4802002E0286840F427
:1017A00080302860606890B1FFF772FB06460AE05F
:1017B000286840F480202860F0E700BFFFF768FB4E
:1017C000801B642873D828688003F7D50CE0FFF7E6
:1017D0005FFB064605E000BFFFF75AFB801B64284D
:1017E000F0D828688003F7D420789A4E80074FF00D
:1017F00001094FF0000839D5686810F00C0F07D0C8
:101800006868C0F38100022809D16868C00306D463
:101810002868800714D52069012808D110E02069C4
:10182000B0B1C6F80090FFF733FB074605E00AE1C8
:10183000FFF72EFBC01B0228C4D828688007F7D505
:101840002868616920F0F80040EAC10028600DE0D6
:10185000C6F80080FFF71CFB074604E0FFF718FB03
:10186000C01B022823D828688007F7D420780007F7
:101870002CD57948A169D9B1C0F80090FFF708FBD1
:10188000074604E0FFF704FBC01B02280FD8686A74
:101890008007F7D571484FF4FA510068B0FBF1F0BA
:1018A000009000BF0098411E0091FAD20EE080E047
:1018B000C0F80080FFF7ECFA074604E0FFF7E8FA0B
:1018C000C01B022875D8686A8007F7D420784007C3
:1018D00060D5E8690027C00008D4E86940F080506E
:1018E000E861E869012700F0805000905C480168D9
:1018F000C90513D40168834641F480710160FFF784
:10190000C7FA824606E000BFFFF7C2FAA0EB0A0062
:1019100064284ED8DBF80000C005F5D5E068012842
:101920000AD008B1052813D0286A20F001002862E7
:10193000286A20F0040002E0286A40F001002862D2
:10194000E06841F2883B98B1FFF7A2FA82460BE0CB
:10195000286A40F004002862EEE700BFFFF798FA1B
:10196000A0EB0A0159455AD8286A8007F6D50CE041
:10197000FFF78EFA824605E0FFF78AFAA0EB0A012C
:1019800059454CD8286A8007F6D41FB1E86920F081
:101990008050E861E06988B36968C1F38101022978
:1019A00044D00228C6F8608004D0FFF771FA0446DC
:1019B00038E034E0FFF76CFA074604E0FFF768FA16
:1019C000C01B02282BD828688001F7D4206AB0F504
:1019D000803F05D16868A16820F400300843686042
:1019E000D4E908010843696821F474110843686068
:1019F000C6F86090FFF74CFA044606E025E000BF09
:101A0000FFF746FA001B022809D828688001F7D59D
:101A10001BE000BFFFF73CFA001B022802D903209D
:101A2000BDE8F88F28688001F4D40EE00128F7D0D3
:101A30006868226A00F48031914204D1616A00F43E
:101A40007010884201D00120EAE70020E8E700009A
:101A50000010024000004242800442421C0000206C
:101A60000070004010B5401EB0F1807F01D301200E
:101A700010BD4FF0E02460610F21601702F002F802
:101A80000020A06107202061002010BD7047704732
:101A900070B590F83C20012A26D0012480F83C4003
:101AA000022280F83D2003685A689D6822F0700683
:101AB0000A6832435A600D4B02689A4208D0B2F16C
:101AC000804F05D00A4B9A4202D00A4B9A4204D169
:101AD000496825F080031943916080F83D4000215A
:101AE00080F83C10084670BD022070BD002C0140FB
:101AF000000400400008004010B5040003D094F832
:101B00003D0010B107E0012010BD002084F83C002A
:101B1000204600F01FF8022084F83D00211D2068B7
:101B200001F0F4FD012084F8460084F83E0084F8BA
:101B30003F0084F8400084F8410084F8420084F8B3
:101B4000430084F8440084F8450084F83D000020F8
:101B500010BD000008B501681948B1F1804F11D0DF
:101B6000184A914217D1C16941F00201C161C069AF
:101B7000002200F00200009002211D20FFF7C4FCAB
:101B80001D2019E0C16941F00101C161C06900F087
:101B90000100009008BD0C4A9142FBD1C16941F09F
:101BA0000401C161C069002200F00400009003211B
:101BB0001E20FFF7A9FC1E20BDE80840FFF796BCD9
:101BC00000100240000400400008004090F83D1062
:101BD000012901D001207047022180F83D100168E1
:101BE000CA6842F00102CA6000680B49884208D006
:101BF000B0F1804F05D00949884202D00849884297
:101C000004D1816801F00701062903D0016841F081
:101C10000101016000207047002C014000040040D9
:101C20000008004070B5044690F83C00012817D029
:101C3000012584F83C50022084F83D002068826829
:101C400022F0770222F47F4282600868502830D068
:101C50000DDC20284DD005DC98B310283BD148E09E
:101C6000022070BD302844D0402834D139E06028AB
:101C700028D0702806D0B0F5805F2CD0B0F5005F7A
:101C800029D10AE0CB68D1E90121206801F081FD6A
:101C90002068816841F0770109E0CB68D1E9012132
:101CA000206801F076FD2068816841F48041816000
:101CB00011E0CA684968206801F020FE50212068C0
:101CC00007E016E0CA684968206801F028FE602134
:101CD000206801F068FD84F83D50002084F83C0045
:101CE00070BDCA684968206801F008FE402120687C
:101CF000EFE7226801461046EBE7704770B50446EF
:101D0000006801694FF00005C943890715D4C1680F
:101D1000C943890711D4E91E016101202077206899
:101D200080698007204602D0FFF7E7FF04E000F05B
:101D3000BBF8204600F04AF9257720680169C943BD
:101D4000490717D4C168C943490713D46FF0040188
:101D50000161022020772068806910F4407F2046CE
:101D600002D0FFF7CAFF04E000F09EF8204600F022
:101D70002DF9257720680169C943090716D4C16880
:101D8000C943090712D46FF00801016104202077CC
:101D90002068C0698007204602D0FFF7AEFF04E04C
:101DA00000F082F8204600F011F9257720680169DB
:101DB000C943C90617D4C168C943C90613D46FF013
:101DC00010010161082020772068C06910F4407F6D
:101DD000204602D0FFF791FF04E000F065F82046AE
:101DE00000F0F4F8257720680169C943C90708D1D4
:101DF000C168C943C90704D1891E0161204600F0AA
:101E00006DF920680169C943090609D4C168C9434D
:101E1000090605D46FF0800101612046FFF736FE08
:101E200020680169C943490609D4C168C943490604
:101E300005D46FF040010161204600F0A1F920684F
:101E40000169C94389060BD4C168C943890607D40F
:101E50006FF0200101612046BDE87040FFF717BE1A
:101E600070BD000000B585B0002100910191029184
:101E700003910068B0F1804F10D10948816941F0A9
:101E8000040181618069694600F004000490022029
:101E90000090019003900348FEF700FF05B000BDDD
:101EA0000010024000080140704770B5044690F8E9
:101EB0003C000D4601280AD0012084F83C0042B1C4
:101EC000042A18D0082A2AD00C2A4DD139E0022041
:101ED00070BD206801F070FC2068816941F0080144
:101EE00081612068816921F0040181612068816934
:101EF0002A69114311E0206801F086FC206881699D
:101F000041F4006181612068816921F4806181610F
:101F1000206881692A6941EA0221816124E0206800
:101F200001F09EFC2068C16941F00801C161206890
:101F3000C16921F00401C1612068C1692A691143A6
:101F400011E0206801F0B8FC2068C16941F400612B
:101F5000C1612068C16921F48061C1612068C169E3
:101F60002A6941EA0221C161002084F83C0070BD69
:101F700010B5040003D094F83D0010B107E0012033
:101F800010BD002084F83C00204600F01EF802201E
:101F900084F83D00211D206801F0B8FB012084F881
:101FA000460084F83E0084F83F0084F8400084F83E
:101FB000410084F8420084F8430084F8440084F827
:101FC000450084F83D00002010BD704770470000B8
:101FD00010B50446022249B104290ED0082913D0B5
:101FE00094F84100012816D0012010BD94F83E005D
:101FF0000128F9D184F83E200FE094F83F00012831
:10200000F2D184F83F2008E094F840000128EBD199
:1020100084F8402001E084F841200122206801F08A
:10202000ABFB0F492068884203D1426C42F4004266
:1020300042642068884208D0B0F1804F05D0094939
:10204000884202D00849884204D1816801F0070122
:10205000062903D0016841F001010160002010BD94
:10206000002C0140000400400008004030B5044648
:102070000D460068002201F07FFB174B41F2111161
:1020800020688A10984209D1036A0B4206D1036A7C
:10209000134203D1436C23F4004343642068036A72
:1020A0000B4206D1016A114203D1016821F00101FE
:1020B000016001203DB1042D08D0082D09D084F81D
:1020C0004100002030BD84F83E00FAE784F83F006C
:1020D000F7E784F84000F4E7002C0140204910B5F0
:1020E000884216D100F02EF900F072F91D481E4901
:1020F000406AFEF7C3F802461C491D4801F01AFA6F
:102100001B48C069FEF7CAFABDE8104000B2FEF7EE
:1021100061BC13494831884220D1164C2078A8B9B7
:1021200001F08AFAFEF76AFD1349012802D002285D
:102130000CD106E04878042808D000BF02F0C2FAAB
:1021400004E048780428F9D102F06AFA40210B48EB
:10215000FEF794FE002801D00020207010BD000082
:10216000A8010020580000200000C842000061447F
:102170008C000020000000200C000020000801401E
:10218000704770B5040004D094F83D00002510B1EC
:1021900006E0012070BD84F83C50204600F022F893
:1021A000242084F83D002068C16821F40051C160FA
:1021B000204601F0C7FB2068016921F490410161CC
:1021C0002068416921F02A0141612068C16841F419
:1021D0000051C1602564202084F83D0084F83E0051
:1021E000002070BD70B586B0002400940194029464
:1021F0000394234E0368234902200322224DB34255
:1022000019D18B6943F480438B618B6903F480435C
:1022100004938B6943F004038B618969039201F095
:10222000040104910102CDE9001069462846FEF739
:1022300035FD28151BE0154EB3421FD1CB6943F481
:102240000033CB61CB6903F4003304938B6943F013
:1022500004038B618969039201F004010491042154
:10226000CDE9001069462846FEF718FD0820CDE9A3
:102270000004694628460294FEF710FD06B070BDC2
:1022800000380140001002400008014000440040B6
:102290002DE9F843044690F83D001F4616460D46CA
:1022A00020284CD1C5B1BEB194F83C00012846D0DD
:1022B000012084F83C004FF00008C4F84080212041
:1022C00084F83D00FEF7E4FDA6848146E684A0681C
:1022D000B0F5805F03D004E00120BDE8F8832069F9
:1022E00028B12E465FF0000584F83C800EE0002601
:1022F000FAE78021204601F081FBA0B9AEB116F8C3
:10230000010B21684860E08C401EE084E08C4B4665
:102310004FF0000200970028EBD14FF0400120461B
:1023200001F06CFB30B10320D7E735F8020BC0F3A6
:102330000800E6E7202084F83D000020CDE70220D9
:10234000CBE7000010B508A001F08CFB1249134840
:1023500000F024FA12A001F085FBBDE810400E4900
:102360000E4800F055B900005B096870353830360A
:102370005D696E666F3AE5BC80E5A78BE6B58BE9D3
:10238000878FE69DBFE8BDBD485035383036E6B88A
:10239000A9E5BAA60D0A000024000020B80000201C
:1023A0005B096870353830365D696E666F3AE5BC3A
:1023B00080E5A78BE6B58BE9878FE69DBFE8BDBDBD
:1023C000485035383036E6B094E58E8B0D0A000063
:1023D00010B508A001F046FB1249134800F0DEF9E1
:1023E00012A001F03FFBBDE810400E490E4800F07E
:1023F0000FB900005B096870353830365D696E666C
:102400006F3AE5BC80E5A78BE6B58BE9878FE5A43D
:1024100096E7BDAE485035383036E6B8A9E5BAA6DD
:102420000D0A0000580000200C0100205B096870B4
:10243000353830365D696E666F3AE5BC80E5A78B4E
:10244000E6B58BE9878FE5A496E7BDAE48503538F1
:102450003036E6B094E58E8B0D0A000010B50A7890
:102460004B78120142EA13120280130502D542F49E
:10247000704202804B788A7803F00F0342EA03220D
:102480004280130502D542F470424280CA780B792B
:10249000120342EA03124B7942EA1312114B4260D3
:1024A000140301D51A4342604A798C791207120B42
:1024B00042EA0422CC7922438260140301D51A43F4
:1024C00082600A8952BA82814A8952BAC2818A8953
:1024D00052BA0282CA8952BA4282098A49BA8182B0
:1024E00010BD00000000F0FF08B500218DF80010BD
:1024F0006A460D2100F090FA18B99DF800001028E6
:1025000004D005A001F0AEFA012008BD0EA001F034
:10251000A9FA002008BD00005B0968703538303624
:102520005D6572726F723A485035383036E8AEBE2B
:10253000E5A487E6A380E69FA54944E4B88DE98039
:102540009AE8BF870D0A00005B096870353830369D
:102550005D696E666F3A485035383036E8AEBEE594
:10256000A487E6A380E69FA54944E9809AE8BF874F
:102570000D0A000010B586B00C466B4612221021E1
:1025800000F074FA28B107A001F06CFA012006B03F
:1025900010BD69462046FFF761FF11A001F062FA05
:1025A0000020F4E75B096870353830365D6572727B
:1025B0006F723A485035383036E88EB7E58F96E579
:1025C000A4B1E8B4A5EFBC8CE7B3BBE695B0E8AE28
:1025D000A1E7AE97E697A0E6848FE4B9890D0A00DB
:1025E0005B096870353830365D696E666F3A485001
:1025F00035383036E6A0A1E58786E58F82E695B0CE
:10260000E5B7B2E7BB8FE88EB7E58F960D0A0000FD
:102610002DE9FC41054601200C468DF8040001AA75
:102620000821284600F004FB48B91E20FEF724FBD1
:102630006B4603220021284600F018FA28B13AA080
:1026400001F010FA0120BDE8FC819DF800009DF822
:102650000110000440EA01209DF802100843E061E7
:10266000010202D540F07F40E061FDF7F0FF3D49F7
:10267000FDF704FE8046A062B4F91200FDF7E7FF03
:102680004146FDF7C9FD0546B4F90E00FDF7DFFF31
:102690002946FDF769FDE66A054641463046FDF7E5
:1026A000BBFD2946FDF7B8FD0746B4F90C00FDF760
:1026B000CEFF3146FDF7B0FD0646B4F91400FDF734
:1026C000C6FF4146FDF7A8FD0546B4F91000FDF729
:1026D000BEFF2946FDF748FD4146FDF79DFD054635
:1026E000A068FDF7B4FF2946FDF73EFD4146FDF722
:1026F00093FD05466068FDF7AAFF2946FDF734FD06
:102700003146FDF731FD3946FDF72EFD1649606271
:10271000FDF7B4FDFDF7DBFF02460B4613A001F009
:10272000A1F900208FE700005B096870353830366A
:102730005D6572726F723AE58E8BE58A9BE6B58BAA
:10274000E9878FE5A4B1E8B4A5EFBC8CE5BD93E5BE
:10275000898DE695B0E580BCE4B88DE58FAFE99D45
:10276000A00D0A00000078480000C8425B096870AC
:10277000353830365D696E666F3AE58E8BE58A9B3B
:10278000E6B58BE9878FE7BB93E69E9CE4B8BAEF8A
:10279000BC9A252E32666850610D0A007CB505464C
:1027A00002200C468DF8040001AA0821284600F0FA
:1027B0003FFA48B90520FEF75FFA03226B4611463F
:1027C000284600F053F920B11F4801F04BF90120D1
:1027D0007CBD9DF800009DF80110000440EA012036
:1027E0009DF802100843A061010202D540F07F402D
:1027F000A061FDF72CFF6FF01201FDF77DFD05468E
:10280000E062B4F90200FDF722FF2946FDF704FD5E
:10281000FDF75DFF06460D46B4F90000FDF720FF09
:102820004FF0FF32FDF7FCFE32462B46FDF770FD00
:10283000FDF760FF2062FDF74AFF02460B4603A04A
:1028400001F010F900207CBD6C4700085B0968703E
:10285000353830365D696E666F3AE6B8A9E5BAA6D6
:10286000E6B58BE9878FE7BB93E69E9CE4B8BAEFA9
:10287000BC9A252E3266E284830D0A0038B50C46D8
:102880000546FFF731FE08B11DA035E00520FEF733
:10289000F3F900208DF800000520FEF7EDF9214640
:1028A0002846FFF767FE0520FEF7E6F904222146D9
:1028B000284600F04DF80520FEF7DEF96A4628218B
:1028C000284600F0A9F89DF8000010F080028DF86D
:1028D000002001D0802A03D12146284600F044F987
:1028E0000520FEF7C9F904222146284600F0E6F843
:1028F0000520FEF7C1F90CA001F0B4F838BD0000C6
:102900005B096870353830365D6572726F723A48AF
:102910005035383036E5889DE5A78BE58C96E5A4E3
:10292000B1E8B4A50D0A00005B096870353830368F
:102930005D696E666F3A485035383036E5889DE5FA
:10294000A78BE58C96E5AE8CE688900D0A0000001A
:10295000F8B50D460646144611468DF800200AA02B
:1029600001F080F86A460621304600F061F920B196
:1029700013A001F077F80120F8BD85F830401BA0C6
:1029800001F070F80020F8BD5B096870353830360A
:102990005D696E666F3AE5B09DE8AF95E58E8BE5B3
:1029A0008A9BE6B58BE9878FE9858DE7BDAEEFBCE5
:1029B0008CE580BCE4B8BA307825580D0A000000D8
:1029C0005B096870353830365D6572726F723AE552
:1029D0008E8BE58A9BE6B58BE9878FE9858DE7BD10
:1029E000AEE5A4B1E8B4A50D0A0000005B0968706B
:1029F000353830365D696E666F3AE58E8BE58A9BB9
:102A0000E6B58BE9878FE9858DE7BDAEE5B7B2E620
:102A10008890E58A9F0D0A003EB54FF47A730092C4
:102A20000124CDE901430A462346EF21FEF7FAFAD5
:102A3000002803D002A001F015F801203EBD0000DF
:102A40005B096870353830365D6572726F723A496D
:102A50004943E8AFBBE58D95E4B8AAE5AD97E7AC8F
:102A6000A6E5A4B1E8B4A50D0A0000003EB54FF4F8
:102A70007A74CDE900320A4602940123EF21FEF771
:102A8000D1FA002803D002A000F0ECFF01203EBDE7
:102A90005B096870353830365D6572726F723A491D
:102AA0004943E8AFBBE5A49AE4B8AAE5AD97E7AC23
:102AB000A6E5A4B1E8B4A50D0A000000F8B50D46DE
:102AC0000646144611468DF800200A4800F0CAFF59
:102AD0006A460921304600F0ABF820B106A000F0AC
:102AE000C1FF0120F8BD85F8324011A000F0BAFF07
:102AF0000020F8BD284700085B096870353830367B
:102B00005D6572726F723AE695B0E580BCE7A7BB6F
:102B1000E4BD8DEFBC885348494654EFBC89E98534
:102B20008DE7BDAEE5A4B1E8B4A50D0A0000000034
:102B30005B096870353830365D696E666F3AE695C8
:102B4000B0E580BCE7A7BBE4BD8DEFBC8853484926
:102B50004654EFBC89E9858DE7BDAEE5B7B2E6889E
:102B600090E58A9F0D0A0000F8B50D46064614460A
:102B700011468DF800200AA000F074FF6A46072174
:102B8000304600F055F820B113A000F06BFF012093
:102B9000F8BD85F831401BA000F064FF0020F8BDAF
:102BA0005B096870353830365D696E666F3AE5B03E
:102BB0009DE8AF95E6B8A9E5BAA6E6B58BE9878F9B
:102BC000E9858DE7BDAEEFBC8CE580BCE4B8BA30DA
:102BD0007825580D0A0000005B09687035383036DA
:102BE0005D6572726F723AE6B8A9E5BAA6E6B58B72
:102BF000E9878FE9858DE7BDAEE5A4B1E8B4A50D01
:102C00000A0000005B096870353830365D696E6611
:102C10006F3AE6B8A9E5BAA6E6B58BE9878FE985EC
:102C20008DE7BDAEE5B7B2E68890E58A9F0D0A0054
:102C30003EB54FF47A7300920124CDE901430A4670
:102C40002346EE21FEF716FB002803D002A000F079
:102C500009FF01203EBD00005B0968703538303641
:102C60005D6572726F723A494943E58699E58D95C3
:102C7000E4B8AAE5AD97E7ACA6E5A4B1E8B4A50D24
:102C80000A000000FEE701684A69D24352050FD4EA
:102C90006FF480624A61002140F8301F20224273A5
:102CA0008173026942F004020261017301207047DE
:102CB000002070472DE9F84F0446006889460B9DB7
:102CC00001689846174641F48061016020680168F8
:102CD00041F48071016000954FF0011B00225946BC
:102CE00020460A9B00F0DEF84FF4007A40B12068DD
:102CF0000068C00501D5C4F840A00320BDE8F88FE6
:102D0000216809F0FE0008612B46284920460A9AEE
:102D100000F0FCF8F0BB20684169806900902A4609
:102D200020460A9900F070F940B1206C04283AD18D
:102D30002068016841F40071016034E0FEB2B8F12E
:102D4000010F09D02168380A08612A4620460A99ED
:102D500000F05AF90028E8D1206806612A4620468A
:102D60000A9900F051F90028DFD12068016841F488
:102D70008071016000950022594620460A9B00F0B0
:102D800091F80028B3D1216809F0FF0040F001005C
:102D9000086100E007E02B46044920460A9A00F04B
:102DA000B5F80028AAD00120A8E700000200010021
:102DB0002DE9F843044600680D46DDE908970168EF
:102DC0009846164641F4807101604B4600224FF050
:102DD00001112046009700F065F848B120680068AE
:102DE000C00502D54FF4007020640320BDE8F883CD
:102DF000216805F0FE0008613B464A461549204619
:102E000000F084F888B920684169806900903A46EA
:102E10004946204600F0F8F848B1206C042804D157
:102E20002068016841F4007101600120DEE7F5B21D
:102E3000B8F1010F09D02168300A08613A464946C5
:102E4000204600F0E1F80028E7D120680561002065
:102E5000CCE700000200010070B516460D4604469E
:102E60000DE02046FFF70FFF08B1012070BD681C80
:102E700005D0FEF70DF8801BA84207D835B12068B1
:102E80004069C0434007ECD4002070BD002044F8E6
:102E9000300F20216173A073216941F0200121616D
:102EA0002073E2E72DE9F0471E4690460D460446A2
:102EB000C1F30747DDF8209008E0701C06D0FDF74D
:102EC000E7FFA0EB0900B0420FD876B12068012FD0
:102ED00018D0806925EA00000004000C14D00021FD
:102EE0004145EAD00020BDE8F087002044F8300FCB
:102EF00020216173A073216941F0200121612073B9
:102F00000120F0E74069E5E70121E9E72DE9F04715
:102F10009A4691460E46044600254FF02008C1F31C
:102F2000074725E020684069C043400514D4206865
:102F3000016841F40071016021686FF480604861AC
:102F4000256384F83D8084F83E50206C40F00400F6
:102F5000206484F83C501FE0B9F1FF3F08D0FDF732
:102F600097FFA0EB0A0149450CD8B9F1000F09D031
:102F70002068012F13D0806926EA00000004000CAD
:102F80000BD0CFE744F8305F84F80D80A57320693B
:102F900040F02000206125730120BDE8F0874069E2
:102FA000EAE72DE9F041002590460E460446202729
:102FB00017E04069C043C0060CD454F8301B6FF0D2
:102FC0001000486144F810596777A577206A20629D
:102FD000257717E0FDF75CFFA0EB0800B04208D8AA
:102FE0003EB120684169C9434906E2D40020BDE8EA
:102FF000F08144F8305F6773A573206940F02000CA
:10300000206125730120F2E770B516460D4604468F
:103010000DE02046FFF737FE08B1012070BD681CA7
:1030200005D0FDF735FF801BA84207D835B12068D1
:103030004069C0430006ECD4002070BD002044F875
:10304000300F20216173A073216941F020012161BB
:103050002073E2E710B50120FDF78EFD0220FDF799
:103060008BFDBDE8104001A000F0FCBC5B0972655F
:103070006C61795D696E666F3AE7BBA7E794B5E569
:1030800099A8E5889DE5A78BE58C96E5AE8CE6AF23
:10309000950D0A0010B5FDF7D9FCBDE8104001A060
:1030A00000F0E0BC5B096C65645D696E666F3A4C6C
:1030B0004544E5889DE5A78BE58C96E5AE8CE688D2
:1030C000900D0A0010B5FDF739FDFDF719FDFDF76C
:1030D000F9FCBDE8104001A000F0C4BC5B096C65C0
:1030E000645D696E666F3A524742E5889DE5A78B3D
:1030F000E58C96E5AE8CE688900D0A002DE9F0434C
:1031000085B00025254800950195029503958169B4
:1031100041F020018161816901F020010491816900
:1031200041F004018161816901F004010491816928
:1031300041F0080181618069DFF8648000F00800D7
:1031400004900122B0214046FDF79DFEDFF8549027
:1031500040F20317012239464846FDF794FE012448
:10316000B020CDE900040226CDE90246694640467A
:10317000FDF794FD4020CDE90005694640460295E3
:10318000FDF78CFDCDE90074CDE90246694648465D
:10319000FDF784FD05B0BDE8F0830000001002409B
:1031A00000080140000C01400D4810B50B490160BA
:1031B0000C49416000214FF480428160C0E9031254
:1031C00041618161C1610162FDF768FE002803D0A1
:1031D000BDE81040FDF70FBD10BD000000540040D9
:1031E000B8000020A08601000D4810B50B49016011
:1031F0000C49416000214FF480428160C0E9031214
:1032000041618161C1610162FDF748FE002803D080
:10321000BDE81040FDF7EFBC10BD000000580040B5
:103220000C010020A086010010B58EB00024079488
:10323000089409940A940B941C2168460C94FCF79A
:1032400088FF1E484FF0804101600821C0E9011449
:1032500040F28F11C0E903148461FEF74DFC08B100
:10326000FDF7C9FC4FF48050079007A91348FEF7FB
:10327000D9FC08B1FDF7BFFC1048FEF779FE08B194
:10328000FDF7B9FC0B940BA90C480C94FEF700FC5D
:1032900008B1FDF7B0FC6020CDE9000402940422DF
:1032A000694606480494FEF700FE08B1FDF7A3FC4A
:1032B0000248FEF7D7FD0EB010BD000060010020EF
:1032C00010B586B000241848009401940294039429
:1032D000049414490594016041F61F41C0E90114AA
:1032E00040F2CF71C0E9031480218161FEF704FC34
:1032F00008B1FDF780FC4FF48050009069460A4801
:10330000FEF790FC08B1FDF776FC049404A906488A
:103310000594FEF7BDFB002801D0FDF76CFC06B05C
:1033200010BD000000040040A801002010B586B0C8
:1033300000241748009401940294039404941349C0
:103340000594016041F61F41C0E901146321C0E901
:1033500003148461FEF7D0FB08B1FDF74CFC4FF479
:103360008050009069460A48FEF75CFC08B1FDF702
:1033700042FC049404A906480594FEF789FB002842
:1033800001D0FDF738FC06B010BD00000008004079
:10339000F00100200C4810B50A4901604FF41651A5
:1033A0004160002181600C22C160C0E9041281618A
:1033B000C161FEF7E6FE002803D0BDE81040FDF72E
:1033C0001ABC10BD00380140380200200C4810B56E
:1033D0000A4901604FF4E1314160002181600C2213
:1033E000C160C0E904128161C161FEF7CAFE002814
:1033F00003D0BDE81040FDF7FEBB10BD0044004007
:103400007C020020FEE7FEE710B504210348FEF72A
:10341000DFFDBDE8104002A000F024BB60010020E9
:103420005B0970756D705D696E666F3AE6B3B5E500
:10343000B7B2E8BF9BE585A5E58786E5A487E78A5F
:10344000B6E680810D0A000010B500220221044872
:10345000FDF719FDBDE8104002A000F003BB00001D
:10346000000C01405B096C65645D696E666F3A52E1
:103470004742E5B7B2E782B9E4BAAEE799BDE78162
:10348000AF0D0A0010B5002201210448FDF7FBFC36
:10349000BDE8104002A000F0E5BA0000000C0140B9
:1034A0005B096C65645D696E666F3A524742E5B7C9
:1034B000B2E782B9E4BAAEE7BBBFE781AF0D0A005D
:1034C00010B5002280210448FDF7DDFCBDE8104066
:1034D00002A000F0C7BA0000000801405B096C655B
:1034E000645D696E666F3A524742E5B7B2E782B9EA
:1034F000E4BAAEE7BAA2E781AF0D0A00002101608D
:1035000041608160C160C161016205490161054995
:103510004161054981610549416205498162704700
:10352000A47095409A99193E9A99993E00001643C5
:10353000000048C32DE9F04104461046C4E90012DA
:10354000FCF764FEA060FDF7C2F802460B4627A018
:1035500000F088FA616A2068FCF706FE6168FDF7F2
:10356000E5F807D3A16A2068FCF7FEFD6168FDF766
:10357000E7F801D2002505E00125A168206AFCF7E3
:10358000F3FD2062D4E902713846FCF73FFEA169E1
:10359000FCF742FE06462846FDF759F86169FCF73C
:1035A0003BFE216AFCF738FE054639462069FCF7E8
:1035B00033FE2946FCF7D8FD3146FCF7D5FDE06126
:1035C000FDF785F802460B4610A000F04BFAE069C3
:1035D00010F1FF4F02D30020E06103E0144988425C
:1035E00000DDE161A068E060BDE8F0815B09706921
:1035F000645D696E666F3A504944E5B7AEE580BCDC
:10360000E4B8BA3A252E32660D0A00005B097069EB
:10361000645D696E666F3A504944E79086E8AEBAD9
:10362000E8BE93E587BA3A252E32660D0A000000FF
:103630000000C8437047704770B5134C4FF0010548
:103640006068401C6060A178607801430F484FF0CB
:10365000400103D0FDF712FC70B10BE0FDF70EFC4A
:1036600010B1FF20207005E0D4E90101401A3C2888
:1036700001D92570657070BD6078A0700020607001
:103680006068A06070BD00000000002000080140DC
:10369000FDF7D4BE30B58FB028216846FCF759FD40
:1036A00014210AA8FCF755FD01210804CDE90010FA
:1036B0000024029402250491CDE907504FF4E01054
:1036C00009906846FEF73EF808B172B6FEE70F2093
:1036D000CDE90A054FF48060CDE90C4002210AA82B
:1036E0000E94FDF743FF002801D072B6FEE70FB03D
:1036F00030BD70470148FEF701BB0000A801002063
:103700000148FEF7FBBA0000F0010020F0B50268A6
:10371000164B174C174D4FF08047984205D0B842D2
:1037200003D0A04201D0A84203D122F070064A681B
:103730003243984205D0B84203D0A04201D0A842FB
:1037400003D122F44074CA6822434C6922F08002FB
:10375000224302608A68C2620A688262984201D18A
:103760000969016301214161F0BD0000002C0140A5
:10377000000400400008004010B501F01F030121C3
:10378000046A99408C430462016A9A4011430162C1
:1037900010BD10B5846842EA032224F47F440A4332
:1037A0002243826010BD826822F070020A4342F018
:1037B000070181607047000030B5026A22F0010203
:1037C0000262026A4368846924F073050C682C4322
:1037D00022F002058A682A430A4DA8420BD122F042
:1037E0000805CA6823F440732A434D6922F0040295
:1037F0001D438B692B4343608461496841630262C6
:1038000030BD0000002C014030B5026A22F01002E9
:103810000262026A436884690D6824F4E64444EA5B
:1038200005248D6822F0200242EA05120B4DA842C1
:103830000ED1CD6822F0800242EA05124D6923F4D0
:10384000406343EA85038D6922F0400243EA850321
:103850004360846149688163026230BD002C01408D
:1038600030B5026A22F480720262036A4268C46957
:1038700023F4007324F073050C682C438D6843EA2D
:1038800005230C4DA8420ED1CD6823F4006343EA12
:1038900005234D6922F4405242EA05128D6923F452
:1038A000806342EA05124260C4614968C1630362F1
:1038B00030BD0000002C014030B5026A22F4805275
:1038C0000262046A4268C3690D6823F4E64343EA6E
:1038D00005238D6824F4005444EA0534064DA842BB
:1038E00004D14D6922F4804242EA85124260C361EC
:1038F00049680164046230BD002C014010B5036AC0
:10390000046A24F001040462846924F0F00444EAA7
:10391000021423F00A020A438461026210BD10B54A
:10392000036A23F0100303628369046A23F470437B
:1039300043EA023224F0A00343EA011182610162EA
:1039400010BD000070B5044600680169E26821F40A
:103950004051114301612169A0680843616908432E
:103960002168CA6841F20C639A430243CA60206826
:103970004169A26921F44071114341611E492068E7
:10398000884202D1FDF798FE01E0FDF785FE00EBCD
:10399000C00101EB0012606864218000B2FBF0F30B
:1039A000B3FBF1F36FF018067343B2FBF0F5B2FB13
:1039B000F0F605EB8305322303EB0515B5FBF1F5B6
:1039C000B6FBF1F605F0F00505EB0615B2FBF0F6D7
:1039D000B2FBF0F0B0FBF1F06FF01802504306EBD1
:1039E000800003EB0010B0FBF1F0216800F00F0045
:1039F0002844886070BD0000003801402DE9F04186
:103A0000984617460E460446069D1DE0681C1BD0CE
:103A10002DB1FDF73DFAA0EB0800A84214D92068AB
:103A2000C16821F4D071C1602068416921F00101B1
:103A30004161202084F83D0084F83E00002084F895
:103A40003C000320BDE8F0812068006836EA0000F1
:103A500004D00020B842D9D00020F3E70120F9E7D4
:103A6000FEE700000FB4054B10B503A9044A029805
:103A700000F0EAF810BC5DF814FB00007943000880
:103A8000200000200907090E002804DB00F1E020D7
:103A900080F80014704700F00F0000F1E02080F87B
:103AA000141D704702E008C8121F08C1002AFAD18D
:103AB00070477047002001E001C1121F002AFBD1AE
:103AC000704700002DE9FF5F82B00021DDE904307E
:103AD000020DDDF840B0034318D044F61050A2F2B6
:103AE000FF3242431514119801281FD0A5EB0B009B
:103AF000401C5FEA000A4FF000064E4FDFF8389195
:103B0000B046504615D5CAF1000413E011980124BF
:103B10004AA3012801D16FEA0B010298119AC0E96A
:103B20000031C0E9024206B0BDE8F09FCBF10000D1
:103B3000DFE704460021404A491842EB0450CDE932
:103B4000001012E0E00707D032463B4640464946A7
:103B5000FCF785FC8046894632463B4610461946AE
:103B6000FCF77DFC06460F466410002CEAD1DDE927
:103B70000401DDE90023BAF1000F06DAFCF76FFC5F
:103B800042464B46FCF76BFC05E0FCF7DAFC42468C
:103B90004B46FCF7D6FC04460E460022284BFCF7A9
:103BA000EDFE03D84FF0FF30014607E00022254B21
:103BB00020463146FCF7ACFBFCF7C8FE102409E0B8
:103BC000002C0ADB0A220023FCF7DAFD039B3032CB
:103BD0001A55641E50EA0102F2D1641C039AC4F122
:103BE00011031444119A012A03D0012208430DD174
:103BF0000AE0084304D000204FF0110B119072E747
:103C0000A3EB0B056D1E0DE05B4504DD4FF00002DC
:103C100005F1010504E003DA4FF00002A5F101050A
:103C2000002AECD002981199C0E90231C0E90045A0
:103C300079E70000000014400000F03F3000000071
:103C40000000F0430000E03F2DE9FF4F95B09B4698
:103C50008946064600250FE2252877D1002427460D
:103C6000F84A0121059400E0044316F8013F203B87
:103C700001FA03F01042F7D130782A2811D06FF002
:103C80002F033078A0F13002092A16D8059A44F0A3
:103C9000020402EB820203EB42021044761C059000
:103CA000EFE759F8042B0592002A03DA504244F456
:103CB0000054059044F00204761C30782E2816D16A
:103CC00016F8010F44F004042A280DD06FF02F02DB
:103CD0003078A0F13003092B09D807EB870302EBFA
:103CE0004303C718761CF3E759F8047B761C307839
:103CF0006C280FD006DC4C2817D068280DD06A2815
:103D000014D104E0742810D07A280FD10DE044F4C7
:103D100000140AE044F4801401E044F44014727882
:103D2000824202D104F58014761C761C3078662815
:103D30000BD013DC582877D009DC002875D0452833
:103D4000F6D04628F4D047281AD19DE118E0632820
:103D500035D0642879D0652812D195E1702873D0C8
:103D600008DC6728F1D069286FD06E280DD06F2845
:103D700006D1B5E073282CD0752875D0782874D07A
:103D80005A46179990476D1C75E1C4F302500228FA
:103D900009D003280DD0D9F8001004280DD00D60EB
:103DA00009F1040967E1D9F80010EA17C1E90052E6
:103DB000F6E7D9F800100D80F2E70D70F0E719F87A
:103DC000041B8DF8001000208DF80100EA46012048
:103DD00003E059F804AB4FF0FF3061074FF00001EA
:103DE00002D40DE008F101018846B9420FDA80459E
:103DF000F8DB1AF808100029F4D108E008F10101F5
:103E000088468142FADB1AF808100029F6D1059895
:103E10005B46A0EB080721463846179A00F094FA53
:103E2000284400EB080507E04DE029E10DE01AF811
:103E3000010B5A4617999047B8F10108F7D25B4633
:103E400021463846179A13E142E00A220092C4F351
:103E500002524FF0000A022A08D059F804CB032A74
:103E60004FEAEC710AD00DE029E02AE009F10701E0
:103E700021F00702F2E802C1914609E00FFA8CFC3A
:103E80004FEAEC71042A03D14FFA8CFC4FEAEC7133
:103E9000002907DA0A460021DCF1000C61EB02017F
:103EA0002D2202E0220504D52B228DF804200122C8
:103EB00003E0E20701D02022F7E7904659E00A210B
:103EC00002E010220DE010214FF0000A00910BE0FB
:103ED00010224FF0000A44F004040827009203E087
:103EE00008224FF0000A0092C4F30252022A05D0C1
:103EF00059F804CB0021032A08D009E009F1070191
:103F000021F00702F2E802C1914605E01FFA8CFC9D
:103F1000042A01D10CF0FF0C4FF00008220728D52D
:103F2000702806D0009B83F0100353EA0A0305D0E3
:103F30000EE040228DF80420012208E05CEA010234
:103F400006D030228DF804208DF80500022290461C
:103F5000009B83F0080353EA0A030AD15CEA0102DA
:103F600001D1620705D530228DF804204FF00108F9
:103F70007F1E582804D034A003900EA802900DE0B4
:103F800036A0F9E753466046009AFCF7F9FB8446F1
:103F90000398825C0298401E029002705CEA010065
:103FA000F0D1029806A9081A00F1200A600702D58C
:103FB00024F4803400E00127574502DDA7EB0A0016
:103FC00000E0002000EB0A01009005984144401AEF
:103FD0000590E00306D45B462146179A059800F049
:103FE000B3F90544002706E001A85A46C05D1799B9
:103FF00090476D1C7F1C4745F6DBE0030CD55B4604
:104000002146179A059800F09FF9054404E03020F6
:104010005A46179990476D1C0099481E0090002938
:10402000F5DC08E0029802995A460078491C029192
:10403000179990476D1CBAF10001AAF1010AF1DC51
:1040400065E100000928010030313233343536375C
:1040500038396162636465660000000030313233D4
:104060003435363738394142434445460000000074
:1040700000F058F90544761C307800287FF4ECAD48
:1040800019B02846BDE8F08F620700D4062709F171
:10409000070222F0070CFCE80223E14603F0004887
:1040A0005FEA080C02D00FF2702C0DE05FEA045CAE
:1040B00002D50FF2682C07E05FEAC47C02D00FF251
:1040C000602C01E0AFF2700C4FF0FF3823F000439A
:1040D000CDF850C065280CD006DC452809D046280C
:1040E0001DD047283DD13DE0662818D067287ED1F5
:1040F00038E00021112F01DB112000E0781CCDE910
:10410000000106A90EA8FFF7DDFCDDE90F010E9AFC
:1041100003910021009207F1010A04914DE04FF054
:1041200000400097CDE9011006A90EA8FFF7CAFCD0
:10413000DDE90F0203920E9B11990022DDF80CA01D
:104140000093049211B9791C00EB010AB7EB0A0045
:1041500004D4C0F1FF3007F1010A0490AAEB070074
:10416000019044E0012F00DA01270021112F01DD29
:10417000112000E03846CDE9000106A90EA8FFF79E
:10418000A1FCDDE90F010E9A039100210491009238
:10419000BA4621070CD40399514500DA8A46BAF190
:1041A000010F05DD009AAAF10101515C302908D008
:1041B000B84202DA10F1040F06DA0121CDE901104C
:1041C00015E0AAF10101E9E7002805DC04990144A2
:1041D0000491AAEB000102E0411C514500DD8A4632
:1041E0000499401A401C01904FF0004002902007B3
:1041F00004D40198504501DBCDF8048000208DF8EF
:104200004F0002980DF14F07B0F1004F25D02B2041
:104210000E9002984FF0020800280CDA40420290FB
:104220002D200E9007E00A210298FCF793FA303116
:10423000029007F8011DB8F10001A8F10108F2DCB5
:1042400002980028EFD1791E0E980870307800F09F
:10425000200040F0450007F8020D12A8C01B00F135
:1042600007081498007800B1012000EB0A010198BA
:1042700001EBE07105984144401A401E0590E003AF
:1042800006D45B462146179A059800F05DF8054470
:104290001498007818B15A46179990476D1CE0039E
:1042A00024D55B462146179A059800F04DF8054441
:1042B0001CE00498002807DBDDE90301884203DDE8
:1042C0000098405C179901E0179930205A469047B2
:1042D000049805F10105401C04900198401E0190CE
:1042E00004D12E205A46179990476D1CBAF100014F
:1042F000AAF1010ADDDC05E017F8010B5A4617990F
:1043000090476D1CB8F10001A8F10108F4DC5B4690
:104310002146179A0598ABE62D0000002B000000FF
:10432000200000002DE9F041044600251E461746F6
:10433000880404D405E039462020B0476D1C641E73
:10434000F9D52846BDE8F0812DE9F0410446002565
:104350001E469046C80301D5302700E02027880478
:1043600004D505E041463846B0476D1C641EF9D5BA
:104370002846BDE8F081000038B504468DF80000FD
:104380000223012269460248FDF782FF204638BD1C
:104390007C0200201CB5FDF759F8FFF77BF9FEF70A
:1043A000ADFEFEF701FFFEF7F5FFFEF71DFFFFF77D
:1043B0000DF8FEF785FFFEF7B9FFFEF735FF38A0D1
:1043C000FFF750FB45A0FFF74DFB4F494F48FEF765
:1043D00055FA4FA0FFF746FB58495948FEF74EFAE9
:1043E00058A0FFF73FFBFEF755FEFEF76BFE5FA000
:1043F000FFF738FBFEF72EFE6848FFF77FF800F066
:1044000025F967480568A86A401CFCF73AF9044694
:10441000E86A0E46401CFCF734F9624D02460B4632
:1044200000202946FCF78DF822463346FCF789F830
:1044300002460B465CA0FFF715FB5948FDF7C6FB8B
:1044400066480668B06A401CFCF71BF90446F06A2F
:104450000F46401CFCF715F902460B460020294682
:10446000FCF76FF822463B46FCF76BF802460B461A
:104470005BA0FFF7F7FA5948FDF7A8FB4FF47A70F5
:10448000FCF7FAFB00F0F8F862A1D1E90001CDE9F0
:1044900000010A23082269466048FDF7F9FEF8E7A3
:1044A0005B096D61696E5D696E666F3A4750494F91
:1044B0002C494943312F322C5553415254312F321C
:1044C0002C54494D322F332F34E5889DE5A78BE5D9
:1044D0008C96E5AE8CE688900D0A00005B096D6154
:1044E000696E5D696E666F3AE69DBFE8BDBD485076
:1044F00035383036E5B09DE8AF95E5889DE5A78B6A
:10450000E58C960D0A00000024000020B800002071
:104510005B096D61696E5D696E666F3AE5A496E749
:10452000BDAE485035383036E5B09DE8AF95E588EA
:104530009DE5A78BE58C960D0A0000005800002031
:104540000C0100205B096D61696E5D696E666F3AF2
:104550004C4544E5928C524742E5B09DE8AF95E565
:10456000889DE5A78BE58C960D0A00005B096D61BF
:10457000696E5D696E666F3AE4B8A4E8B7AFE7BBF1
:10458000A7E794B5E599A8E5B09DE8AF95E5889DC6
:10459000E5A78BE58C960D0A000000008C0000203A
:1045A000A8010020882A91415B096D61696E5D69EF
:1045B0006E666F3AE5AE9AE697B6E599A833E4B829
:1045C000ADE696ADE5BC80E590AFEFBC8CE591A87B
:1045D000E69C9F252E3266487A0D0A00F0010020E5
:1045E0005B096D61696E5D696E666F3AE5AE9AE66C
:1045F00097B6E599A834E4B8ADE696ADE5BC80E59C
:1046000090AFEFBC8CE591A8E69C9F252E326648C2
:104610007A0D0A00A55A05820040000C38020020DD
:104620000948007806280ED2DFE800F00D030507E0
:10463000090B00F033B800F01FB800F055B800F0D7
:1046400041B800F005B870470C00002000F026B813
:10465000084810B541780170052141700121817031
:104660000020FCF7B7F9FEF7CFFEBDE81040FEF7DB
:1046700029BD00000C000020074810B541780170EA
:10468000022141708170FEF7BFFEFEF71BFDBDE801
:104690001040FEF7F7BE00000C000020084810B5DF
:1046A000417801700121417081700020FCF792F97E
:1046B000FEF7AAFEFEF706FDBDE81040FEF7C4BEF9
:1046C0000C000020074810B54178017004214170AA
:1046D00001218170FCF7D6F9FEF7F4FCBDE810402B
:1046E000FEF7EEBE0C000020084810B541780170BE
:1046F0000321417002218170FEF786FEFEF7E2FC85
:10470000FEF7C0FEBDE81040FEF7DABE0C00002048
:104710000000000000000000010203040607080971
:1047200000000000010203045B0968703538303670
:104730005D696E666F3AE5B09DE8AF95E695B0E5C8
:1047400080BCE7A7BBE4BD8DEFBC88534849465405
:10475000EFBC89E9858DE7BDAEEFBC8CE580BCE49C
:10476000B8BA307825580D0A000000005B0968705F
:10477000353830365D6572726F723AE6B8A9E5BABF
:10478000A6E6B58BE9878FE5A4B1E8B4A5EFBC8CAC
:10479000E5BD93E5898DE695B0E580BC28E590AB55
:1047A000E58E8BE58A9B29E4B88DE58FAFE99DA066
:1047B0000D0A0000D447000800000020240000007B
:1047C000A43A0008F8470008240000209C060000D6
:1047D000B43A0008000101000000000000000000E1
:1047E00000000000010000001000000000000000B8
:0847F0000024F40000000000A9
:04000005080000ED02
:00000001FF
