:020000040800F2
:10000000C0110020010100084D380008912F0008A0
:1000100099370008FD090008AD48000800000000FD
:10002000000000000000000000000000853B000808
:10003000670A000800000000B53A0008E13B00082C
:100040001B0100081B0100081B0100081B01000820
:100050001B0100081B0100081B0100081B01000810
:100060001B0100081B0100081B0100081B01000800
:100070001B0100081B0100081B0100081B010008F0
:100080001B010008310A00081B0100081B010008C1
:100090001B0100081B0100081B0100081B010008D0
:1000A0001B0100081B0100081B0100081B010008C0
:1000B0001B010008453C0008513C00081B010008DA
:1000C0001B0100081B0100081B0100081B010008A0
:1000D0001B01000895480008A14800081B01000802
:1000E0001B0100081B0100081B010008DFF80CD0F1
:1000F00000F072FC00480047D54C0008C0110020F9
:100100000648804706480047FEE7FEE7FEE7FEE7B1
:10011000FEE7FEE7FEE7FEE7FEE7FEE7433C0008FA
:10012000ED000008202A04DB203A21FA02F0002129
:10013000704721FA02F3D040C2F1200291400843F7
:100140001946704740EA01039B0703D009E008C93C
:10015000121F08C0042AFAD203E011F8013B00F88C
:10016000013B521EF9D27047D2B201E000F8012BD8
:10017000491EFBD270470022F6E710B513460A4627
:1001800004461946FFF7F0FF204610BDF0B480EAA0
:100190000102D40F4200B2EB410F02D202460846E0
:1001A00011464A0042D0C30DDDB2C1F3C752AD1AA9
:1001B000202D35DAC1F3160141F4000204B1524298
:1001C000C5F1200602FA06F12A411044B3EBD05FD4
:1001D00023D0C4B1012DA0EBC35009DCF0BC4FF01B
:1001E000004202EAC352DBB200F5000000F069BB36
:1001F000400000F1807000EBC350A0F1807040EA35
:10020000D170490009E0490841EAC071A0EBC35030
:1002100000F50000400800EBC350F0BC00F048BB04
:100220006142012202EB4101001BF6E7F0BC70477E
:1002300081F00041AAE780F00040A7E780EA0102D0
:1002400010B502F00043400022D04A001FD0010E3A
:1002500001EB1261C0F35600C2F3560240F40000F5
:1002600042F40002A0FB022000047F39140400D0F5
:10027000401C50EA124001D44000491EC2B20C0694
:1002800004EBD010401C4008802A02D003E000207C
:1002900010BD20F00100002900DA0020184310BD35
:1002A00030B480EA010202F0004530F0004221F053
:1002B000004013D090B1C30DD40DC2F31601C0F3AA
:1002C0001600E41A41F4000140F400027D3491422A
:1002D00001D3641C00E04900002C02DA30BC00208D
:1002E00070474FF400000023914201D3891A034361
:1002F00040084FEA4101F7D151B1914202D14FF08C
:10030000004105E002D24FF0010101E06FF0010170
:1003100003EBC450284430BC00F0CABA420005D0F8
:10032000C0F3C7525242914201DC0020704700EBFB
:10033000C15070472DE9FE4F804681EA0300C00F8F
:100340000C46009021F0004123F00045B8EB02007C
:10035000A94105D24046214690461C460B4602461E
:1003600023F00040104347D0270DC7F30A00C3F322
:100370000A510290401A019040286BDAC3F313002F
:1003800040F4801B0098924620B10023D2EB030A70
:1003900063EB0B0B01985946C0F14002504600F048
:1003A00066FA06460D4650465946019A00F06EFA26
:1003B00010EB08006141002487EA115284EAE773D8
:1003C0001A4340D0009A62B3019A012A4FEA0752B9
:1003D00015DC001B61EB02014FF0004202EA0752FC
:1003E000CDE90042001C41F5801132462B4600F059
:1003F000A5FA03B0BDE8F08F40462146F9E7001B9F
:1004000061EB0201001C41F5801300185B412018CC
:10041000A2F5001747EB030140EAD570B6196D410C
:1004200011E06D084FEA360645EAC0754FEA0752FB
:10043000001B61EB0201001C41F5801149084FEAE5
:1004400030000019514132462B4603B0BDE8F04F51
:1004500000F065BA0098012240000023D0EB0202B0
:1004600063EBE073009821464FEAE074B8EB0000BC
:1004700061EB0401E9E783F000435BE781F00041B1
:1004800058E72DE9FE4F81EA030404F0004421F00F
:10049000004100944FF0000B23F0004350EA0104A8
:1004A0005ED052EA03045BD0C3F30A54C1F30A5589
:1004B0002C44A4F2F3340194A0FB0254C1F31301C1
:1004C00041F48011C3F3130343F4801301FB02448E
:1004D00000FB034E840A970A44EA815447EA835793
:1004E000A4FB076802958D0A05FB07854FEA932C4C
:1004F00004FB0C542705029D4FEA065847EA1637BD
:10050000B5EB08056EEB070C870E920E47EA8117D4
:1005100042EA8312A7FB0201B6EB0B0164EB000475
:100520002B0D43EA0C335E1844EB1C50DA4651465F
:10053000E7FB0201C5F313044FEA0B3343EA1453FC
:100540004FEA0432019C43EA0603A4F10C0402942E
:10055000009CCDE900B400F0F1F903B0BDE8F08FE4
:1005600000200146F9E72DE9F04D81EA030404F08B
:10057000004B21F0004514464FF0000A23F00041E3
:1005800050EA050220D054EA01021DD0C5F30A57F3
:100590000246C5F31303C1F31300C1F30A5640F436
:1005A000801543F48013A7EB0608101BD64608F20B
:1005B000FD3873EB050002D308F1010801E0921841
:1005C0005B41B8F1000F03DA00200146BDE8F08D71
:1005D00000204FF48011064684460EE0171B73EB93
:1005E000050705D3121B63EB050306434CEA010C18
:1005F00049084FEA300092185B4150EA0107EDD1FB
:1006000052EA030012D082EA040083EA050108439B
:1006100005D0101BAB4106D20122002306E00022C8
:100620004FF0004302E06FF0010253101AEB060096
:100630004CEB085110EB0A0041EB0B01BDE8F04D0B
:1006400000F06DB970B521F0004303430CD0C1F345
:100650000A550024D5EB040564EB0403D617AD1A44
:10066000B34102DB0020014670BD201841EB02516E
:1006700070BDC10F80EAE0700844CA0796230021CC
:1006800000F01FB996230022114600F01AB90EB5EA
:10069000C10F80EAE0700844CA07002140F23343EA
:1006A0008DE80E000A460B4600F048F903B000BD85
:1006B0000EB540F2334102910021CDE900110A4606
:1006C0000B4600F03BF903B000BD00F0004220F003
:1006D0000040C10DC0F3160040F400007F2901DA8C
:1006E00000207047962903DCC1F19601C84001E063
:1006F00096398840002AF4D04042704720F00040EC
:10070000C10DC0F3160040F400007F2901DA00207B
:100710007047962903DCC1F19601C84070479639AD
:100720008840704700F0004230F000400AD0C10D10
:1007300001F56071C0F3160042EA0151C20840079A
:1007400011437047002001467047000030B5041E79
:1007500071F1000404DB4FF00044404264EB0101FE
:10076000141E73F1000405DB1C464FF00043524297
:1007700063EB04038B4208BF824230BD30B5041ED8
:1007800071F1000404DB4FF00044404264EB0101CE
:10079000141E73F1000405DB1C464FF00043524267
:1007A00063EB0403994208BF904230BD01F000435F
:1007B00030B421F0004150EA010206D00A0DA2F542
:1007C0006072C1F31301002A02DC30BC00207047C4
:1007D000440F44EAC104C100E01830BC00EBC25031
:1007E00000F066B8002801DBC0F10040002901DB01
:1007F000C1F1004181427047002801DBC0F1004097
:10080000002901DBC1F10041884270472DE9F05F0A
:100810000546002092469B4688460646814640246F
:100820001BE02846414647462246FFF77BFC5346DD
:100830005A46C01A914110D311461846224600F07C
:1008400016F82D1A67EB01084F46224601200021B9
:1008500000F00DF817EB00094E41201EA4F1010431
:10086000DFDC484631462A464346BDE8F09F202A51
:1008700004DB203A00FA02F1002070479140C2F1F7
:10088000200320FA03F3194390407047202A06DB27
:10089000CB17203A41FA02F043EAE07306E041FA4E
:1008A00002F3D040C2F1200291400843194670473C
:1008B0000029A8BF7047401C490008BF20F0010074
:1008C000704710B4B0FA80FC00FA0CF050EA010452
:1008D00004BF10BC704749B1CCF1200421FA04F4E4
:1008E00011FA0CF118BF012121430843A3EB0C01BD
:1008F000CB1D4FEA00614FEA102042BF002010BC20
:10090000704700EBC35010440029A4BF10BC7047CF
:10091000401C490008BF20F0010010BC704710B512
:10092000141E73F1000408DA401C41F10001921812
:100930005B411A4301D120F0010010BD2DE9F04DBB
:1009400092469B4611B1B1FA81F202E0B0FA80F210
:1009500020329046FFF78BFF04460F4640EA0A001C
:1009600041EA0B0153465A46084313D0114653EA55
:10097000010019D0C8F140025046FFF7D3FB0546ED
:100980000E46504659464246FFF771FF084305D0D0
:10099000012004E020463946BDE8F08D00200543E3
:1009A00046EAE0762C4337430A986305E40AA0EB55
:1009B00008000022FD0A44EA47540A3002D500200C
:1009C0000146E9E7010510196941DDE9084500190B
:1009D0006941BDE8F04DA2E7064C074D06E0E0682E
:1009E00040F0010394E8070098471034AC42F6D376
:1009F000FFF780FB1853000838530008FEE700009B
:100A000001220221014800F0C8BA0000000C014098
:100A100001221146014800F0C0BA0000000C01405C
:100A200001228021014800F0B8BA0000000801400E
:100A3000014800F09BB800007C0B002030B590F816
:100A400040500124AC40C56B6C600468636043682F
:100A5000102B036803D099600068C26030BD9A60B3
:100A60000068C16030BD704772B6FEE7064890F975
:100A70000000411C03D0012803D000207047012052
:100A800070470220704700000400002010B590F865
:100A900021100022022905D00421816380F8202042
:100AA000012010BD01680B6823F00E030B60016884
:100AB0000B6823F001030B6090F84030C46B0121F8
:100AC00001FA03F3636080F8211080F820201046BB
:100AD00010BD000010B590F821100024022903D0A9
:100AE0000421816301243DE001680A6822F00E02BE
:100AF0000A6001680A6822F001020A601A4A016865
:100B0000914201D1012121E0174A1432914201D1D1
:100B100010211BE0144A2832914201D1891515E0B9
:100B2000114A3C32914201D189140FE00E4A5032F1
:100B3000914202D14FF4803108E00B4A6432914275
:100B400002D14FF4801101E04FF08071064A083A5B
:100B50005160012180F82110002180F82010416BA4
:100B600001B18847204610BD080002402DE9F05F22
:100B7000C16B0C6801680B68D0F840C0042202FA0F
:100B80000CF2494DDFF824A1494E4A4FDFF828B155
:100B9000DFF828E122422CD05A072AD50A689206AB
:100BA00003D40A6822F004020A600168A94201D154
:100BB000042219E0514501D1402215E0B14202D191
:100BC0004FF4806210E0B94202D14FF480420BE052
:100BD000594502D14FF4802206E0714502D14FF40D
:100BE000800201E04FF080622F4908394A60C16AF3
:100BF0003BE04FF0020808FA0CF818EA040F4FF037
:100C000000094FF0010235D05FEA837832D50B68D6
:100C10009B0605D40B6823F00A030B6080F82120A3
:100C20000168A94201D1022219E0514501D12022D7
:100C300015E0B14202D14FF4007210E0B94202D186
:100C40004FF400520BE0594502D14FF4003206E058
:100C5000714502D14FF4001201E04FF000721249C9
:100C600008394A6080F82090816A00291AD0BDE8CE
:100C7000F05F0847082505FA0CF5254212D01B073E
:100C800010D50B6823F00E030B6090F84010C36B77
:100C900002FA01F15960826380F8212080F82090E7
:100CA000016BE2E7BDE8F09F080002401C00024033
:100CB0003000024044000240580002406C000240F4
:100CC00030B528B308C8134914221944B1FBF2F116
:100CD0008900C16310498163022141771A6843F694
:100CE000F0718A43D0E900142143D0E902452C4336
:100CF0002143046921434469214384692143114309
:100D0000196000214163012242770177084630BD16
:100D1000012030BDF8FFFDBF0000024070B5044661
:100D200090F82000002501280CD0012084F8200034
:100D300094F821600020012E06D084F820000225BE
:100D4000284670BD022070BD022684F82160A06391
:100D50002068066826F0010606602046FFF76EFE52
:100D6000E06A00282068016802D041F00E0106E028
:100D700021F0040101602068016841F00A0101606E
:100D80002068016841F001010160D9E770B50446AF
:100D900000F008F90546601C02D0044800780444BD
:100DA00000F000F9401BA042FAD370BD38000020CB
:100DB0002DE9F84FDFF8B891002409F1040A0AF18F
:100DC000040B23460F270BF1040EC9E00125A540B3
:100DD0002A40AA427DD1674ED1F804C0ACEB060888
:100DE000B44532D014DCBCF1030F3AD009DCBCF1BD
:100DF000000F2AD0BCF1010F1CD0BCF1020F31D181
:100E00001DE0BCF1110F17D0BCF1120F2AD119E06F
:100E1000B8F5881F19D006DCB8F5803F15D0B8F5B5
:100E2000801F1FD111E0B8F5001F0ED0B8F5041FC8
:100E300018D10AE0CB6815E0CB681B1D12E0CB6827
:100E400008330FE0CB680C330CE08B682BB1012B1F
:100E50004FF0080303D0456104E0042302E005617C
:100E600000E00023FF2A01D8064601E000F1040655
:100E70004FEA840501D9A5F12005D6F8008007FACC
:100E800005FC28EA0C0803FA05F548EA0508C6F847
:100E900000804D68ED0062D5374DAE6946F0010621
:100EA000AE61AD6924F0030605F001050095334DF0
:100EB00006EB050CDCF80850A607360F07FA06F813
:100EC00025EA0805DFF8B880404503D14FF0000857
:100ED00017E044E0DFF8AC80404502D14FF0010854
:100EE0000FE0DFF8A480404502D14FF0020808E08F
:100EF000DFF89880404502D14FF0030801E04FF041
:100F0000040808FA06F848EA0508CCF808804D6895
:100F1000D9F80060ED034D4601D5164300E0964335
:100F20002E604D68DAF80060AD03554601D51643D2
:100F300000E096432E604D68DBF80060ED025D46F0
:100F400001D5164300E096432E604D68DEF8006040
:100F5000AD02754601D5164300E096432E60641C31
:100F60000D682A46E5407FF431AFBDE8F88F0000F8
:100F70000004014000001110001002400000014078
:100F800000080140000C0140001001400014014025
:100F90008068084000D0012070470AB101617047A5
:100FA0000904FBE701488068704700003800002012
:100FB00070B5040025D094F83D00002520B984F8D0
:100FC0003C50204600F078FA242084F83D00206848
:100FD000016821F0010101602068016841F40041CD
:100FE00001602068016821F40041016000F0DEFB2F
:100FF0004D4A6168914201D84C4900E04C49884211
:1010000001D2012070BD4B492368B0FBF1F15E684D
:1010100026F03F060E435E606368934206D94FF4A4
:10102000967359434FF47A73B1FBF3F12368491C6B
:101030001E6A26F03F06314319626168914210D85A
:101040004900401EB0FBF1F2521CC2F30B02042A0D
:1010500001D2042022E0B0FBF1F0401CC0F30B00F1
:101060001CE0A268F2B301EBC10303EB0116431EBF
:10107000B3FBF6F35B1C43F480431B0549D092B3EA
:1010800001EBC10202EB0111401EB0FBF1F0401C6C
:10109000C0F30B0040F4804040F400402168CA696E
:1010A0004CF6FF739A431043C861D4E9071001431B
:1010B0002068026822F0C00211430160D4E90301F4
:1010C00001432068826848F2FF339A4311438160EC
:1010D000D4E9050108432168CA6822F0FF021043E1
:1010E000C86001E00EE016E02068016841F00101EF
:1010F00001602564202084F83D00256384F83E507B
:10110000002070BD01EB4106431EB3FBF6F35B1CF0
:10111000B3E70120C2E701EB4101401EB0FBF1F053
:10112000401CC0F30B00B7E7A086010080841E00BE
:1011300000093D0040420F002DE9FF4F83B000251C
:10114000DDE910799A4693460446DDF8488000951B
:10115000FFF728FF064694F83D0020287CD119238C
:10116000012285492046009602F022F80028F5D198
:1011700094F83C0001286FD0012084F83C002068DE
:101180000168C90703D1016841F0010101602068CD
:10119000016821F400610160222084F83D004020B4
:1011A00084F83E0025646762A4F82A90608D20854B
:1011B0007248E062CDE9008653465A4620460499BB
:1011C00001F0FEFE00287DD1208DDFF8B4912027AC
:1011D00068B1012814D00228206801681ED041F4AB
:1011E000806101602068416980690090B6E02068F4
:1011F000416981690091016841F400710160ADE0CD
:101200002068016821F48061016072B6206841693C
:1012100081690091016841F400710AE041F40061C4
:10122000016072B62068416981690091016821F40A
:101230008061016062B691E0032868D801280CD073
:10124000022843464FF000024946204600960FD040
:1012500001F0AEFFB0BB10E08BE0324641462046C5
:1012600002F025F870BB20680069616A08706CE0C4
:1012700001F09EFF30BB72B634E02068016821F4B3
:101280008061016072B620680069616A0870606AF6
:10129000401C6062208D401E2085608D401E608550
:1012A000384846F2A8110068B0FBF1F0C0EBC0006E
:1012B00000EB80000090401E009008D0206840693C
:1012C000C04300E029E040070CD50098F3E744F85C
:1012D000305F6773A573206940F02000206162B61B
:1012E00025731AE02068016841F4007101602068EC
:1012F0000069616A0870606A401C6062218D491E45
:101300002185618D491E618562B621681BE03246E8
:101310004146204601F0CBFF18B1012007B0BDE8DF
:10132000F08F20680069616A0870606A401C606222
:10133000218D491E2185618D491E618521684A697B
:10134000D24352070AD409690170606A401C606286
:10135000208D401E2085608D401E6085208D0028D8
:101360007FF46AAF84F83D7084F83E5084F83C50B6
:10137000D4E70220D2E70000020010000000FFFFC7
:1013800004000100440000202DE9FF4F83B09A467D
:10139000DDE9119793460446DDF84080FFF702FE31
:1013A000054694F83D0020287FD1192301224049A9
:1013B0002046009501F0FCFE002876D194F83C0010
:1013C000012872D0012084F83C0020680168C90718
:1013D00003D1016841F0010101602068016821F436
:1013E00000610160212084F83D00402084F83E0027
:1013F00000262664C4F82480A4F82A90608D2085F5
:101400002C48E062CDE9007553465A4620460499BF
:1014100001F054FE70B930E02A463946204601F00A
:1014200079FF58B1206C042804D12068016841F488
:1014300000710160012007B0BDE8F08F606A21688B
:1014400000780861606A401C6062218D491E89B283
:101450002185628D521E628522685369DB435B07DA
:101460000BD469B100781061606A401C6062208D05
:10147000401E2085608D401E6085208D0028CBD1C8
:101480002A463946204601F06DFE0028CAD154F89C
:101490003D0B016841F400710160202004F81E0931
:1014A000E67766770020C6E7FFE70220C3E7000083
:1014B000020010000000FFFF30B585B00021009150
:1014C0000191029103911E4D03681E4C12210322CB
:1014D0001D48AB4216D1A36943F00803A361A36979
:1014E000039203F008030493C023CDE90031694659
:1014F000FFF75EFCE06940F40010E061E06900F491
:10150000001019E0114DAB4217D1A36943F0080355
:10151000A361A369039203F0080304934FF44063AB
:10152000CDE900316946FFF743FCE06940F48000F3
:10153000E061E06900F48000049005B030BD000077
:101540000054004000100240000C014000580040D0
:101550000248816802781144816070473800002099
:10156000074810B5016841F010010160032000F048
:1015700075F8002000F006F800F024F8002010BDF7
:101580000020024070B50D4D04464FF47A71287862
:10159000B1FBF0F00A490968B1FBF0F000F0ECFA99
:1015A00048B9102C07D200222146501E00F036F810
:1015B00000206C6070BD012070BD0000380000206C
:1015C000440000200C4808B5816941F001018161A7
:1015D000816901F001010091C16941F08051C1614F
:1015E000C06900F0805000900448416821F0E0613B
:1015F00041F00071416008BD001002400000014050
:10160000002809DB00F01F02012191404009800001
:1016100000F1E020C0F8001170470000F0B40E4B5C
:101620001B680C46C3F30223C3F10705042D00D940
:101630000425191D072901D2002300E0DB1E012625
:1016400006FA05F1491E214099409E40761E16403B
:101650003143F0BC03F03CB90CED00E0064900F06A
:10166000070208684FF6FF03184040EA0220034AC9
:1016700010430860704700000CED00E00000FA0520
:101680002DE9F0470F46050061D0434E306800F069
:101690000700B84209D2306820F0070038433060B4
:1016A000306800F00700B84251D128683B4C8107F0
:1016B00012D5400703D5606840F4E0606060287888
:1016C000000703D5606840F4605060606068A968F6
:1016D00020F0F000084360602878C00728D06868D0
:1016E000012810D02168022810D0890700292EDA9D
:1016F000616821F0030101436160FFF753FC8046FC
:1017000041F288390DE021688903EFE78901EDE7AF
:10171000FFF748FCA0EB0801494502D90320BDE8CA
:10172000F0876068696800F00C00B0EB810FEFD1C2
:10173000306800F00700B8420BD9306820F007008D
:1017400038433060306800F00700B84201D0012013
:10175000E5E72878400705D56068E96820F4E0608F
:10176000084360602878000706D56068296920F47E
:10177000605040EAC100606000F038F86168084AD3
:10178000C1F30311515CC84006490860064800686F
:10179000FFF7F8FE0020C2E70020024000100240E0
:1017A00000530008440000203C0000200448054984
:1017B00000684968044AC1F30221515CC84070477F
:1017C000440000200010024010530008044805495E
:1017D00000684968044AC1F3C221515CC84070479F
:1017E00044000020001002401053000812A185B0F0
:1017F0000FC98DE80F0014A0144A006804905168C6
:10180000134801F00C03042B10D0082B0ED1C1F3A8
:101810008343C9031DF803000AD5516804AAC1F324
:101820004041515C0A4A5043B0FBF1F005B07047AB
:1018300008494843FAE700000203040506070809BF
:101840000A0B0C0D0E0F10100102000000100240D8
:1018500000127A0000093D002DE9F84F040070D015
:101860002078C04DC00749D06868C0F381000128C6
:1018700007D06868C0F38100022809D16868C003F6
:1018800006D52868800339D560680028E7D035E0A0
:101890006068B0F5803F0BD010B1B0F5A02F11D02B
:1018A000286820F480302860286820F4802002E036
:1018B000286840F480302860606890B1FFF772FBC0
:1018C00006460AE0286840F480202860F0E700BF60
:1018D000FFF768FB801B642873D828688003F7D55E
:1018E0000CE0FFF75FFB064605E000BFFFF75AFB81
:1018F000801B6428F0D828688003F7D420789A4E9B
:1019000080074FF001094FF0000839D5686810F0E2
:101910000C0F07D06868C0F38100022809D16868FD
:10192000C00306D42868800714D52069012808D18F
:1019300010E02069B0B1C6F80090FFF733FB07460E
:1019400005E00AE1FFF72EFBC01B0228C4D8286877
:101950008007F7D52868616920F0F80040EAC100E7
:1019600028600DE0C6F80080FFF71CFB074604E086
:10197000FFF718FBC01B022823D828688007F7D47C
:10198000207800072CD57948A169D9B1C0F800901A
:10199000FFF708FB074604E0FFF704FBC01B022823
:1019A0000FD8686A8007F7D571484FF4FA5100687C
:1019B000B0FBF1F0009000BF0098411E0091FAD2F8
:1019C0000EE080E0C0F80080FFF7ECFA074604E084
:1019D000FFF7E8FAC01B022875D8686A8007F7D4B9
:1019E0002078400760D5E8690027C00008D4E8697E
:1019F00040F08050E861E869012700F080500090D5
:101A00005C480168C90513D40168834641F48071BC
:101A10000160FFF7C7FA824606E000BFFFF7C2FA8F
:101A2000A0EB0A0064284ED8DBF80000C005F5D50D
:101A3000E06801280AD008B1052813D0286A20F0F0
:101A400001002862286A20F0040002E0286A40F0C1
:101A500001002862E06841F2883B98B1FFF7A2FAE2
:101A600082460BE0286A40F004002862EEE700BFDF
:101A7000FFF798FAA0EB0A0159455AD8286A80075F
:101A8000F6D50CE0FFF78EFA824605E0FFF78AFAFA
:101A9000A0EB0A0159454CD8286A8007F6D41FB13B
:101AA000E86920F08050E861E06988B36968C1F3B3
:101AB0008101022944D00228C6F8608004D0FFF7D3
:101AC00071FA044638E034E0FFF76CFA074604E0A8
:101AD000FFF768FAC01B02282BD828688001F7D4CA
:101AE000206AB0F5803F05D16868A16820F4003015
:101AF00008436860D4E908010843696821F4741157
:101B000008436860C6F86090FFF74CFA044606E0A8
:101B100025E000BFFFF746FA001B022809D8286815
:101B20008001F7D51BE000BFFFF73CFA001B02283D
:101B300002D90320BDE8F88F28688001F4D40EE0B4
:101B40000128F7D06868226A00F48031914204D1FC
:101B5000616A00F47010884201D00120EAE7002099
:101B6000E8E70000001002400000424280044242C8
:101B7000440000200070004010B5401EB0F1807F8E
:101B800001D3012010BD4FF0E02460610F216017E8
:101B900002F09EFE0020A06107202061002010BD01
:101BA0007047704770B590F83C20012A26D0012478
:101BB00080F83C40022280F83D2003685A689D6806
:101BC00022F070060A6832435A600D4B02689A424E
:101BD00008D0B2F1804F05D00A4B9A4202D00A4B8E
:101BE0009A4204D1496825F080031943916080F836
:101BF0003D40002180F83C10084670BD022070BDB9
:101C0000002C0140000400400008004010B5040012
:101C100003D094F83D0010B107E0012010BD002072
:101C200084F83C00204600F01FF8022084F83D00B4
:101C3000211D206802F012F8012084F8460084F883
:101C40003E0084F83F0084F8400084F8410084F8A6
:101C5000420084F8430084F8440084F8450084F886
:101C60003D00002010BD000008B501681948B1F121
:101C7000804F11D0184A914217D1C16941F0020139
:101C8000C161C069002200F00200009002211D2005
:101C9000FFF7C4FC1D2019E0C16941F00101C161D9
:101CA000C06900F00100009008BD0C4A9142FBD1D0
:101CB000C16941F00401C161C069002200F0040063
:101CC000009003211E20FFF7A9FC1E20BDE808405C
:101CD000FFF796BC001002400004004000080040DE
:101CE00090F83D10012901D001207047022180F8B1
:101CF0003D100168CA6842F00102CA6000680B49E1
:101D0000884208D0B0F1804F05D00949884202D0FE
:101D10000849884204D1816801F00701062903D0EF
:101D2000016841F00101016000207047002C014072
:101D3000000400400008004070B5044690F83C00E4
:101D4000012817D0012584F83C50022084F83D007A
:101D50002068826822F0770222F47F42826008685D
:101D6000502830D00DDC20284DD005DC98B3102849
:101D70003BD148E0022070BD302844D0402834D107
:101D800039E0602828D0702806D0B0F5805F2CD0CC
:101D9000B0F5005F29D10AE0CB68D1E901212068C4
:101DA00001F09FFF2068816841F0770109E0CB686E
:101DB000D1E90121206801F094FF2068816841F495
:101DC0008041816011E0CA684968206802F03EF8ED
:101DD0005021206807E016E0CA684968206802F0D0
:101DE00046F86021206801F086FF84F83D5000200D
:101DF00084F83C0070BDCA684968206802F026F883
:101E000040212068EFE7226801461046EBE7704763
:101E100070B50446006801694FF00005C9438907A1
:101E200015D4C168C943890711D4E91E0161012095
:101E30002077206880698007204602D0FFF7E7FFFF
:101E400004E000F0BBF8204600F04AF9257720684E
:101E50000169C943490717D4C168C943490713D465
:101E60006FF004010161022020772068806910F47E
:101E7000407F204602D0FFF7CAFF04E000F09EF842
:101E8000204600F02DF9257720680169C94309072C
:101E900016D4C168C943090712D46FF00801016163
:101EA000042020772068C0698007204602D0FFF711
:101EB000AEFF04E000F082F8204600F011F925772B
:101EC00020680169C943C90617D4C168C943C90656
:101ED00013D46FF010010161082020772068C069D9
:101EE00010F4407F204602D0FFF791FF04E000F09D
:101EF00065F8204600F0F4F8257720680169C943A9
:101F0000C90708D1C168C943C90704D1891E016145
:101F1000204600F06DF920680169C943090609D41B
:101F2000C168C943090605D46FF0800101612046EC
:101F3000FFF736FE20680169C943490609D4C16824
:101F4000C943490605D46FF040010161204600F005
:101F5000A1F920680169C94389060BD4C168C94346
:101F6000890607D46FF0200101612046BDE870406A
:101F7000FFF717BE70BD000000B585B000210091CD
:101F80000191029103910068B0F1804F10D109488E
:101F9000816941F0040181618069694600F00400B3
:101FA000049002200090019003900348FEF700FF88
:101FB00005B000BD0010024000080140704770B538
:101FC000044690F83C000D4601280AD0012084F810
:101FD0003C0042B1042A18D0082A2AD00C2A4DD13C
:101FE00039E0022070BD206801F08EFE2068816912
:101FF00041F0080181612068816921F0040181615B
:10200000206881692A69114311E0206801F0A4FE6B
:102010002068816941F4006181612068816921F44F
:1020200080618161206881692A6941EA02218161B8
:1020300024E0206801F0BCFE2068C16941F008017D
:10204000C1612068C16921F00401C1612068C169D2
:102050002A69114311E0206801F0D6FE2068C169A9
:1020600041F40061C1612068C16921F48061C161EE
:102070002068C1692A6941EA0221C161002084F80F
:102080003C0070BD10B5040003D094F83D0010B1C1
:1020900007E0012010BD002084F83C00204600F03D
:1020A0001EF8022084F83D00211D206801F0D6FDB5
:1020B000012084F8460084F83E0084F83F0084F84C
:1020C000400084F8410084F8420084F8430084F81A
:1020D000440084F8450084F83D00002010BD70479E
:1020E0007047000010B50446022249B104290ED001
:1020F000082913D094F84100012816D0012010BD02
:1021000094F83E000128F9D184F83E200FE094F8BD
:102110003F000128F2D184F83F2008E094F8400005
:102120000128EBD184F8402001E084F8412001220D
:10213000206801F0C9FD0F492068884203D1426C34
:1021400042F4004242642068884208D0B0F1804FD7
:1021500005D00949884202D00849884204D18168E3
:1021600001F00701062903D0016841F00101016077
:10217000002010BD002C0140000400400008004079
:1021800030B504460D460068002201F09DFD174B56
:1021900041F2111120688A10984209D1036A0B425A
:1021A00006D1036A134203D1436C23F40043436412
:1021B0002068036A0B4206D1016A114203D101680B
:1021C00021F00101016001203DB1042D08D0082D4E
:1021D00009D084F84100002030BD84F83E00FAE7C1
:1021E00084F83F00F7E784F84000F4E7002C014052
:1021F0001F4910B5884214D11E490878401C087048
:102200001D490878401C08701C490878401C08705B
:102210001B490878401C08701A490878401C08704F
:1022200010BD134948318842FAD1174C2078B0B913
:1022300001F0AAFCFEF71AFC1449012802D002287A
:102240000DD106E0086A8078062808D002F070FFF9
:1022500005E0086A81780629F8D102F06FFE402176
:102260000B48FEF795FE0028DAD00020207010BD44
:10227000640A002030000020310000202D000020E2
:102280002E0000202F00002004000020F800002075
:10229000000801407047704770470000F8B50268B9
:1022A00004461068D168536910F00F0F4FF0000515
:1022B00053D003F0010601F4907737435FD0C20793
:1022C00005D0CA0503D5226C42F001022264420700
:1022D00005D5DA0703D0226C42F00202226482079D
:1022E00005D5DA0703D0226C42F00402226402070B
:1022F00007D501F02002324303D0226C42F00802DD
:102300002264226C002A34D0800604D5880602D5C7
:10231000204602F0B9F920684069216CC0F38010B2
:10232000090700D430B3204602F08DF920684169D6
:1023300049061BD5416921F040014161A06BA8B15C
:1023400058494163A06BFEF7C5FB002811D0A06B74
:10235000416B01B0BDE8F040084783060FD58B06FE
:102360000DD52046BDE8F84002F08EB92046FFF7B3
:1023700093FFF8BD2046FFF78FFF2564F8BD266B5D
:102380002023012E52D1C60650D5CE064ED5106858
:1023900050680090506940062AD5A16B08684068D3
:1023A0000004000CEAD0A68D8642E7D9E085886952
:1023B000202818D0D06820F48070D060206841694F
:1023C00021F0010141612068416921F04001416132
:1023D00084F83E3025632068C16821F01001C16097
:1023E000A06BFEF753FBA08DE18D401A81B219E07E
:1023F000A08DE18D401A81B2E08D0028BED0002969
:10240000BCD0D06820F49070D0602068426922F07F
:102410000102426184F83E3025632068C26822F0E0
:102420001002C2602046FFF736FFF8BD05062BD527
:102430000D0629D594F83D002128F6D1A068B0F505
:10244000805F01D12069B0B1206A411C21622168FE
:1024500000784860E08C401E0004000CE084E4D169
:102460002068C16821F08001C1602068C16841F026
:102470004001C160F8BD206A0088C0F308005060C8
:10248000206A801C2062E5E74006F3D54806F1D5B6
:10249000D168204621F04001D16084F83D3000F041
:1024A000ABF9F8BDB545000870B5040004D094F848
:1024B0003D00002510B106E0012070BD84F83C50BD
:1024C000204600F023F8242084F83D002068C168ED
:1024D00021F40051C160204602F032F92068016900
:1024E00021F4904101612068416921F02A01416194
:1024F0002068C16841F40051C1602564202084F83F
:102500003D0084F83E00002070BD0000F0B585B0AD
:10251000002400940194029403940646374F036804
:10252000374902200322374DBB4226D18B6943F441
:1025300080438B618B6903F4804304938B6943F080
:1025400004038B618969039201F004010491010283
:10255000CDE9001069462846FEF72AFC2815CDE98A
:102560000004694628460294FEF722FC002201215D
:102570002520FFF753F825203CE0234FBB423BD1F9
:10258000CB6943F40033CB61CB6903F4003304938C
:102590008B6943F004038B618969039201F00401A4
:1025A00004910421CDE9001069462846FEF700FC9D
:1025B0000820CDE90004694628460294FEF7F8FB9E
:1025C000134D124828601020C5E901048020C5E998
:1025D00003046C61AC612846EC61FEF771FB08B145
:1025E000FEF742FA75630022114626206E62FFF75D
:1025F00015F82620FFF704F805B0F0BD00380140BB
:1026000000100240000801400044004080000240E9
:102610007C0B002090F83E30202B0ED159B152B1E6
:1026200090F83C30012B08D0012380F83C30002387
:10263000036302F0E1B801207047022070470000F8
:102640002DE9F041054600681749184E0027184C3F
:102650004FF4006888420ED1164801782088315422
:10266000401C80B22080404500D1278001221149C2
:102670001148FFF7CFFF11492868884211D110484F
:10268000017820883154401C80B22080404500D120
:102690002780BDE8F0410848012209494430FFF78E
:1026A000B9BFBDE8F0810000003801402C010020D6
:1026B0001800002054090020F40A002000440040C3
:1026C0005E0900202DE9F843044690F83D001F46BE
:1026D00016460D4620284CD1C5B1BEB194F83C0039
:1026E000012846D0012084F83C004FF00008C4F8CF
:1026F0004080212084F83D00FEF754FCA6848146EA
:10270000E684A068B0F5805F03D004E00120BDE856
:10271000F883206928B12E465FF0000584F83C80DC
:102720000EE00026FAE78021204602F080F8A0B9EA
:10273000AEB116F8010B21684860E08C401EE084C1
:10274000E08C4B464FF0000200970028EBD14FF091
:102750004001204602F06BF830B10320D7E735F88E
:10276000020BC0F30800E6E7202084F83D000020BB
:10277000CDE70220CBE7000070B5044690F83D009D
:10278000202830D169B362B394F83C0001282AD0E4
:10279000012084F83C002162A284E28400252564A3
:1027A000212084F83D00636B10489862636B1048E9
:1027B000D862636B0F481863606B134645632668E5
:1027C000606B321DFEF7AAFA21686FF040000860C6
:1027D00084F83C502068416941F08001416100204B
:1027E00070BD012070BD022070BD00000F460008C2
:1027F0003D460008C545000800680349884202D1EB
:102800000249002008707047004400403400002056
:102810007047000010B5024600F07AF820B106A01B
:1028200002F046F8002010BD9068D0E90220C1E90E
:102830000020012010BD00005B09686561705D65C6
:1028400072726F723A517565756520697320656D96
:102850007074790D0A00000070B5061E01DC11A02D
:1028600014E00C2002F08EFA05000ED0F4000834BB
:10287000204602F087FAA86058B12146FDF77BFC9C
:102880000020C5E90060284670BD10A002F010F8D5
:1028900005E016A002F00CF8284602F0F3F900203B
:1028A00070BD00005B09686561705D6572726F7272
:1028B0003A6D61785F73697A6520697320696C6C21
:1028C000656167656C210D0A000000005B096865A1
:1028D00061705D6572726F723A6D616C6C6F6320CE
:1028E0006661696C6564210D0A0000005B0968651A
:1028F00061705D6572726F723A656C6573206D61AF
:102900006C6C6F63206661696C6564210D0A000060
:10291000002802D0406808B10020704701207047AD
:10292000002803D003C8814201D101207047002054
:10293000704700002DE9F04105460124FFF7E8FF4C
:1029400028B122A001F0B4FF0020BDE8F081D5E954
:10295000012000EBC202D2E90067D0E90220C1E900
:102960000020A868816821A001F0A2FF6868401ECD
:10297000686001D008231EE0A96800208860A9686B
:10298000C86021E0A968600003EBC00E51F830C0B8
:1029900051F80EE0F44502DA824200D0401C51F8B2
:1029A0003020B2420BDD01EBC40401EBC0014968E9
:1029B000C4E9002104466A68B2EB440FE2DAA86871
:1029C00000EBC400C0E900670120BEE75B09686551
:1029D00061705D6572726F723A51756575652069D7
:1029E0007320656D707479210D0A00005B096865BC
:1029F00061705D696E666F3A506F702025640D0AD4
:102A0000000000002DE9F04105460E461446104630
:102A1000FFF786FF28B114A001F04AFF0020BDE8AF
:102A2000F0813246294618A001F042FF6068401C40
:102A300006E000BF01EBC0007968C0E9003150102A
:102A400000EBD072A168531001EBC3073B68AB42A7
:102A500001DA0128EEDC01EBC000C0E90056606835
:102A6000401C60600120DAE75B09686561705D65A4
:102A700072726F723A51756575652069732046757B
:102A80006C6C210D0A0000005B09686561705D696E
:102A90006E666F3A70757368207072696F726974D0
:102AA000793A256420646174613A25640D0A000056
:102AB00010B50A784B78120142EA1312028013050E
:102AC00002D542F4704202804B788A7803F00F03FB
:102AD00042EA03224280130502D542F4704242804A
:102AE000CA780B79120342EA03124B7942EA1312B5
:102AF000114B4260140301D51A4342604A798C7924
:102B00001207120B42EA0422CC792243826014039A
:102B100001D51A4382600A8952BA82814A8952BA1F
:102B2000C2818A8952BA0282CA8952BA4282098A09
:102B300049BA818210BD00000000F0FF08B50021F5
:102B40008DF800106A460D2100F03CF918B99DF887
:102B50000000102801D0012008BD002008BD10B5DC
:102B600086B00C466B461222102100F03BF910B1E2
:102B7000012006B010BD69462046FFF799FF0020EE
:102B8000F7E700002DE9FC41054601200C468DF8D1
:102B9000040001AA0821284600F053F948B91E2074
:102BA000FEF7F4F86B4603220021284600F01AF9DC
:102BB00010B10120BDE8FC819DF800009DF80110D6
:102BC000000440EA01209DF802100843E061010280
:102BD00002D540F07F40E061FDF74BFD2849FDF74D
:102BE0005FFB8046A062B4F91200FDF742FD41464A
:102BF000FDF724FB0546B4F90E00FDF73AFD294622
:102C0000FDF7C4FAE56A064641462846FDF716FB7D
:102C10003146FDF713FB0746B4F90C00FDF729FD1B
:102C20002946FDF70BFB0646B4F91400FDF721FD1C
:102C30004146FDF703FB0546B4F91000FDF719FD09
:102C40002946FDF7A3FA4146FDF7F8FA0546A068C4
:102C5000FDF70FFD2946FDF799FA4146FDF7EEFA1B
:102C600005466068FDF705FD2946FDF78FFA3146F8
:102C7000FDF78CFA3946FDF789FA6062002099E782
:102C8000000078487CB5054602200C468DF804000B
:102C900001AA0821284600F0D4F848B90520FEF71B
:102CA00075F803226B461146284600F09BF808B1E0
:102CB00001207CBD9DF800009DF80110000440EA51
:102CC00001209DF802100843A061010202D540F0E6
:102CD0007F40A061FDF7CDFC6FF01201FDF71EFBF8
:102CE0000546E062B4F90200FDF7C3FC2946FDF792
:102CF000A5FAFDF717FD06460D46B4F90000FDF7ED
:102D0000C6FC4FF0FF32FDF79DFC32462B46FDF727
:102D100011FBFDF74BFD206200207CBDF8B5144689
:102D20000D460646FFF70AFF00283AD10520FEF7B8
:102D30002DF800208DF800000520FEF727F8294621
:102D40003046FFF70CFF0520FEF720F80422294645
:102D5000304600F027F80520FEF718F86A462821CB
:102D6000304600F02FF89DF8000010F080038DF839
:102D7000003002D0802B02D006E0002200E080224A
:102D80002946304600F04DF80520FDF7FFFF0422EC
:102D90002946304600F035F80520FDF7F7FF85F8A5
:102DA0003340F8BD38B514460D468DF800206A460C
:102DB000062100F046F808B1012038BD85F8304002
:102DC000002038BD3EB54FF47A7300920124CDE95E
:102DD00001430A462346EF21FEF7AEF9002800D052
:102DE00001203EBD3EB54FF47A74CDE900320A466B
:102DF00002940123EF21FEF79FF9002800D0012063
:102E00003EBD38B514460D468DF800206A460921AE
:102E100000F017F808B1012038BD85F832400020D5
:102E200038BD38B514460D468DF800206A46072196
:102E300000F007F808B1012038BD85F831400020C6
:102E400038BD3EB54FF47A7300920124CDE90143B9
:102E50000A462346EE21FEF797FA002800D001200B
:102E60003EBD00002DE9F041054690F833000427EF
:102E7000DFF8DC80374E384C012802D0022807D01A
:102E80000EE029463548FFF7FDFE2946334805E0A8
:102E900029463348FFF7F6FE29463148FFF772FE10
:102EA000686AFDF73FFC00224346FDF75CFB002209
:102EB0002C4BFDF74BFC0BD22078000708D40520E3
:102EC00039463268FFF79EFD207840F0080116E091
:102ED000686AFDF727FC00224346FDF744FB002209
:102EE000214BFDF74BFC0ED2207840070BD438461F
:102EF00003213268FFF786FD207840F0040121703D
:102F00001AA001F0D5FC204A296A012091420AD971
:102F10002278920707D402213268FFF773FD2078E8
:102F200040F002010CE0194A91420FDD2178C907F7
:102F30000CD101463268FFF765FD207840F00101B1
:102F40002170BDE8F04109A001F0B2BCBDE8F081FC
:102F500000005940280000202C00002068090020B3
:102F6000BC09002000C08240003091405B096865C8
:102F700061705D696E666F3A6576656E745F666CEA
:102F800061673A25780D0A00000070C100004842D0
:102F9000FEE701684A69D24352050FD46FF480629C
:102FA0004A61002140F8301F202242738173026978
:102FB00042F0040202610173012070470020704753
:102FC0002DE9F84F0446006889460B9D0168984634
:102FD000174641F4806101602068016841F4807106
:102FE000016000954FF0011B0022594620460A9BC4
:102FF00000F0DEF84FF4007A40B120680068C005A8
:1030000001D5C4F840A00320BDE8F88F216809F07D
:10301000FE0008612B46284920460A9A00F0FCF879
:10302000F0BB20684169806900902A4620460A99D1
:1030300000F070F940B1206C04283AD12068016892
:1030400041F40071016034E0FEB2B8F1010F09D023
:103050002168380A08612A4620460A9900F05AF980
:103060000028E8D1206806612A4620460A9900F027
:1030700051F90028DFD12068016841F480710160B6
:1030800000950022594620460A9B00F091F800283E
:10309000B3D1216809F0FF0040F00100086100E0B1
:1030A00007E02B46044920460A9A00F0B5F80028AC
:1030B000AAD00120A8E70000020001002DE9F84392
:1030C000044600680D46DDE90897016898461646F3
:1030D00041F4807101604B4600224FF001112046FF
:1030E000009700F065F848B120680068C00502D577
:1030F0004FF4007020640320BDE8F883216805F0D8
:10310000FE0008613B464A461549204600F084F817
:1031100088B920684169806900903A46494620464E
:1031200000F0F8F848B1206C042804D12068016848
:1031300041F4007101600120DEE7F5B2B8F1010F42
:1031400009D02168300A08613A464946204600F015
:10315000E1F80028E7D1206805610020CCE70000F5
:103160000200010070B516460D4604460DE02046EB
:10317000FFF70FFF08B1012070BD681C05D0FDF7F7
:1031800011FF801BA84207D835B120684069C043B1
:103190004007ECD4002070BD002044F8300F2021FF
:1031A0006173A073216941F0200121612073E2E77E
:1031B0002DE9F0471E4690460D460446C1F30747E9
:1031C000DDF8209008E0701C06D0FDF7EBFEA0EBC8
:1031D0000900B0420FD876B12068012F18D080695D
:1031E00025EA00000004000C14D000214145EAD07B
:1031F0000020BDE8F087002044F8300F20216173E3
:10320000A073216941F02001216120730120F0E7C2
:103210004069E5E70121E9E72DE9F0479A46914643
:103220000E46044600254FF02008C1F3074725E06D
:1032300020684069C043400514D42068016841F407
:103240000071016021686FF480604861256384F833
:103250003D8084F83E50206C40F00400206484F8E7
:103260003C501FE0B9F1FF3F08D0FDF79BFEA0EBFB
:103270000A0149450CD8B9F1000F09D02068012F87
:1032800013D0806926EA00000004000C0BD0CFE7C1
:1032900044F8305F84F80D80A573206940F0200069
:1032A000206125730120BDE8F0874069EAE72DE938
:1032B000F041002590460E460446202717E040695D
:1032C000C043C0060CD454F8301B6FF010004861A6
:1032D00044F810596777A577206A2062257717E0B0
:1032E000FDF760FEA0EB0800B04208D83EB12068B0
:1032F0004169C9434906E2D40020BDE8F08144F8A1
:10330000305F6773A573206940F02000206125734A
:103310000120F2E770B516460D4604460DE0204642
:10332000FFF737FE08B1012070BD681C05D0FDF71E
:1033300039FE801BA84207D835B120684069C043D8
:103340000006ECD4002070BD002044F8300F20218E
:103350006173A073216941F0200121612073E2E7CC
:103360002DE9F0472F4C0027207810B32E4E306AFD
:10337000807802281DD1F0682C49406AFCF790FF44
:103380002B4D617845F82100491CC8B260700128B6
:1033900010D0DFF8A090DFF8A0A00A280CD005EB31
:1033A0008000083803C8FCF743FF484501D8504562
:1033B00000DD6770BDE8F0876770B046706AFDF7A2
:1033C000B1F904460E46686AFDF7ACF90746D8F82D
:1033D00008000D46406AFDF7A5F90022174BFDF7DE
:1033E000C2F83A462B46FDF746F822463346FDF72B
:1033F00042F8FDF7DBF9484501D25045DADB104CC5
:103400002078C006D6D40F4A022005211268FFF7A3
:10341000F9FA207840F010012170BDE8F0470AA0C9
:1034200001F046BA25000020F80000200000C84244
:103430002C090020000020C100002041000059405C
:103440002C000020280000205B09686561705D6920
:103450006E666F3A6576656E745F666C61673A2575
:10346000780D0A00094808B5416941F00101416140
:103470004069002200F00100009011461120FEF783
:10348000CDF8BDE808401120FEF7BAB800100240A0
:103490002DE9F04385B0002525480095019502955A
:1034A0000395816941F020018161816901F020016A
:1034B0000491816941F004018161816901F0040195
:1034C0000491816941F0080181618069DFF86480BD
:1034D00000F0080004900122B0214046FDF75DFD98
:1034E000DFF8549040F20317012239464846FDF7B1
:1034F00054FD0124B020CDE900040226CDE90246A6
:1035000069464046FDF754FC4020CDE90005694678
:1035100040460295FDF74CFCCDE90074CDE902462A
:1035200069464846FDF744FC05B0BDE8F08300005D
:103530000010024000080140000C01400D4810B589
:103540000B4901600C49416000214FF480428160C9
:10355000C0E9031241618161C1610162FDF728FD8B
:10356000002803D0BDE81040FDF77EBA10BD000072
:103570000054004068090020A08601000D4810B5E5
:103580000B4901600C49416000214FF48042816089
:10359000C0E9031241618161C1610162FDF708FD6B
:1035A000002803D0BDE81040FDF75EBA10BD000052
:1035B00000580040BC090020A086010010B58EB064
:1035C00000240794089409940A940B941C216846DB
:1035D0000C94FCF7D0FD1E484FF08041016007219C
:1035E000C0E9011440F28F11C0E903148461FEF7B1
:1035F0000DFB08B1FDF738FA4FF48050079007A98A
:103600001348FEF799FB08B1FDF72EFA1048FEF7B4
:1036100039FD08B1FDF728FA0B940BA90C480C945E
:10362000FEF7C0FA08B1FDF71FFA6020CDE90004EB
:1036300002940422694606480494FEF7C0FC08B1CF
:10364000FDF712FA0248FEF797FC0EB010BD00001D
:103650001C0A002010B586B000241848009401947C
:1036600002940394049414490594016041F61F41A7
:10367000C0E9011440F2CF71C0E9031480218161D7
:10368000FEF7C4FA08B1FDF7EFF94FF4805000904F
:1036900069460A48FEF750FB08B1FDF7E5F90494C6
:1036A00004A906480594FEF77DFA002801D0FDF72D
:1036B000DBF906B010BD000000040040640A0020E1
:1036C00010B586B000241748009401940294039426
:1036D000049413490594016041F61F41C0E90114A7
:1036E0006321C0E903148461FEF790FA08B1FDF785
:1036F000BBF94FF48050009069460A48FEF71CFB66
:1037000008B1FDF7B1F9049404A906480594FEF741
:1037100049FA002801D0FDF7A7F906B010BD000056
:1037200000080040AC0A00200C4810B50A490160AE
:103730004FF4E1314160002181600C22C160C0E999
:1037400004128161C161FEF7AFFE002803D0BDE81D
:103750001040FDF789B910BD00380140F40A00207F
:103760000C4810B50A4901604FF4E1314160002175
:1037700081600C22C160C0E904128161C161FEF761
:1037800093FE002803D0BDE81040FDF76DB910BDD1
:1037900000440040380B0020FEE7000070B5284CC4
:1037A000206900F0B9F9606900F0B6F9254D0026EE
:1037B000A878052803D3AE70E06900F07BFB687839
:1037C000052802D36E70FFF7CBFD2878032802D9B5
:1037D00000F0E6FC2E70E878012808D9EE70A068A9
:1037E000FFF740FBE068FFF73DFB00F003FD2879A1
:1037F00001281BD92E71206A8078022816D1E06832
:10380000114E406A3146FCF74BFD0546A068314633
:10381000406AFCF745FD616AFCF70AFD01462A464D
:10382000606800F04DF86068C069A062206A807826
:10383000042801D1E06AA062BDE8704001F040BDFB
:10384000F80000202D0000200000C842FEE7000024
:10385000002202210148FDF7A0BB0000000C01403E
:10386000002201210148FDF798BB0000000C014037
:10387000002280210148FDF790BB000000080140B4
:103880000021016041608160C160C161016207493E
:10389000016107494161074981610749416207495F
:1038A00081624FF07F51C162704700001F852B3F3E
:1038B0009A99193E9A99993E0000C8420000C8C2E0
:1038C0002DE9F04104464FF00008C4E9001210460B
:1038D000FCF7AEFCA060E16AFCF784FF08D2E06A66
:1038E000A16880F00040FCF77DFF01D2C4F8088099
:1038F000616A2068FCF74AFC6168FCF773FF07D334
:10390000A16A2068FCF742FC6168FCF775FF01D2F0
:10391000002605E00126A168206AFCF737FC20623A
:10392000D4E902512846FCF783FCA169FCF786FC28
:1039300007463046FCF79DFE6169FCF77FFC216A73
:10394000FCF77CFC064629462069FCF777FC3146EB
:10395000FCF71CFC3946FCF719FCE06110F1FF4F45
:1039600002D3C4F81C8003E00349884200DDE16112
:10397000E560BDE8F08100000000C8432DE9F04794
:10398000264FDFF89C800C0006464FF4C87A4FF0B3
:10399000000901D5002402E0544500DD54462148C9
:1039A000006884632046FCF772FE00221E4BFCF781
:1039B00068FD00221D4BFCF7D6FDFCF7F7FE05461F
:1039C0003168FCF70FFF05D0356044B101213E207E
:1039D00000F0BCFD54450BD1012038700AE0D8F846
:1039E00020008078062816D000213E2000F0AEFD91
:1039F00087F80090D8F820008078062809D10C4C70
:103A00002078012805D102213E2000F09FFD84F896
:103A10000090BDE8F0870221E7E7000025000020C4
:103A2000F80000201C0A00200000594000007940E6
:103A30001000002010B5044604210348FEF7A0FB47
:103A40000020207110BD00001C0A00202DE9F0416B
:103A5000054600F023F800212846FFF78FFF0D48A8
:103A60000668B06A401CFCF723FE0746F06A0C4665
:103A7000401CFCF71DFE02460B4600200649FCF7E1
:103A800072FD3A462346FCF76EFDFCF78FFEA860F8
:103A9000BDE8F0811C0A0020882A914110B5044637
:103AA00004210348FEF71EFB0120207110BD000019
:103AB0001C0A00207047000010B504464078084BEF
:103AC000012802D0022803D007E00122102101E0E2
:103AD000012220211846FDF760FA0020207010BD59
:103AE000000801404170FFF7E7BF000010B5044631
:103AF0004078084B012802D0022803D007E00022BA
:103B0000102101E0002220211846FDF746FA01208D
:103B1000207010BD000801400178012903D0002960
:103B200003D1FFF7C9BFFFF7E1BF704710B50446E7
:103B3000C1F38000C1F340022070627001F0010106
:103B4000A17038B108B1FFF793FE607828B1012861
:103B500006D007E0FCF764FFF7E7FCF759FF01E048
:103B6000FFF77EFEA07828B1012807D1BDE81040FC
:103B7000FFF76EBEBDE81040FCF742BF10BD00214C
:103B8000FFF7D4BF7047000070B5134C4FF001052C
:103B90006068401C6060A178607801430F484FF076
:103BA000400103D0FDF7F4F970B10BE0FDF7F0F937
:103BB00010B1FF20207005E0D4E90101401A3C2833
:103BC00001D92570657070BD6078A07000206070AC
:103BD0006068A06070BD0000040000200008014083
:103BE000FDF7B6BC30B58FB028216846FCF7C3FAA4
:103BF00014210AA8FCF7BFFA01210804CDE900103E
:103C00000024029402250491CDE907504FF4E010FE
:103C100009906846FDF720FE08B172B6FEE70F2056
:103C2000CDE90A054FF48060CDE90C4002210AA8D5
:103C30000E94FDF725FD002801D072B6FEE70FB007
:103C400030BD70470148FEF7E3B80000640A002069
:103C50000148FEF7DDB80000AC0A0020F0B50268AC
:103C6000164B174C174D4FF08047984205D0B8427D
:103C700003D0A04201D0A84203D122F070064A68C6
:103C80003243984205D0B84203D0A04201D0A842A6
:103C900003D122F44074CA6822434C6922F08002A6
:103CA000224302608A68C2620A688262984201D135
:103CB0000969016301214161F0BD0000002C014050
:103CC000000400400008004010B501F01F0301216E
:103CD000046A99408C430462016A9A40114301626C
:103CE00010BD10B5846842EA032224F47F440A43DD
:103CF0002243826010BD826822F070020A4342F0C3
:103D0000070181607047000030B5026A22F00102AD
:103D10000262026A4368846924F073050C682C43CC
:103D200022F002058A682A430A4DA8420BD122F0EC
:103D30000805CA6823F440732A434D6922F004023F
:103D40001D438B692B434360846149684163026270
:103D500030BD0000002C014030B5026A22F0100294
:103D60000262026A436884690D6824F4E64444EA06
:103D700005248D6822F0200242EA05120B4DA8426C
:103D80000ED1CD6822F0800242EA05124D6923F47B
:103D9000406343EA85038D6922F0400243EA8503CC
:103DA0004360846149688163026230BD002C014038
:103DB00030B5026A22F480720262036A4268C46902
:103DC00023F4007324F073050C682C438D6843EAD8
:103DD00005230C4DA8420ED1CD6823F4006343EABD
:103DE00005234D6922F4405242EA05128D6923F4FD
:103DF000806342EA05124260C4614968C16303629C
:103E000030BD0000002C014030B5026A22F480521F
:103E10000262046A4268C3690D6823F4E64343EA18
:103E200005238D6824F4005444EA0534064DA84265
:103E300004D14D6922F4804242EA85124260C36196
:103E400049680164046230BD002C014010B5036A6A
:103E5000046A24F001040462846924F0F00444EA52
:103E6000021423F00A020A438461026210BD10B5F5
:103E7000036A23F0100303628369046A23F4704326
:103E800043EA023224F0A00343EA01118261016295
:103E900010BD0021017041800171417101817047A5
:103EA000002101704180017141714A1EC28001816F
:103EB000704700000178012926D14179491CC9B217
:103EC00041713C2911D30179491CCAB20021027108
:103ED00041713C2A09D3428842F20F73521C92B2BC
:103EE000428001719A4200D94180B0F90610491C04
:103EF0000BD0B0F908100A4A002909DD126A92783D
:103F0000042A01D1491E018170474FF0FF31FAE7C1
:103F1000FAD1106A80780428F6D101F09BB900002C
:103F2000F80000201CB506A10A23D1E90001CDE963
:103F30000001072269460448FEF7C4FB1CBD0000CF
:103F4000A55A0480EE5AA500F40A002070B53A4C38
:103F50003A4DE0682946406AFCF7A2F9FCF7CEFB2F
:103F600081B2802000F0F2FAE0682946406AFCF74E
:103F700097F9FCF7C3FB81B2802000F0FBFAA06840
:103F80002946406AFCF78CF9FCF7B8FB81B2842023
:103F900000F0DCFAA0682946406AFCF781F9FCF7DA
:103FA000ADFB81B2842000F0E5FAE0682946006AA2
:103FB000FCF744F9FCF789FB81B2882000F0C6FACF
:103FC000E0682946006AFCF739F9FCF77EFB81B20C
:103FD000882000F0CFFAA0682946006AFCF72EF985
:103FE000FCF773FB81B28C2000F0B0FAA068294680
:103FF000006AFCF723F9FCF768FB81B28C2000F023
:10400000B9FAE0680E49406AFCF74AF90D49FCF735
:1040100012F9FCF773FB81B2092000F097FAE0680F
:104020000949006AFCF7B2F8FCF768FBBDE870408C
:1040300081B20A2000F08ABAF80000200000204176
:104040000000C842000096440000704170B5184C52
:10405000184EE0683146406AFCF722F90546A06830
:104060003146406AFCF71CF92946FCF7E1F8FCF7F9
:1040700045FB85B23146606AFCF7E0F8FCF73EFB91
:1040800081B20F2000F062FA3146606AFCF7D6F880
:10409000FCF734FB81B20F2000F06CFA29460E20A9
:1040A00000F054FA2946BDE870400E2000F062BAD4
:1040B000F800002000002041084810B5416900695F
:1040C0000978007841EA400421463A2000F03EFA9F
:1040D0002146BDE810403A2000F04CBAF80000201C
:1040E00010B5114C206A81783D2000F043FA0F4949
:1040F000A06AFCF7A3F8FCF701FB81B240F23D1087
:1041000000F038FA6FF00101E06AFCF707F9FCF7FC
:10411000F5FA84B22146392000F02CFA2146BDE898
:104120001040392000F012BAF800002000002041B1
:1041300010B51A4CE06941880B2000F007FAE069DD
:1041400041880B2000F016FAE06901790C2000F09C
:10415000FDF9E06901790C2000F00CFAE069417981
:104160000D2000F0F3F9E06941790D2000F002FA2A
:10417000E069C188372000F0E9F9E069C18837209B
:1041800000F0F8F9E0690189382000F0DFF9E06912
:104190000189BDE81040382000F0ECB9F80000209B
:1041A00010B5FFF7D3FEFFF787FFFFF74FFFFFF7CD
:1041B000BFFFBDE81040FFF793BF130A4354084404
:1041C000427070471CB508A20A23D2E90012CDE95B
:1041D0000012010A8DF805108DF8060007226946C5
:1041E0000348FEF76FFA1CBDA55A048003000000C7
:1041F000F40A002070B586B0142235A16846FBF79A
:10420000A1FF384C384EE0683146406AFCF748F868
:10421000FCF774FA82B205216846FFF7CEFFA0686A
:104220003146406AFCF73CF8FCF768FA82B2072195
:104230006846FFF7C2FFA0683146406AFCF730F8D5
:10424000616AFBF7F5FFFCF759FA82B2092168466B
:10425000FFF7B3FFE068254D006A2946FBF796FF9C
:10426000FCF74CFA82B20B216846FFF7A6FFA06864
:104270002946006AFBF78AFFFCF740FA82B20D215B
:104280006846FFF79AFF606AFCF738FA82B20F219E
:104290006846FFF792FFE0683146406AFCF700F895
:1042A0000546A0683146406AFBF7FAFF2946FBF74E
:1042B000BFFFFCF723FA82B211216846FFF77DFFAA
:1042C0000A23132269460A48FEF7FCF906B070BDBE
:1042D000A55A10847F0000000000000000000000CC
:1042E00000000000F80000200000C84200007041FB
:1042F000F40A00202DE9F041604C236A99780629E0
:1043000024D085790022002D20D0818849BA39290E
:1043100013D00F291CD0372927D03A292DD040F2AD
:104320000316771EB41E89B3242958D022297DD0C4
:10433000232976D0362975D09CE0B0F8070040BA22
:10434000FCF7A0F90221FBF7E9FFE062BDE8F0818C
:10435000B0F8070040BAFCF7ABF90022484BFCF775
:1043600002F9FCF723FA6062F0E7B0F80700E169B0
:1043700040BAC880E1690881E8E7B0F8070040BAB0
:1043800000F00201012902D9012101E007E000212A
:10439000226900F00100117061690870D6E7B0F879
:1043A000070040BA01280BD002280BD0032807D001
:1043B000B04209D10221184600F016FE02203FE06B
:1043C000022120E003211EE0B84205D10321184656
:1043D00000F00AFE032033E0A042EBD0B6E7B0F8CD
:1043E000070040BA01280BD002280BD0032807D0C1
:1043F000B0420DD10421184600F0F6FD04201FE064
:10440000042100E00521BDE8F041184600F0ECBDB4
:10441000B84208D10521184600F0E6FD05200FE05E
:1044200004E011E019E0A042E4D08FE7B0F8070003
:10443000012145BA184600F0D7FDA54286D10120DA
:10444000BDE8F04100F0C4BBB0F8070040BA012855
:104450008AD1BDE8F04100F05DBDB0F8070040BA78
:10446000012801D0A04287D1BDE8F04100F088BE0C
:10447000521CD2B2AA42FBD368E70000F800002029
:1044800000002440F0B52D49C1B008884B88834214
:1044900040D02B4D4FF400662A5CA52A06D0401C64
:1044A00080B20880B04235D1002042E0024683420B
:1044B000A3EB020201D802F5006297B2052F29D3BF
:1044C000821C92B2B24202D3A2F5006292B2AC5CFC
:1044D000E41CA7421ED300224FEA0D0715F800C0C6
:1044E00007F802C0401C521C80B292B2B04200D108
:1044F0000020042A10D0F1D904F1030C624516D132
:1045000008809DF80300812801D0832802D1384615
:10451000FFF7F0FE41B0F0BD9DF80040A52C08D19A
:104520009DF801405A2C04D19DF80240D6E7FF2A9D
:1045300001D90880EEE79842D0D1EBE716000020C1
:104540002C0100200146362000F014B8074A8223CF
:10455000D370030A13715071080A9071D1710A2344
:10456000082202490248FEF7ADB800001A000020F8
:10457000F40A00200C4A10B58223D370030A137189
:104580005071080A9071D171084908780128FDD04E
:1045900001200870082204490548FEF7EDF8BDE83F
:1045A00010400220FCF7F2BB1A000020340000206B
:1045B000380B002010B5406A0021C185C184FDF789
:1045C0006BFE10BD70B5446A2068406994F83D10D8
:1045D000C0F3C0100025212904D118B1E58420467C
:1045E00000F049F82068406994F83E10C0F380104C
:1045F000222904D118B1E585204600F024F8206C6A
:1046000040F0100020642046FDF746FE70BD10B556
:104610000146406A0968096889060CD40021C184F2
:1046200001684A6922F080024A610068C16841F06D
:104630004001C16010BDFEF7DFF810BD10B5406A43
:10464000FEF7E6F810BD0168CA6822F49072CA60ED
:1046500001684A6922F001024A61016B012904D113
:104660000168CA6822F01002CA60202180F83E105A
:104670000021016370470168CA6822F0C002CA6065
:10468000202180F83D10704708B590F83E1022298F
:1046900001D0022008BD82684FF480539A4201D1B4
:1046A000016921B1816A9A421BD04AB10AE00268CD
:1046B000816A5268C2F308020A80816A891C08E094
:1046C000026972B10268526802F07F020A70816A60
:1046D000491C8162C18D491E0904090CC18503D0A2
:1046E00019E002685268F1E70168CA6822F0200206
:1046F000CA600168CA6822F48072CA6001684A69A7
:1047000022F001024A61202180F83E10016B01294C
:1047100003D0FDF795FF002008BD0021016301686B
:10472000CA6822F01002CA6001680A68D20602D57F
:104730000A6849680091818DFDF7ADFDEBE7000047
:1047400070B5044600680169E26821F440511143E4
:1047500001612169A0680843616908432168CA684A
:1047600041F20C639A430243CA6020684169A2691E
:1047700021F44071114341611E492068884202D1F1
:10478000FDF724F801E0FDF711F800EBC00101EBA3
:104790000012606864218000B2FBF0F3B3FBF1F318
:1047A0006FF018067343B2FBF0F5B2FBF0F605EBC1
:1047B0008305322303EB0515B5FBF1F5B6FBF1F6E6
:1047C00005F0F00505EB0615B2FBF0F6B2FBF0F0D4
:1047D000B0FBF1F06FF01802504306EB800003EBE2
:1047E0000010B0FBF1F0216800F00F002844886051
:1047F00070BD00000038014081628285C2850021C1
:104800000164222280F83E2080F83C100168CA68CA
:1048100042F48072CA6001684A6942F001024A614A
:104820000068C16841F02001C160002070472DE997
:10483000F041984617460E460446069D1DE0681C4A
:104840001BD02DB1FCF7AEFBA0EB0800A84214D999
:104850002068C16821F4D071C1602068416921F0ED
:1048600001014161202084F83D0084F83E000020D1
:1048700084F83C000320BDE8F0812068006836EA37
:10488000000004D00020B842D9D00020F3E7012076
:10489000F9E700000148FDF701BD0000F40A00201F
:1048A0000148FDF7FBBC0000380B0020FEE70000CC
:1048B0000FB4054B10B503A9044A029800F028F87C
:1048C00010BC5DF814FB0000694C00084800002093
:1048D0000907090E002804DB00F1E02080F800142D
:1048E000704700F00F0000F1E02080F8141D7047C1
:1048F00002E008C8121F08C1002AFAD170477047A9
:10490000002001E001C1121F002AFBD17047000006
:104910002DE9FF4F8DB09B460F460446002606E06A
:1049200025280BD05A460F999047641C761C207896
:104930000028F5D111B03046BDE8F08F0025A8461B
:104940000122984900E0054314F8013F203B02FA98
:1049500003F00842F7D120782E2817D114F8010F60
:1049600045F004052A280ED06FF02F022078A0F120
:10497000300109290AD808EB880102EB410100EB5C
:104980000108641CF2E757F8048B641C20786C283B
:104990000DD004DC4C2812D06A2811D104E0742810
:1049A0000DD07A280CD10AE045F4001507E06178B3
:1049B00045F48015814202D1641C05F58015641C04
:1049C0002278692A45D008DC002AB3D0582A69D059
:1049D000632A10D0642A08D13BE0702A67D0732A7A
:1049E00013D0752A5CD0782A5CD010465A460F99AD
:1049F0009047761CD3E017F8040B8DF800000020D8
:104A00008DF80100E946012003E057F8049B4FF0C0
:104A1000FF3069074FF0000501D40AE06D1C4545E1
:104A20000DDA8542FADB19F805100029F6D106E007
:104A30006D1C8542FCDB19F805100029F8D12E44C5
:104A400004E019F8010B5A460F9990476D1EF8D2F1
:104A5000A5E00A200021CDE90801C5F30250022893
:104A60000DD001CFC117031E71F100030DDA4FF015
:104A7000000CD0EB0C006CEB01012D2308E0FF1DB6
:104A800027F00707F7E80201EDE72B0504D52B23F4
:104A90008DF8283001233BE0EB0739D02023F7E7DE
:104AA0000A2000E010200021CDE9080107E01020D5
:104AB000002145F00405CDE908014FF00808C5F3D1
:104AC000025002280FD001CF00214FF0000A2B071F
:104AD0001FD5702A0DD0DDE908C38CF0100C5CEAFC
:104AE000030C0CD015E0FF1D27F00707F7E80201C3
:104AF000EBE740228DF828204FF0010A0BE050EA46
:104B0000010306D030238DF828308DF829200223A8
:104B10009A46582A04D024A20DF120090B9209E0EC
:104B200026A2F9E7DDE90823FBF770FE0B9B9B5CEF
:104B300009F8013D50EA0102F4D1ADEB0900203043
:104B40000890680701D44FF001080899884502DDF4
:104B5000A8EB010000E000208046002506E00AA83E
:104B60005A46405D0F9990476D1C761C5545F6DB03
:104B700004E030205A460F999047761CB8F10001A6
:104B8000A8F10108F5DC05E019F8010B5A460F9968
:104B90009047761C0899481E08900029F4DC641C94
:104BA000C5E600000928010030313233343536378C
:104BB0003839616263646566000000003031323369
:104BC0003435363738394142434445460000000009
:104BD0001A4910B58A69012809D002280DD0032886
:104BE00011D0042815D0052819D006281DD0012180
:104BF0001046FEF79BFF03201CE002211046FEF743
:104C000095FF042016E001211046FEF78FFF0520D6
:104C100010E002211046FEF789FF15200AE001216D
:104C20001046FEF783FF162004E004211046FEF72D
:104C30007DFF2E20BDE81040FFF7C4BAF800002029
:104C400010B5084B4A685C79A24203D05A71012022
:104C5000987110BD9A790AB1002010BDFDF76AFE67
:104C6000FAE700002D00002038B504468DF800005A
:104C70000223012269460248FDF724FD204638BD83
:104C8000380B002010B5002821D0114B0022001F46
:104C9000196803E0814203D80A4649680029F9D11E
:104CA00052B11368841A9C4204D100681844106001
:104CB000104602E0506000E0186039B102680B1A3B
:104CC000934203D10B681A4402604968416010BDE9
:104CD0004C000020FCF744FCFEF784FFFEF7D8FBF5
:104CE000FEF7C0FBFEF72AFCFEF71EFDFEF746FCB2
:104CF000FEF736FDFEF7AEFCFEF7E2FCFEF75EFCCB
:104D00004FF47A70FCF742F80A20FDF7A5FD164D26
:104D1000286000F095F91548FCF7E2FF1448FCF70D
:104D2000DFFF012213491448FDF774FC11490122E9
:104D30000A311248FDF76EFCFFF7F4F84FF4FA6001
:104D4000FCF724F80E4C00BFFFF79CFBFEF726FD96
:104D5000286800F04DF8A06AFBF7B7FC01B22068A4
:104D6000FEF70CFEF0E7000028000020640A002097
:104D7000AC0A002054090020F40A0020380B00205F
:104D8000F8000020F0B50B30154D20F0070100248D
:104D9000144A0FE003688B420BD38B4205D95E1A8D
:104DA00043184768C3E9006700E04368136002C026
:104DB00004E0021D10680028ECD12046002802D132
:104DC000286808B10020F0BD064A07481060074A6D
:104DD000121A22F00702C0E9002401202860D7E758
:104DE000500000204C000020C40B0020C00D00200B
:104DF0007CB50646FDF78CFD002518B1434845718A
:104E000085717CBD69463046FDF704FD0198404C34
:104E1000012817D0022825D0032839D0042861D0D2
:104E20000528EED169463046FFF70AFF0028E8D092
:104E3000206A8078062803D00621A069FEF776FE56
:104E40002B201EE069463046FFF7FAFE0028D8D036
:104E5000206A8078062803D00621A069FEF766FE46
:104E60002D200EE069463046FFF7EAFE0028C8D044
:104E7000206A8078062803D00621A069FEF756FE36
:104E80002C20FFF79FF9019880B2FFF75BFB7CBDF8
:104E900069463046FFF7D4FE0028F8D02F2028E0DE
:104EA000032909D004290DD005290BD0012100F0D8
:104EB0009BF800F017F90AE0032100F095F800F0E4
:104EC0009FF804E0052100F08FF800F0D1F9206A86
:104ED000C570206A80780628D9D00421A069FEF721
:104EE00025FE7CBD69463046FFF7AAFE0028F8D0B3
:104EF0003020FFF767F9019880B2FFF723FB206AA3
:104F000081780629EDD00229D6D0C9E72D000020EE
:104F1000F8000020012080F31388BFF34F8F05486D
:104F20000168054A01F4E06111430160BFF34F8F4E
:104F300000BFFDE70CED00E00400FA057CB5044677
:104F40004078A070207860701F480121006A00F04E
:104F50004BF80120E07000213E20FFF7F7FA1B4CD0
:104F60001B4D23E069462868FDF7E4FC0198012801
:104F700008D002280AD003280CD004280ED0052817
:104F800014D10FE0207800F0FE000EE0207800F051
:104F9000FD000AE0207800F0FB0006E0207800F039
:104FA000F70002E0207800F0EF0020702868FDF79D
:104FB000AFFC0028D6D007490020087006490870C9
:104FC0000320FFF7FFF87CBDF80000202C00002034
:104FD00028000020320000203300002001218170D1
:104FE00041700170C1707047082908D282788A42E6
:104FF00005D043780370427081700121C170704701
:1050000070B5064C0025A5622068FEF747FD01211A
:10501000A069FEF78BFDE069057070BDF800002007
:1050200010B5064C2068FEF739FD0221A069FEF795
:105030007DFDE1690120087010BD0000F80000202E
:1050400070B51D4C1B482062FFF7C8FF1B4820604D
:10505000FEF7FCFC1A486060FEF712FC00251A48B7
:1050600084F830501749C4E9021001221748FDF7AF
:1050700055FE02221648E168FDF750FE1649154814
:10508000C4E904010121FEF72DFD02216069FEF74C
:1050900029FD1248E061FEF703FF1148A061FEF709
:1050A0006EFD6562A562E56284F8315084F8325085
:1050B00070BD000011000020F8000020EC0000206E
:1050C000BC00002054000020880000206809002057
:1050D000BC0900200000002002000020100A00206F
:1050E0002200002010B5094C0020A0622068FEF7C5
:1050F000D5FC0121A069FEF719FDE069FEF7C9FEA4
:105100006068BDE81040FEF7BBBB0000F80000205F
:1051100010B5064C0020A0622068FEF7BFFCA06915
:10512000BDE810400021FEF701BD0000F80000209E
:1051300010B5114C0621206AFFF756FF216A0020A6
:10514000C870E1690870A0622068FEF773FC042152
:10515000A069FEF7EBFCE069FEF79BFE0749012022
:1051600008702E20FFF72EF82E20FFF72BF8BDE851
:1051700010402E20FFF726B8F80000201000002075
:105180001CB52F48006A81782D480129806909D013
:1051900002290CD003290FD0042912D0052915D0DB
:1051A000062918D00121FEF7C1FC032017E00221D7
:1051B000FEF7BCFC042012E00121FEF7B7FC05203D
:1051C0000DE00221FEF7B2FC152008E00121FEF7F8
:1051D000ADFC162003E00421FEF7A8FC2E20FEF70C
:1051E000F1FF1849002008701749087017486946F0
:1051F0000068FDF79FFB01991548012908D0022995
:105200000AD003290CD004290ED0052910D013E0B0
:10521000017801F0FE010EE0017801F0FD010AE0E5
:10522000017801F0FB0106E0017801F0F70102E0EE
:10523000017801F0EF0101700020FFF783F91CBD38
:10524000F800002032000020330000202800002059
:105250002C00002010B51420FEF7B4FF03480121F4
:10526000006ABDE81040FFF7BFBE0000F800002054
:1052700010B5074C0020A062E16908702068FEF7B5
:105280000DFCA069BDE810400121FEF74FBC0000F5
:10529000F800002010B5094C2068FEF7FFFB022142
:1052A000A069FEF743FCE16901200870E06901890B
:1052B000002901D1C188018110BD0000F800002043
:1052C0000E49086AC278012A17D10022C270086A02
:1052D0008078082811D2DFE800F0100406080A0CD4
:1052E000100EFFF7FFBEFFF79BBEFFF789BEFFF76B
:1052F000D1BFFFF7BDBFFFF70BBF7047F80000201D
:105300000000000000000000010203040607080975
:1053100000000000010203043853000800000020D0
:1053200054000000F04800088C530008540000208E
:105330006C1100000049000800000000000101009D
:10534000000000000000000000000000000000005D
:105350000000A55A058200000000000000000000C7
:10536000000000000000000000000000000000003D
:105370000100000010000000000000000024F40004
:0C53800000000000000000000000000021
:04000005080000ED02
:00000001FF
